{
  "contractName": "ContractForDaoTestsV1",
  "abi": [
    {
      "constant": true,
      "inputs": [],
      "name": "val",
      "outputs": [
        {
          "internalType": "uint256",
          "name": "",
          "type": "uint256"
        }
      ],
      "payable": false,
      "stateMutability": "view",
      "type": "function"
    },
    {
      "constant": false,
      "inputs": [
        {
          "internalType": "uint256",
          "name": "_val",
          "type": "uint256"
        }
      ],
      "name": "initialize",
      "outputs": [],
      "payable": false,
      "stateMutability": "nonpayable",
      "type": "function"
    },
    {
      "constant": true,
      "inputs": [],
      "name": "getValue",
      "outputs": [
        {
          "internalType": "uint256",
          "name": "",
          "type": "uint256"
        }
      ],
      "payable": false,
      "stateMutability": "view",
      "type": "function"
    }
  ],
  "bytecode": "0x608060405234801561001057600080fd5b506101a4806100206000396000f3fe608060405234801561001057600080fd5b50600436106100415760003560e01c806320965255146100465780633c6bb43614610060578063fe4b84df14610068575b600080fd5b61004e610087565b60408051918252519081900360200190f35b61004e61008d565b6100856004803603602081101561007e57600080fd5b5035610093565b005b60335490565b60335481565b600054610100900460ff16806100ac57506100ac61013b565b806100ba575060005460ff16155b6100f55760405162461bcd60e51b815260040180806020018281038252602e815260200180610142602e913960400191505060405180910390fd5b600054610100900460ff16158015610120576000805460ff1961ff0019909116610100171660011790555b60338290558015610137576000805461ff00191690555b5050565b303b159056fe436f6e747261637420696e7374616e63652068617320616c7265616479206265656e20696e697469616c697a6564a265627a7a72315820c92290aa3a3d089b7950a8d1d7abde5c5cb37aa59b0f735be5ece91ba0678c5b64736f6c634300050e0032",
  "source": "pragma solidity 0.5.14;\n\nimport \"@openzeppelin/upgrades/contracts/Initializable.sol\";\n\n\ncontract ContractForDaoTestsV1 is Initializable {\n\n    uint256 public val;\n\n    function initialize(uint256 _val) initializer public {\n        val = _val;\n    }\n    \n    function getValue() external view returns (uint256) {\n        return val;\n    }\n}",
  "sourcePath": "/home/kostysh/dev/dao/packages/contracts/contracts/test/ContractForDaoTestsV1.sol",
  "compiler": {
    "name": "solc",
    "version": "0.5.14+commit.01f1aaa4.Emscripten.clang"
  },
  "schemaVersion": "3.0.19",
  "updatedAt": "2019-12-20T22:34:41.925Z",
  "devdoc": {
    "methods": {}
  },
  "userdoc": {
    "methods": {}
  }
}