{
  "contractName": "ContractForDaoTestsV1",
  "abi": [
    {
      "anonymous": false,
      "inputs": [
        {
          "indexed": true,
          "internalType": "address",
          "name": "previousOwner",
          "type": "address"
        },
        {
          "indexed": true,
          "internalType": "address",
          "name": "newOwner",
          "type": "address"
        }
      ],
      "name": "OwnershipTransferred",
      "type": "event"
    },
    {
      "constant": true,
      "inputs": [],
      "name": "isOwner",
      "outputs": [
        {
          "internalType": "bool",
          "name": "",
          "type": "bool"
        }
      ],
      "payable": false,
      "stateMutability": "view",
      "type": "function"
    },
    {
      "constant": true,
      "inputs": [],
      "name": "owner",
      "outputs": [
        {
          "internalType": "address",
          "name": "",
          "type": "address"
        }
      ],
      "payable": false,
      "stateMutability": "view",
      "type": "function"
    },
    {
      "constant": false,
      "inputs": [],
      "name": "renounceOwnership",
      "outputs": [],
      "payable": false,
      "stateMutability": "nonpayable",
      "type": "function"
    },
    {
      "constant": false,
      "inputs": [
        {
          "internalType": "address",
          "name": "newOwner",
          "type": "address"
        }
      ],
      "name": "transferOwnership",
      "outputs": [],
      "payable": false,
      "stateMutability": "nonpayable",
      "type": "function"
    },
    {
      "constant": true,
      "inputs": [],
      "name": "val",
      "outputs": [
        {
          "internalType": "uint256",
          "name": "",
          "type": "uint256"
        }
      ],
      "payable": false,
      "stateMutability": "view",
      "type": "function"
    },
    {
      "constant": false,
      "inputs": [
        {
          "internalType": "uint256",
          "name": "_val",
          "type": "uint256"
        },
        {
          "internalType": "address",
          "name": "_manager",
          "type": "address"
        }
      ],
      "name": "initialize",
      "outputs": [],
      "payable": false,
      "stateMutability": "nonpayable",
      "type": "function"
    },
    {
      "constant": true,
      "inputs": [],
      "name": "getValue",
      "outputs": [
        {
          "internalType": "uint256",
          "name": "",
          "type": "uint256"
        }
      ],
      "payable": false,
      "stateMutability": "view",
      "type": "function"
    }
  ],
  "bytecode": "0x60806040526100156001600160e01b0361006616565b603380546001600160a01b0319166001600160a01b0392831617908190556040519116906000907f8be0079c531659141344cd1fd0a4f28419497f9722a3daafe3b4186f6b6457e0908290a361006a565b3390565b61046f806100796000396000f3fe608060405234801561001057600080fd5b506004361061007d5760003560e01c80638da5cb5b1161005b5780638da5cb5b146100ae5780638f32d59b146100d2578063da35a26f146100ee578063f2fde38b1461011a5761007d565b806320965255146100825780633c6bb4361461009c578063715018a6146100a4575b600080fd5b61008a610140565b60408051918252519081900360200190f35b61008a610146565b6100ac61014c565b005b6100b66101ef565b604080516001600160a01b039092168252519081900360200190f35b6100da6101fe565b604080519115158252519081900360200190f35b6100ac6004803603604081101561010457600080fd5b50803590602001356001600160a01b0316610224565b6100ac6004803603602081101561013057600080fd5b50356001600160a01b03166102d6565b60345490565b60345481565b6101546101fe565b6101a5576040805162461bcd60e51b815260206004820181905260248201527f4f776e61626c653a2063616c6c6572206973206e6f7420746865206f776e6572604482015290519081900360640190fd5b6033546040516000916001600160a01b0316907f8be0079c531659141344cd1fd0a4f28419497f9722a3daafe3b4186f6b6457e0908390a3603380546001600160a01b0319169055565b6033546001600160a01b031690565b6033546000906001600160a01b031661021561033b565b6001600160a01b031614905090565b600054610100900460ff168061023d575061023d61033f565b8061024b575060005460ff16155b6102865760405162461bcd60e51b815260040180806020018281038252602e81526020018061040d602e913960400191505060405180910390fd5b600054610100900460ff161580156102b1576000805460ff1961ff0019909116610100171660011790555b60348390556102bf82610345565b80156102d1576000805461ff00191690555b505050565b6102de6101fe565b61032f576040805162461bcd60e51b815260206004820181905260248201527f4f776e61626c653a2063616c6c6572206973206e6f7420746865206f776e6572604482015290519081900360640190fd5b61033881610345565b50565b3390565b303b1590565b6001600160a01b03811661038a5760405162461bcd60e51b81526004018080602001828103825260268152602001806103e76026913960400191505060405180910390fd5b6033546040516001600160a01b038084169216907f8be0079c531659141344cd1fd0a4f28419497f9722a3daafe3b4186f6b6457e090600090a3603380546001600160a01b0319166001600160a01b039290921691909117905556fe4f776e61626c653a206e6577206f776e657220697320746865207a65726f2061646472657373436f6e747261637420696e7374616e63652068617320616c7265616479206265656e20696e697469616c697a6564a265627a7a72315820ed6148cf22d0b2d74a03e29066e013228b89980ebda1033df3159e8cce52a2d764736f6c634300050e0032",
  "source": "pragma solidity 0.5.14;\n\nimport \"@openzeppelin/upgrades/contracts/Initializable.sol\";\nimport \"openzeppelin-solidity/contracts/ownership/Ownable.sol\";\n\n\ncontract ContractForDaoTestsV1 is Initializable, Ownable {\n\n    uint256 public val;\n\n    function initialize(\n        uint256 _val, \n        address _manager\n    ) initializer public {\n        val = _val;\n        _transferOwnership(_manager);\n    }\n    \n    function getValue() external view returns (uint256) {\n        return val;\n    }\n}",
  "sourcePath": "/home/kostysh/dev/wtdao/packages/contracts/contracts/test/ContractForDaoTestsV1.sol",
  "compiler": {
    "name": "solc",
    "version": "0.5.14+commit.01f1aaa4.Emscripten.clang"
  },
  "schemaVersion": "3.0.20",
  "updatedAt": "2019-12-28T14:05:45.492Z",
  "devdoc": {
    "methods": {
      "isOwner()": {
        "details": "Returns true if the caller is the current owner."
      },
      "owner()": {
        "details": "Returns the address of the current owner."
      },
      "renounceOwnership()": {
        "details": "Leaves the contract without owner. It will not be possible to call `onlyOwner` functions anymore. Can only be called by the current owner.     * NOTE: Renouncing ownership will leave the contract without an owner, thereby removing any functionality that is only available to the owner."
      },
      "transferOwnership(address)": {
        "details": "Transfers ownership of the contract to a new account (`newOwner`). Can only be called by the current owner."
      }
    }
  },
  "userdoc": {
    "methods": {}
  }
}