{
  "contractName": "ContractForDaoTestsV1",
  "abi": [
    {
      "anonymous": false,
      "inputs": [
        {
          "indexed": true,
          "internalType": "address",
          "name": "previousOwner",
          "type": "address"
        },
        {
          "indexed": true,
          "internalType": "address",
          "name": "newOwner",
          "type": "address"
        }
      ],
      "name": "OwnershipTransferred",
      "type": "event"
    },
    {
      "constant": true,
      "inputs": [],
      "name": "isOwner",
      "outputs": [
        {
          "internalType": "bool",
          "name": "",
          "type": "bool"
        }
      ],
      "payable": false,
      "stateMutability": "view",
      "type": "function"
    },
    {
      "constant": true,
      "inputs": [],
      "name": "owner",
      "outputs": [
        {
          "internalType": "address",
          "name": "",
          "type": "address"
        }
      ],
      "payable": false,
      "stateMutability": "view",
      "type": "function"
    },
    {
      "constant": false,
      "inputs": [],
      "name": "renounceOwnership",
      "outputs": [],
      "payable": false,
      "stateMutability": "nonpayable",
      "type": "function"
    },
    {
      "constant": false,
      "inputs": [
        {
          "internalType": "address",
          "name": "newOwner",
          "type": "address"
        }
      ],
      "name": "transferOwnership",
      "outputs": [],
      "payable": false,
      "stateMutability": "nonpayable",
      "type": "function"
    },
    {
      "constant": false,
      "inputs": [],
      "name": "initialize",
      "outputs": [],
      "payable": false,
      "stateMutability": "nonpayable",
      "type": "function"
    },
    {
      "constant": true,
      "inputs": [],
      "name": "value",
      "outputs": [
        {
          "internalType": "uint256",
          "name": "",
          "type": "uint256"
        }
      ],
      "payable": false,
      "stateMutability": "pure",
      "type": "function"
    }
  ],
  "bytecode": "0x60806040526100156001600160e01b0361006616565b603380546001600160a01b0319166001600160a01b0392831617908190556040519116906000907f8be0079c531659141344cd1fd0a4f28419497f9722a3daafe3b4186f6b6457e0908290a361006a565b3390565b61040e806100796000396000f3fe608060405234801561001057600080fd5b50600436106100625760003560e01c80633fa4f24514610067578063715018a6146100815780638129fc1c1461008b5780638da5cb5b146100935780638f32d59b146100b7578063f2fde38b146100d3575b600080fd5b61006f6100f9565b60408051918252519081900360200190f35b6100896100fe565b005b6100896101a1565b61009b610243565b604080516001600160a01b039092168252519081900360200190f35b6100bf610252565b604080519115158252519081900360200190f35b610089600480360360208110156100e957600080fd5b50356001600160a01b0316610278565b600590565b610106610252565b610157576040805162461bcd60e51b815260206004820181905260248201527f4f776e61626c653a2063616c6c6572206973206e6f7420746865206f776e6572604482015290519081900360640190fd5b6033546040516000916001600160a01b0316907f8be0079c531659141344cd1fd0a4f28419497f9722a3daafe3b4186f6b6457e0908390a3603380546001600160a01b0319169055565b600054610100900460ff16806101ba57506101ba6102da565b806101c8575060005460ff16155b6102035760405162461bcd60e51b815260040180806020018281038252602e8152602001806103ac602e913960400191505060405180910390fd5b600054610100900460ff1615801561022e576000805460ff1961ff0019909116610100171660011790555b8015610240576000805461ff00191690555b50565b6033546001600160a01b031690565b6033546000906001600160a01b03166102696102e0565b6001600160a01b031614905090565b610280610252565b6102d1576040805162461bcd60e51b815260206004820181905260248201527f4f776e61626c653a2063616c6c6572206973206e6f7420746865206f776e6572604482015290519081900360640190fd5b610240816102e4565b303b1590565b3390565b6001600160a01b0381166103295760405162461bcd60e51b81526004018080602001828103825260268152602001806103866026913960400191505060405180910390fd5b6033546040516001600160a01b038084169216907f8be0079c531659141344cd1fd0a4f28419497f9722a3daafe3b4186f6b6457e090600090a3603380546001600160a01b0319166001600160a01b039290921691909117905556fe4f776e61626c653a206e6577206f776e657220697320746865207a65726f2061646472657373436f6e747261637420696e7374616e63652068617320616c7265616479206265656e20696e697469616c697a6564a265627a7a7231582084ad5bc638a8d147068d056b84ca2137fa999b37d2c6d2962e4261abd22a31f164736f6c634300050e0032",
  "source": "pragma solidity 0.5.14;\n\nimport \"@openzeppelin/upgrades/contracts/Initializable.sol\";\nimport \"openzeppelin-solidity/contracts/ownership/Ownable.sol\";\n\n\ncontract ContractForDaoTestsV1 is Initializable, Ownable {\n\n    function initialize() initializer public { }\n    \n    function value() external pure returns (uint256) {\n        return 5;\n    }\n}",
  "sourcePath": "/home/kostysh/dev/dao/packages/contracts/contracts/test/ContractForDaoTestsV1.sol",
  "compiler": {
    "name": "solc",
    "version": "0.5.14+commit.01f1aaa4.Emscripten.clang"
  },
  "schemaVersion": "3.0.19",
  "updatedAt": "2019-12-18T01:29:36.715Z",
  "devdoc": {
    "methods": {
      "isOwner()": {
        "details": "Returns true if the caller is the current owner."
      },
      "owner()": {
        "details": "Returns the address of the current owner."
      },
      "renounceOwnership()": {
        "details": "Leaves the contract without owner. It will not be possible to call `onlyOwner` functions anymore. Can only be called by the current owner.     * NOTE: Renouncing ownership will leave the contract without an owner, thereby removing any functionality that is only available to the owner."
      },
      "transferOwnership(address)": {
        "details": "Transfers ownership of the contract to a new account (`newOwner`). Can only be called by the current owner."
      }
    }
  },
  "userdoc": {
    "methods": {}
  }
}