{
  "contractName": "Dao",
  "abi": [
    {
      "anonymous": false,
      "inputs": [
        {
          "indexed": false,
          "internalType": "address",
          "name": "account",
          "type": "address"
        }
      ],
      "name": "Paused",
      "type": "event"
    },
    {
      "anonymous": false,
      "inputs": [
        {
          "indexed": true,
          "internalType": "address",
          "name": "account",
          "type": "address"
        }
      ],
      "name": "PauserAdded",
      "type": "event"
    },
    {
      "anonymous": false,
      "inputs": [
        {
          "indexed": true,
          "internalType": "address",
          "name": "account",
          "type": "address"
        }
      ],
      "name": "PauserRemoved",
      "type": "event"
    },
    {
      "anonymous": false,
      "inputs": [
        {
          "indexed": false,
          "internalType": "address",
          "name": "proposer",
          "type": "address"
        },
        {
          "indexed": false,
          "internalType": "uint256",
          "name": "proposalId",
          "type": "uint256"
        }
      ],
      "name": "ProposalAdded",
      "type": "event"
    },
    {
      "anonymous": false,
      "inputs": [
        {
          "indexed": false,
          "internalType": "uint256",
          "name": "proposalId",
          "type": "uint256"
        }
      ],
      "name": "ProposalCancelled",
      "type": "event"
    },
    {
      "anonymous": false,
      "inputs": [
        {
          "indexed": false,
          "internalType": "uint256",
          "name": "proposalId",
          "type": "uint256"
        },
        {
          "indexed": false,
          "internalType": "bool",
          "name": "passed",
          "type": "bool"
        }
      ],
      "name": "ProposalProcessed",
      "type": "event"
    },
    {
      "anonymous": false,
      "inputs": [
        {
          "indexed": false,
          "internalType": "address",
          "name": "voter",
          "type": "address"
        },
        {
          "indexed": false,
          "internalType": "uint256",
          "name": "value",
          "type": "uint256"
        }
      ],
      "name": "TokensLocked",
      "type": "event"
    },
    {
      "anonymous": false,
      "inputs": [
        {
          "indexed": false,
          "internalType": "address",
          "name": "voter",
          "type": "address"
        },
        {
          "indexed": false,
          "internalType": "uint256",
          "name": "value",
          "type": "uint256"
        }
      ],
      "name": "TokensReleased",
      "type": "event"
    },
    {
      "anonymous": false,
      "inputs": [
        {
          "indexed": false,
          "internalType": "uint256",
          "name": "proposalId",
          "type": "uint256"
        }
      ],
      "name": "TransactionFailed",
      "type": "event"
    },
    {
      "anonymous": false,
      "inputs": [
        {
          "indexed": false,
          "internalType": "uint256",
          "name": "proposalId",
          "type": "uint256"
        }
      ],
      "name": "TransactionSuccessed",
      "type": "event"
    },
    {
      "anonymous": false,
      "inputs": [
        {
          "indexed": false,
          "internalType": "address",
          "name": "account",
          "type": "address"
        }
      ],
      "name": "Unpaused",
      "type": "event"
    },
    {
      "anonymous": false,
      "inputs": [
        {
          "indexed": false,
          "internalType": "uint256",
          "name": "proposalId",
          "type": "uint256"
        },
        {
          "indexed": false,
          "internalType": "enum Dao.VoteType",
          "name": "voteType",
          "type": "uint8"
        },
        {
          "indexed": false,
          "internalType": "address",
          "name": "voter",
          "type": "address"
        },
        {
          "indexed": false,
          "internalType": "uint256",
          "name": "votes",
          "type": "uint256"
        },
        {
          "indexed": false,
          "internalType": "uint256",
          "name": "votesAccepted",
          "type": "uint256"
        }
      ],
      "name": "VoteAdded",
      "type": "event"
    },
    {
      "anonymous": false,
      "inputs": [
        {
          "indexed": false,
          "internalType": "uint256",
          "name": "proposalId",
          "type": "uint256"
        },
        {
          "indexed": false,
          "internalType": "enum Dao.VoteType",
          "name": "voteType",
          "type": "uint8"
        },
        {
          "indexed": false,
          "internalType": "address",
          "name": "voter",
          "type": "address"
        },
        {
          "indexed": false,
          "internalType": "uint256",
          "name": "votes",
          "type": "uint256"
        }
      ],
      "name": "VoteRevoked",
      "type": "event"
    },
    {
      "anonymous": false,
      "inputs": [
        {
          "indexed": true,
          "internalType": "address",
          "name": "account",
          "type": "address"
        }
      ],
      "name": "WhitelistAdminAdded",
      "type": "event"
    },
    {
      "anonymous": false,
      "inputs": [
        {
          "indexed": true,
          "internalType": "address",
          "name": "account",
          "type": "address"
        }
      ],
      "name": "WhitelistAdminRemoved",
      "type": "event"
    },
    {
      "anonymous": false,
      "inputs": [
        {
          "indexed": true,
          "internalType": "address",
          "name": "account",
          "type": "address"
        }
      ],
      "name": "WhitelistedAdded",
      "type": "event"
    },
    {
      "anonymous": false,
      "inputs": [
        {
          "indexed": true,
          "internalType": "address",
          "name": "account",
          "type": "address"
        }
      ],
      "name": "WhitelistedRemoved",
      "type": "event"
    },
    {
      "constant": false,
      "inputs": [
        {
          "internalType": "address",
          "name": "account",
          "type": "address"
        }
      ],
      "name": "addPauser",
      "outputs": [],
      "payable": false,
      "stateMutability": "nonpayable",
      "type": "function"
    },
    {
      "constant": false,
      "inputs": [
        {
          "internalType": "address",
          "name": "account",
          "type": "address"
        }
      ],
      "name": "addWhitelistAdmin",
      "outputs": [],
      "payable": false,
      "stateMutability": "nonpayable",
      "type": "function"
    },
    {
      "constant": false,
      "inputs": [
        {
          "internalType": "address",
          "name": "account",
          "type": "address"
        }
      ],
      "name": "addWhitelisted",
      "outputs": [],
      "payable": false,
      "stateMutability": "nonpayable",
      "type": "function"
    },
    {
      "constant": true,
      "inputs": [
        {
          "internalType": "address",
          "name": "account",
          "type": "address"
        }
      ],
      "name": "isPauser",
      "outputs": [
        {
          "internalType": "bool",
          "name": "",
          "type": "bool"
        }
      ],
      "payable": false,
      "stateMutability": "view",
      "type": "function"
    },
    {
      "constant": true,
      "inputs": [
        {
          "internalType": "address",
          "name": "account",
          "type": "address"
        }
      ],
      "name": "isWhitelistAdmin",
      "outputs": [
        {
          "internalType": "bool",
          "name": "",
          "type": "bool"
        }
      ],
      "payable": false,
      "stateMutability": "view",
      "type": "function"
    },
    {
      "constant": true,
      "inputs": [
        {
          "internalType": "address",
          "name": "account",
          "type": "address"
        }
      ],
      "name": "isWhitelisted",
      "outputs": [
        {
          "internalType": "bool",
          "name": "",
          "type": "bool"
        }
      ],
      "payable": false,
      "stateMutability": "view",
      "type": "function"
    },
    {
      "constant": false,
      "inputs": [],
      "name": "pause",
      "outputs": [],
      "payable": false,
      "stateMutability": "nonpayable",
      "type": "function"
    },
    {
      "constant": true,
      "inputs": [],
      "name": "paused",
      "outputs": [
        {
          "internalType": "bool",
          "name": "",
          "type": "bool"
        }
      ],
      "payable": false,
      "stateMutability": "view",
      "type": "function"
    },
    {
      "constant": true,
      "inputs": [],
      "name": "proposalCount",
      "outputs": [
        {
          "internalType": "uint256",
          "name": "",
          "type": "uint256"
        }
      ],
      "payable": false,
      "stateMutability": "view",
      "type": "function"
    },
    {
      "constant": false,
      "inputs": [
        {
          "internalType": "address",
          "name": "account",
          "type": "address"
        }
      ],
      "name": "removeWhitelisted",
      "outputs": [],
      "payable": false,
      "stateMutability": "nonpayable",
      "type": "function"
    },
    {
      "constant": false,
      "inputs": [],
      "name": "renouncePauser",
      "outputs": [],
      "payable": false,
      "stateMutability": "nonpayable",
      "type": "function"
    },
    {
      "constant": false,
      "inputs": [],
      "name": "renounceWhitelistAdmin",
      "outputs": [],
      "payable": false,
      "stateMutability": "nonpayable",
      "type": "function"
    },
    {
      "constant": false,
      "inputs": [],
      "name": "renounceWhitelisted",
      "outputs": [],
      "payable": false,
      "stateMutability": "nonpayable",
      "type": "function"
    },
    {
      "constant": true,
      "inputs": [],
      "name": "serviceToken",
      "outputs": [
        {
          "internalType": "contract IERC20",
          "name": "",
          "type": "address"
        }
      ],
      "payable": false,
      "stateMutability": "view",
      "type": "function"
    },
    {
      "constant": false,
      "inputs": [],
      "name": "unpause",
      "outputs": [],
      "payable": false,
      "stateMutability": "nonpayable",
      "type": "function"
    },
    {
      "constant": false,
      "inputs": [
        {
          "internalType": "address",
          "name": "token",
          "type": "address"
        }
      ],
      "name": "initialize",
      "outputs": [],
      "payable": false,
      "stateMutability": "nonpayable",
      "type": "function"
    },
    {
      "constant": false,
      "inputs": [
        {
          "internalType": "string",
          "name": "details",
          "type": "string"
        },
        {
          "internalType": "enum Dao.ProposalType",
          "name": "proposalType",
          "type": "uint8"
        },
        {
          "internalType": "uint256",
          "name": "duration",
          "type": "uint256"
        },
        {
          "internalType": "address",
          "name": "destination",
          "type": "address"
        },
        {
          "internalType": "uint256",
          "name": "value",
          "type": "uint256"
        },
        {
          "internalType": "bytes",
          "name": "data",
          "type": "bytes"
        }
      ],
      "name": "addProposal",
      "outputs": [],
      "payable": true,
      "stateMutability": "payable",
      "type": "function"
    },
    {
      "constant": false,
      "inputs": [
        {
          "internalType": "uint256",
          "name": "proposalId",
          "type": "uint256"
        }
      ],
      "name": "cancelProposal",
      "outputs": [],
      "payable": false,
      "stateMutability": "nonpayable",
      "type": "function"
    },
    {
      "constant": false,
      "inputs": [
        {
          "internalType": "uint256",
          "name": "proposalId",
          "type": "uint256"
        },
        {
          "internalType": "enum Dao.VoteType",
          "name": "voteType",
          "type": "uint8"
        },
        {
          "internalType": "uint256",
          "name": "votes",
          "type": "uint256"
        }
      ],
      "name": "vote",
      "outputs": [],
      "payable": false,
      "stateMutability": "nonpayable",
      "type": "function"
    },
    {
      "constant": false,
      "inputs": [
        {
          "internalType": "uint256",
          "name": "proposalId",
          "type": "uint256"
        }
      ],
      "name": "revokeVote",
      "outputs": [],
      "payable": false,
      "stateMutability": "nonpayable",
      "type": "function"
    },
    {
      "constant": false,
      "inputs": [
        {
          "internalType": "uint256",
          "name": "proposalId",
          "type": "uint256"
        }
      ],
      "name": "processProposal",
      "outputs": [],
      "payable": false,
      "stateMutability": "nonpayable",
      "type": "function"
    },
    {
      "constant": true,
      "inputs": [],
      "name": "tokensBalance",
      "outputs": [
        {
          "internalType": "uint256",
          "name": "",
          "type": "uint256"
        }
      ],
      "payable": false,
      "stateMutability": "view",
      "type": "function"
    },
    {
      "constant": false,
      "inputs": [
        {
          "internalType": "uint256",
          "name": "proposalId",
          "type": "uint256"
        }
      ],
      "name": "withdrawTokens",
      "outputs": [],
      "payable": false,
      "stateMutability": "nonpayable",
      "type": "function"
    },
    {
      "constant": true,
      "inputs": [
        {
          "internalType": "uint256",
          "name": "proposalId",
          "type": "uint256"
        }
      ],
      "name": "getProposal",
      "outputs": [
        {
          "internalType": "string",
          "name": "details",
          "type": "string"
        },
        {
          "internalType": "enum Dao.ProposalType",
          "name": "proposalType",
          "type": "uint8"
        },
        {
          "internalType": "uint256",
          "name": "duration",
          "type": "uint256"
        },
        {
          "internalType": "uint256",
          "name": "end",
          "type": "uint256"
        },
        {
          "internalType": "bool[3]",
          "name": "flags",
          "type": "bool[3]"
        },
        {
          "internalType": "address",
          "name": "txDestination",
          "type": "address"
        },
        {
          "internalType": "uint256",
          "name": "txValue",
          "type": "uint256"
        },
        {
          "internalType": "bytes",
          "name": "txData",
          "type": "bytes"
        },
        {
          "internalType": "bool",
          "name": "txExecuted",
          "type": "bool"
        },
        {
          "internalType": "bool",
          "name": "txSuccess",
          "type": "bool"
        }
      ],
      "payable": false,
      "stateMutability": "view",
      "type": "function"
    },
    {
      "constant": true,
      "inputs": [
        {
          "internalType": "uint256",
          "name": "proposalId",
          "type": "uint256"
        }
      ],
      "name": "getVote",
      "outputs": [
        {
          "internalType": "enum Dao.VoteType",
          "name": "voteType",
          "type": "uint8"
        },
        {
          "internalType": "uint256",
          "name": "valueOriginal",
          "type": "uint256"
        },
        {
          "internalType": "uint256",
          "name": "valueAccepted",
          "type": "uint256"
        },
        {
          "internalType": "bool",
          "name": "revoked",
          "type": "bool"
        }
      ],
      "payable": false,
      "stateMutability": "view",
      "type": "function"
    },
    {
      "constant": true,
      "inputs": [],
      "name": "getActiveProposalsIds",
      "outputs": [
        {
          "internalType": "uint256[]",
          "name": "",
          "type": "uint256[]"
        }
      ],
      "payable": false,
      "stateMutability": "view",
      "type": "function"
    },
    {
      "constant": true,
      "inputs": [
        {
          "internalType": "enum Dao.ProposalType",
          "name": "proposalType",
          "type": "uint8"
        }
      ],
      "name": "getActiveProposalsIds",
      "outputs": [
        {
          "internalType": "uint256[]",
          "name": "",
          "type": "uint256[]"
        }
      ],
      "payable": false,
      "stateMutability": "view",
      "type": "function"
    },
    {
      "constant": false,
      "inputs": [
        {
          "internalType": "address",
          "name": "account",
          "type": "address"
        }
      ],
      "name": "replacePauser",
      "outputs": [],
      "payable": false,
      "stateMutability": "nonpayable",
      "type": "function"
    },
    {
      "constant": false,
      "inputs": [
        {
          "internalType": "address",
          "name": "account",
          "type": "address"
        }
      ],
      "name": "replaceWhitelistAdmin",
      "outputs": [],
      "payable": false,
      "stateMutability": "nonpayable",
      "type": "function"
    },
    {
      "constant": true,
      "inputs": [
        {
          "internalType": "uint256",
          "name": "proposalId",
          "type": "uint256"
        }
      ],
      "name": "votingResult",
      "outputs": [
        {
          "internalType": "uint256",
          "name": "yes",
          "type": "uint256"
        },
        {
          "internalType": "uint256",
          "name": "no",
          "type": "uint256"
        }
      ],
      "payable": false,
      "stateMutability": "view",
      "type": "function"
    },
    {
      "constant": true,
      "inputs": [
        {
          "internalType": "uint256",
          "name": "proposalId",
          "type": "uint256"
        }
      ],
      "name": "isVotingPassed",
      "outputs": [
        {
          "internalType": "bool",
          "name": "",
          "type": "bool"
        }
      ],
      "payable": false,
      "stateMutability": "view",
      "type": "function"
    },
    {
      "constant": true,
      "inputs": [],
      "name": "activeProposalsCount",
      "outputs": [
        {
          "internalType": "uint256",
          "name": "",
          "type": "uint256"
        }
      ],
      "payable": false,
      "stateMutability": "view",
      "type": "function"
    }
  ],
  "bytecode": "0x60806040526200002a6200001b6001600160e01b036200006516565b6001600160e01b036200006916565b6034805460ff191690556200005a6200004b6001600160e01b036200006516565b6001600160e01b03620000bb16565b600160375562000203565b3390565b620000848160336200010d60201b62002e741790919060201c565b6040516001600160a01b038216907f6719d08c1888103bea251a4ed56406bd0c3e69723c8a1686e017e7bbe159b6f890600090a250565b620000d68160356200010d60201b62002e741790919060201c565b6040516001600160a01b038216907f22380c05984257a1cb900161c713dd71d39e74820f1aea43bd3f1bdd2096129990600090a250565b6200012282826001600160e01b036200019a16565b1562000175576040805162461bcd60e51b815260206004820152601f60248201527f526f6c65733a206163636f756e7420616c72656164792068617320726f6c6500604482015290519081900360640190fd5b6001600160a01b0316600090815260209190915260409020805460ff19166001179055565b60006001600160a01b038216620001e35760405162461bcd60e51b8152600401808060200182810382526022815260200180620037316022913960400191505060405180910390fd5b506001600160a01b03166000908152602091909152604090205460ff1690565b61351e80620002136000396000f3fe6080604052600436106101e35760003560e01c80637c2466ff11610102578063c7f758a811610095578063e0a8f6f511610064578063e0a8f6f5146108fa578063e520251a14610924578063e63bc62d1461095d578063f73a8b4a14610987576101e3565b8063c7f758a81461072e578063c8032a84146108bb578063d6cd9473146108d0578063da35c664146108e5576101e3565b806386583746116100d15780638658374614610664578063b769296814610697578063bb5f747b146106c8578063c4d66de8146106fb576101e3565b80637c2466ff146105235780637e9b8f801461060757806382dc1ec41461061c5780638456cb591461064f576101e3565b80634c5a628c1161017a57806361d140511161014957806361d140511461046e5780636a96bab4146104b15780636ef8d66d146104db5780637362d9c8146104f0576101e3565b80634c5a628c146103635780635a55c1f0146103785780635c975abb146103dc57806361301afa146103f1576101e3565b8063315a095d116101b6578063315a095d146102aa5780633af32abf146102d45780633f4ba83a1461031b57806346fbf68e14610330576101e3565b806310154bad146101e857806319819ff51461021d5780632116c34714610250578063291d954914610277575b600080fd5b3480156101f457600080fd5b5061021b6004803603602081101561020b57600080fd5b50356001600160a01b03166109b1565b005b34801561022957600080fd5b5061021b6004803603602081101561024057600080fd5b50356001600160a01b0316610a08565b34801561025c57600080fd5b50610265610a60565b60408051918252519081900360200190f35b34801561028357600080fd5b5061021b6004803603602081101561029a57600080fd5b50356001600160a01b0316610b17565b3480156102b657600080fd5b5061021b600480360360208110156102cd57600080fd5b5035610b66565b3480156102e057600080fd5b50610307600480360360208110156102f757600080fd5b50356001600160a01b0316610c33565b604080519115158252519081900360200190f35b34801561032757600080fd5b5061021b610c4c565b34801561033c57600080fd5b506103076004803603602081101561035357600080fd5b50356001600160a01b0316610d35565b34801561036f57600080fd5b5061021b610d48565b34801561038457600080fd5b506103a26004803603602081101561039b57600080fd5b5035610d5a565b604051808560018111156103b257fe5b60ff1681526020810194909452506040808401929092521515606083015251908190036080019150f35b3480156103e857600080fd5b50610307610e69565b3480156103fd57600080fd5b5061041e6004803603602081101561041457600080fd5b503560ff16610e72565b60408051602080825283518183015283519192839290830191858101910280838360005b8381101561045a578181015183820152602001610442565b505050509050019250505060405180910390f35b34801561047a57600080fd5b506104986004803603602081101561049157600080fd5b5035610e78565b6040805192835260208301919091528051918290030190f35b3480156104bd57600080fd5b50610307600480360360208110156104d457600080fd5b5035610ff4565b3480156104e757600080fd5b5061021b6110e0565b3480156104fc57600080fd5b5061021b6004803603602081101561051357600080fd5b50356001600160a01b03166110f0565b61021b600480360360c081101561053957600080fd5b81019060208101813564010000000081111561055457600080fd5b82018360208201111561056657600080fd5b8035906020019184600183028401116401000000008311171561058857600080fd5b9193909260ff833516926020810135926001600160a01b036040830135169260608301359260a0810190608001356401000000008111156105c857600080fd5b8201836020820111156105da57600080fd5b803590602001918460018302840111640100000000831117156105fc57600080fd5b50909250905061113f565b34801561061357600080fd5b5061041e611511565b34801561062857600080fd5b5061021b6004803603602081101561063f57600080fd5b50356001600160a01b031661160b565b34801561065b57600080fd5b5061021b61165a565b34801561067057600080fd5b5061021b6004803603602081101561068757600080fd5b50356001600160a01b0316611721565b3480156106a357600080fd5b506106ac611779565b604080516001600160a01b039092168252519081900360200190f35b3480156106d457600080fd5b50610307600480360360208110156106eb57600080fd5b50356001600160a01b0316611788565b34801561070757600080fd5b5061021b6004803603602081101561071e57600080fd5b50356001600160a01b031661179b565b34801561073a57600080fd5b506107586004803603602081101561075157600080fd5b503561186f565b60405180806020018b600181111561076c57fe5b60ff1681526020018a815260200189815260200188600360200280838360005b838110156107a457818101518382015260200161078c565b50505050905001876001600160a01b03166001600160a01b0316815260200186815260200180602001851515151581526020018415151515815260200183810383528d818151815260200191508051906020019080838360005b838110156108165781810151838201526020016107fe565b50505050905090810190601f1680156108435780820380516001836020036101000a031916815260200191505b50838103825286518152865160209182019188019080838360005b8381101561087657818101518382015260200161085e565b50505050905090810190601f1680156108a35780820380516001836020036101000a031916815260200191505b509c5050505050505050505050505060405180910390f35b3480156108c757600080fd5b50610265611ad4565b3480156108dc57600080fd5b5061021b611ad9565b3480156108f157600080fd5b50610265611ae9565b34801561090657600080fd5b5061021b6004803603602081101561091d57600080fd5b5035611aef565b34801561093057600080fd5b5061021b6004803603606081101561094757600080fd5b5080359060ff6020820135169060400135611d8c565b34801561096957600080fd5b5061021b6004803603602081101561098057600080fd5b5035612460565b34801561099357600080fd5b5061021b600480360360208110156109aa57600080fd5b5035612864565b6109c16109bc612a96565b611788565b6109fc5760405162461bcd60e51b81526004018080602001828103825260408152602001806134466040913960400191505060405180910390fd5b610a0581612a9a565b50565b610a136109bc612a96565b610a4e5760405162461bcd60e51b81526004018080602001828103825260408152602001806134466040913960400191505060405180910390fd5b610a5781612ae2565b610a0533612b2a565b600080805b603954811015610b10576000818152603a602052604090206009015460ff16158015610aa857506000818152603a6020526040902060090154610100900460ff16155b8015610acc57506000818152603a602052604090206009015462010000900460ff16155b8015610aef57506000818152603a6020526040902060080154610aed612b72565b105b15610b0857610b0582600163ffffffff612b7616565b91505b600101610a65565b5090505b90565b610b226109bc612a96565b610b5d5760405162461bcd60e51b81526004018080602001828103825260408152602001806134466040913960400191505060405180910390fd5b610a0581612bd7565b60378054600101908190556000828152603a60205260409020600801548290610b8d612b72565b1015610bd8576040805162461bcd60e51b8152602060048201526015602482015274141493d413d4d05317d393d517d192539254d21151605a1b604482015290519081900360640190fd5b506037548114610c2f576040805162461bcd60e51b815260206004820152601f60248201527f5265656e7472616e637947756172643a207265656e7472616e742063616c6c00604482015290519081900360640190fd5b5050565b6000610c4660368363ffffffff612c1f16565b92915050565b610c5c610c57612a96565b610d35565b610c975760405162461bcd60e51b81526004018080602001828103825260308152602001806133846030913960400191505060405180910390fd5b60345460ff16610ce5576040805162461bcd60e51b815260206004820152601460248201527314185d5cd8589b194e881b9bdd081c185d5cd95960621b604482015290519081900360640190fd5b6034805460ff191690557f5db9ee0a495bf2e6ff9c91a7834c1ba4fdd244a5e8aa4e537bd38aeae4b073aa610d18612a96565b604080516001600160a01b039092168252519081900360200190a1565b6000610c4660338363ffffffff612c1f16565b610d58610d53612a96565b612b2a565b565b6000818152603a60205260408120600701548190819081908590610dba576040805162461bcd60e51b8152602060048201526012602482015271141493d413d4d05317d393d517d193d5539160721b604482015290519081900360640190fd5b6000868152603b60209081526040808320338452600101909152902054869060ff16610e1e576040805162461bcd60e51b815260206004820152600e60248201526d1593d51157d393d517d193d5539160921b604482015290519081900360640190fd5b50505060009384525050603b602090815260408084203385528083528185205485526002908101909252909220805460018201549382015460039092015460ff918216959293501690565b60345460ff1690565b50606090565b6000818152603a602052604081206007015481908390610ed4576040805162461bcd60e51b8152602060048201526012602482015271141493d413d4d05317d393d517d193d5539160721b604482015290519081900360640190fd5b60005b6000858152603b6020526040902060030154811015610fed576000858152603b6020908152604080832084845260020190915290206003015460ff16610fe5576000858152603b6020908152604080832084845260020190915281205460ff166001811115610f4257fe5b1415610f7d576000858152603b6020908152604080832084845260029081019092529091200154610f7a90859063ffffffff612b7616565b93505b60016000868152603b6020908152604080832085845260020190915290205460ff166001811115610faa57fe5b1415610fe5576000858152603b6020908152604080832084845260029081019092529091200154610fe290849063ffffffff612b7616565b92505b600101610ed7565b5050915091565b6000818152603a6020526040812060070154829061104e576040805162461bcd60e51b8152602060048201526012602482015271141493d413d4d05317d393d517d193d5539160721b604482015290519081900360640190fd5b6000838152603a602052604090206009015460ff161561107157600191506110da565b6000838152603a602052604090206009015462010000900460ff161561109a57600091506110da565b6000838152603a60205260409020600801546110b4612b72565b10156110c357600091506110da565b6000806110cf85610e78565b1093506110da915050565b50919050565b610d586110eb612a96565b612c86565b6110fb6109bc612a96565b6111365760405162461bcd60e51b81526004018080602001828103825260408152602001806134466040913960400191505060405180910390fd5b610a0581612ae2565b61114f61114a612a96565b610c33565b61118a5760405162461bcd60e51b815260040180806020018281038252603a815260200180613486603a913960400191505060405180910390fd5b60345460ff16156111d5576040805162461bcd60e51b815260206004820152601060248201526f14185d5cd8589b194e881c185d5cd95960821b604482015290519081900360640190fd5b6111de86612cce565b506001600160a01b038416611230576040805162461bcd60e51b815260206004820152601360248201527224a72b20a624a22fa222a9aa24a720aa24a7a760691b604482015290519081900360640190fd5b82158061124857506000831180156112485750823410155b611299576040805162461bcd60e51b815260206004820152601860248201527f494e53554646494349454e545f45544845525f56414c55450000000000000000604482015290519081900360640190fd5b60395460408051338152602081019290925280517f294a8b64183582a911805b3a31b11b3c4d20c7431578897c6abcc35aae886d5e9281900390910190a16112df613221565b6040518060e00160405280336001600160a01b031681526020018a8a8080601f01602080910402602001604051908101604052809392919081815260200183838082843760009201919091525050509082525060200188600181111561134157fe5b81526020016040518060a00160405280886001600160a01b0316815260200187815260200186868080601f01602080910402602001604051908101604052809392919081815260200183838082843760009201829052509385525050506020808301829052604092830191909152918352908201899052016113e36113cf896201518063ffffffff612cdc16565b6113d7612b72565b9063ffffffff612b7616565b815260209081018390526039546000908152603a825260409020825181546001600160a01b0319166001600160a01b0390911617815582820151805191926114339260018501929091019061323f565b50604082015160028201805460ff19166001838181111561145057fe5b0217905550606082015180516003830180546001600160a01b0319166001600160a01b0390921691909117815560208083015160048501556040830151805161149f926005870192019061323f565b5060608201516003918201805460809485015115156101000261ff001993151560ff19909216919091179290921691909117905590830151600783015560a0830151600883015560c08301516114fa916009840191906132bd565b505060398054600101905550505050505050505050565b60608061151c610a60565b604051908082528060200260200182016040528015611545578160200160208202803883390190505b5090506000805b603954811015611603576000818152603a602052604090206009015460ff1615801561158f57506000818152603a6020526040902060090154610100900460ff16155b80156115b357506000818152603a602052604090206009015462010000900460ff16155b80156115d657506000818152603a60205260409020600801546115d4612b72565b105b156115fb57808383815181106115e857fe5b6020026020010181815250506001820191505b60010161154c565b509091505090565b611616610c57612a96565b6116515760405162461bcd60e51b81526004018080602001828103825260308152602001806133846030913960400191505060405180910390fd5b610a0581612d35565b611665610c57612a96565b6116a05760405162461bcd60e51b81526004018080602001828103825260308152602001806133846030913960400191505060405180910390fd5b60345460ff16156116eb576040805162461bcd60e51b815260206004820152601060248201526f14185d5cd8589b194e881c185d5cd95960821b604482015290519081900360640190fd5b6034805460ff191660011790557f62e78cea01bee320cd4e420270b5ea74000d11b0c9f74754ebdbfc544b05a258610d18612a96565b61172c610c57612a96565b6117675760405162461bcd60e51b81526004018080602001828103825260308152602001806133846030913960400191505060405180910390fd5b61177081612d35565b610a0533612c86565b6038546001600160a01b031681565b6000610c4660358363ffffffff612c1f16565b600054610100900460ff16806117b457506117b4612d7d565b806117c2575060005460ff16155b6117fd5760405162461bcd60e51b815260040180806020018281038252602e815260200180613418602e913960400191505060405180910390fd5b600054610100900460ff16158015611828576000805460ff1961ff0019909116610100171660011790555b603880546001600160a01b0319166001600160a01b038416179055600060395561185133612d35565b61185a33612ae2565b8015610c2f576000805461ff00191690555050565b6060600080600061187e613221565b6000868152603a60205260408120600701548190606090829081908b906118e1576040805162461bcd60e51b8152602060048201526012602482015271141493d413d4d05317d393d517d193d5539160721b604482015290519081900360640190fd5b60008c8152603a6020908152604091829020600180820180548551600293821615610100026000190190911692909204601f8101859004850283018501909552848252919390928301828280156119795780601f1061194e57610100808354040283529160200191611979565b820191906000526020600020905b81548152906001019060200180831161195c57829003601f168201915b50505050509b508060020160009054906101000a900460ff169a508060070154995080600801549850806009016003806020026040519081016040528092919082600380156119fd576020028201916000905b825461010083900a900460ff1615158152602060019283018181049485019490930390920291018084116119cc5790505b505050506003830154600484015460058501805460408051602060026101006001861615026000190190941693909304601f8101849004840282018401909252818152969e506001600160a01b039094169c50919a509250830182828015611aa65780601f10611a7b57610100808354040283529160200191611aa6565b820191906000526020600020905b815481529060010190602001808311611a8957829003601f168201915b5050506006909301549d9f9c9e509a9c999b989a509698959760ff8088169761010090041695509350505050565b600090565b610d58611ae4612a96565b612bd7565b60395481565b6000818152603a60205260409020600701548190611b49576040805162461bcd60e51b8152602060048201526012602482015271141493d413d4d05317d393d517d193d5539160721b604482015290519081900360640190fd5b6000828152603a602052604090205482906001600160a01b03163314611ba7576040805162461bcd60e51b815260206004820152600e60248201526d2727aa2fa0afa82927a827a9a2a960911b604482015290519081900360640190fd5b6000838152603a6020526040902060090154839060ff1615611c02576040805162461bcd60e51b815260206004820152600f60248201526e141493d413d4d05317d41054d4d151608a1b604482015290519081900360640190fd5b6000848152603a60205260409020600901548490610100900460ff1615611c65576040805162461bcd60e51b8152602060048201526012602482015271141493d413d4d05317d41493d0d154d4d15160721b604482015290519081900360640190fd5b6000858152603a6020526040902060090154859062010000900460ff1615611cc9576040805162461bcd60e51b8152602060048201526012602482015271141493d413d4d05317d0d05390d15313115160721b604482015290519081900360640190fd5b600080611cd588610e78565b91509150816000148015611ce7575080155b611d2d576040805162461bcd60e51b815260206004820152601260248201527150524f504f53414c5f4841535f564f54455360701b604482015290519081900360640190fd5b6000888152603a6020908152604091829020600901805462ff000019166201000017905581518a815291517f416e669c63d9a3a5e36ee7cc7e2104b8db28ccd286aa18966e98fa230c73b08c9281900390910190a15050505050505050565b60345460ff1615611dd7576040805162461bcd60e51b815260206004820152601060248201526f14185d5cd8589b194e881c185d5cd95960821b604482015290519081900360640190fd5b60378054600101908190556000848152603a60205260409020600701548490611e3c576040805162461bcd60e51b8152602060048201526012602482015271141493d413d4d05317d393d517d193d5539160721b604482015290519081900360640190fd5b6000858152603a6020526040902060090154859060ff1615611e97576040805162461bcd60e51b815260206004820152600f60248201526e141493d413d4d05317d41054d4d151608a1b604482015290519081900360640190fd5b6000868152603a6020526040902060090154869062010000900460ff1615611efb576040805162461bcd60e51b8152602060048201526012602482015271141493d413d4d05317d0d05390d15313115160721b604482015290519081900360640190fd5b6000878152603a60205260409020600801548790611f17612b72565b10611f5d576040805162461bcd60e51b8152602060048201526011602482015270141493d413d4d05317d192539254d21151607a1b604482015290519081900360640190fd5b603854604080516370a0823160e01b8152336004820152905188926001600160a01b0316916370a08231916024808301926020929190829003018186803b158015611fa757600080fd5b505afa158015611fbb573d6000803e3d6000fd5b505050506040513d6020811015611fd157600080fd5b50511015612026576040805162461bcd60e51b815260206004820152601b60248201527f494e53554646494349454e545f544f4b454e535f42414c414e43450000000000604482015290519081900360640190fd5b60385460408051636eb1769f60e11b8152336004820152306024820152905188926001600160a01b03169163dd62ed3e916044808301926020929190829003018186803b15801561207657600080fd5b505afa15801561208a573d6000803e3d6000fd5b505050506040513d60208110156120a057600080fd5b505110156120f5576040805162461bcd60e51b815260206004820152601d60248201527f494e53554646494349454e545f544f4b454e535f414c4c4f57414e4345000000604482015290519081900360640190fd5b6000888152603b60209081526040808320338452600101909152812054879190819060ff16612262575060008a8152603b602090815260408083206003810154338552925290912081905561214983612d83565b915060405180608001604052808b600181111561216257fe5b815260208082018690526040808301869052600060609093018390528e8352603b8252808320858452600201909152902081518154829060ff1916600183818111156121aa57fe5b0217905550602082015181600101556040820151816002015560608201518160030160006101000a81548160ff0219169083151502179055509050506001603b60008d81526020019081526020016000206001016000336001600160a01b03166001600160a01b0316815260200190815260200160002060006101000a81548160ff0219169083151502179055506001603b60008d815260200190815260200160002060030160008282540192505081905550612386565b5060008a8152603b60209081526040808320338452808352818420548085526002909101909252909120600381015460ff16156122b55760038101805460ff191690556122ae84612d83565b925061235c565b60018101546122ca908b63ffffffff612b7616565b93506122d584612d83565b92507f940ff8122c3cdbdc4a4aa871d42fdf13e863866d63ab2ea9fc0af542894daff48c8260000160009054906101000a900460ff163384600101546040518085815260200184600181111561232757fe5b60ff168152602001836001600160a01b03166001600160a01b0316815260200182815260200194505050505060405180910390a15b80548b90829060ff19166001838181111561237357fe5b0217905550600181018490556002018290555b7f615fd00d334fb9ec9d221e8191b07961008426504d05e916a5e961a64d3a21b18b8b338686604051808681526020018560018111156123c257fe5b60ff1681526001600160a01b039094166020850152506040808401929092526060830152519081900360800192509050a16123fd338a612d8e565b50505050505050603754811461245a576040805162461bcd60e51b815260206004820152601f60248201527f5265656e7472616e637947756172643a207265656e7472616e742063616c6c00604482015290519081900360640190fd5b50505050565b60345460ff16156124ab576040805162461bcd60e51b815260206004820152601060248201526f14185d5cd8589b194e881c185d5cd95960821b604482015290519081900360640190fd5b6000818152603a60205260409020600701548190612505576040805162461bcd60e51b8152602060048201526012602482015271141493d413d4d05317d393d517d193d5539160721b604482015290519081900360640190fd5b6000828152603a602052604090205482906001600160a01b03163314612563576040805162461bcd60e51b815260206004820152600e60248201526d2727aa2fa0afa82927a827a9a2a960911b604482015290519081900360640190fd5b6000838152603a60205260409020600901548390610100900460ff16156125c6576040805162461bcd60e51b8152602060048201526012602482015271141493d413d4d05317d41493d0d154d4d15160721b604482015290519081900360640190fd5b6000848152603a6020526040902060090154849062010000900460ff161561262a576040805162461bcd60e51b8152602060048201526012602482015271141493d413d4d05317d0d05390d15313115160721b604482015290519081900360640190fd5b6000858152603a60205260409020600801548590612646612b72565b1015612691576040805162461bcd60e51b8152602060048201526015602482015274141493d413d4d05317d393d517d192539254d21151605a1b604482015290519081900360640190fd5b6000868152603a6020526040812060098101805461ff001916610100179055906126ba88610ff4565b604080518a8152821515602082015281519293507fcc8b74c10cae169918eab7cf3272b0a540854b8a4d12281590885d07fed34f6e929081900390910190a1801561285a5760098201805460ff1916600190811790915560038301546004840154600585018054604080516020600260001998851615610100029890980190931696909604601f81018390048302870183019091528086526000956127c4956001600160a01b0316949390929091908301828280156127ba5780601f1061278f576101008083540402835291602001916127ba565b820191906000526020600020905b81548152906001019060200180831161279d57829003601f168201915b5050505050612df4565b60068401805460ff19166001179055905080156128245760068301805461ff001916610100179055604080518a815290517ff25d1eb843be2601e5db773f59cb25699ae9d3df1b9254508313091fce8933659181900360200190a1612858565b604080518a815290517fe23a6a9556cd21c6bb855e17fd21d654c8e203ac086373ee44eddea75167a19d9181900360200190a15b505b5050505050505050565b6000818152603a602052604090206007015481906128be576040805162461bcd60e51b8152602060048201526012602482015271141493d413d4d05317d393d517d193d5539160721b604482015290519081900360640190fd5b6000828152603a6020526040902060090154829060ff1615612919576040805162461bcd60e51b815260206004820152600f60248201526e141493d413d4d05317d41054d4d151608a1b604482015290519081900360640190fd5b6000838152603a6020526040902060090154839062010000900460ff161561297d576040805162461bcd60e51b8152602060048201526012602482015271141493d413d4d05317d0d05390d15313115160721b604482015290519081900360640190fd5b6000848152603b602090815260408083203384528083528184205484526002019091529020600381015460ff16156129eb576040805162461bcd60e51b815260206004820152600c60248201526b1593d51157d4915593d2d15160a21b604482015290519081900360640190fd5b60038101805460ff19166001908117909155810154612a0b903390612e0f565b7f940ff8122c3cdbdc4a4aa871d42fdf13e863866d63ab2ea9fc0af542894daff4858260000160009054906101000a900460ff1633846001015460405180858152602001846001811115612a5b57fe5b60ff168152602001836001600160a01b03166001600160a01b0316815260200182815260200194505050505060405180910390a15050505050565b3390565b612aab60368263ffffffff612e7416565b6040516001600160a01b038216907fee1504a83b6d4a361f4c1dc78ab59bfa30d6a3b6612c403e86bb01ef2984295f90600090a250565b612af360358263ffffffff612e7416565b6040516001600160a01b038216907f22380c05984257a1cb900161c713dd71d39e74820f1aea43bd3f1bdd2096129990600090a250565b612b3b60358263ffffffff612ef516565b6040516001600160a01b038216907f0a8eb35e5ca14b3d6f28e4abf2f128dbab231a58b56e89beb5d636115001e16590600090a250565b4290565b600082820183811015612bd0576040805162461bcd60e51b815260206004820152601b60248201527f536166654d6174683a206164646974696f6e206f766572666c6f770000000000604482015290519081900360640190fd5b9392505050565b612be860368263ffffffff612ef516565b6040516001600160a01b038216907f270d9b30cf5b0793bbfd54c9d5b94aeb49462b8148399000265144a8722da6b690600090a250565b60006001600160a01b038216612c665760405162461bcd60e51b81526004018080602001828103825260228152602001806133f66022913960400191505060405180910390fd5b506001600160a01b03166000908152602091909152604090205460ff1690565b612c9760338263ffffffff612ef516565b6040516001600160a01b038216907fcd265ebaf09df2871cc7bd4133404a235ba12eff2041bb89d9c714a2621c7c7e90600090a250565b6000816001811115610c4657fe5b600082612ceb57506000610c46565b82820282848281612cf857fe5b0414612bd05760405162461bcd60e51b81526004018080602001828103825260218152602001806133d56021913960400191505060405180910390fd5b612d4660338263ffffffff612e7416565b6040516001600160a01b038216907f6719d08c1888103bea251a4ed56406bd0c3e69723c8a1686e017e7bbe159b6f890600090a250565b303b1590565b6000610c4682612f5c565b603854612dac906001600160a01b031683308463ffffffff612f7c16565b604080516001600160a01b03841681526020810183905281517fac87f20a77d28ee8bbb58ec87ea8fa968b3393efae1a368fd50b767c2847391c929181900390910190a15050565b600080600083516020850186886187965a03f1949350505050565b603854612e2c906001600160a01b0316838363ffffffff612fd616565b604080516001600160a01b03841681526020810183905281517fc7798891864187665ac6dd119286e44ec13f014527aeeb2b8eb3fd413df93179929181900390910190a15050565b612e7e8282612c1f565b15612ed0576040805162461bcd60e51b815260206004820152601f60248201527f526f6c65733a206163636f756e7420616c72656164792068617320726f6c6500604482015290519081900360640190fd5b6001600160a01b0316600090815260209190915260409020805460ff19166001179055565b612eff8282612c1f565b612f3a5760405162461bcd60e51b81526004018080602001828103825260218152602001806133b46021913960400191505060405180910390fd5b6001600160a01b0316600090815260209190915260409020805460ff19169055565b80600260018201045b818110156110da5790506002818304820104612f65565b604080516001600160a01b0385811660248301528416604482015260648082018490528251808303909101815260849091019091526020810180516001600160e01b03166323b872dd60e01b17905261245a90859061302d565b604080516001600160a01b038416602482015260448082018490528251808303909101815260649091019091526020810180516001600160e01b031663a9059cbb60e01b17905261302890849061302d565b505050565b61303f826001600160a01b03166131e5565b613090576040805162461bcd60e51b815260206004820152601f60248201527f5361666545524332303a2063616c6c20746f206e6f6e2d636f6e747261637400604482015290519081900360640190fd5b60006060836001600160a01b0316836040518082805190602001908083835b602083106130ce5780518252601f1990920191602091820191016130af565b6001836020036101000a0380198251168184511680821785525050505050509050019150506000604051808303816000865af19150503d8060008114613130576040519150601f19603f3d011682016040523d82523d6000602084013e613135565b606091505b50915091508161318c576040805162461bcd60e51b815260206004820181905260248201527f5361666545524332303a206c6f772d6c6576656c2063616c6c206661696c6564604482015290519081900360640190fd5b80511561245a578080602001905160208110156131a857600080fd5b505161245a5760405162461bcd60e51b815260040180806020018281038252602a8152602001806134c0602a913960400191505060405180910390fd5b6000813f7fc5d2460186f7233c927e7db2dcc703c0e500b653ca82273b7bfad8045d85a47081158015906132195750808214155b949350505050565b60405180606001604052806003906020820280388339509192915050565b828054600181600116156101000203166002900490600052602060002090601f016020900481019282601f1061328057805160ff19168380011785556132ad565b828001600101855582156132ad579182015b828111156132ad578251825591602001919060010190613292565b506132b992915061334b565b5090565b60018301918390821561333f5791602002820160005b8382111561331057835183826101000a81548160ff02191690831515021790555092602001926001016020816000010492830192600103026132d3565b801561333d5782816101000a81549060ff0219169055600101602081600001049283019260010302613310565b505b506132b9929150613365565b610b1491905b808211156132b95760008155600101613351565b610b1491905b808211156132b957805460ff1916815560010161336b56fe506175736572526f6c653a2063616c6c657220646f6573206e6f742068617665207468652050617573657220726f6c65526f6c65733a206163636f756e7420646f6573206e6f74206861766520726f6c65536166654d6174683a206d756c7469706c69636174696f6e206f766572666c6f77526f6c65733a206163636f756e7420697320746865207a65726f2061646472657373436f6e747261637420696e7374616e63652068617320616c7265616479206265656e20696e697469616c697a656457686974656c69737441646d696e526f6c653a2063616c6c657220646f6573206e6f742068617665207468652057686974656c69737441646d696e20726f6c6557686974656c6973746564526f6c653a2063616c6c657220646f6573206e6f742068617665207468652057686974656c697374656420726f6c655361666545524332303a204552433230206f7065726174696f6e20646964206e6f742073756363656564a265627a7a72315820c35b049469a848677e3fb065959b631ba3779692f33a32d407b4eea95f6f725264736f6c634300050e0032526f6c65733a206163636f756e7420697320746865207a65726f2061646472657373",
  "source": "pragma solidity 0.5.14;\n\nimport \"@openzeppelin/upgrades/contracts/Initializable.sol\";\nimport \"openzeppelin-solidity/contracts/lifecycle/Pausable.sol\";\nimport \"openzeppelin-solidity/contracts/access/roles/WhitelistedRole.sol\";\nimport \"openzeppelin-solidity/contracts/utils/ReentrancyGuard.sol\";\nimport \"openzeppelin-solidity/contracts/token/ERC20/IERC20.sol\";\nimport \"openzeppelin-solidity/contracts/token/ERC20/SafeERC20.sol\";\nimport \"openzeppelin-solidity/contracts/math/SafeMath.sol\";\nimport \"./libraries/VotingLib.sol\";\n\n\n/**\n * @title Universal DAO for projects based on Openzeppelin SDK\n * @dev This contract holds main DAO logic and storages\n * @author Kostiantyn Smyrnov <kostysh@gmail.com>\n */\ncontract Dao is Initializable, Pausable, WhitelistedRole, ReentrancyGuard {\n\n    using SafeMath for uint256;\n    using SafeERC20 for IERC20;\n\n    /**\n     * @dev List of acceptable proposal types\n     * Usefull for filtering purposes\n     */\n    enum ProposalType {\n        ContractUpgrade,\n        MethodCall\n    }\n\n    /**\n     * @dev Acceptable vote types\n     */\n    enum VoteType {\n        Yes,\n        No\n    }\n\n    /**\n     * @dev Proposal transaction\n     * @param destination Transaction target address\n     * @param value Ethers value to send with transaction\n     * @param data Signed transaction data\n     * @param executed Transaction execution flag\n     * @param failed Transaction execution result\n     */\n    struct Transaction {\n        address destination;\n        uint256 value;\n        bytes data;\n        bool executed;\n        bool success;\n    }\n\n    /**\n     * @dev Proposal structure\n     * @param proposer Proposer address\n     * @param details Proposal description. Can be text|IPFS Hash|Url|Etc\n     * @param proposalType Proposal type\n     * @param transaction Transaction storage\n     * @param duration Proposal duration in days\n     * @param end Proposal voting end date\n     * @param flags Proposal state flags [passed, processed, cancelled]\n     */\n    struct Proposal {\n        address proposer;\n        string details;\n        ProposalType proposalType;\n        Transaction transaction;\n        uint256 duration;\n        uint256 end;\n        bool[3] flags;\n    }\n\n    /**\n     * @dev Vote structure\n     * @param voteType Type of the vote\n     * @param valueOriginal Original vote value (not converted)\n     * @param valueAccepted Accepted vote value (converted)\n     * @param revoked Revoked flag\n     */\n    struct Vote {\n        VoteType voteType;\n        uint256 valueOriginal;\n        uint256 valueAccepted;\n        bool revoked;\n    }\n\n    /**\n     * @dev Voting structure\n     * @param ids List of the voters votes Ids (indexes)\n     * @param voted List voted voters\n     * @param votes List of votes\n     * @param votesCount Votes counter\n     */\n    struct Voting {\n        mapping (address => uint256) ids;// voterAddress => voteId\n        mapping (address => bool) voted;// voterAddress => bool\n        mapping (uint256 => Vote) votes;// voteId => Vote\n        uint256 votesCount;\n    }\n\n    /**\n     * @dev This event will be emitted when proposal has been added\n     * @param proposer Proposer address\n     * @param proposalId Proposal Id\n     */\n    event ProposalAdded(\n        address proposer,\n        uint256 proposalId\n    );\n\n    /**\n     * @dev This event will be emitted when proposal has been cancelled\n     * @param proposalId Proposal Id\n     */\n    event ProposalCancelled(uint256 proposalId);\n\n    /**\n     * @dev This event will be emitted when Vote is accepted\n     * @param proposalId Proposal Id\n     * @param voteType Type of the vote\n     * @param voter Voter address\n     * @param votes Original votes sent\n     * @param votesAccepted Accepted votes amount\n     */\n    event VoteAdded(\n        uint256 proposalId,\n        VoteType voteType,\n        address voter,\n        uint256 votes,\n        uint256 votesAccepted\n    );\n\n    /**\n     * @dev This event will be emitted when existed Vote is revoked\n     * @param proposalId Proposal Id\n     * @param voteType Type of the vote\n     * @param voter Voter address\n     * @param votes Original votes revoked\n     */\n    event VoteRevoked(\n        uint256 proposalId,\n        VoteType voteType,\n        address voter,\n        uint256 votes\n    );\n\n    /**\n     * @dev This event will be emitted when service tokens are locked\n     * @param voter Voter address\n     * @param value Locked tokens amount\n     */\n    event TokensLocked(\n        address voter,\n        uint256 value\n    );\n\n    /**\n     * @dev This event will be emitted when service tokens are released\n     * @param voter Voter address\n     * @param value Released tokens amount\n     */\n    event TokensReleased(\n        address voter,\n        uint256 value\n    );\n\n    /**\n     * @dev This event will be emitted when proposal moved to processed state\n     * @param proposalId Proposal Id\n     * @param passed Voting result\n     */\n    event ProposalProcessed(\n        uint256 proposalId,\n        bool passed\n    );\n\n    /**\n     * @dev This event will be emitted when sent proposal transaction has succeeded\n     * @param proposalId Proposal Id\n     */\n    event TransactionSuccessed(uint256 proposalId);\n\n    /**\n     * @dev This event will be emitted when sent proposal transaction has failed\n     * @param proposalId Proposal Id\n     */\n    event TransactionFailed(uint256 proposalId);\n\n\n    /// @dev Token that using in voting process\n    IERC20 public serviceToken;\n\n    /// @dev Number of proposals\n    uint256 public proposalCount;\n    \n    /// @dev Proposals storage\n    mapping (uint256 => Proposal) internal proposals;// proposalId => Proposal\n\n    /// @dev Proposals votings \n    mapping (uint256 => Voting) internal votings;// proposalId => Voting\n\n\n    /**\n     * @dev This modifier allows function execution if proposal exist only\n     * @param proposalId Proposal Id\n     */\n    modifier proposalExists(uint256 proposalId) {\n        require(proposals[proposalId].duration != 0, \"PROPOSAL_NOT_FOUND\");\n        _;\n    }\n    \n    /**\n     * @dev This modifier allows function execution for the proposer only\n     * @param proposalId Proposal Id\n     */\n    modifier onlyProposer(uint256 proposalId) {\n        require(msg.sender == proposals[proposalId].proposer, \"NOT_A_PROPOSER\");\n        _;\n    }\n\n    /**\n     * @dev This modifier allows function execution if proposal has not passed flag\n     * @param proposalId Proposal Id\n     */\n    modifier notPassed(uint256 proposalId) {\n        require(!proposals[proposalId].flags[0], \"PROPOSAL_PASSED\");\n        _;\n    }\n\n    /**\n     * @dev This modifier allows function execution if proposal has not processed flag\n     * @param proposalId Proposal Id\n     */\n    modifier notProcessed(uint256 proposalId) {\n        require(!proposals[proposalId].flags[1], \"PROPOSAL_PROCESSED\");\n        _;\n    }\n\n    /**\n     * @dev This modifier allows function execution if proposal has not cancelled flag\n     * @param proposalId Proposal Id\n     */\n    modifier notCancelled(uint256 proposalId) {\n        require(!proposals[proposalId].flags[2], \"PROPOSAL_CANCELLED\");\n        _;\n    }\n\n    /**\n     * @dev This modifier allows function execution if proposal not finished\n     * @param proposalId Proposal Id\n     */\n    modifier notFinished(uint256 proposalId) {\n        require(time() < proposals[proposalId].end, \"PROPOSAL_FINISHED\");\n        _;\n    }\n\n    /**\n     * @dev This modifier allows function execution if proposal finished only\n     * @param proposalId Proposal Id\n     */\n    modifier onlyFinished(uint256 proposalId) {\n        require(time() >= proposals[proposalId].end, \"PROPOSAL_NOT_FINISHED\");\n        _;\n    }\n\n    /**\n     * @dev This modifier allows function execution if sender already voted for proposal\n     * @param proposalId Proposal Id\n     */\n    modifier voteExists(uint256 proposalId) {\n        require(votings[proposalId].voted[msg.sender], \"VOTE_NOT_FOUND\");\n        _;\n    }\n\n    /**\n     * @dev Contract initializer\n     * @param token Address of the service token\n     */\n    function initialize(address token) external initializer {\n        serviceToken = IERC20(token);\n        proposalCount = 0;\n\n        // Add proxy owner PuserRole\n        _addPauser(msg.sender);\n\n        // Add proxy owner WhitelistAdminRole\n        _addWhitelistAdmin(msg.sender);\n    }\n\n    /**\n     * @dev Add new proposal\n     *\n     * Requirements:\n     *  - sender address should be whitelisted\n     *  - contract should not be in paused state\n     *  - proposal type should allowed proposalType\n     *  - destination address should not be a valid target address\n     *  - sent ether value should be consistent with value parameter\n     * \n     * @param details Proposal details\n     * @param proposalType Proposal type\n     * @param duration Proposal voting duration in days\n     * @param destination Transaction target address\n     * @param value Transaction value in ethers\n     * @param data Signed transaction data\n     */\n    function addProposal(\n        string calldata details,\n        ProposalType proposalType,\n        uint256 duration,\n        address destination,\n        uint256 value,\n        bytes calldata data\n    ) external payable onlyWhitelisted whenNotPaused {\n        assertProposalType(proposalType);// Throws an Invalid opcode if proposalType not valid\n        // @todo Add conditions and test for proposal `duration` (s.l. min and max value)\n        require(destination != address(0), \"INVALID_DESTINATION\");\n        require(value == 0 || (value > 0 && msg.value >= value), \"INSUFFICIENT_ETHER_VALUE\");\n        // @todo Add Condition to avoid proposal queue maximum length (uint256 restriction)\n\n        emit ProposalAdded(msg.sender, proposalCount);\n\n        bool[3] memory flags;\n        proposals[proposalCount] = Proposal(\n            msg.sender,\n            details,\n            proposalType,\n            Transaction(\n                destination,\n                value,\n                data,\n                false,\n                false\n            ),\n            duration,\n            time().add(duration.mul(86400)),\n            flags\n        );\n        \n        proposalCount += 1;\n    }\n\n    /**\n     * @dev Cancelling of the proposal\n     *\n     * Requirements:\n     *  - proposal should exists\n     *  - sender address should be a proposer address\n     *  - proposal should not be in a passed state\n     *  - proposal should not be in a processed state\n     *  - proposal should not be cancelled\n     *  - proposal has no votes\n     *\n     * @param proposalId Proposal Id\n     */\n    function cancelProposal(uint256 proposalId) \n        external \n        proposalExists(proposalId)\n        onlyProposer(proposalId)\n        notPassed(proposalId) \n        notProcessed(proposalId) \n        notCancelled(proposalId)\n    {\n        (uint256 yes, uint256 no) = votingResult(proposalId);\n        require(yes == 0 && no == 0, \"PROPOSAL_HAS_VOTES\");\n        proposals[proposalId].flags[2] = true;\n        emit ProposalCancelled(proposalId);\n    }\n\n    /**\n     * @dev Vote for the proposal\n     *\n     * Requirements:\n     *  - proposal should exists\n     *  - contract not paused\n     *  - not a reentrant call\n     *  - proposal should not be in a passed state\n     *  - proposal should not be cancelled\n     *  - sender tokens balance should be sufficient\n     *  - tokens allowance for the DAO address should be sufficient\n     *  - voting not expired (does not exceed voting time frame)\n     *\n     * @param proposalId Proposal Id\n     * @param voteType Type of the vote (Yes/No)\n     * @param votes Amount of service token to use in the vote\n     */\n    function vote(\n        uint256 proposalId,\n        VoteType voteType, \n        uint256 votes\n    ) \n        external \n        whenNotPaused\n        nonReentrant \n        proposalExists(proposalId)\n        notPassed(proposalId) \n        notCancelled(proposalId)\n        notFinished(proposalId)\n    {\n        require(serviceToken.balanceOf(msg.sender) >= votes, \"INSUFFICIENT_TOKENS_BALANCE\");\n        require(serviceToken.allowance(msg.sender, address(this)) >= votes, \"INSUFFICIENT_TOKENS_ALLOWANCE\");\n        \n        uint256 votesSent = votes;\n        uint256 votesAccepted;\n        uint256 voteId;\n        \n        if (!votings[proposalId].voted[msg.sender]) {\n            \n            // Create new Vote\n            voteId = votings[proposalId].votesCount;\n            votings[proposalId].ids[msg.sender] = voteId;\n            votesAccepted = convertVotes(votesSent);\n            votings[proposalId].votes[voteId] = Vote(\n                voteType,\n                votesSent,\n                votesAccepted,\n                false\n            );\n            votings[proposalId].voted[msg.sender] = true;\n\n            // Update votes counter\n            // @todo Add condition to avoid uint256 value restrictions\n            votings[proposalId].votesCount += 1;\n        } else {\n            \n            // Re-use existed Vote\n            voteId = votings[proposalId].ids[msg.sender];\n            Vote storage existedVote = votings[proposalId].votes[voteId];\n            \n            if (existedVote.revoked) {\n\n                // Enable revoked vote status\n                existedVote.revoked = false;\n                votesAccepted = convertVotes(votesSent);\n            } else {\n\n                // For now allowed adding new value only\n                // @todo Implement conditional update: if votesSent less then previous value then do partial withdraw\n                votesSent = existedVote.valueOriginal.add(votes);\n                votesAccepted = convertVotes(votesSent);\n\n                // Emitting this event for consistency\n                emit VoteRevoked(\n                    proposalId,\n                    existedVote.voteType,\n                    msg.sender,\n                    existedVote.valueOriginal\n                );\n            }\n\n            // Update existed Vote\n            existedVote.voteType = voteType;\n            existedVote.valueOriginal = votesSent;            \n            existedVote.valueAccepted = votesAccepted;\n        }\n\n        emit VoteAdded(\n            proposalId,\n            voteType,\n            msg.sender,\n            votesSent,\n            votesAccepted\n        );\n\n        // Transfer tokens to the DAO\n        lockTokens(msg.sender, votes);\n    }\n\n    /**\n     * @dev Revoke of the placed vote\n     *\n     * Requirements:\n     *  - proposal should exists\n     *  - proposal should not be in a passed state\n     *  - proposal should not be cancelled\n     *  - vote should not been already revoked\n     *\n     * @param proposalId Proposal Id\n     */\n    function revokeVote(uint256 proposalId) \n        external \n        proposalExists(proposalId)\n        notPassed(proposalId) \n        notCancelled(proposalId)\n    {\n        Vote storage existedVote = votings[proposalId]\n            .votes[votings[proposalId].ids[msg.sender]];\n\n        require(!existedVote.revoked, \"VOTE_REVOKED\");\n\n        // Exclude vote from the voting results\n        existedVote.revoked = true;\n\n        // Push tokens to the voter\n        releaseTokens(msg.sender, existedVote.valueOriginal);\n        \n        emit VoteRevoked(\n            proposalId,\n            existedVote.voteType,\n            msg.sender,\n            existedVote.valueOriginal\n        );\n    }\n\n    /**\n     * @dev Process proposal\n     *\n     * Requirements:\n     *  - proposal should exists\n     *  - contract not paused\n     *  - sender address should be a proposer address\n     *  - proposal should not be processed\n     *  - proposal should not be cancelled\n     *  - proposal is finished\n     *\n     * @param proposalId Proposal Id\n     */\n    function processProposal(uint256 proposalId) \n        external \n        whenNotPaused \n        proposalExists(proposalId)\n        onlyProposer(proposalId) \n        notProcessed(proposalId) \n        notCancelled(proposalId) \n        onlyFinished(proposalId)\n    {\n        Proposal storage proposal = proposals[proposalId];\n        proposal.flags[1] = true; // 'processed' state\n\n        bool isPassed = isVotingPassed(proposalId);\n        emit ProposalProcessed(proposalId, isPassed);\n\n        if (isPassed) {\n\n            proposal.flags[0] = true; // 'passed' state\n            \n            bool success = executeTransaction(\n                proposal.transaction.destination,\n                proposal.transaction.value,\n                proposal.transaction.data\n            );\n\n            proposal.transaction.executed = true;\n\n            if (success) {\n\n                proposal.transaction.success = true;\n                emit TransactionSuccessed(proposalId);\n            } else {\n\n                emit TransactionFailed(proposalId);\n            }\n        }\n    }\n\n    /**\n     * @dev Withdraw released tokens\n     * @return uint256 Balance of tokens that available to withdraw\n     */\n    function tokensBalance() external view returns (uint256) {}\n\n    /**\n     * @dev Withdraw released tokens\n     *\n     * Requirements:\n     *  - sender has positive released tokens balance\n     *  - call not reentrant\n     *\n     * @param proposalId Proposal Id\n     */\n    function withdrawTokens(uint256 proposalId) \n        external \n        nonReentrant \n        onlyFinished(proposalId)\n    {}\n\n    /**\n     * @dev Get proposal by Id (index)\n     *\n     * Requirements:\n     *  - proposal should exists \n     * \n     * @param proposalId Proposal Id\n     * @return string Proposal details\n     * @return ProposalType Proposal type\n     * @return uint256 Proposal duration in days\n     * @return uint256 Proposal end date\n     * @return bool[3] Proposal status flags\n     * @return address Transaction target address\n     * @return uint256 Ether value to send with transaction\n     * @return bytes Transaction data\n     * @return bool Transaction execution status\n     * @return bool Transaction execution result status\n     */\n    function getProposal(uint256 proposalId) \n        external \n        view \n        proposalExists(proposalId)\n        returns (\n            string memory details,\n            ProposalType proposalType,\n            uint256 duration,\n            uint256 end,\n            bool[3] memory flags,\n            address txDestination,\n            uint256 txValue,\n            bytes memory txData,\n            bool txExecuted,\n            bool txSuccess\n        ) \n    {\n        Proposal storage existedProposal = proposals[proposalId];\n        details = existedProposal.details;\n        proposalType = existedProposal.proposalType;\n        duration = existedProposal.duration;\n        end = existedProposal.end;\n        flags = existedProposal.flags;\n        txDestination = existedProposal.transaction.destination;\n        txValue = existedProposal.transaction.value;\n        txData = existedProposal.transaction.data;\n        txExecuted = existedProposal.transaction.executed;\n        txSuccess = existedProposal.transaction.success;\n    }\n\n    /**\n     * @dev Get own vote from proposal voting\n     * \n     * Requirements:\n     *  - proposal should exists\n     *  - vote should be exist\n     * \n     * @param proposalId Proposal Id\n     * @return VoteType Type of the vote\n     * @return uint256 Original vote value sent\n     * @return uint256 Acceptes vote value\n     * @return bool Reveked state of the vote\n     */\n    function getVote(uint256 proposalId) \n        external \n        view \n        proposalExists(proposalId)\n        voteExists(proposalId)\n        returns(\n            VoteType voteType,\n            uint256 valueOriginal,\n            uint256 valueAccepted,\n            bool revoked\n        ) \n    {\n        Vote storage senderVote = votings[proposalId]\n            .votes[votings[proposalId].ids[msg.sender]];\n        voteType = senderVote.voteType;\n        valueOriginal = senderVote.valueOriginal;\n        valueAccepted = senderVote.valueAccepted;\n        revoked = senderVote.revoked;\n    }\n\n    /**\n     * @dev Get all active proposals Ids\n     * @return uint256[] List of proposals Ids\n     */\n    function getActiveProposalsIds() \n        external \n        view \n        returns (uint256[] memory) \n    {\n        uint256[] memory ids = new uint256[](activeProposalsCount());\n        uint256 index;\n\n        for (uint256 i = 0; i < proposalCount; i++) {\n\n            if (!proposals[i].flags[0] && \n                !proposals[i].flags[1] &&\n                !proposals[i].flags[2] &&\n                time() < proposals[i].end) {\n                \n                ids[index] = i;\n                index += 1;\n            }\n        }\n\n        return ids;\n    }\n\n    /**\n     * @dev Get all active proposals Ids filtered by proposal type\n     *\n     * Requirements:\n     *  - proposal type should be valid \n     * \n     * @return uint256[] List of proposals Ids\n     */\n    function getActiveProposalsIds(ProposalType proposalType) external view returns (uint256[] memory) {}\n\n    /**\n     * @dev Replace pauser to the new one\n     * \n     * Requirements:\n     *  - sender address should be a pauser address\n     * \n     * @param account New DAO pauser address\n     */\n    function replacePauser(address account) external onlyPauser {\n        _addPauser(account);\n        _removePauser(msg.sender);\n    }\n\n    /**\n     * @dev Replace whitelist admin with new one\n     * \n     * Requirements:\n     *  - sender address should be a whitelisted admin address\n     * \n     * @param account New DAO whitelist admin address\n     */\n    function replaceWhitelistAdmin(address account) external onlyWhitelistAdmin {\n        _addWhitelistAdmin(account);\n        _removeWhitelistAdmin(msg.sender);\n    }\n\n    /**\n     * @dev Get a result of the proposal voting\n     *\n     * Requirements:\n     *  - proposal should exists\n     *\n     * @param proposalId Proposal Id\n     * @return uint256 'Yes' variant voting balance\n     * @return uint256 'No' variant voting balance\n     */\n    function votingResult(uint256 proposalId) \n        public \n        view \n        proposalExists(proposalId)\n        returns(\n            uint256 yes, \n            uint256 no\n        ) \n    {\n        \n        for (uint256 i = 0; i < votings[proposalId].votesCount; i++) {\n            \n            if (!votings[proposalId].votes[i].revoked) {\n\n                if (votings[proposalId].votes[i].voteType == VoteType.Yes) {\n                    yes = yes.add(votings[proposalId].votes[i].valueAccepted);\n                }\n\n                if (votings[proposalId].votes[i].voteType == VoteType.No) {\n                    no = no.add(votings[proposalId].votes[i].valueAccepted);\n                }\n            }\n        }\n    }\n\n    /**\n     * @dev Check is voting is passed \n     *\n     * Requirements:\n     *  - proposal should exists\n     *\n     * @param proposalId Proposal Id\n     * @return uint256 Voting result\n     */\n    function isVotingPassed(uint256 proposalId) \n        public \n        view \n        proposalExists(proposalId)\n        returns(bool) \n    {\n        \n        if (proposals[proposalId].flags[0]) {\n            // We already know result\n            return true;\n        } else if (proposals[proposalId].flags[2]) {\n            // Cancelled proposals are not passing\n            return false;\n        } else if (time() < proposals[proposalId].end) {\n            // Voting not finished yet\n            return false;\n        } else {\n\n            (uint256 yes, uint256 no) = votingResult(proposalId);\n            return yes > no;\n        }\n    }\n\n    /**\n     * @dev Return active proposals count\n     * @return uint256\n     */\n    function activeProposalsCount() public view returns (uint256) {\n        uint256 count;\n\n        for (uint256 i = 0; i < proposalCount; i++) {\n\n            if (!proposals[i].flags[0] && \n                !proposals[i].flags[1] &&\n                !proposals[i].flags[2] &&\n                time() < proposals[i].end) {\n                \n                count = count.add(1);\n            }\n        }\n\n        return count;\n    }\n\n    /**\n     * @dev Transfer service tokens from the voter to the DAO\n     * @param voter Proposal voter\n     * @param value Amount of service tokens to transfer\n     */\n    function lockTokens(\n        address voter, \n        uint256 value\n    ) internal {\n        serviceToken.safeTransferFrom(voter, address(this), value);\n        emit TokensLocked(\n            voter,\n            value\n        );\n    }\n\n    /**\n     * @dev Release locked tokens for the voter\n     * @param voter Proposal voter\n     * @param value Amount of service tokens to transfer\n     */\n    function releaseTokens(\n        address voter,\n        uint256 value\n    ) internal {\n        serviceToken.safeTransfer(voter, value);\n        emit TokensReleased(\n            voter,\n            value\n        );\n    }\n\n    /**\n     * @dev Send a transaction for the proposal\n     * @param destination Target address to send transaction\n     * @param value Ether value to send\n     * @param data Call data\n     * @return bool Transaction execution status\n     */\n    function executeTransaction(\n        address destination,\n        uint256 value,\n        bytes memory data\n    ) internal returns (bool success) {\n        \n        // solium-disable-next-line security/no-inline-assembly\n        assembly {\n            success := call(\n                sub(gas, 34710), \n                destination, \n                value, \n                add(data, 0x20), \n                mload(data), \n                0, \n                0\n            )\n        }\n    }\n\n    /**\n     * @dev Convert votes using defined formula\n     * @param votes Amount of service token to use in the vote\n     * @return uint256 Converted votes value\n     */\n    function convertVotes(uint256 votes) internal pure returns (uint256) {\n        return VotingLib.sqrt(votes);\n    }\n\n    /**\n     * @dev Get current time\n     *  \n     * This function can be overriden for testing purposes\n     * \n     * @return uint256 Current block time\n     */\n    function time() internal view returns (uint256) {\n        return now;// solhint-disable-line not-rely-on-time\n    }\n\n    /**\n     * @dev Validate given ProposalType value\n     * @param typeValue Value of ProposalType to validate\n     * @return uint256 Validation result (or throws Invalide opcode instead)\n     */\n    function assertProposalType(ProposalType typeValue) private pure returns (uint256) {\n        return uint256(typeValue);\n    }\n\n    // @todo Add function to withdraw ether funds from contract \n}",
  "sourcePath": "/home/kostysh/dev/dao/packages/contracts/contracts/Dao.sol",
  "compiler": {
    "name": "solc",
    "version": "0.5.14+commit.01f1aaa4.Emscripten.clang"
  },
  "schemaVersion": "3.0.19",
  "updatedAt": "2019-12-27T00:24:53.075Z",
  "devdoc": {
    "author": "Kostiantyn Smyrnov <kostysh@gmail.com>",
    "details": "This contract holds main DAO logic and storages",
    "methods": {
      "activeProposalsCount()": {
        "details": "Return active proposals count",
        "return": "uint256"
      },
      "addProposal(string,uint8,uint256,address,uint256,bytes)": {
        "details": "Add new proposal     * Requirements: - sender address should be whitelisted - contract should not be in paused state - proposal type should allowed proposalType - destination address should not be a valid target address - sent ether value should be consistent with value parameter ",
        "params": {
          "data": "Signed transaction data",
          "destination": "Transaction target address",
          "details": "Proposal details",
          "duration": "Proposal voting duration in days",
          "proposalType": "Proposal type",
          "value": "Transaction value in ethers"
        }
      },
      "cancelProposal(uint256)": {
        "details": "Cancelling of the proposal     * Requirements: - proposal should exists - sender address should be a proposer address - proposal should not be in a passed state - proposal should not be in a processed state - proposal should not be cancelled - proposal has no votes",
        "params": {
          "proposalId": "Proposal Id"
        }
      },
      "getActiveProposalsIds()": {
        "details": "Get all active proposals Ids",
        "return": "uint256[] List of proposals Ids"
      },
      "getActiveProposalsIds(uint8)": {
        "details": "Get all active proposals Ids filtered by proposal type     * Requirements: - proposal type should be valid  ",
        "return": "uint256[] List of proposals Ids"
      },
      "getProposal(uint256)": {
        "details": "Get proposal by Id (index)     * Requirements: - proposal should exists  ",
        "params": {
          "proposalId": "Proposal Id"
        },
        "return": "string Proposal detailsProposalType Proposal typeuint256 Proposal duration in daysuint256 Proposal end datebool[3] Proposal status flagsaddress Transaction target addressuint256 Ether value to send with transactionbytes Transaction databool Transaction execution statusbool Transaction execution result status"
      },
      "getVote(uint256)": {
        "details": "Get own vote from proposal voting      * Requirements: - proposal should exists - vote should be exist ",
        "params": {
          "proposalId": "Proposal Id"
        },
        "return": "VoteType Type of the voteuint256 Original vote value sentuint256 Acceptes vote valuebool Reveked state of the vote"
      },
      "initialize(address)": {
        "details": "Contract initializer",
        "params": {
          "token": "Address of the service token"
        }
      },
      "isVotingPassed(uint256)": {
        "details": "Check is voting is passed      * Requirements: - proposal should exists",
        "params": {
          "proposalId": "Proposal Id"
        },
        "return": "uint256 Voting result"
      },
      "pause()": {
        "details": "Called by a pauser to pause, triggers stopped state."
      },
      "paused()": {
        "details": "Returns true if the contract is paused, and false otherwise."
      },
      "processProposal(uint256)": {
        "details": "Process proposal     * Requirements: - proposal should exists - contract not paused - sender address should be a proposer address - proposal should not be processed - proposal should not be cancelled - proposal is finished",
        "params": {
          "proposalId": "Proposal Id"
        }
      },
      "replacePauser(address)": {
        "details": "Replace pauser to the new one      * Requirements: - sender address should be a pauser address ",
        "params": {
          "account": "New DAO pauser address"
        }
      },
      "replaceWhitelistAdmin(address)": {
        "details": "Replace whitelist admin with new one      * Requirements: - sender address should be a whitelisted admin address ",
        "params": {
          "account": "New DAO whitelist admin address"
        }
      },
      "revokeVote(uint256)": {
        "details": "Revoke of the placed vote     * Requirements: - proposal should exists - proposal should not be in a passed state - proposal should not be cancelled - vote should not been already revoked",
        "params": {
          "proposalId": "Proposal Id"
        }
      },
      "tokensBalance()": {
        "details": "Withdraw released tokens",
        "return": "uint256 Balance of tokens that available to withdraw"
      },
      "unpause()": {
        "details": "Called by a pauser to unpause, returns to normal state."
      },
      "vote(uint256,uint8,uint256)": {
        "details": "Vote for the proposal     * Requirements: - proposal should exists - contract not paused - not a reentrant call - proposal should not be in a passed state - proposal should not be cancelled - sender tokens balance should be sufficient - tokens allowance for the DAO address should be sufficient - voting not expired (does not exceed voting time frame)",
        "params": {
          "proposalId": "Proposal Id",
          "voteType": "Type of the vote (Yes/No)",
          "votes": "Amount of service token to use in the vote"
        }
      },
      "votingResult(uint256)": {
        "details": "Get a result of the proposal voting     * Requirements: - proposal should exists",
        "params": {
          "proposalId": "Proposal Id"
        },
        "return": "uint256 'Yes' variant voting balanceuint256 'No' variant voting balance"
      },
      "withdrawTokens(uint256)": {
        "details": "Withdraw released tokens     * Requirements: - sender has positive released tokens balance - call not reentrant",
        "params": {
          "proposalId": "Proposal Id"
        }
      }
    },
    "title": "Universal DAO for projects based on Openzeppelin SDK"
  },
  "userdoc": {
    "methods": {}
  }
}