{
  "contractName": "Dao",
  "abi": [
    {
      "anonymous": false,
      "inputs": [
        {
          "indexed": false,
          "internalType": "address",
          "name": "account",
          "type": "address"
        }
      ],
      "name": "Paused",
      "type": "event"
    },
    {
      "anonymous": false,
      "inputs": [
        {
          "indexed": true,
          "internalType": "address",
          "name": "account",
          "type": "address"
        }
      ],
      "name": "PauserAdded",
      "type": "event"
    },
    {
      "anonymous": false,
      "inputs": [
        {
          "indexed": true,
          "internalType": "address",
          "name": "account",
          "type": "address"
        }
      ],
      "name": "PauserRemoved",
      "type": "event"
    },
    {
      "anonymous": false,
      "inputs": [
        {
          "indexed": false,
          "internalType": "address",
          "name": "proposer",
          "type": "address"
        },
        {
          "indexed": false,
          "internalType": "uint256",
          "name": "proposalId",
          "type": "uint256"
        }
      ],
      "name": "ProposalAdded",
      "type": "event"
    },
    {
      "anonymous": false,
      "inputs": [
        {
          "indexed": false,
          "internalType": "uint256",
          "name": "proposalId",
          "type": "uint256"
        }
      ],
      "name": "ProposalCancelled",
      "type": "event"
    },
    {
      "anonymous": false,
      "inputs": [
        {
          "indexed": false,
          "internalType": "uint256",
          "name": "proposalId",
          "type": "uint256"
        },
        {
          "indexed": false,
          "internalType": "bool",
          "name": "passed",
          "type": "bool"
        },
        {
          "indexed": false,
          "internalType": "uint256",
          "name": "yes",
          "type": "uint256"
        },
        {
          "indexed": false,
          "internalType": "uint256",
          "name": "no",
          "type": "uint256"
        }
      ],
      "name": "ProposalProcessed",
      "type": "event"
    },
    {
      "anonymous": false,
      "inputs": [
        {
          "indexed": false,
          "internalType": "address",
          "name": "voter",
          "type": "address"
        },
        {
          "indexed": false,
          "internalType": "uint256",
          "name": "value",
          "type": "uint256"
        }
      ],
      "name": "TokensLocked",
      "type": "event"
    },
    {
      "anonymous": false,
      "inputs": [
        {
          "indexed": false,
          "internalType": "address",
          "name": "voter",
          "type": "address"
        },
        {
          "indexed": false,
          "internalType": "uint256",
          "name": "value",
          "type": "uint256"
        }
      ],
      "name": "TokensReleased",
      "type": "event"
    },
    {
      "anonymous": false,
      "inputs": [
        {
          "indexed": false,
          "internalType": "uint256",
          "name": "proposalId",
          "type": "uint256"
        }
      ],
      "name": "TransactionFailed",
      "type": "event"
    },
    {
      "anonymous": false,
      "inputs": [
        {
          "indexed": false,
          "internalType": "uint256",
          "name": "proposalId",
          "type": "uint256"
        },
        {
          "indexed": false,
          "internalType": "uint256",
          "name": "value",
          "type": "uint256"
        }
      ],
      "name": "TransactionSent",
      "type": "event"
    },
    {
      "anonymous": false,
      "inputs": [
        {
          "indexed": false,
          "internalType": "uint256",
          "name": "proposalId",
          "type": "uint256"
        }
      ],
      "name": "TransactionSuccessed",
      "type": "event"
    },
    {
      "anonymous": false,
      "inputs": [
        {
          "indexed": false,
          "internalType": "address",
          "name": "account",
          "type": "address"
        }
      ],
      "name": "Unpaused",
      "type": "event"
    },
    {
      "anonymous": false,
      "inputs": [
        {
          "indexed": false,
          "internalType": "uint256",
          "name": "proposalId",
          "type": "uint256"
        },
        {
          "indexed": false,
          "internalType": "enum Dao.VoteType",
          "name": "voteType",
          "type": "uint8"
        },
        {
          "indexed": false,
          "internalType": "address",
          "name": "voter",
          "type": "address"
        },
        {
          "indexed": false,
          "internalType": "uint256",
          "name": "votes",
          "type": "uint256"
        },
        {
          "indexed": false,
          "internalType": "uint256",
          "name": "votesAccepted",
          "type": "uint256"
        }
      ],
      "name": "VoteAdded",
      "type": "event"
    },
    {
      "anonymous": false,
      "inputs": [
        {
          "indexed": false,
          "internalType": "uint256",
          "name": "proposalId",
          "type": "uint256"
        },
        {
          "indexed": false,
          "internalType": "enum Dao.VoteType",
          "name": "voteType",
          "type": "uint8"
        },
        {
          "indexed": false,
          "internalType": "address",
          "name": "voter",
          "type": "address"
        },
        {
          "indexed": false,
          "internalType": "uint256",
          "name": "votes",
          "type": "uint256"
        }
      ],
      "name": "VoteRevoked",
      "type": "event"
    },
    {
      "anonymous": false,
      "inputs": [
        {
          "indexed": true,
          "internalType": "address",
          "name": "account",
          "type": "address"
        }
      ],
      "name": "WhitelistAdminAdded",
      "type": "event"
    },
    {
      "anonymous": false,
      "inputs": [
        {
          "indexed": true,
          "internalType": "address",
          "name": "account",
          "type": "address"
        }
      ],
      "name": "WhitelistAdminRemoved",
      "type": "event"
    },
    {
      "anonymous": false,
      "inputs": [
        {
          "indexed": true,
          "internalType": "address",
          "name": "account",
          "type": "address"
        }
      ],
      "name": "WhitelistedAdded",
      "type": "event"
    },
    {
      "anonymous": false,
      "inputs": [
        {
          "indexed": true,
          "internalType": "address",
          "name": "account",
          "type": "address"
        }
      ],
      "name": "WhitelistedRemoved",
      "type": "event"
    },
    {
      "constant": false,
      "inputs": [
        {
          "internalType": "address",
          "name": "account",
          "type": "address"
        }
      ],
      "name": "addPauser",
      "outputs": [],
      "payable": false,
      "stateMutability": "nonpayable",
      "type": "function"
    },
    {
      "constant": false,
      "inputs": [
        {
          "internalType": "address",
          "name": "account",
          "type": "address"
        }
      ],
      "name": "addWhitelistAdmin",
      "outputs": [],
      "payable": false,
      "stateMutability": "nonpayable",
      "type": "function"
    },
    {
      "constant": false,
      "inputs": [
        {
          "internalType": "address",
          "name": "account",
          "type": "address"
        }
      ],
      "name": "addWhitelisted",
      "outputs": [],
      "payable": false,
      "stateMutability": "nonpayable",
      "type": "function"
    },
    {
      "constant": true,
      "inputs": [
        {
          "internalType": "address",
          "name": "account",
          "type": "address"
        }
      ],
      "name": "isPauser",
      "outputs": [
        {
          "internalType": "bool",
          "name": "",
          "type": "bool"
        }
      ],
      "payable": false,
      "stateMutability": "view",
      "type": "function"
    },
    {
      "constant": true,
      "inputs": [
        {
          "internalType": "address",
          "name": "account",
          "type": "address"
        }
      ],
      "name": "isWhitelistAdmin",
      "outputs": [
        {
          "internalType": "bool",
          "name": "",
          "type": "bool"
        }
      ],
      "payable": false,
      "stateMutability": "view",
      "type": "function"
    },
    {
      "constant": true,
      "inputs": [
        {
          "internalType": "address",
          "name": "account",
          "type": "address"
        }
      ],
      "name": "isWhitelisted",
      "outputs": [
        {
          "internalType": "bool",
          "name": "",
          "type": "bool"
        }
      ],
      "payable": false,
      "stateMutability": "view",
      "type": "function"
    },
    {
      "constant": false,
      "inputs": [],
      "name": "pause",
      "outputs": [],
      "payable": false,
      "stateMutability": "nonpayable",
      "type": "function"
    },
    {
      "constant": true,
      "inputs": [],
      "name": "paused",
      "outputs": [
        {
          "internalType": "bool",
          "name": "",
          "type": "bool"
        }
      ],
      "payable": false,
      "stateMutability": "view",
      "type": "function"
    },
    {
      "constant": true,
      "inputs": [],
      "name": "proposalCount",
      "outputs": [
        {
          "internalType": "uint256",
          "name": "",
          "type": "uint256"
        }
      ],
      "payable": false,
      "stateMutability": "view",
      "type": "function"
    },
    {
      "constant": false,
      "inputs": [
        {
          "internalType": "address",
          "name": "account",
          "type": "address"
        }
      ],
      "name": "removeWhitelisted",
      "outputs": [],
      "payable": false,
      "stateMutability": "nonpayable",
      "type": "function"
    },
    {
      "constant": false,
      "inputs": [],
      "name": "renouncePauser",
      "outputs": [],
      "payable": false,
      "stateMutability": "nonpayable",
      "type": "function"
    },
    {
      "constant": false,
      "inputs": [],
      "name": "renounceWhitelistAdmin",
      "outputs": [],
      "payable": false,
      "stateMutability": "nonpayable",
      "type": "function"
    },
    {
      "constant": false,
      "inputs": [],
      "name": "renounceWhitelisted",
      "outputs": [],
      "payable": false,
      "stateMutability": "nonpayable",
      "type": "function"
    },
    {
      "constant": true,
      "inputs": [],
      "name": "serviceToken",
      "outputs": [
        {
          "internalType": "contract IERC20",
          "name": "",
          "type": "address"
        }
      ],
      "payable": false,
      "stateMutability": "view",
      "type": "function"
    },
    {
      "constant": false,
      "inputs": [],
      "name": "unpause",
      "outputs": [],
      "payable": false,
      "stateMutability": "nonpayable",
      "type": "function"
    },
    {
      "constant": false,
      "inputs": [
        {
          "internalType": "address",
          "name": "token",
          "type": "address"
        }
      ],
      "name": "initialize",
      "outputs": [],
      "payable": false,
      "stateMutability": "nonpayable",
      "type": "function"
    },
    {
      "constant": false,
      "inputs": [
        {
          "internalType": "string",
          "name": "details",
          "type": "string"
        },
        {
          "internalType": "enum Dao.ProposalType",
          "name": "proposalType",
          "type": "uint8"
        },
        {
          "internalType": "uint256",
          "name": "duration",
          "type": "uint256"
        },
        {
          "internalType": "address",
          "name": "destination",
          "type": "address"
        },
        {
          "internalType": "uint256",
          "name": "value",
          "type": "uint256"
        },
        {
          "internalType": "bytes",
          "name": "data",
          "type": "bytes"
        }
      ],
      "name": "addProposal",
      "outputs": [],
      "payable": true,
      "stateMutability": "payable",
      "type": "function"
    },
    {
      "constant": false,
      "inputs": [
        {
          "internalType": "uint256",
          "name": "proposalId",
          "type": "uint256"
        }
      ],
      "name": "cancelProposal",
      "outputs": [],
      "payable": false,
      "stateMutability": "nonpayable",
      "type": "function"
    },
    {
      "constant": false,
      "inputs": [
        {
          "internalType": "uint256",
          "name": "proposalId",
          "type": "uint256"
        },
        {
          "internalType": "enum Dao.VoteType",
          "name": "voteType",
          "type": "uint8"
        },
        {
          "internalType": "uint256",
          "name": "votes",
          "type": "uint256"
        }
      ],
      "name": "vote",
      "outputs": [],
      "payable": false,
      "stateMutability": "nonpayable",
      "type": "function"
    },
    {
      "constant": false,
      "inputs": [
        {
          "internalType": "uint256",
          "name": "proposalId",
          "type": "uint256"
        }
      ],
      "name": "revokeVote",
      "outputs": [],
      "payable": false,
      "stateMutability": "nonpayable",
      "type": "function"
    },
    {
      "constant": false,
      "inputs": [
        {
          "internalType": "uint256",
          "name": "proposalId",
          "type": "uint256"
        }
      ],
      "name": "processProposal",
      "outputs": [],
      "payable": false,
      "stateMutability": "nonpayable",
      "type": "function"
    },
    {
      "constant": true,
      "inputs": [],
      "name": "tokensBalance",
      "outputs": [
        {
          "internalType": "uint256",
          "name": "",
          "type": "uint256"
        }
      ],
      "payable": false,
      "stateMutability": "view",
      "type": "function"
    },
    {
      "constant": false,
      "inputs": [],
      "name": "withdrawTokens",
      "outputs": [],
      "payable": false,
      "stateMutability": "nonpayable",
      "type": "function"
    },
    {
      "constant": true,
      "inputs": [
        {
          "internalType": "uint256",
          "name": "proposalId",
          "type": "uint256"
        }
      ],
      "name": "getProposal",
      "outputs": [
        {
          "internalType": "string",
          "name": "details",
          "type": "string"
        },
        {
          "internalType": "enum Dao.ProposalType",
          "name": "proposalType",
          "type": "uint8"
        },
        {
          "internalType": "uint256",
          "name": "duration",
          "type": "uint256"
        },
        {
          "internalType": "uint256",
          "name": "end",
          "type": "uint256"
        },
        {
          "internalType": "bool[3]",
          "name": "flags",
          "type": "bool[3]"
        },
        {
          "internalType": "address",
          "name": "txDestination",
          "type": "address"
        },
        {
          "internalType": "uint256",
          "name": "txValue",
          "type": "uint256"
        },
        {
          "internalType": "bytes",
          "name": "txData",
          "type": "bytes"
        },
        {
          "internalType": "bool",
          "name": "txExecuted",
          "type": "bool"
        },
        {
          "internalType": "bool",
          "name": "txSuccess",
          "type": "bool"
        }
      ],
      "payable": false,
      "stateMutability": "view",
      "type": "function"
    },
    {
      "constant": true,
      "inputs": [
        {
          "internalType": "uint256",
          "name": "proposalId",
          "type": "uint256"
        }
      ],
      "name": "getVote",
      "outputs": [
        {
          "internalType": "enum Dao.VoteType",
          "name": "voteType",
          "type": "uint8"
        },
        {
          "internalType": "uint256",
          "name": "valueOriginal",
          "type": "uint256"
        },
        {
          "internalType": "uint256",
          "name": "valueAccepted",
          "type": "uint256"
        },
        {
          "internalType": "bool",
          "name": "revoked",
          "type": "bool"
        }
      ],
      "payable": false,
      "stateMutability": "view",
      "type": "function"
    },
    {
      "constant": true,
      "inputs": [],
      "name": "getActiveProposalsIds",
      "outputs": [
        {
          "internalType": "uint256[]",
          "name": "",
          "type": "uint256[]"
        }
      ],
      "payable": false,
      "stateMutability": "view",
      "type": "function"
    },
    {
      "constant": true,
      "inputs": [
        {
          "internalType": "enum Dao.ProposalType",
          "name": "proposalType",
          "type": "uint8"
        }
      ],
      "name": "getActiveProposalsIds",
      "outputs": [
        {
          "internalType": "uint256[]",
          "name": "",
          "type": "uint256[]"
        }
      ],
      "payable": false,
      "stateMutability": "view",
      "type": "function"
    },
    {
      "constant": false,
      "inputs": [
        {
          "internalType": "address",
          "name": "account",
          "type": "address"
        }
      ],
      "name": "replacePauser",
      "outputs": [],
      "payable": false,
      "stateMutability": "nonpayable",
      "type": "function"
    },
    {
      "constant": false,
      "inputs": [
        {
          "internalType": "address",
          "name": "account",
          "type": "address"
        }
      ],
      "name": "replaceWhitelistAdmin",
      "outputs": [],
      "payable": false,
      "stateMutability": "nonpayable",
      "type": "function"
    },
    {
      "constant": true,
      "inputs": [
        {
          "internalType": "uint256",
          "name": "proposalId",
          "type": "uint256"
        }
      ],
      "name": "votingResult",
      "outputs": [
        {
          "internalType": "uint256",
          "name": "yes",
          "type": "uint256"
        },
        {
          "internalType": "uint256",
          "name": "no",
          "type": "uint256"
        }
      ],
      "payable": false,
      "stateMutability": "view",
      "type": "function"
    },
    {
      "constant": true,
      "inputs": [
        {
          "internalType": "uint256",
          "name": "proposalId",
          "type": "uint256"
        }
      ],
      "name": "isVotingPassed",
      "outputs": [
        {
          "internalType": "bool",
          "name": "",
          "type": "bool"
        }
      ],
      "payable": false,
      "stateMutability": "view",
      "type": "function"
    }
  ],
  "bytecode": "0x60806040526200002a6200001b6001600160e01b036200006516565b6001600160e01b036200006916565b6034805460ff191690556200005a6200004b6001600160e01b036200006516565b6001600160e01b03620000bb16565b600160375562000203565b3390565b620000848160336200010d60201b620029f21790919060201c565b6040516001600160a01b038216907f6719d08c1888103bea251a4ed56406bd0c3e69723c8a1686e017e7bbe159b6f890600090a250565b620000d68160356200010d60201b620029f21790919060201c565b6040516001600160a01b038216907f22380c05984257a1cb900161c713dd71d39e74820f1aea43bd3f1bdd2096129990600090a250565b6200012282826001600160e01b036200019a16565b1562000175576040805162461bcd60e51b815260206004820152601f60248201527f526f6c65733a206163636f756e7420616c72656164792068617320726f6c6500604482015290519081900360640190fd5b6001600160a01b0316600090815260209190915260409020805460ff19166001179055565b60006001600160a01b038216620001e35760405162461bcd60e51b8152600401808060200182810382526022815260200180620032af6022913960400191505060405180910390fd5b506001600160a01b03166000908152602091909152604090205460ff1690565b61309c80620002136000396000f3fe6080604052600436106101d85760003560e01c80637e9b8f8011610102578063c7f758a811610095578063e0a8f6f511610064578063e0a8f6f5146108c5578063e520251a146108ef578063e63bc62d14610928578063f73a8b4a14610952576101d8565b8063c7f758a8146106e7578063c8032a8414610874578063d6cd94731461089b578063da35c664146108b0576101d8565b80638d8f2adb116100d15780638d8f2adb1461063b578063b769296814610650578063bb5f747b14610681578063c4d66de8146106b4576101d8565b80637e9b8f80146105ab57806382dc1ec4146105c05780638456cb59146105f35780638658374614610608576101d8565b80635a55c1f01161017a5780636a96bab4116101495780636a96bab4146104555780636ef8d66d1461047f5780637362d9c8146104945780637c2466ff146104c7576101d8565b80635a55c1f01461031c5780635c975abb1461038057806361301afa1461039557806361d1405114610412576101d8565b80633af32abf116101b65780633af32abf146102785780633f4ba83a146102bf57806346fbf68e146102d45780634c5a628c14610307576101d8565b806310154bad146101dd57806319819ff514610212578063291d954914610245575b600080fd5b3480156101e957600080fd5b506102106004803603602081101561020057600080fd5b50356001600160a01b031661097c565b005b34801561021e57600080fd5b506102106004803603602081101561023557600080fd5b50356001600160a01b03166109d3565b34801561025157600080fd5b506102106004803603602081101561026857600080fd5b50356001600160a01b0316610a2b565b34801561028457600080fd5b506102ab6004803603602081101561029b57600080fd5b50356001600160a01b0316610a7a565b604080519115158252519081900360200190f35b3480156102cb57600080fd5b50610210610a93565b3480156102e057600080fd5b506102ab600480360360208110156102f757600080fd5b50356001600160a01b0316610b7c565b34801561031357600080fd5b50610210610b8f565b34801561032857600080fd5b506103466004803603602081101561033f57600080fd5b5035610ba1565b6040518085600181111561035657fe5b60ff1681526020810194909452506040808401929092521515606083015251908190036080019150f35b34801561038c57600080fd5b506102ab610cb0565b3480156103a157600080fd5b506103c2600480360360208110156103b857600080fd5b503560ff16610cba565b60408051602080825283518183015283519192839290830191858101910280838360005b838110156103fe5781810151838201526020016103e6565b505050509050019250505060405180910390f35b34801561041e57600080fd5b5061043c6004803603602081101561043557600080fd5b5035610cc0565b6040805192835260208301919091528051918290030190f35b34801561046157600080fd5b506102ab6004803603602081101561047857600080fd5b5035610e3c565b34801561048b57600080fd5b50610210610f28565b3480156104a057600080fd5b50610210600480360360208110156104b757600080fd5b50356001600160a01b0316610f38565b610210600480360360c08110156104dd57600080fd5b8101906020810181356401000000008111156104f857600080fd5b82018360208201111561050a57600080fd5b8035906020019184600183028401116401000000008311171561052c57600080fd5b9193909260ff833516926020810135926001600160a01b036040830135169260608301359260a08101906080013564010000000081111561056c57600080fd5b82018360208201111561057e57600080fd5b803590602001918460018302840111640100000000831117156105a057600080fd5b509092509050610f87565b3480156105b757600080fd5b506103c2611359565b3480156105cc57600080fd5b50610210600480360360208110156105e357600080fd5b50356001600160a01b031661135e565b3480156105ff57600080fd5b506102106113ad565b34801561061457600080fd5b506102106004803603602081101561062b57600080fd5b50356001600160a01b0316611474565b34801561064757600080fd5b506102106114cc565b34801561065c57600080fd5b506106656114dc565b604080516001600160a01b039092168252519081900360200190f35b34801561068d57600080fd5b506102ab600480360360208110156106a457600080fd5b50356001600160a01b03166114eb565b3480156106c057600080fd5b50610210600480360360208110156106d757600080fd5b50356001600160a01b03166114fe565b3480156106f357600080fd5b506107116004803603602081101561070a57600080fd5b50356115d3565b60405180806020018b600181111561072557fe5b60ff1681526020018a815260200189815260200188600360200280838360005b8381101561075d578181015183820152602001610745565b50505050905001876001600160a01b03166001600160a01b0316815260200186815260200180602001851515151581526020018415151515815260200183810383528d818151815260200191508051906020019080838360005b838110156107cf5781810151838201526020016107b7565b50505050905090810190601f1680156107fc5780820380516001836020036101000a031916815260200191505b50838103825286518152865160209182019188019080838360005b8381101561082f578181015183820152602001610817565b50505050905090810190601f16801561085c5780820380516001836020036101000a031916815260200191505b509c5050505050505050505050505060405180910390f35b34801561088057600080fd5b50610889611838565b60408051918252519081900360200190f35b3480156108a757600080fd5b5061021061183d565b3480156108bc57600080fd5b5061088961184d565b3480156108d157600080fd5b50610210600480360360208110156108e857600080fd5b5035611853565b3480156108fb57600080fd5b506102106004803603606081101561091257600080fd5b5080359060ff6020820135169060400135611af0565b34801561093457600080fd5b506102106004803603602081101561094b57600080fd5b50356121c4565b34801561095e57600080fd5b506102106004803603602081101561097557600080fd5b50356123fd565b61098c61098761262f565b6114eb565b6109c75760405162461bcd60e51b8152600401808060200182810382526040815260200180612fc46040913960400191505060405180910390fd5b6109d081612633565b50565b6109de61098761262f565b610a195760405162461bcd60e51b8152600401808060200182810382526040815260200180612fc46040913960400191505060405180910390fd5b610a228161267b565b6109d0336126c3565b610a3661098761262f565b610a715760405162461bcd60e51b8152600401808060200182810382526040815260200180612fc46040913960400191505060405180910390fd5b6109d08161270b565b6000610a8d60368363ffffffff61275316565b92915050565b610aa3610a9e61262f565b610b7c565b610ade5760405162461bcd60e51b8152600401808060200182810382526030815260200180612f026030913960400191505060405180910390fd5b60345460ff16610b2c576040805162461bcd60e51b815260206004820152601460248201527314185d5cd8589b194e881b9bdd081c185d5cd95960621b604482015290519081900360640190fd5b6034805460ff191690557f5db9ee0a495bf2e6ff9c91a7834c1ba4fdd244a5e8aa4e537bd38aeae4b073aa610b5f61262f565b604080516001600160a01b039092168252519081900360200190a1565b6000610a8d60338363ffffffff61275316565b610b9f610b9a61262f565b6126c3565b565b6000818152603a60205260408120600701548190819081908590610c01576040805162461bcd60e51b8152602060048201526012602482015271141493d413d4d05317d393d517d193d5539160721b604482015290519081900360640190fd5b6000868152603b60209081526040808320338452600101909152902054869060ff16610c65576040805162461bcd60e51b815260206004820152600e60248201526d1593d51157d393d517d193d5539160921b604482015290519081900360640190fd5b50505060009384525050603b602090815260408084203385528083528185205485526002908101909252909220805460018201549382015460039092015460ff918216959293501690565b60345460ff165b90565b50606090565b6000818152603a602052604081206007015481908390610d1c576040805162461bcd60e51b8152602060048201526012602482015271141493d413d4d05317d393d517d193d5539160721b604482015290519081900360640190fd5b60005b6000858152603b6020526040902060030154811015610e35576000858152603b6020908152604080832084845260020190915290206003015460ff16610e2d576000858152603b6020908152604080832084845260020190915281205460ff166001811115610d8a57fe5b1415610dc5576000858152603b6020908152604080832084845260029081019092529091200154610dc290859063ffffffff6127ba16565b93505b60016000868152603b6020908152604080832085845260020190915290205460ff166001811115610df257fe5b1415610e2d576000858152603b6020908152604080832084845260029081019092529091200154610e2a90849063ffffffff6127ba16565b92505b600101610d1f565b5050915091565b6000818152603a60205260408120600701548290610e96576040805162461bcd60e51b8152602060048201526012602482015271141493d413d4d05317d393d517d193d5539160721b604482015290519081900360640190fd5b6000838152603a602052604090206009015460ff1615610eb95760019150610f22565b6000838152603a602052604090206009015462010000900460ff1615610ee25760009150610f22565b6000838152603a6020526040902060080154610efc61281b565b1015610f0b5760009150610f22565b600080610f1785610cc0565b109350610f22915050565b50919050565b610b9f610f3361262f565b61281f565b610f4361098761262f565b610f7e5760405162461bcd60e51b8152600401808060200182810382526040815260200180612fc46040913960400191505060405180910390fd5b6109d08161267b565b610f97610f9261262f565b610a7a565b610fd25760405162461bcd60e51b815260040180806020018281038252603a815260200180613004603a913960400191505060405180910390fd5b60345460ff161561101d576040805162461bcd60e51b815260206004820152601060248201526f14185d5cd8589b194e881c185d5cd95960821b604482015290519081900360640190fd5b61102686612867565b506001600160a01b038416611078576040805162461bcd60e51b815260206004820152601360248201527224a72b20a624a22fa222a9aa24a720aa24a7a760691b604482015290519081900360640190fd5b82158061109057506000831180156110905750823410155b6110e1576040805162461bcd60e51b815260206004820152601860248201527f494e53554646494349454e545f45544845525f56414c55450000000000000000604482015290519081900360640190fd5b60395460408051338152602081019290925280517f294a8b64183582a911805b3a31b11b3c4d20c7431578897c6abcc35aae886d5e9281900390910190a1611127612d9f565b6040518060e00160405280336001600160a01b031681526020018a8a8080601f01602080910402602001604051908101604052809392919081815260200183838082843760009201919091525050509082525060200188600181111561118957fe5b81526020016040518060a00160405280886001600160a01b0316815260200187815260200186868080601f016020809104026020016040519081016040528093929190818152602001838380828437600092018290525093855250505060208083018290526040928301919091529183529082018990520161122b611217896201518063ffffffff61287516565b61121f61281b565b9063ffffffff6127ba16565b815260209081018390526039546000908152603a825260409020825181546001600160a01b0319166001600160a01b03909116178155828201518051919261127b92600185019290910190612dbd565b50604082015160028201805460ff19166001838181111561129857fe5b0217905550606082015180516003830180546001600160a01b0319166001600160a01b039092169190911781556020808301516004850155604083015180516112e79260058701920190612dbd565b5060608201516003918201805460809485015115156101000261ff001993151560ff19909216919091179290921691909117905590830151600783015560a0830151600883015560c083015161134291600984019190612e3b565b505060398054600101905550505050505050505050565b606090565b611369610a9e61262f565b6113a45760405162461bcd60e51b8152600401808060200182810382526030815260200180612f026030913960400191505060405180910390fd5b6109d0816128ce565b6113b8610a9e61262f565b6113f35760405162461bcd60e51b8152600401808060200182810382526030815260200180612f026030913960400191505060405180910390fd5b60345460ff161561143e576040805162461bcd60e51b815260206004820152601060248201526f14185d5cd8589b194e881c185d5cd95960821b604482015290519081900360640190fd5b6034805460ff191660011790557f62e78cea01bee320cd4e420270b5ea74000d11b0c9f74754ebdbfc544b05a258610b5f61262f565b61147f610a9e61262f565b6114ba5760405162461bcd60e51b8152600401808060200182810382526030815260200180612f026030913960400191505060405180910390fd5b6114c3816128ce565b6109d03361281f565b60378054600101908190556109d0565b6038546001600160a01b031681565b6000610a8d60358363ffffffff61275316565b600054610100900460ff16806115175750611517612916565b80611525575060005460ff16155b6115605760405162461bcd60e51b815260040180806020018281038252602e815260200180612f96602e913960400191505060405180910390fd5b600054610100900460ff1615801561158b576000805460ff1961ff0019909116610100171660011790555b603880546001600160a01b0319166001600160a01b03841617905560006039556115b4336128ce565b6115bd3361267b565b80156115cf576000805461ff00191690555b5050565b606060008060006115e2612d9f565b6000868152603a60205260408120600701548190606090829081908b90611645576040805162461bcd60e51b8152602060048201526012602482015271141493d413d4d05317d393d517d193d5539160721b604482015290519081900360640190fd5b60008c8152603a6020908152604091829020600180820180548551600293821615610100026000190190911692909204601f8101859004850283018501909552848252919390928301828280156116dd5780601f106116b2576101008083540402835291602001916116dd565b820191906000526020600020905b8154815290600101906020018083116116c057829003601f168201915b50505050509b508060020160009054906101000a900460ff169a50806007015499508060080154985080600901600380602002604051908101604052809291908260038015611761576020028201916000905b825461010083900a900460ff1615158152602060019283018181049485019490930390920291018084116117305790505b505050506003830154600484015460058501805460408051602060026101006001861615026000190190941693909304601f8101849004840282018401909252818152969e506001600160a01b039094169c50919a50925083018282801561180a5780601f106117df5761010080835404028352916020019161180a565b820191906000526020600020905b8154815290600101906020018083116117ed57829003601f168201915b5050506006909301549d9f9c9e509a9c999b989a509698959760ff8088169761010090041695509350505050565b600090565b610b9f61184861262f565b61270b565b60395481565b6000818152603a602052604090206007015481906118ad576040805162461bcd60e51b8152602060048201526012602482015271141493d413d4d05317d393d517d193d5539160721b604482015290519081900360640190fd5b6000828152603a602052604090205482906001600160a01b0316331461190b576040805162461bcd60e51b815260206004820152600e60248201526d2727aa2fa0afa82927a827a9a2a960911b604482015290519081900360640190fd5b6000838152603a6020526040902060090154839060ff1615611966576040805162461bcd60e51b815260206004820152600f60248201526e141493d413d4d05317d41054d4d151608a1b604482015290519081900360640190fd5b6000848152603a60205260409020600901548490610100900460ff16156119c9576040805162461bcd60e51b8152602060048201526012602482015271141493d413d4d05317d41493d0d154d4d15160721b604482015290519081900360640190fd5b6000858152603a6020526040902060090154859062010000900460ff1615611a2d576040805162461bcd60e51b8152602060048201526012602482015271141493d413d4d05317d0d05390d15313115160721b604482015290519081900360640190fd5b600080611a3988610cc0565b91509150816000148015611a4b575080155b611a91576040805162461bcd60e51b815260206004820152601260248201527150524f504f53414c5f4841535f564f54455360701b604482015290519081900360640190fd5b6000888152603a6020908152604091829020600901805462ff000019166201000017905581518a815291517f416e669c63d9a3a5e36ee7cc7e2104b8db28ccd286aa18966e98fa230c73b08c9281900390910190a15050505050505050565b60345460ff1615611b3b576040805162461bcd60e51b815260206004820152601060248201526f14185d5cd8589b194e881c185d5cd95960821b604482015290519081900360640190fd5b60378054600101908190556000848152603a60205260409020600701548490611ba0576040805162461bcd60e51b8152602060048201526012602482015271141493d413d4d05317d393d517d193d5539160721b604482015290519081900360640190fd5b6000858152603a6020526040902060090154859060ff1615611bfb576040805162461bcd60e51b815260206004820152600f60248201526e141493d413d4d05317d41054d4d151608a1b604482015290519081900360640190fd5b6000868152603a6020526040902060090154869062010000900460ff1615611c5f576040805162461bcd60e51b8152602060048201526012602482015271141493d413d4d05317d0d05390d15313115160721b604482015290519081900360640190fd5b6000878152603a60205260409020600801548790611c7b61281b565b10611cc1576040805162461bcd60e51b8152602060048201526011602482015270141493d413d4d05317d192539254d21151607a1b604482015290519081900360640190fd5b603854604080516370a0823160e01b8152336004820152905188926001600160a01b0316916370a08231916024808301926020929190829003018186803b158015611d0b57600080fd5b505afa158015611d1f573d6000803e3d6000fd5b505050506040513d6020811015611d3557600080fd5b50511015611d8a576040805162461bcd60e51b815260206004820152601b60248201527f494e53554646494349454e545f544f4b454e535f42414c414e43450000000000604482015290519081900360640190fd5b60385460408051636eb1769f60e11b8152336004820152306024820152905188926001600160a01b03169163dd62ed3e916044808301926020929190829003018186803b158015611dda57600080fd5b505afa158015611dee573d6000803e3d6000fd5b505050506040513d6020811015611e0457600080fd5b50511015611e59576040805162461bcd60e51b815260206004820152601d60248201527f494e53554646494349454e545f544f4b454e535f414c4c4f57414e4345000000604482015290519081900360640190fd5b6000888152603b60209081526040808320338452600101909152812054879190819060ff16611fc6575060008a8152603b6020908152604080832060038101543385529252909120819055611ead8361291c565b915060405180608001604052808b6001811115611ec657fe5b815260208082018690526040808301869052600060609093018390528e8352603b8252808320858452600201909152902081518154829060ff191660018381811115611f0e57fe5b0217905550602082015181600101556040820151816002015560608201518160030160006101000a81548160ff0219169083151502179055509050506001603b60008d81526020019081526020016000206001016000336001600160a01b03166001600160a01b0316815260200190815260200160002060006101000a81548160ff0219169083151502179055506001603b60008d8152602001908152602001600020600301600082825401925050819055506120ea565b5060008a8152603b60209081526040808320338452808352818420548085526002909101909252909120600381015460ff16156120195760038101805460ff191690556120128461291c565b92506120c0565b600181015461202e908b63ffffffff6127ba16565b93506120398461291c565b92507f940ff8122c3cdbdc4a4aa871d42fdf13e863866d63ab2ea9fc0af542894daff48c8260000160009054906101000a900460ff163384600101546040518085815260200184600181111561208b57fe5b60ff168152602001836001600160a01b03166001600160a01b0316815260200182815260200194505050505060405180910390a15b80548b90829060ff1916600183818111156120d757fe5b0217905550600181018490556002018290555b7f615fd00d334fb9ec9d221e8191b07961008426504d05e916a5e961a64d3a21b18b8b3386866040518086815260200185600181111561212657fe5b60ff1681526001600160a01b039094166020850152506040808401929092526060830152519081900360800192509050a1612161338a612927565b5050505050505060375481146121be576040805162461bcd60e51b815260206004820152601f60248201527f5265656e7472616e637947756172643a207265656e7472616e742063616c6c00604482015290519081900360640190fd5b50505050565b60345460ff161561220f576040805162461bcd60e51b815260206004820152601060248201526f14185d5cd8589b194e881c185d5cd95960821b604482015290519081900360640190fd5b6000818152603a60205260409020600701548190612269576040805162461bcd60e51b8152602060048201526012602482015271141493d413d4d05317d393d517d193d5539160721b604482015290519081900360640190fd5b6000828152603a602052604090205482906001600160a01b031633146122c7576040805162461bcd60e51b815260206004820152600e60248201526d2727aa2fa0afa82927a827a9a2a960911b604482015290519081900360640190fd5b6000838152603a60205260409020600901548390610100900460ff161561232a576040805162461bcd60e51b8152602060048201526012602482015271141493d413d4d05317d41493d0d154d4d15160721b604482015290519081900360640190fd5b6000848152603a6020526040902060090154849062010000900460ff161561238e576040805162461bcd60e51b8152602060048201526012602482015271141493d413d4d05317d0d05390d15313115160721b604482015290519081900360640190fd5b6000858152603a602052604090206008015485906123aa61281b565b10156123f5576040805162461bcd60e51b8152602060048201526015602482015274141493d413d4d05317d393d517d192539254d21151605a1b604482015290519081900360640190fd5b505050505050565b6000818152603a60205260409020600701548190612457576040805162461bcd60e51b8152602060048201526012602482015271141493d413d4d05317d393d517d193d5539160721b604482015290519081900360640190fd5b6000828152603a6020526040902060090154829060ff16156124b2576040805162461bcd60e51b815260206004820152600f60248201526e141493d413d4d05317d41054d4d151608a1b604482015290519081900360640190fd5b6000838152603a6020526040902060090154839062010000900460ff1615612516576040805162461bcd60e51b8152602060048201526012602482015271141493d413d4d05317d0d05390d15313115160721b604482015290519081900360640190fd5b6000848152603b602090815260408083203384528083528184205484526002019091529020600381015460ff1615612584576040805162461bcd60e51b815260206004820152600c60248201526b1593d51157d4915593d2d15160a21b604482015290519081900360640190fd5b60038101805460ff191660019081179091558101546125a490339061298d565b7f940ff8122c3cdbdc4a4aa871d42fdf13e863866d63ab2ea9fc0af542894daff4858260000160009054906101000a900460ff16338460010154604051808581526020018460018111156125f457fe5b60ff168152602001836001600160a01b03166001600160a01b0316815260200182815260200194505050505060405180910390a15050505050565b3390565b61264460368263ffffffff6129f216565b6040516001600160a01b038216907fee1504a83b6d4a361f4c1dc78ab59bfa30d6a3b6612c403e86bb01ef2984295f90600090a250565b61268c60358263ffffffff6129f216565b6040516001600160a01b038216907f22380c05984257a1cb900161c713dd71d39e74820f1aea43bd3f1bdd2096129990600090a250565b6126d460358263ffffffff612a7316565b6040516001600160a01b038216907f0a8eb35e5ca14b3d6f28e4abf2f128dbab231a58b56e89beb5d636115001e16590600090a250565b61271c60368263ffffffff612a7316565b6040516001600160a01b038216907f270d9b30cf5b0793bbfd54c9d5b94aeb49462b8148399000265144a8722da6b690600090a250565b60006001600160a01b03821661279a5760405162461bcd60e51b8152600401808060200182810382526022815260200180612f746022913960400191505060405180910390fd5b506001600160a01b03166000908152602091909152604090205460ff1690565b600082820183811015612814576040805162461bcd60e51b815260206004820152601b60248201527f536166654d6174683a206164646974696f6e206f766572666c6f770000000000604482015290519081900360640190fd5b9392505050565b4290565b61283060338263ffffffff612a7316565b6040516001600160a01b038216907fcd265ebaf09df2871cc7bd4133404a235ba12eff2041bb89d9c714a2621c7c7e90600090a250565b6000816001811115610a8d57fe5b60008261288457506000610a8d565b8282028284828161289157fe5b04146128145760405162461bcd60e51b8152600401808060200182810382526021815260200180612f536021913960400191505060405180910390fd5b6128df60338263ffffffff6129f216565b6040516001600160a01b038216907f6719d08c1888103bea251a4ed56406bd0c3e69723c8a1686e017e7bbe159b6f890600090a250565b303b1590565b6000610a8d82612ada565b603854612945906001600160a01b031683308463ffffffff612afa16565b604080516001600160a01b03841681526020810183905281517fac87f20a77d28ee8bbb58ec87ea8fa968b3393efae1a368fd50b767c2847391c929181900390910190a15050565b6038546129aa906001600160a01b0316838363ffffffff612b5416565b604080516001600160a01b03841681526020810183905281517fc7798891864187665ac6dd119286e44ec13f014527aeeb2b8eb3fd413df93179929181900390910190a15050565b6129fc8282612753565b15612a4e576040805162461bcd60e51b815260206004820152601f60248201527f526f6c65733a206163636f756e7420616c72656164792068617320726f6c6500604482015290519081900360640190fd5b6001600160a01b0316600090815260209190915260409020805460ff19166001179055565b612a7d8282612753565b612ab85760405162461bcd60e51b8152600401808060200182810382526021815260200180612f326021913960400191505060405180910390fd5b6001600160a01b0316600090815260209190915260409020805460ff19169055565b80600260018201045b81811015610f225790506002818304820104612ae3565b604080516001600160a01b0385811660248301528416604482015260648082018490528251808303909101815260849091019091526020810180516001600160e01b03166323b872dd60e01b1790526121be908590612bab565b604080516001600160a01b038416602482015260448082018490528251808303909101815260649091019091526020810180516001600160e01b031663a9059cbb60e01b179052612ba6908490612bab565b505050565b612bbd826001600160a01b0316612d63565b612c0e576040805162461bcd60e51b815260206004820152601f60248201527f5361666545524332303a2063616c6c20746f206e6f6e2d636f6e747261637400604482015290519081900360640190fd5b60006060836001600160a01b0316836040518082805190602001908083835b60208310612c4c5780518252601f199092019160209182019101612c2d565b6001836020036101000a0380198251168184511680821785525050505050509050019150506000604051808303816000865af19150503d8060008114612cae576040519150601f19603f3d011682016040523d82523d6000602084013e612cb3565b606091505b509150915081612d0a576040805162461bcd60e51b815260206004820181905260248201527f5361666545524332303a206c6f772d6c6576656c2063616c6c206661696c6564604482015290519081900360640190fd5b8051156121be57808060200190516020811015612d2657600080fd5b50516121be5760405162461bcd60e51b815260040180806020018281038252602a81526020018061303e602a913960400191505060405180910390fd5b6000813f7fc5d2460186f7233c927e7db2dcc703c0e500b653ca82273b7bfad8045d85a4708115801590612d975750808214155b949350505050565b60405180606001604052806003906020820280388339509192915050565b828054600181600116156101000203166002900490600052602060002090601f016020900481019282601f10612dfe57805160ff1916838001178555612e2b565b82800160010185558215612e2b579182015b82811115612e2b578251825591602001919060010190612e10565b50612e37929150612ec9565b5090565b600183019183908215612ebd5791602002820160005b83821115612e8e57835183826101000a81548160ff0219169083151502179055509260200192600101602081600001049283019260010302612e51565b8015612ebb5782816101000a81549060ff0219169055600101602081600001049283019260010302612e8e565b505b50612e37929150612ee3565b610cb791905b80821115612e375760008155600101612ecf565b610cb791905b80821115612e3757805460ff19168155600101612ee956fe506175736572526f6c653a2063616c6c657220646f6573206e6f742068617665207468652050617573657220726f6c65526f6c65733a206163636f756e7420646f6573206e6f74206861766520726f6c65536166654d6174683a206d756c7469706c69636174696f6e206f766572666c6f77526f6c65733a206163636f756e7420697320746865207a65726f2061646472657373436f6e747261637420696e7374616e63652068617320616c7265616479206265656e20696e697469616c697a656457686974656c69737441646d696e526f6c653a2063616c6c657220646f6573206e6f742068617665207468652057686974656c69737441646d696e20726f6c6557686974656c6973746564526f6c653a2063616c6c657220646f6573206e6f742068617665207468652057686974656c697374656420726f6c655361666545524332303a204552433230206f7065726174696f6e20646964206e6f742073756363656564a265627a7a723158208db7be721d126db84f394d07a07b3e4ac755e7798ef6fd65258c997416eb2a2c64736f6c634300050e0032526f6c65733a206163636f756e7420697320746865207a65726f2061646472657373",
  "source": "pragma solidity 0.5.14;\n\nimport \"@openzeppelin/upgrades/contracts/Initializable.sol\";\nimport \"openzeppelin-solidity/contracts/lifecycle/Pausable.sol\";\nimport \"openzeppelin-solidity/contracts/access/roles/WhitelistedRole.sol\";\nimport \"openzeppelin-solidity/contracts/utils/ReentrancyGuard.sol\";\nimport \"openzeppelin-solidity/contracts/token/ERC20/IERC20.sol\";\nimport \"openzeppelin-solidity/contracts/token/ERC20/SafeERC20.sol\";\nimport \"openzeppelin-solidity/contracts/math/SafeMath.sol\";\nimport \"./libraries/VotingLib.sol\";\n\n\n/**\n * @title Universal DAO for projects based on Openzeppelin SDK\n * @dev This contract holds main DAO logic and storages\n * @author Kostiantyn Smyrnov <kostysh@gmail.com>\n */\ncontract Dao is Initializable, Pausable, WhitelistedRole, ReentrancyGuard {\n\n    using SafeMath for uint256;\n    using SafeERC20 for IERC20;\n\n    /**\n     * @dev List of acceptable proposal types\n     * Usefull for filtering purposes\n     */\n    enum ProposalType {\n        ContractUpgrade,\n        MethodCall\n    }\n\n    /**\n     * @dev Acceptable vote types\n     */\n    enum VoteType {\n        Yes,\n        No\n    }\n\n    /**\n     * @dev Proposal transaction\n     * @param destination Transaction target address\n     * @param value Ethers value to send with transaction\n     * @param data Signed transaction data\n     * @param executed Transaction execution flag\n     * @param failed Transaction execution result\n     */\n    struct Transaction {\n        address destination;\n        uint256 value;\n        bytes data;\n        bool executed;\n        bool success;\n    }\n\n    /**\n     * @dev Proposal structure\n     * @param proposer Proposer address\n     * @param details Proposal description. Can be text|IPFS Hash|Url|Etc\n     * @param proposalType Proposal type\n     * @param transaction Transaction storage\n     * @param duration Proposal duration in days\n     * @param end Proposal voting end date\n     * @param flags Proposal state flags [passed, processed, cancelled]\n     */\n    struct Proposal {\n        address proposer;\n        string details;\n        ProposalType proposalType;\n        Transaction transaction;\n        uint256 duration;\n        uint256 end;\n        bool[3] flags;\n    }\n\n    /**\n     * @dev Vote structure\n     * @param voteType Type of the vote\n     * @param valueOriginal Original vote value (not converted)\n     * @param valueAccepted Accepted vote value (converted)\n     * @param revoked Revoked flag\n     */\n    struct Vote {\n        VoteType voteType;\n        uint256 valueOriginal;\n        uint256 valueAccepted;\n        bool revoked;\n    }\n\n    /**\n     * @dev Voting structure\n     * @param ids List of the voters votes Ids (indexes)\n     * @param voted List voted voters\n     * @param votes List of votes\n     * @param votesCount Votes counter\n     */\n    struct Voting {\n        mapping (address => uint256) ids;// voterAddress => voteId\n        mapping (address => bool) voted;// voterAddress => bool\n        mapping (uint256 => Vote) votes;// voteId => Vote\n        uint256 votesCount;\n    }\n\n    /**\n     * @dev This event will be emitted when proposal has been added\n     * @param proposer Proposer address\n     * @param proposalId Proposal Id\n     */\n    event ProposalAdded(\n        address proposer,\n        uint256 proposalId\n    );\n\n    /**\n     * @dev This event will be emitted when proposal has been cancelled\n     * @param proposalId Proposal Id\n     */\n    event ProposalCancelled(uint256 proposalId);\n\n    /**\n     * @dev This event will be emitted when Vote is accepted\n     * @param proposalId Proposal Id\n     * @param voteType Type of the vote\n     * @param voter Voter address\n     * @param votes Original votes sent\n     * @param votesAccepted Accepted votes amount\n     */\n    event VoteAdded(\n        uint256 proposalId,\n        VoteType voteType,\n        address voter,\n        uint256 votes,\n        uint256 votesAccepted\n    );\n\n    /**\n     * @dev This event will be emitted when existed Vote is revoked\n     * @param proposalId Proposal Id\n     * @param voteType Type of the vote\n     * @param voter Voter address\n     * @param votes Original votes revoked\n     */\n    event VoteRevoked(\n        uint256 proposalId,\n        VoteType voteType,\n        address voter,\n        uint256 votes\n    );\n\n    /**\n     * @dev This event will be emitted when service tokens are locked\n     * @param voter Voter address\n     * @param value Locked tokens amount\n     */\n    event TokensLocked(\n        address voter,\n        uint256 value\n    );\n\n    /**\n     * @dev This event will be emitted when service tokens are released\n     * @param voter Voter address\n     * @param value Released tokens amount\n     */\n    event TokensReleased(\n        address voter,\n        uint256 value\n    );\n\n    /**\n     * @dev This event will be emitted when proposal moved to processed state\n     * @param proposalId Proposal Id\n     * @param passed Voting result\n     * @param yes YES votes\n     * @param no NO votes\n     */\n    event ProposalProcessed(\n        uint256 proposalId,\n        bool passed,\n        uint256 yes,\n        uint256 no\n    );\n\n    /**\n     * @dev This event will be emitted when proposal transaction has been sent\n     * @param proposalId Proposal Id\n     * @param proposalId Ether sent with transaction\n     */\n    event TransactionSent(\n        uint256 proposalId,\n        uint256 value\n    );\n\n    /**\n     * @dev This event will be emitted when sent proposal transaction has succeeded\n     * @param proposalId Proposal Id\n     */\n    event TransactionSuccessed(uint256 proposalId);\n\n    /**\n     * @dev This event will be emitted when sent proposal transaction has failed\n     * @param proposalId Proposal Id\n     */\n    event TransactionFailed(uint256 proposalId);\n\n\n    /// @dev Token that using in voting process\n    IERC20 public serviceToken;\n\n    /// @dev Number of proposals\n    uint256 public proposalCount;\n    \n    /// @dev Proposals storage\n    mapping (uint256 => Proposal) internal proposals;// proposalId => Proposal\n\n    /// @dev Proposals votings \n    mapping (uint256 => Voting) internal votings;// proposalId => Voting\n\n\n    /**\n     * @dev This modifier allows function execution if proposal exist only\n     * @param proposalId Proposal Id\n     */\n    modifier proposalExists(uint256 proposalId) {\n        require(proposals[proposalId].duration != 0, \"PROPOSAL_NOT_FOUND\");\n        _;\n    }\n    \n    /**\n     * @dev This modifier allows function execution for the proposer only\n     * @param proposalId Proposal Id\n     */\n    modifier onlyProposer(uint256 proposalId) {\n        require(msg.sender == proposals[proposalId].proposer, \"NOT_A_PROPOSER\");\n        _;\n    }\n\n    /**\n     * @dev This modifier allows function execution if proposal has not passed flag\n     * @param proposalId Proposal Id\n     */\n    modifier notPassed(uint256 proposalId) {\n        require(!proposals[proposalId].flags[0], \"PROPOSAL_PASSED\");\n        _;\n    }\n\n    /**\n     * @dev This modifier allows function execution if proposal has not processed flag\n     * @param proposalId Proposal Id\n     */\n    modifier notProcessed(uint256 proposalId) {\n        require(!proposals[proposalId].flags[1], \"PROPOSAL_PROCESSED\");\n        _;\n    }\n\n    /**\n     * @dev This modifier allows function execution if proposal has not cancelled flag\n     * @param proposalId Proposal Id\n     */\n    modifier notCancelled(uint256 proposalId) {\n        require(!proposals[proposalId].flags[2], \"PROPOSAL_CANCELLED\");\n        _;\n    }\n\n    /**\n     * @dev This modifier allows function execution if proposal not finished\n     * @param proposalId Proposal Id\n     */\n    modifier notFinished(uint256 proposalId) {\n        require(time() < proposals[proposalId].end, \"PROPOSAL_FINISHED\");\n        _;\n    }\n\n    /**\n     * @dev This modifier allows function execution if proposal finished only\n     * @param proposalId Proposal Id\n     */\n    modifier onlyFinished(uint256 proposalId) {\n        require(time() >= proposals[proposalId].end, \"PROPOSAL_NOT_FINISHED\");\n        _;\n    }\n\n    /**\n     * @dev This modifier allows function execution if sender already voted for proposal\n     * @param proposalId Proposal Id\n     */\n    modifier voteExists(uint256 proposalId) {\n        require(votings[proposalId].voted[msg.sender], \"VOTE_NOT_FOUND\");\n        _;\n    }\n\n    /**\n     * @dev Contract initializer\n     * @param token Address of the service token\n     */\n    function initialize(address token) external initializer {\n        serviceToken = IERC20(token);\n        proposalCount = 0;\n\n        // Add proxy owner PuserRole\n        _addPauser(msg.sender);\n\n        // Add proxy owner WhitelistAdminRole\n        _addWhitelistAdmin(msg.sender);\n    }\n\n    /**\n     * @dev Add new proposal\n     *\n     * Requirements:\n     *  - sender address should be whitelisted\n     *  - contract should not be in paused state\n     *  - proposal type should allowed proposalType\n     *  - destination address should not be a valid target address\n     *  - sent ether value should be consistent with value parameter\n     * \n     * @param details Proposal details\n     * @param proposalType Proposal type\n     * @param duration Proposal voting duration in days\n     * @param destination Transaction target address\n     * @param value Transaction value in ethers\n     * @param data Signed transaction data\n     */\n    function addProposal(\n        string calldata details,\n        ProposalType proposalType,\n        uint256 duration,\n        address destination,\n        uint256 value,\n        bytes calldata data\n    ) external payable onlyWhitelisted whenNotPaused {\n        assertProposalType(proposalType);// Throws an Invalid opcode if proposalType not valid\n        // @todo Add conditions and test for proposal `duration` (s.l. min and max value)\n        require(destination != address(0), \"INVALID_DESTINATION\");\n        require(value == 0 || (value > 0 && msg.value >= value), \"INSUFFICIENT_ETHER_VALUE\");\n        // @todo Add Condition to avoid proposal queue maximum length (uint256 restriction)\n\n        emit ProposalAdded(msg.sender, proposalCount);\n\n        bool[3] memory flags;\n        proposals[proposalCount] = Proposal(\n            msg.sender,\n            details,\n            proposalType,\n            Transaction(\n                destination,\n                value,\n                data,\n                false,\n                false\n            ),\n            duration,\n            time().add(duration.mul(86400)),\n            flags\n        );\n        \n        proposalCount += 1;\n    }\n\n    /**\n     * @dev Cancelling of the proposal\n     *\n     * Requirements:\n     *  - proposal should exists\n     *  - sender address should be a proposer address\n     *  - proposal should not be in a passed state\n     *  - proposal should not be in a processed state\n     *  - proposal should not be cancelled\n     *  - proposal has no votes\n     *\n     * @param proposalId Proposal Id\n     */\n    function cancelProposal(uint256 proposalId) \n        external \n        proposalExists(proposalId)\n        onlyProposer(proposalId)\n        notPassed(proposalId) \n        notProcessed(proposalId) \n        notCancelled(proposalId)\n    {\n        (uint256 yes, uint256 no) = votingResult(proposalId);\n        require(yes == 0 && no == 0, \"PROPOSAL_HAS_VOTES\");\n        proposals[proposalId].flags[2] = true;\n        emit ProposalCancelled(proposalId);\n    }\n\n    /**\n     * @dev Vote for the proposal\n     *\n     * Requirements:\n     *  - proposal should exists\n     *  - contract not paused\n     *  - not a reentrant call\n     *  - proposal should not be in a passed state\n     *  - proposal should not be cancelled\n     *  - sender tokens balance should be sufficient\n     *  - tokens allowance for the DAO address should be sufficient\n     *  - voting not expired (does not exceed voting time frame)\n     *\n     * @param proposalId Proposal Id\n     * @param voteType Type of the vote (Yes/No)\n     * @param votes Amount of service token to use in the vote\n     */\n    function vote(\n        uint256 proposalId,\n        VoteType voteType, \n        uint256 votes\n    ) \n        external \n        whenNotPaused\n        nonReentrant \n        proposalExists(proposalId)\n        notPassed(proposalId) \n        notCancelled(proposalId)\n        notFinished(proposalId)\n    {\n        require(serviceToken.balanceOf(msg.sender) >= votes, \"INSUFFICIENT_TOKENS_BALANCE\");\n        require(serviceToken.allowance(msg.sender, address(this)) >= votes, \"INSUFFICIENT_TOKENS_ALLOWANCE\");\n        \n        uint256 votesSent = votes;\n        uint256 votesAccepted;\n        uint256 voteId;\n        \n        if (!votings[proposalId].voted[msg.sender]) {\n            \n            // Create new Vote\n            voteId = votings[proposalId].votesCount;\n            votings[proposalId].ids[msg.sender] = voteId;\n            votesAccepted = convertVotes(votesSent);\n            votings[proposalId].votes[voteId] = Vote(\n                voteType,\n                votesSent,\n                votesAccepted,\n                false\n            );\n            votings[proposalId].voted[msg.sender] = true;\n\n            // Update votes counter\n            // @todo Add condition to avoid uint256 value restrictions\n            votings[proposalId].votesCount += 1;\n        } else {\n            \n            // Re-use existed Vote\n            voteId = votings[proposalId].ids[msg.sender];\n            Vote storage existedVote = votings[proposalId].votes[voteId];\n            \n            if (existedVote.revoked) {\n\n                // Enable revoked vote status\n                existedVote.revoked = false;\n                votesAccepted = convertVotes(votesSent);\n            } else {\n\n                // For now allowed adding new value only\n                // @todo Implement conditional update: if votesSent less then previous value then do partial withdraw\n                votesSent = existedVote.valueOriginal.add(votes);\n                votesAccepted = convertVotes(votesSent);\n\n                // Emitting this event for consistency\n                emit VoteRevoked(\n                    proposalId,\n                    existedVote.voteType,\n                    msg.sender,\n                    existedVote.valueOriginal\n                );\n            }\n\n            // Update existed Vote\n            existedVote.voteType = voteType;\n            existedVote.valueOriginal = votesSent;            \n            existedVote.valueAccepted = votesAccepted;\n        }\n\n        emit VoteAdded(\n            proposalId,\n            voteType,\n            msg.sender,\n            votesSent,\n            votesAccepted\n        );\n\n        // Transfer tokens to the DAO\n        lockTokens(msg.sender, votes);\n    }\n\n    /**\n     * @dev Revoke of the placed vote\n     *\n     * Requirements:\n     *  - proposal should exists\n     *  - proposal should not be in a passed state\n     *  - proposal should not be cancelled\n     *  - vote should not been already revoked\n     *\n     * @param proposalId Proposal Id\n     */\n    function revokeVote(uint256 proposalId) \n        external \n        proposalExists(proposalId)\n        notPassed(proposalId) \n        notCancelled(proposalId)\n    {\n        Vote storage existedVote = votings[proposalId]\n            .votes[votings[proposalId].ids[msg.sender]];\n\n        require(!existedVote.revoked, \"VOTE_REVOKED\");\n\n        // Exclude vote from the voting results\n        existedVote.revoked = true;\n\n        // Push tokens to the voter\n        releaseTokens(msg.sender, existedVote.valueOriginal);\n        \n        emit VoteRevoked(\n            proposalId,\n            existedVote.voteType,\n            msg.sender,\n            existedVote.valueOriginal\n        );\n    }\n\n    /**\n     * @dev Process proposal\n     *\n     * Requirements:\n     *  - proposal should exists\n     *  - contract not paused\n     *  - sender address should be a proposer address\n     *  - proposal should not be processed\n     *  - proposal should not be cancelled\n     *  - proposal finished\n     *\n     * @param proposalId Proposal Id\n     */\n    function processProposal(uint256 proposalId) \n        external \n        whenNotPaused \n        proposalExists(proposalId)\n        onlyProposer(proposalId) \n        notProcessed(proposalId) \n        notCancelled(proposalId) \n        onlyFinished(proposalId)\n    {}\n\n    /**\n     * @dev Withdraw released tokens\n     * @return uint256 Balance of tokens that available to withdraw\n     */\n    function tokensBalance() external view returns (uint256) {}\n\n    /**\n     * @dev Withdraw released tokens\n     *\n     * Requirements:\n     *  - sender has positive released tokens balance\n     *  - call not reentrant\n     *\n     */\n    function withdrawTokens() external nonReentrant {}\n\n    /**\n     * @dev Get proposal by Id (index)\n     *\n     * Requirements:\n     *  - proposal should exists \n     * \n     * @param proposalId Proposal Id\n     * @return string Proposal details\n     * @return ProposalType Proposal type\n     * @return uint256 Proposal duration in days\n     * @return uint256 Proposal end date\n     * @return bool[3] Proposal status flags\n     * @return address Transaction target address\n     * @return uint256 Ether value to send with transaction\n     * @return bytes Transaction data\n     * @return bool Transaction execution status\n     * @return bool Transaction execution result status\n     */\n    function getProposal(uint256 proposalId) \n        external \n        view \n        proposalExists(proposalId)\n        returns (\n            string memory details,\n            ProposalType proposalType,\n            uint256 duration,\n            uint256 end,\n            bool[3] memory flags,\n            address txDestination,\n            uint256 txValue,\n            bytes memory txData,\n            bool txExecuted,\n            bool txSuccess\n        ) \n    {\n        Proposal storage existedProposal = proposals[proposalId];\n        details = existedProposal.details;\n        proposalType = existedProposal.proposalType;\n        duration = existedProposal.duration;\n        end = existedProposal.end;\n        flags = existedProposal.flags;\n        txDestination = existedProposal.transaction.destination;\n        txValue = existedProposal.transaction.value;\n        txData = existedProposal.transaction.data;\n        txExecuted = existedProposal.transaction.executed;\n        txSuccess = existedProposal.transaction.success;\n    }\n\n    /**\n     * @dev Get own vote from proposal voting\n     * \n     * Requirements:\n     *  - proposal should exists\n     *  - vote should be exist\n     * \n     * @param proposalId Proposal Id\n     * @return VoteType Type of the vote\n     * @return uint256 Original vote value sent\n     * @return uint256 Acceptes vote value\n     * @return bool Reveked state of the vote\n     */\n    function getVote(uint256 proposalId) \n        external \n        view \n        proposalExists(proposalId)\n        voteExists(proposalId)\n        returns(\n            VoteType voteType,\n            uint256 valueOriginal,\n            uint256 valueAccepted,\n            bool revoked\n        ) \n    {\n        Vote storage senderVote = votings[proposalId]\n            .votes[votings[proposalId].ids[msg.sender]];\n        voteType = senderVote.voteType;\n        valueOriginal = senderVote.valueOriginal;\n        valueAccepted = senderVote.valueAccepted;\n        revoked = senderVote.revoked;\n    }\n\n    /**\n     * @dev Get all active proposals Ids\n     * @return uint256[] List of proposals Ids\n     */\n    function getActiveProposalsIds() external view returns (uint256[] memory) {}\n\n    /**\n     * @dev Get all active proposals Ids filtered by proposal type\n     *\n     * Requirements:\n     *  - proposal type should be valid \n     * \n     * @return uint256[] List of proposals Ids\n     */\n    function getActiveProposalsIds(ProposalType proposalType) external view returns (uint256[] memory) {}\n\n    /**\n     * @dev Replace pauser to the new one\n     * \n     * Requirements:\n     *  - sender address should be a pauser address\n     * \n     * @param account New DAO pauser address\n     */\n    function replacePauser(address account) external onlyPauser {\n        _addPauser(account);\n        _removePauser(msg.sender);\n    }\n\n    /**\n     * @dev Replace whitelist admin with new one\n     * \n     * Requirements:\n     *  - sender address should be a whitelisted admin address\n     * \n     * @param account New DAO whitelist admin address\n     */\n    function replaceWhitelistAdmin(address account) external onlyWhitelistAdmin {\n        _addWhitelistAdmin(account);\n        _removeWhitelistAdmin(msg.sender);\n    }\n\n    /**\n     * @dev Get a result of the proposal voting\n     *\n     * Requirements:\n     *  - proposal should exists\n     *\n     * @param proposalId Proposal Id\n     * @return uint256 'Yes' variant voting balance\n     * @return uint256 'No' variant voting balance\n     */\n    function votingResult(uint256 proposalId) \n        public \n        view \n        proposalExists(proposalId)\n        returns(\n            uint256 yes, \n            uint256 no\n        ) \n    {\n        \n        for (uint256 i = 0; i < votings[proposalId].votesCount; i++) {\n            \n            if (!votings[proposalId].votes[i].revoked) {\n\n                if (votings[proposalId].votes[i].voteType == VoteType.Yes) {\n                    yes = yes.add(votings[proposalId].votes[i].valueAccepted);\n                }\n\n                if (votings[proposalId].votes[i].voteType == VoteType.No) {\n                    no = no.add(votings[proposalId].votes[i].valueAccepted);\n                }\n            }\n        }\n    }\n\n    /**\n     * @dev Check is voting is passed \n     *\n     * Requirements:\n     *  - proposal should exists\n     *\n     * @param proposalId Proposal Id\n     * @return uint256 Voting result\n     */\n    function isVotingPassed(uint256 proposalId) \n        public \n        view \n        proposalExists(proposalId)\n        returns(bool) \n    {\n        \n        if (proposals[proposalId].flags[0]) {\n            // We already know result\n            return true;\n        } else if (proposals[proposalId].flags[2]) {\n            // Cancelled proposals are not passing\n            return false;\n        } else if (time() < proposals[proposalId].end) {\n            // Voting not finished yet\n            return false;\n        } else {\n\n            (uint256 yes, uint256 no) = votingResult(proposalId);\n            return yes > no;\n        }\n    }\n\n    /**\n     * @dev Transfer service tokens from the voter to the DAO\n     * @param voter Proposal voter\n     * @param value Amount of service tokens to transfer\n     */\n    function lockTokens(\n        address voter, \n        uint256 value\n    ) internal {\n        serviceToken.safeTransferFrom(voter, address(this), value);\n        emit TokensLocked(\n            voter,\n            value\n        );\n    }\n\n    /**\n     * @dev Release locked tokens for the voter\n     * @param voter Proposal voter\n     * @param value Amount of service tokens to transfer\n     */\n    function releaseTokens(\n        address voter,\n        uint256 value\n    ) internal {\n        serviceToken.safeTransfer(voter, value);\n        emit TokensReleased(\n            voter,\n            value\n        );\n    }\n\n    /**\n     * @dev Send a transaction for the proposal\n     * @param proposalId Proposal Id\n     */\n    function sendTransaction(uint256 proposalId) internal {}\n\n    /**\n     * @dev Convert votes using defined formula\n     * @param votes Amount of service token to use in the vote\n     * @return uint256 Converted votes value\n     */\n    function convertVotes(uint256 votes) internal pure returns (uint256) {\n        return VotingLib.sqrt(votes);\n    }\n\n    /**\n     * @dev Get current time\n     *  \n     * This function can be overriden for testing purposes\n     * \n     * @return uint256 Current block time\n     */\n    function time() internal view returns (uint256) {\n        return now;// solhint-disable-line not-rely-on-time\n    }\n\n    /**\n     * @dev Validate given ProposalType value\n     * @param typeValue Value of ProposalType to validate\n     * @return uint256 Validation result (or throws Invalide opcode instead)\n     */\n    function assertProposalType(ProposalType typeValue) private pure returns (uint256) {\n        return uint256(typeValue);\n    }\n\n    // @todo Add function to withdraw ether funds from contract \n}",
  "sourcePath": "/home/kostysh/dev/dao/packages/contracts/contracts/Dao.sol",
  "compiler": {
    "name": "solc",
    "version": "0.5.14+commit.01f1aaa4.Emscripten.clang"
  },
  "schemaVersion": "3.0.19",
  "updatedAt": "2019-12-26T04:22:06.012Z",
  "devdoc": {
    "author": "Kostiantyn Smyrnov <kostysh@gmail.com>",
    "details": "This contract holds main DAO logic and storages",
    "methods": {
      "addProposal(string,uint8,uint256,address,uint256,bytes)": {
        "details": "Add new proposal     * Requirements: - sender address should be whitelisted - contract should not be in paused state - proposal type should allowed proposalType - destination address should not be a valid target address - sent ether value should be consistent with value parameter ",
        "params": {
          "data": "Signed transaction data",
          "destination": "Transaction target address",
          "details": "Proposal details",
          "duration": "Proposal voting duration in days",
          "proposalType": "Proposal type",
          "value": "Transaction value in ethers"
        }
      },
      "cancelProposal(uint256)": {
        "details": "Cancelling of the proposal     * Requirements: - proposal should exists - sender address should be a proposer address - proposal should not be in a passed state - proposal should not be in a processed state - proposal should not be cancelled - proposal has no votes",
        "params": {
          "proposalId": "Proposal Id"
        }
      },
      "getActiveProposalsIds()": {
        "details": "Get all active proposals Ids",
        "return": "uint256[] List of proposals Ids"
      },
      "getActiveProposalsIds(uint8)": {
        "details": "Get all active proposals Ids filtered by proposal type     * Requirements: - proposal type should be valid  ",
        "return": "uint256[] List of proposals Ids"
      },
      "getProposal(uint256)": {
        "details": "Get proposal by Id (index)     * Requirements: - proposal should exists  ",
        "params": {
          "proposalId": "Proposal Id"
        },
        "return": "string Proposal detailsProposalType Proposal typeuint256 Proposal duration in daysuint256 Proposal end datebool[3] Proposal status flagsaddress Transaction target addressuint256 Ether value to send with transactionbytes Transaction databool Transaction execution statusbool Transaction execution result status"
      },
      "getVote(uint256)": {
        "details": "Get own vote from proposal voting      * Requirements: - proposal should exists - vote should be exist ",
        "params": {
          "proposalId": "Proposal Id"
        },
        "return": "VoteType Type of the voteuint256 Original vote value sentuint256 Acceptes vote valuebool Reveked state of the vote"
      },
      "initialize(address)": {
        "details": "Contract initializer",
        "params": {
          "token": "Address of the service token"
        }
      },
      "isVotingPassed(uint256)": {
        "details": "Check is voting is passed      * Requirements: - proposal should exists",
        "params": {
          "proposalId": "Proposal Id"
        },
        "return": "uint256 Voting result"
      },
      "pause()": {
        "details": "Called by a pauser to pause, triggers stopped state."
      },
      "paused()": {
        "details": "Returns true if the contract is paused, and false otherwise."
      },
      "processProposal(uint256)": {
        "details": "Process proposal     * Requirements: - proposal should exists - contract not paused - sender address should be a proposer address - proposal should not be processed - proposal should not be cancelled - proposal finished",
        "params": {
          "proposalId": "Proposal Id"
        }
      },
      "replacePauser(address)": {
        "details": "Replace pauser to the new one      * Requirements: - sender address should be a pauser address ",
        "params": {
          "account": "New DAO pauser address"
        }
      },
      "replaceWhitelistAdmin(address)": {
        "details": "Replace whitelist admin with new one      * Requirements: - sender address should be a whitelisted admin address ",
        "params": {
          "account": "New DAO whitelist admin address"
        }
      },
      "revokeVote(uint256)": {
        "details": "Revoke of the placed vote     * Requirements: - proposal should exists - proposal should not be in a passed state - proposal should not be cancelled - vote should not been already revoked",
        "params": {
          "proposalId": "Proposal Id"
        }
      },
      "tokensBalance()": {
        "details": "Withdraw released tokens",
        "return": "uint256 Balance of tokens that available to withdraw"
      },
      "unpause()": {
        "details": "Called by a pauser to unpause, returns to normal state."
      },
      "vote(uint256,uint8,uint256)": {
        "details": "Vote for the proposal     * Requirements: - proposal should exists - contract not paused - not a reentrant call - proposal should not be in a passed state - proposal should not be cancelled - sender tokens balance should be sufficient - tokens allowance for the DAO address should be sufficient - voting not expired (does not exceed voting time frame)",
        "params": {
          "proposalId": "Proposal Id",
          "voteType": "Type of the vote (Yes/No)",
          "votes": "Amount of service token to use in the vote"
        }
      },
      "votingResult(uint256)": {
        "details": "Get a result of the proposal voting     * Requirements: - proposal should exists",
        "params": {
          "proposalId": "Proposal Id"
        },
        "return": "uint256 'Yes' variant voting balanceuint256 'No' variant voting balance"
      },
      "withdrawTokens()": {
        "details": "Withdraw released tokens     * Requirements: - sender has positive released tokens balance - call not reentrant     "
      }
    },
    "title": "Universal DAO for projects based on Openzeppelin SDK"
  },
  "userdoc": {
    "methods": {}
  }
}