{
  "contractName": "Dao",
  "abi": [
    {
      "anonymous": false,
      "inputs": [
        {
          "indexed": false,
          "internalType": "address",
          "name": "account",
          "type": "address"
        }
      ],
      "name": "Paused",
      "type": "event"
    },
    {
      "anonymous": false,
      "inputs": [
        {
          "indexed": true,
          "internalType": "address",
          "name": "account",
          "type": "address"
        }
      ],
      "name": "PauserAdded",
      "type": "event"
    },
    {
      "anonymous": false,
      "inputs": [
        {
          "indexed": true,
          "internalType": "address",
          "name": "account",
          "type": "address"
        }
      ],
      "name": "PauserRemoved",
      "type": "event"
    },
    {
      "anonymous": false,
      "inputs": [
        {
          "indexed": false,
          "internalType": "address",
          "name": "proposer",
          "type": "address"
        },
        {
          "indexed": false,
          "internalType": "uint256",
          "name": "proposalId",
          "type": "uint256"
        }
      ],
      "name": "ProposalAdded",
      "type": "event"
    },
    {
      "anonymous": false,
      "inputs": [
        {
          "indexed": false,
          "internalType": "uint256",
          "name": "proposalId",
          "type": "uint256"
        }
      ],
      "name": "ProposalCancelled",
      "type": "event"
    },
    {
      "anonymous": false,
      "inputs": [
        {
          "indexed": false,
          "internalType": "uint256",
          "name": "proposalId",
          "type": "uint256"
        },
        {
          "indexed": false,
          "internalType": "bool",
          "name": "passed",
          "type": "bool"
        }
      ],
      "name": "ProposalProcessed",
      "type": "event"
    },
    {
      "anonymous": false,
      "inputs": [
        {
          "indexed": false,
          "internalType": "address",
          "name": "voter",
          "type": "address"
        },
        {
          "indexed": false,
          "internalType": "uint256",
          "name": "value",
          "type": "uint256"
        }
      ],
      "name": "TokensLocked",
      "type": "event"
    },
    {
      "anonymous": false,
      "inputs": [
        {
          "indexed": false,
          "internalType": "address",
          "name": "voter",
          "type": "address"
        },
        {
          "indexed": false,
          "internalType": "uint256",
          "name": "value",
          "type": "uint256"
        }
      ],
      "name": "TokensReleased",
      "type": "event"
    },
    {
      "anonymous": false,
      "inputs": [
        {
          "indexed": false,
          "internalType": "uint256",
          "name": "proposalId",
          "type": "uint256"
        }
      ],
      "name": "TransactionFailed",
      "type": "event"
    },
    {
      "anonymous": false,
      "inputs": [
        {
          "indexed": false,
          "internalType": "uint256",
          "name": "proposalId",
          "type": "uint256"
        }
      ],
      "name": "TransactionSuccessed",
      "type": "event"
    },
    {
      "anonymous": false,
      "inputs": [
        {
          "indexed": false,
          "internalType": "address",
          "name": "account",
          "type": "address"
        }
      ],
      "name": "Unpaused",
      "type": "event"
    },
    {
      "anonymous": false,
      "inputs": [
        {
          "indexed": false,
          "internalType": "uint256",
          "name": "proposalId",
          "type": "uint256"
        },
        {
          "indexed": false,
          "internalType": "enum Dao.VoteType",
          "name": "voteType",
          "type": "uint8"
        },
        {
          "indexed": false,
          "internalType": "address",
          "name": "voter",
          "type": "address"
        },
        {
          "indexed": false,
          "internalType": "uint256",
          "name": "votes",
          "type": "uint256"
        },
        {
          "indexed": false,
          "internalType": "uint256",
          "name": "votesAccepted",
          "type": "uint256"
        }
      ],
      "name": "VoteAdded",
      "type": "event"
    },
    {
      "anonymous": false,
      "inputs": [
        {
          "indexed": false,
          "internalType": "uint256",
          "name": "proposalId",
          "type": "uint256"
        },
        {
          "indexed": false,
          "internalType": "enum Dao.VoteType",
          "name": "voteType",
          "type": "uint8"
        },
        {
          "indexed": false,
          "internalType": "address",
          "name": "voter",
          "type": "address"
        },
        {
          "indexed": false,
          "internalType": "uint256",
          "name": "votes",
          "type": "uint256"
        }
      ],
      "name": "VoteRevoked",
      "type": "event"
    },
    {
      "anonymous": false,
      "inputs": [
        {
          "indexed": true,
          "internalType": "address",
          "name": "account",
          "type": "address"
        }
      ],
      "name": "WhitelistAdminAdded",
      "type": "event"
    },
    {
      "anonymous": false,
      "inputs": [
        {
          "indexed": true,
          "internalType": "address",
          "name": "account",
          "type": "address"
        }
      ],
      "name": "WhitelistAdminRemoved",
      "type": "event"
    },
    {
      "anonymous": false,
      "inputs": [
        {
          "indexed": true,
          "internalType": "address",
          "name": "account",
          "type": "address"
        }
      ],
      "name": "WhitelistedAdded",
      "type": "event"
    },
    {
      "anonymous": false,
      "inputs": [
        {
          "indexed": true,
          "internalType": "address",
          "name": "account",
          "type": "address"
        }
      ],
      "name": "WhitelistedRemoved",
      "type": "event"
    },
    {
      "constant": false,
      "inputs": [
        {
          "internalType": "address",
          "name": "account",
          "type": "address"
        }
      ],
      "name": "addPauser",
      "outputs": [],
      "payable": false,
      "stateMutability": "nonpayable",
      "type": "function"
    },
    {
      "constant": false,
      "inputs": [
        {
          "internalType": "address",
          "name": "account",
          "type": "address"
        }
      ],
      "name": "addWhitelistAdmin",
      "outputs": [],
      "payable": false,
      "stateMutability": "nonpayable",
      "type": "function"
    },
    {
      "constant": false,
      "inputs": [
        {
          "internalType": "address",
          "name": "account",
          "type": "address"
        }
      ],
      "name": "addWhitelisted",
      "outputs": [],
      "payable": false,
      "stateMutability": "nonpayable",
      "type": "function"
    },
    {
      "constant": true,
      "inputs": [
        {
          "internalType": "address",
          "name": "account",
          "type": "address"
        }
      ],
      "name": "isPauser",
      "outputs": [
        {
          "internalType": "bool",
          "name": "",
          "type": "bool"
        }
      ],
      "payable": false,
      "stateMutability": "view",
      "type": "function"
    },
    {
      "constant": true,
      "inputs": [
        {
          "internalType": "address",
          "name": "account",
          "type": "address"
        }
      ],
      "name": "isWhitelistAdmin",
      "outputs": [
        {
          "internalType": "bool",
          "name": "",
          "type": "bool"
        }
      ],
      "payable": false,
      "stateMutability": "view",
      "type": "function"
    },
    {
      "constant": true,
      "inputs": [
        {
          "internalType": "address",
          "name": "account",
          "type": "address"
        }
      ],
      "name": "isWhitelisted",
      "outputs": [
        {
          "internalType": "bool",
          "name": "",
          "type": "bool"
        }
      ],
      "payable": false,
      "stateMutability": "view",
      "type": "function"
    },
    {
      "constant": false,
      "inputs": [],
      "name": "pause",
      "outputs": [],
      "payable": false,
      "stateMutability": "nonpayable",
      "type": "function"
    },
    {
      "constant": true,
      "inputs": [],
      "name": "paused",
      "outputs": [
        {
          "internalType": "bool",
          "name": "",
          "type": "bool"
        }
      ],
      "payable": false,
      "stateMutability": "view",
      "type": "function"
    },
    {
      "constant": true,
      "inputs": [],
      "name": "proposalCount",
      "outputs": [
        {
          "internalType": "uint256",
          "name": "",
          "type": "uint256"
        }
      ],
      "payable": false,
      "stateMutability": "view",
      "type": "function"
    },
    {
      "constant": false,
      "inputs": [
        {
          "internalType": "address",
          "name": "account",
          "type": "address"
        }
      ],
      "name": "removeWhitelisted",
      "outputs": [],
      "payable": false,
      "stateMutability": "nonpayable",
      "type": "function"
    },
    {
      "constant": false,
      "inputs": [],
      "name": "renouncePauser",
      "outputs": [],
      "payable": false,
      "stateMutability": "nonpayable",
      "type": "function"
    },
    {
      "constant": false,
      "inputs": [],
      "name": "renounceWhitelistAdmin",
      "outputs": [],
      "payable": false,
      "stateMutability": "nonpayable",
      "type": "function"
    },
    {
      "constant": false,
      "inputs": [],
      "name": "renounceWhitelisted",
      "outputs": [],
      "payable": false,
      "stateMutability": "nonpayable",
      "type": "function"
    },
    {
      "constant": true,
      "inputs": [],
      "name": "serviceToken",
      "outputs": [
        {
          "internalType": "contract IERC20",
          "name": "",
          "type": "address"
        }
      ],
      "payable": false,
      "stateMutability": "view",
      "type": "function"
    },
    {
      "constant": false,
      "inputs": [],
      "name": "unpause",
      "outputs": [],
      "payable": false,
      "stateMutability": "nonpayable",
      "type": "function"
    },
    {
      "constant": false,
      "inputs": [
        {
          "internalType": "address",
          "name": "token",
          "type": "address"
        }
      ],
      "name": "initialize",
      "outputs": [],
      "payable": false,
      "stateMutability": "nonpayable",
      "type": "function"
    },
    {
      "constant": false,
      "inputs": [
        {
          "internalType": "string",
          "name": "details",
          "type": "string"
        },
        {
          "internalType": "enum Dao.ProposalType",
          "name": "proposalType",
          "type": "uint8"
        },
        {
          "internalType": "uint256",
          "name": "duration",
          "type": "uint256"
        },
        {
          "internalType": "address",
          "name": "destination",
          "type": "address"
        },
        {
          "internalType": "uint256",
          "name": "value",
          "type": "uint256"
        },
        {
          "internalType": "bytes",
          "name": "data",
          "type": "bytes"
        }
      ],
      "name": "addProposal",
      "outputs": [],
      "payable": true,
      "stateMutability": "payable",
      "type": "function"
    },
    {
      "constant": false,
      "inputs": [
        {
          "internalType": "uint256",
          "name": "proposalId",
          "type": "uint256"
        }
      ],
      "name": "cancelProposal",
      "outputs": [],
      "payable": false,
      "stateMutability": "nonpayable",
      "type": "function"
    },
    {
      "constant": false,
      "inputs": [
        {
          "internalType": "uint256",
          "name": "proposalId",
          "type": "uint256"
        },
        {
          "internalType": "enum Dao.VoteType",
          "name": "voteType",
          "type": "uint8"
        },
        {
          "internalType": "uint256",
          "name": "votes",
          "type": "uint256"
        }
      ],
      "name": "vote",
      "outputs": [],
      "payable": false,
      "stateMutability": "nonpayable",
      "type": "function"
    },
    {
      "constant": false,
      "inputs": [
        {
          "internalType": "uint256",
          "name": "proposalId",
          "type": "uint256"
        }
      ],
      "name": "revokeVote",
      "outputs": [],
      "payable": false,
      "stateMutability": "nonpayable",
      "type": "function"
    },
    {
      "constant": false,
      "inputs": [
        {
          "internalType": "uint256",
          "name": "proposalId",
          "type": "uint256"
        }
      ],
      "name": "processProposal",
      "outputs": [],
      "payable": false,
      "stateMutability": "nonpayable",
      "type": "function"
    },
    {
      "constant": true,
      "inputs": [],
      "name": "tokensBalance",
      "outputs": [
        {
          "internalType": "uint256",
          "name": "",
          "type": "uint256"
        }
      ],
      "payable": false,
      "stateMutability": "view",
      "type": "function"
    },
    {
      "constant": false,
      "inputs": [
        {
          "internalType": "uint256",
          "name": "proposalId",
          "type": "uint256"
        }
      ],
      "name": "withdrawTokens",
      "outputs": [],
      "payable": false,
      "stateMutability": "nonpayable",
      "type": "function"
    },
    {
      "constant": true,
      "inputs": [
        {
          "internalType": "uint256",
          "name": "proposalId",
          "type": "uint256"
        }
      ],
      "name": "getProposal",
      "outputs": [
        {
          "internalType": "string",
          "name": "details",
          "type": "string"
        },
        {
          "internalType": "enum Dao.ProposalType",
          "name": "proposalType",
          "type": "uint8"
        },
        {
          "internalType": "uint256",
          "name": "duration",
          "type": "uint256"
        },
        {
          "internalType": "uint256",
          "name": "end",
          "type": "uint256"
        },
        {
          "internalType": "bool[3]",
          "name": "flags",
          "type": "bool[3]"
        },
        {
          "internalType": "address",
          "name": "txDestination",
          "type": "address"
        },
        {
          "internalType": "uint256",
          "name": "txValue",
          "type": "uint256"
        },
        {
          "internalType": "bytes",
          "name": "txData",
          "type": "bytes"
        },
        {
          "internalType": "bool",
          "name": "txExecuted",
          "type": "bool"
        },
        {
          "internalType": "bool",
          "name": "txSuccess",
          "type": "bool"
        }
      ],
      "payable": false,
      "stateMutability": "view",
      "type": "function"
    },
    {
      "constant": true,
      "inputs": [
        {
          "internalType": "uint256",
          "name": "proposalId",
          "type": "uint256"
        }
      ],
      "name": "getVote",
      "outputs": [
        {
          "internalType": "enum Dao.VoteType",
          "name": "voteType",
          "type": "uint8"
        },
        {
          "internalType": "uint256",
          "name": "valueOriginal",
          "type": "uint256"
        },
        {
          "internalType": "uint256",
          "name": "valueAccepted",
          "type": "uint256"
        },
        {
          "internalType": "bool",
          "name": "revoked",
          "type": "bool"
        }
      ],
      "payable": false,
      "stateMutability": "view",
      "type": "function"
    },
    {
      "constant": true,
      "inputs": [],
      "name": "getActiveProposalsIds",
      "outputs": [
        {
          "internalType": "uint256[]",
          "name": "",
          "type": "uint256[]"
        }
      ],
      "payable": false,
      "stateMutability": "view",
      "type": "function"
    },
    {
      "constant": true,
      "inputs": [
        {
          "internalType": "enum Dao.ProposalType",
          "name": "proposalType",
          "type": "uint8"
        }
      ],
      "name": "getActiveProposalsIds",
      "outputs": [
        {
          "internalType": "uint256[]",
          "name": "",
          "type": "uint256[]"
        }
      ],
      "payable": false,
      "stateMutability": "view",
      "type": "function"
    },
    {
      "constant": false,
      "inputs": [
        {
          "internalType": "address",
          "name": "account",
          "type": "address"
        }
      ],
      "name": "replacePauser",
      "outputs": [],
      "payable": false,
      "stateMutability": "nonpayable",
      "type": "function"
    },
    {
      "constant": false,
      "inputs": [
        {
          "internalType": "address",
          "name": "account",
          "type": "address"
        }
      ],
      "name": "replaceWhitelistAdmin",
      "outputs": [],
      "payable": false,
      "stateMutability": "nonpayable",
      "type": "function"
    },
    {
      "constant": true,
      "inputs": [
        {
          "internalType": "uint256",
          "name": "proposalId",
          "type": "uint256"
        }
      ],
      "name": "votingResult",
      "outputs": [
        {
          "internalType": "uint256",
          "name": "yes",
          "type": "uint256"
        },
        {
          "internalType": "uint256",
          "name": "no",
          "type": "uint256"
        }
      ],
      "payable": false,
      "stateMutability": "view",
      "type": "function"
    },
    {
      "constant": true,
      "inputs": [
        {
          "internalType": "uint256",
          "name": "proposalId",
          "type": "uint256"
        }
      ],
      "name": "isVotingPassed",
      "outputs": [
        {
          "internalType": "bool",
          "name": "",
          "type": "bool"
        }
      ],
      "payable": false,
      "stateMutability": "view",
      "type": "function"
    }
  ],
  "bytecode": "0x60806040526200002a6200001b6001600160e01b036200006516565b6001600160e01b036200006916565b6034805460ff191690556200005a6200004b6001600160e01b036200006516565b6001600160e01b03620000bb16565b600160375562000203565b3390565b620000848160336200010d60201b62002ca91790919060201c565b6040516001600160a01b038216907f6719d08c1888103bea251a4ed56406bd0c3e69723c8a1686e017e7bbe159b6f890600090a250565b620000d68160356200010d60201b62002ca91790919060201c565b6040516001600160a01b038216907f22380c05984257a1cb900161c713dd71d39e74820f1aea43bd3f1bdd2096129990600090a250565b6200012282826001600160e01b036200019a16565b1562000175576040805162461bcd60e51b815260206004820152601f60248201527f526f6c65733a206163636f756e7420616c72656164792068617320726f6c6500604482015290519081900360640190fd5b6001600160a01b0316600090815260209190915260409020805460ff19166001179055565b60006001600160a01b038216620001e35760405162461bcd60e51b8152600401808060200182810382526022815260200180620035666022913960400191505060405180910390fd5b506001600160a01b03166000908152602091909152604090205460ff1690565b61335380620002136000396000f3fe6080604052600436106101d85760003560e01c80637c2466ff11610102578063c7f758a811610095578063e0a8f6f511610064578063e0a8f6f5146108da578063e520251a14610904578063e63bc62d1461093d578063f73a8b4a14610967576101d8565b8063c7f758a8146106fc578063c8032a8414610889578063d6cd9473146108b0578063da35c664146108c5576101d8565b806386583746116100d15780638658374614610632578063b769296814610665578063bb5f747b14610696578063c4d66de8146106c9576101d8565b80637c2466ff146104f15780637e9b8f80146105d557806382dc1ec4146105ea5780638456cb591461061d576101d8565b80634c5a628c1161017a57806361d140511161014957806361d140511461043c5780636a96bab41461047f5780636ef8d66d146104a95780637362d9c8146104be576101d8565b80634c5a628c146103315780635a55c1f0146103465780635c975abb146103aa57806361301afa146103bf576101d8565b8063315a095d116101b6578063315a095d146102785780633af32abf146102a25780633f4ba83a146102e957806346fbf68e146102fe576101d8565b806310154bad146101dd57806319819ff514610212578063291d954914610245575b600080fd5b3480156101e957600080fd5b506102106004803603602081101561020057600080fd5b50356001600160a01b0316610991565b005b34801561021e57600080fd5b506102106004803603602081101561023557600080fd5b50356001600160a01b03166109e8565b34801561025157600080fd5b506102106004803603602081101561026857600080fd5b50356001600160a01b0316610a40565b34801561028457600080fd5b506102106004803603602081101561029b57600080fd5b5035610a8f565b3480156102ae57600080fd5b506102d5600480360360208110156102c557600080fd5b50356001600160a01b0316610b5c565b604080519115158252519081900360200190f35b3480156102f557600080fd5b50610210610b75565b34801561030a57600080fd5b506102d56004803603602081101561032157600080fd5b50356001600160a01b0316610c5e565b34801561033d57600080fd5b50610210610c71565b34801561035257600080fd5b506103706004803603602081101561036957600080fd5b5035610c83565b6040518085600181111561038057fe5b60ff1681526020810194909452506040808401929092521515606083015251908190036080019150f35b3480156103b657600080fd5b506102d5610d92565b3480156103cb57600080fd5b506103ec600480360360208110156103e257600080fd5b503560ff16610d9c565b60408051602080825283518183015283519192839290830191858101910280838360005b83811015610428578181015183820152602001610410565b505050509050019250505060405180910390f35b34801561044857600080fd5b506104666004803603602081101561045f57600080fd5b5035610da2565b6040805192835260208301919091528051918290030190f35b34801561048b57600080fd5b506102d5600480360360208110156104a257600080fd5b5035610f1e565b3480156104b557600080fd5b5061021061100a565b3480156104ca57600080fd5b50610210600480360360208110156104e157600080fd5b50356001600160a01b031661101a565b610210600480360360c081101561050757600080fd5b81019060208101813564010000000081111561052257600080fd5b82018360208201111561053457600080fd5b8035906020019184600183028401116401000000008311171561055657600080fd5b9193909260ff833516926020810135926001600160a01b036040830135169260608301359260a08101906080013564010000000081111561059657600080fd5b8201836020820111156105a857600080fd5b803590602001918460018302840111640100000000831117156105ca57600080fd5b509092509050611069565b3480156105e157600080fd5b506103ec61143b565b3480156105f657600080fd5b506102106004803603602081101561060d57600080fd5b50356001600160a01b0316611440565b34801561062957600080fd5b5061021061148f565b34801561063e57600080fd5b506102106004803603602081101561065557600080fd5b50356001600160a01b0316611556565b34801561067157600080fd5b5061067a6115ae565b604080516001600160a01b039092168252519081900360200190f35b3480156106a257600080fd5b506102d5600480360360208110156106b957600080fd5b50356001600160a01b03166115bd565b3480156106d557600080fd5b50610210600480360360208110156106ec57600080fd5b50356001600160a01b03166115d0565b34801561070857600080fd5b506107266004803603602081101561071f57600080fd5b50356116a4565b60405180806020018b600181111561073a57fe5b60ff1681526020018a815260200189815260200188600360200280838360005b8381101561077257818101518382015260200161075a565b50505050905001876001600160a01b03166001600160a01b0316815260200186815260200180602001851515151581526020018415151515815260200183810383528d818151815260200191508051906020019080838360005b838110156107e45781810151838201526020016107cc565b50505050905090810190601f1680156108115780820380516001836020036101000a031916815260200191505b50838103825286518152865160209182019188019080838360005b8381101561084457818101518382015260200161082c565b50505050905090810190601f1680156108715780820380516001836020036101000a031916815260200191505b509c5050505050505050505050505060405180910390f35b34801561089557600080fd5b5061089e611909565b60408051918252519081900360200190f35b3480156108bc57600080fd5b5061021061190e565b3480156108d157600080fd5b5061089e61191e565b3480156108e657600080fd5b50610210600480360360208110156108fd57600080fd5b5035611924565b34801561091057600080fd5b506102106004803603606081101561092757600080fd5b5080359060ff6020820135169060400135611bc1565b34801561094957600080fd5b506102106004803603602081101561096057600080fd5b5035612295565b34801561097357600080fd5b506102106004803603602081101561098a57600080fd5b5035612699565b6109a161099c6128cb565b6115bd565b6109dc5760405162461bcd60e51b815260040180806020018281038252604081526020018061327b6040913960400191505060405180910390fd5b6109e5816128cf565b50565b6109f361099c6128cb565b610a2e5760405162461bcd60e51b815260040180806020018281038252604081526020018061327b6040913960400191505060405180910390fd5b610a3781612917565b6109e53361295f565b610a4b61099c6128cb565b610a865760405162461bcd60e51b815260040180806020018281038252604081526020018061327b6040913960400191505060405180910390fd5b6109e5816129a7565b60378054600101908190556000828152603a60205260409020600801548290610ab66129ef565b1015610b01576040805162461bcd60e51b8152602060048201526015602482015274141493d413d4d05317d393d517d192539254d21151605a1b604482015290519081900360640190fd5b506037548114610b58576040805162461bcd60e51b815260206004820152601f60248201527f5265656e7472616e637947756172643a207265656e7472616e742063616c6c00604482015290519081900360640190fd5b5050565b6000610b6f60368363ffffffff6129f316565b92915050565b610b85610b806128cb565b610c5e565b610bc05760405162461bcd60e51b81526004018080602001828103825260308152602001806131b96030913960400191505060405180910390fd5b60345460ff16610c0e576040805162461bcd60e51b815260206004820152601460248201527314185d5cd8589b194e881b9bdd081c185d5cd95960621b604482015290519081900360640190fd5b6034805460ff191690557f5db9ee0a495bf2e6ff9c91a7834c1ba4fdd244a5e8aa4e537bd38aeae4b073aa610c416128cb565b604080516001600160a01b039092168252519081900360200190a1565b6000610b6f60338363ffffffff6129f316565b610c81610c7c6128cb565b61295f565b565b6000818152603a60205260408120600701548190819081908590610ce3576040805162461bcd60e51b8152602060048201526012602482015271141493d413d4d05317d393d517d193d5539160721b604482015290519081900360640190fd5b6000868152603b60209081526040808320338452600101909152902054869060ff16610d47576040805162461bcd60e51b815260206004820152600e60248201526d1593d51157d393d517d193d5539160921b604482015290519081900360640190fd5b50505060009384525050603b602090815260408084203385528083528185205485526002908101909252909220805460018201549382015460039092015460ff918216959293501690565b60345460ff165b90565b50606090565b6000818152603a602052604081206007015481908390610dfe576040805162461bcd60e51b8152602060048201526012602482015271141493d413d4d05317d393d517d193d5539160721b604482015290519081900360640190fd5b60005b6000858152603b6020526040902060030154811015610f17576000858152603b6020908152604080832084845260020190915290206003015460ff16610f0f576000858152603b6020908152604080832084845260020190915281205460ff166001811115610e6c57fe5b1415610ea7576000858152603b6020908152604080832084845260029081019092529091200154610ea490859063ffffffff612a5a16565b93505b60016000868152603b6020908152604080832085845260020190915290205460ff166001811115610ed457fe5b1415610f0f576000858152603b6020908152604080832084845260029081019092529091200154610f0c90849063ffffffff612a5a16565b92505b600101610e01565b5050915091565b6000818152603a60205260408120600701548290610f78576040805162461bcd60e51b8152602060048201526012602482015271141493d413d4d05317d393d517d193d5539160721b604482015290519081900360640190fd5b6000838152603a602052604090206009015460ff1615610f9b5760019150611004565b6000838152603a602052604090206009015462010000900460ff1615610fc45760009150611004565b6000838152603a6020526040902060080154610fde6129ef565b1015610fed5760009150611004565b600080610ff985610da2565b109350611004915050565b50919050565b610c816110156128cb565b612abb565b61102561099c6128cb565b6110605760405162461bcd60e51b815260040180806020018281038252604081526020018061327b6040913960400191505060405180910390fd5b6109e581612917565b6110796110746128cb565b610b5c565b6110b45760405162461bcd60e51b815260040180806020018281038252603a8152602001806132bb603a913960400191505060405180910390fd5b60345460ff16156110ff576040805162461bcd60e51b815260206004820152601060248201526f14185d5cd8589b194e881c185d5cd95960821b604482015290519081900360640190fd5b61110886612b03565b506001600160a01b03841661115a576040805162461bcd60e51b815260206004820152601360248201527224a72b20a624a22fa222a9aa24a720aa24a7a760691b604482015290519081900360640190fd5b82158061117257506000831180156111725750823410155b6111c3576040805162461bcd60e51b815260206004820152601860248201527f494e53554646494349454e545f45544845525f56414c55450000000000000000604482015290519081900360640190fd5b60395460408051338152602081019290925280517f294a8b64183582a911805b3a31b11b3c4d20c7431578897c6abcc35aae886d5e9281900390910190a1611209613056565b6040518060e00160405280336001600160a01b031681526020018a8a8080601f01602080910402602001604051908101604052809392919081815260200183838082843760009201919091525050509082525060200188600181111561126b57fe5b81526020016040518060a00160405280886001600160a01b0316815260200187815260200186868080601f016020809104026020016040519081016040528093929190818152602001838380828437600092018290525093855250505060208083018290526040928301919091529183529082018990520161130d6112f9896201518063ffffffff612b1116565b6113016129ef565b9063ffffffff612a5a16565b815260209081018390526039546000908152603a825260409020825181546001600160a01b0319166001600160a01b03909116178155828201518051919261135d92600185019290910190613074565b50604082015160028201805460ff19166001838181111561137a57fe5b0217905550606082015180516003830180546001600160a01b0319166001600160a01b039092169190911781556020808301516004850155604083015180516113c99260058701920190613074565b5060608201516003918201805460809485015115156101000261ff001993151560ff19909216919091179290921691909117905590830151600783015560a0830151600883015560c0830151611424916009840191906130f2565b505060398054600101905550505050505050505050565b606090565b61144b610b806128cb565b6114865760405162461bcd60e51b81526004018080602001828103825260308152602001806131b96030913960400191505060405180910390fd5b6109e581612b6a565b61149a610b806128cb565b6114d55760405162461bcd60e51b81526004018080602001828103825260308152602001806131b96030913960400191505060405180910390fd5b60345460ff1615611520576040805162461bcd60e51b815260206004820152601060248201526f14185d5cd8589b194e881c185d5cd95960821b604482015290519081900360640190fd5b6034805460ff191660011790557f62e78cea01bee320cd4e420270b5ea74000d11b0c9f74754ebdbfc544b05a258610c416128cb565b611561610b806128cb565b61159c5760405162461bcd60e51b81526004018080602001828103825260308152602001806131b96030913960400191505060405180910390fd5b6115a581612b6a565b6109e533612abb565b6038546001600160a01b031681565b6000610b6f60358363ffffffff6129f316565b600054610100900460ff16806115e957506115e9612bb2565b806115f7575060005460ff16155b6116325760405162461bcd60e51b815260040180806020018281038252602e81526020018061324d602e913960400191505060405180910390fd5b600054610100900460ff1615801561165d576000805460ff1961ff0019909116610100171660011790555b603880546001600160a01b0319166001600160a01b038416179055600060395561168633612b6a565b61168f33612917565b8015610b58576000805461ff00191690555050565b606060008060006116b3613056565b6000868152603a60205260408120600701548190606090829081908b90611716576040805162461bcd60e51b8152602060048201526012602482015271141493d413d4d05317d393d517d193d5539160721b604482015290519081900360640190fd5b60008c8152603a6020908152604091829020600180820180548551600293821615610100026000190190911692909204601f8101859004850283018501909552848252919390928301828280156117ae5780601f10611783576101008083540402835291602001916117ae565b820191906000526020600020905b81548152906001019060200180831161179157829003601f168201915b50505050509b508060020160009054906101000a900460ff169a50806007015499508060080154985080600901600380602002604051908101604052809291908260038015611832576020028201916000905b825461010083900a900460ff1615158152602060019283018181049485019490930390920291018084116118015790505b505050506003830154600484015460058501805460408051602060026101006001861615026000190190941693909304601f8101849004840282018401909252818152969e506001600160a01b039094169c50919a5092508301828280156118db5780601f106118b0576101008083540402835291602001916118db565b820191906000526020600020905b8154815290600101906020018083116118be57829003601f168201915b5050506006909301549d9f9c9e509a9c999b989a509698959760ff8088169761010090041695509350505050565b600090565b610c816119196128cb565b6129a7565b60395481565b6000818152603a6020526040902060070154819061197e576040805162461bcd60e51b8152602060048201526012602482015271141493d413d4d05317d393d517d193d5539160721b604482015290519081900360640190fd5b6000828152603a602052604090205482906001600160a01b031633146119dc576040805162461bcd60e51b815260206004820152600e60248201526d2727aa2fa0afa82927a827a9a2a960911b604482015290519081900360640190fd5b6000838152603a6020526040902060090154839060ff1615611a37576040805162461bcd60e51b815260206004820152600f60248201526e141493d413d4d05317d41054d4d151608a1b604482015290519081900360640190fd5b6000848152603a60205260409020600901548490610100900460ff1615611a9a576040805162461bcd60e51b8152602060048201526012602482015271141493d413d4d05317d41493d0d154d4d15160721b604482015290519081900360640190fd5b6000858152603a6020526040902060090154859062010000900460ff1615611afe576040805162461bcd60e51b8152602060048201526012602482015271141493d413d4d05317d0d05390d15313115160721b604482015290519081900360640190fd5b600080611b0a88610da2565b91509150816000148015611b1c575080155b611b62576040805162461bcd60e51b815260206004820152601260248201527150524f504f53414c5f4841535f564f54455360701b604482015290519081900360640190fd5b6000888152603a6020908152604091829020600901805462ff000019166201000017905581518a815291517f416e669c63d9a3a5e36ee7cc7e2104b8db28ccd286aa18966e98fa230c73b08c9281900390910190a15050505050505050565b60345460ff1615611c0c576040805162461bcd60e51b815260206004820152601060248201526f14185d5cd8589b194e881c185d5cd95960821b604482015290519081900360640190fd5b60378054600101908190556000848152603a60205260409020600701548490611c71576040805162461bcd60e51b8152602060048201526012602482015271141493d413d4d05317d393d517d193d5539160721b604482015290519081900360640190fd5b6000858152603a6020526040902060090154859060ff1615611ccc576040805162461bcd60e51b815260206004820152600f60248201526e141493d413d4d05317d41054d4d151608a1b604482015290519081900360640190fd5b6000868152603a6020526040902060090154869062010000900460ff1615611d30576040805162461bcd60e51b8152602060048201526012602482015271141493d413d4d05317d0d05390d15313115160721b604482015290519081900360640190fd5b6000878152603a60205260409020600801548790611d4c6129ef565b10611d92576040805162461bcd60e51b8152602060048201526011602482015270141493d413d4d05317d192539254d21151607a1b604482015290519081900360640190fd5b603854604080516370a0823160e01b8152336004820152905188926001600160a01b0316916370a08231916024808301926020929190829003018186803b158015611ddc57600080fd5b505afa158015611df0573d6000803e3d6000fd5b505050506040513d6020811015611e0657600080fd5b50511015611e5b576040805162461bcd60e51b815260206004820152601b60248201527f494e53554646494349454e545f544f4b454e535f42414c414e43450000000000604482015290519081900360640190fd5b60385460408051636eb1769f60e11b8152336004820152306024820152905188926001600160a01b03169163dd62ed3e916044808301926020929190829003018186803b158015611eab57600080fd5b505afa158015611ebf573d6000803e3d6000fd5b505050506040513d6020811015611ed557600080fd5b50511015611f2a576040805162461bcd60e51b815260206004820152601d60248201527f494e53554646494349454e545f544f4b454e535f414c4c4f57414e4345000000604482015290519081900360640190fd5b6000888152603b60209081526040808320338452600101909152812054879190819060ff16612097575060008a8152603b6020908152604080832060038101543385529252909120819055611f7e83612bb8565b915060405180608001604052808b6001811115611f9757fe5b815260208082018690526040808301869052600060609093018390528e8352603b8252808320858452600201909152902081518154829060ff191660018381811115611fdf57fe5b0217905550602082015181600101556040820151816002015560608201518160030160006101000a81548160ff0219169083151502179055509050506001603b60008d81526020019081526020016000206001016000336001600160a01b03166001600160a01b0316815260200190815260200160002060006101000a81548160ff0219169083151502179055506001603b60008d8152602001908152602001600020600301600082825401925050819055506121bb565b5060008a8152603b60209081526040808320338452808352818420548085526002909101909252909120600381015460ff16156120ea5760038101805460ff191690556120e384612bb8565b9250612191565b60018101546120ff908b63ffffffff612a5a16565b935061210a84612bb8565b92507f940ff8122c3cdbdc4a4aa871d42fdf13e863866d63ab2ea9fc0af542894daff48c8260000160009054906101000a900460ff163384600101546040518085815260200184600181111561215c57fe5b60ff168152602001836001600160a01b03166001600160a01b0316815260200182815260200194505050505060405180910390a15b80548b90829060ff1916600183818111156121a857fe5b0217905550600181018490556002018290555b7f615fd00d334fb9ec9d221e8191b07961008426504d05e916a5e961a64d3a21b18b8b338686604051808681526020018560018111156121f757fe5b60ff1681526001600160a01b039094166020850152506040808401929092526060830152519081900360800192509050a1612232338a612bc3565b50505050505050603754811461228f576040805162461bcd60e51b815260206004820152601f60248201527f5265656e7472616e637947756172643a207265656e7472616e742063616c6c00604482015290519081900360640190fd5b50505050565b60345460ff16156122e0576040805162461bcd60e51b815260206004820152601060248201526f14185d5cd8589b194e881c185d5cd95960821b604482015290519081900360640190fd5b6000818152603a6020526040902060070154819061233a576040805162461bcd60e51b8152602060048201526012602482015271141493d413d4d05317d393d517d193d5539160721b604482015290519081900360640190fd5b6000828152603a602052604090205482906001600160a01b03163314612398576040805162461bcd60e51b815260206004820152600e60248201526d2727aa2fa0afa82927a827a9a2a960911b604482015290519081900360640190fd5b6000838152603a60205260409020600901548390610100900460ff16156123fb576040805162461bcd60e51b8152602060048201526012602482015271141493d413d4d05317d41493d0d154d4d15160721b604482015290519081900360640190fd5b6000848152603a6020526040902060090154849062010000900460ff161561245f576040805162461bcd60e51b8152602060048201526012602482015271141493d413d4d05317d0d05390d15313115160721b604482015290519081900360640190fd5b6000858152603a6020526040902060080154859061247b6129ef565b10156124c6576040805162461bcd60e51b8152602060048201526015602482015274141493d413d4d05317d393d517d192539254d21151605a1b604482015290519081900360640190fd5b6000868152603a6020526040812060098101805461ff001916610100179055906124ef88610f1e565b604080518a8152821515602082015281519293507fcc8b74c10cae169918eab7cf3272b0a540854b8a4d12281590885d07fed34f6e929081900390910190a1801561268f5760098201805460ff1916600190811790915560038301546004840154600585018054604080516020600260001998851615610100029890980190931696909604601f81018390048302870183019091528086526000956125f9956001600160a01b0316949390929091908301828280156125ef5780601f106125c4576101008083540402835291602001916125ef565b820191906000526020600020905b8154815290600101906020018083116125d257829003601f168201915b5050505050612c29565b60068401805460ff19166001179055905080156126595760068301805461ff001916610100179055604080518a815290517ff25d1eb843be2601e5db773f59cb25699ae9d3df1b9254508313091fce8933659181900360200190a161268d565b604080518a815290517fe23a6a9556cd21c6bb855e17fd21d654c8e203ac086373ee44eddea75167a19d9181900360200190a15b505b5050505050505050565b6000818152603a602052604090206007015481906126f3576040805162461bcd60e51b8152602060048201526012602482015271141493d413d4d05317d393d517d193d5539160721b604482015290519081900360640190fd5b6000828152603a6020526040902060090154829060ff161561274e576040805162461bcd60e51b815260206004820152600f60248201526e141493d413d4d05317d41054d4d151608a1b604482015290519081900360640190fd5b6000838152603a6020526040902060090154839062010000900460ff16156127b2576040805162461bcd60e51b8152602060048201526012602482015271141493d413d4d05317d0d05390d15313115160721b604482015290519081900360640190fd5b6000848152603b602090815260408083203384528083528184205484526002019091529020600381015460ff1615612820576040805162461bcd60e51b815260206004820152600c60248201526b1593d51157d4915593d2d15160a21b604482015290519081900360640190fd5b60038101805460ff19166001908117909155810154612840903390612c44565b7f940ff8122c3cdbdc4a4aa871d42fdf13e863866d63ab2ea9fc0af542894daff4858260000160009054906101000a900460ff163384600101546040518085815260200184600181111561289057fe5b60ff168152602001836001600160a01b03166001600160a01b0316815260200182815260200194505050505060405180910390a15050505050565b3390565b6128e060368263ffffffff612ca916565b6040516001600160a01b038216907fee1504a83b6d4a361f4c1dc78ab59bfa30d6a3b6612c403e86bb01ef2984295f90600090a250565b61292860358263ffffffff612ca916565b6040516001600160a01b038216907f22380c05984257a1cb900161c713dd71d39e74820f1aea43bd3f1bdd2096129990600090a250565b61297060358263ffffffff612d2a16565b6040516001600160a01b038216907f0a8eb35e5ca14b3d6f28e4abf2f128dbab231a58b56e89beb5d636115001e16590600090a250565b6129b860368263ffffffff612d2a16565b6040516001600160a01b038216907f270d9b30cf5b0793bbfd54c9d5b94aeb49462b8148399000265144a8722da6b690600090a250565b4290565b60006001600160a01b038216612a3a5760405162461bcd60e51b815260040180806020018281038252602281526020018061322b6022913960400191505060405180910390fd5b506001600160a01b03166000908152602091909152604090205460ff1690565b600082820183811015612ab4576040805162461bcd60e51b815260206004820152601b60248201527f536166654d6174683a206164646974696f6e206f766572666c6f770000000000604482015290519081900360640190fd5b9392505050565b612acc60338263ffffffff612d2a16565b6040516001600160a01b038216907fcd265ebaf09df2871cc7bd4133404a235ba12eff2041bb89d9c714a2621c7c7e90600090a250565b6000816001811115610b6f57fe5b600082612b2057506000610b6f565b82820282848281612b2d57fe5b0414612ab45760405162461bcd60e51b815260040180806020018281038252602181526020018061320a6021913960400191505060405180910390fd5b612b7b60338263ffffffff612ca916565b6040516001600160a01b038216907f6719d08c1888103bea251a4ed56406bd0c3e69723c8a1686e017e7bbe159b6f890600090a250565b303b1590565b6000610b6f82612d91565b603854612be1906001600160a01b031683308463ffffffff612db116565b604080516001600160a01b03841681526020810183905281517fac87f20a77d28ee8bbb58ec87ea8fa968b3393efae1a368fd50b767c2847391c929181900390910190a15050565b600080600083516020850186886187965a03f1949350505050565b603854612c61906001600160a01b0316838363ffffffff612e0b16565b604080516001600160a01b03841681526020810183905281517fc7798891864187665ac6dd119286e44ec13f014527aeeb2b8eb3fd413df93179929181900390910190a15050565b612cb382826129f3565b15612d05576040805162461bcd60e51b815260206004820152601f60248201527f526f6c65733a206163636f756e7420616c72656164792068617320726f6c6500604482015290519081900360640190fd5b6001600160a01b0316600090815260209190915260409020805460ff19166001179055565b612d3482826129f3565b612d6f5760405162461bcd60e51b81526004018080602001828103825260218152602001806131e96021913960400191505060405180910390fd5b6001600160a01b0316600090815260209190915260409020805460ff19169055565b80600260018201045b818110156110045790506002818304820104612d9a565b604080516001600160a01b0385811660248301528416604482015260648082018490528251808303909101815260849091019091526020810180516001600160e01b03166323b872dd60e01b17905261228f908590612e62565b604080516001600160a01b038416602482015260448082018490528251808303909101815260649091019091526020810180516001600160e01b031663a9059cbb60e01b179052612e5d908490612e62565b505050565b612e74826001600160a01b031661301a565b612ec5576040805162461bcd60e51b815260206004820152601f60248201527f5361666545524332303a2063616c6c20746f206e6f6e2d636f6e747261637400604482015290519081900360640190fd5b60006060836001600160a01b0316836040518082805190602001908083835b60208310612f035780518252601f199092019160209182019101612ee4565b6001836020036101000a0380198251168184511680821785525050505050509050019150506000604051808303816000865af19150503d8060008114612f65576040519150601f19603f3d011682016040523d82523d6000602084013e612f6a565b606091505b509150915081612fc1576040805162461bcd60e51b815260206004820181905260248201527f5361666545524332303a206c6f772d6c6576656c2063616c6c206661696c6564604482015290519081900360640190fd5b80511561228f57808060200190516020811015612fdd57600080fd5b505161228f5760405162461bcd60e51b815260040180806020018281038252602a8152602001806132f5602a913960400191505060405180910390fd5b6000813f7fc5d2460186f7233c927e7db2dcc703c0e500b653ca82273b7bfad8045d85a470811580159061304e5750808214155b949350505050565b60405180606001604052806003906020820280388339509192915050565b828054600181600116156101000203166002900490600052602060002090601f016020900481019282601f106130b557805160ff19168380011785556130e2565b828001600101855582156130e2579182015b828111156130e25782518255916020019190600101906130c7565b506130ee929150613180565b5090565b6001830191839082156131745791602002820160005b8382111561314557835183826101000a81548160ff0219169083151502179055509260200192600101602081600001049283019260010302613108565b80156131725782816101000a81549060ff0219169055600101602081600001049283019260010302613145565b505b506130ee92915061319a565b610d9991905b808211156130ee5760008155600101613186565b610d9991905b808211156130ee57805460ff191681556001016131a056fe506175736572526f6c653a2063616c6c657220646f6573206e6f742068617665207468652050617573657220726f6c65526f6c65733a206163636f756e7420646f6573206e6f74206861766520726f6c65536166654d6174683a206d756c7469706c69636174696f6e206f766572666c6f77526f6c65733a206163636f756e7420697320746865207a65726f2061646472657373436f6e747261637420696e7374616e63652068617320616c7265616479206265656e20696e697469616c697a656457686974656c69737441646d696e526f6c653a2063616c6c657220646f6573206e6f742068617665207468652057686974656c69737441646d696e20726f6c6557686974656c6973746564526f6c653a2063616c6c657220646f6573206e6f742068617665207468652057686974656c697374656420726f6c655361666545524332303a204552433230206f7065726174696f6e20646964206e6f742073756363656564a265627a7a72315820a173fbcf2a4d3c2ed7e5f5a614897798a07c3bab126298a32954cc32ae0eb1ed64736f6c634300050e0032526f6c65733a206163636f756e7420697320746865207a65726f2061646472657373",
  "source": "pragma solidity 0.5.14;\n\nimport \"@openzeppelin/upgrades/contracts/Initializable.sol\";\nimport \"openzeppelin-solidity/contracts/lifecycle/Pausable.sol\";\nimport \"openzeppelin-solidity/contracts/access/roles/WhitelistedRole.sol\";\nimport \"openzeppelin-solidity/contracts/utils/ReentrancyGuard.sol\";\nimport \"openzeppelin-solidity/contracts/token/ERC20/IERC20.sol\";\nimport \"openzeppelin-solidity/contracts/token/ERC20/SafeERC20.sol\";\nimport \"openzeppelin-solidity/contracts/math/SafeMath.sol\";\nimport \"./libraries/VotingLib.sol\";\n\n\n/**\n * @title Universal DAO for projects based on Openzeppelin SDK\n * @dev This contract holds main DAO logic and storages\n * @author Kostiantyn Smyrnov <kostysh@gmail.com>\n */\ncontract Dao is Initializable, Pausable, WhitelistedRole, ReentrancyGuard {\n\n    using SafeMath for uint256;\n    using SafeERC20 for IERC20;\n\n    /**\n     * @dev List of acceptable proposal types\n     * Usefull for filtering purposes\n     */\n    enum ProposalType {\n        ContractUpgrade,\n        MethodCall\n    }\n\n    /**\n     * @dev Acceptable vote types\n     */\n    enum VoteType {\n        Yes,\n        No\n    }\n\n    /**\n     * @dev Proposal transaction\n     * @param destination Transaction target address\n     * @param value Ethers value to send with transaction\n     * @param data Signed transaction data\n     * @param executed Transaction execution flag\n     * @param failed Transaction execution result\n     */\n    struct Transaction {\n        address destination;\n        uint256 value;\n        bytes data;\n        bool executed;\n        bool success;\n    }\n\n    /**\n     * @dev Proposal structure\n     * @param proposer Proposer address\n     * @param details Proposal description. Can be text|IPFS Hash|Url|Etc\n     * @param proposalType Proposal type\n     * @param transaction Transaction storage\n     * @param duration Proposal duration in days\n     * @param end Proposal voting end date\n     * @param flags Proposal state flags [passed, processed, cancelled]\n     */\n    struct Proposal {\n        address proposer;\n        string details;\n        ProposalType proposalType;\n        Transaction transaction;\n        uint256 duration;\n        uint256 end;\n        bool[3] flags;\n    }\n\n    /**\n     * @dev Vote structure\n     * @param voteType Type of the vote\n     * @param valueOriginal Original vote value (not converted)\n     * @param valueAccepted Accepted vote value (converted)\n     * @param revoked Revoked flag\n     */\n    struct Vote {\n        VoteType voteType;\n        uint256 valueOriginal;\n        uint256 valueAccepted;\n        bool revoked;\n    }\n\n    /**\n     * @dev Voting structure\n     * @param ids List of the voters votes Ids (indexes)\n     * @param voted List voted voters\n     * @param votes List of votes\n     * @param votesCount Votes counter\n     */\n    struct Voting {\n        mapping (address => uint256) ids;// voterAddress => voteId\n        mapping (address => bool) voted;// voterAddress => bool\n        mapping (uint256 => Vote) votes;// voteId => Vote\n        uint256 votesCount;\n    }\n\n    /**\n     * @dev This event will be emitted when proposal has been added\n     * @param proposer Proposer address\n     * @param proposalId Proposal Id\n     */\n    event ProposalAdded(\n        address proposer,\n        uint256 proposalId\n    );\n\n    /**\n     * @dev This event will be emitted when proposal has been cancelled\n     * @param proposalId Proposal Id\n     */\n    event ProposalCancelled(uint256 proposalId);\n\n    /**\n     * @dev This event will be emitted when Vote is accepted\n     * @param proposalId Proposal Id\n     * @param voteType Type of the vote\n     * @param voter Voter address\n     * @param votes Original votes sent\n     * @param votesAccepted Accepted votes amount\n     */\n    event VoteAdded(\n        uint256 proposalId,\n        VoteType voteType,\n        address voter,\n        uint256 votes,\n        uint256 votesAccepted\n    );\n\n    /**\n     * @dev This event will be emitted when existed Vote is revoked\n     * @param proposalId Proposal Id\n     * @param voteType Type of the vote\n     * @param voter Voter address\n     * @param votes Original votes revoked\n     */\n    event VoteRevoked(\n        uint256 proposalId,\n        VoteType voteType,\n        address voter,\n        uint256 votes\n    );\n\n    /**\n     * @dev This event will be emitted when service tokens are locked\n     * @param voter Voter address\n     * @param value Locked tokens amount\n     */\n    event TokensLocked(\n        address voter,\n        uint256 value\n    );\n\n    /**\n     * @dev This event will be emitted when service tokens are released\n     * @param voter Voter address\n     * @param value Released tokens amount\n     */\n    event TokensReleased(\n        address voter,\n        uint256 value\n    );\n\n    /**\n     * @dev This event will be emitted when proposal moved to processed state\n     * @param proposalId Proposal Id\n     * @param passed Voting result\n     */\n    event ProposalProcessed(\n        uint256 proposalId,\n        bool passed\n    );\n\n    /**\n     * @dev This event will be emitted when sent proposal transaction has succeeded\n     * @param proposalId Proposal Id\n     */\n    event TransactionSuccessed(uint256 proposalId);\n\n    /**\n     * @dev This event will be emitted when sent proposal transaction has failed\n     * @param proposalId Proposal Id\n     */\n    event TransactionFailed(uint256 proposalId);\n\n\n    /// @dev Token that using in voting process\n    IERC20 public serviceToken;\n\n    /// @dev Number of proposals\n    uint256 public proposalCount;\n    \n    /// @dev Proposals storage\n    mapping (uint256 => Proposal) internal proposals;// proposalId => Proposal\n\n    /// @dev Proposals votings \n    mapping (uint256 => Voting) internal votings;// proposalId => Voting\n\n\n    /**\n     * @dev This modifier allows function execution if proposal exist only\n     * @param proposalId Proposal Id\n     */\n    modifier proposalExists(uint256 proposalId) {\n        require(proposals[proposalId].duration != 0, \"PROPOSAL_NOT_FOUND\");\n        _;\n    }\n    \n    /**\n     * @dev This modifier allows function execution for the proposer only\n     * @param proposalId Proposal Id\n     */\n    modifier onlyProposer(uint256 proposalId) {\n        require(msg.sender == proposals[proposalId].proposer, \"NOT_A_PROPOSER\");\n        _;\n    }\n\n    /**\n     * @dev This modifier allows function execution if proposal has not passed flag\n     * @param proposalId Proposal Id\n     */\n    modifier notPassed(uint256 proposalId) {\n        require(!proposals[proposalId].flags[0], \"PROPOSAL_PASSED\");\n        _;\n    }\n\n    /**\n     * @dev This modifier allows function execution if proposal has not processed flag\n     * @param proposalId Proposal Id\n     */\n    modifier notProcessed(uint256 proposalId) {\n        require(!proposals[proposalId].flags[1], \"PROPOSAL_PROCESSED\");\n        _;\n    }\n\n    /**\n     * @dev This modifier allows function execution if proposal has not cancelled flag\n     * @param proposalId Proposal Id\n     */\n    modifier notCancelled(uint256 proposalId) {\n        require(!proposals[proposalId].flags[2], \"PROPOSAL_CANCELLED\");\n        _;\n    }\n\n    /**\n     * @dev This modifier allows function execution if proposal not finished\n     * @param proposalId Proposal Id\n     */\n    modifier notFinished(uint256 proposalId) {\n        require(time() < proposals[proposalId].end, \"PROPOSAL_FINISHED\");\n        _;\n    }\n\n    /**\n     * @dev This modifier allows function execution if proposal finished only\n     * @param proposalId Proposal Id\n     */\n    modifier onlyFinished(uint256 proposalId) {\n        require(time() >= proposals[proposalId].end, \"PROPOSAL_NOT_FINISHED\");\n        _;\n    }\n\n    /**\n     * @dev This modifier allows function execution if sender already voted for proposal\n     * @param proposalId Proposal Id\n     */\n    modifier voteExists(uint256 proposalId) {\n        require(votings[proposalId].voted[msg.sender], \"VOTE_NOT_FOUND\");\n        _;\n    }\n\n    /**\n     * @dev Contract initializer\n     * @param token Address of the service token\n     */\n    function initialize(address token) external initializer {\n        serviceToken = IERC20(token);\n        proposalCount = 0;\n\n        // Add proxy owner PuserRole\n        _addPauser(msg.sender);\n\n        // Add proxy owner WhitelistAdminRole\n        _addWhitelistAdmin(msg.sender);\n    }\n\n    /**\n     * @dev Add new proposal\n     *\n     * Requirements:\n     *  - sender address should be whitelisted\n     *  - contract should not be in paused state\n     *  - proposal type should allowed proposalType\n     *  - destination address should not be a valid target address\n     *  - sent ether value should be consistent with value parameter\n     * \n     * @param details Proposal details\n     * @param proposalType Proposal type\n     * @param duration Proposal voting duration in days\n     * @param destination Transaction target address\n     * @param value Transaction value in ethers\n     * @param data Signed transaction data\n     */\n    function addProposal(\n        string calldata details,\n        ProposalType proposalType,\n        uint256 duration,\n        address destination,\n        uint256 value,\n        bytes calldata data\n    ) external payable onlyWhitelisted whenNotPaused {\n        assertProposalType(proposalType);// Throws an Invalid opcode if proposalType not valid\n        // @todo Add conditions and test for proposal `duration` (s.l. min and max value)\n        require(destination != address(0), \"INVALID_DESTINATION\");\n        require(value == 0 || (value > 0 && msg.value >= value), \"INSUFFICIENT_ETHER_VALUE\");\n        // @todo Add Condition to avoid proposal queue maximum length (uint256 restriction)\n\n        emit ProposalAdded(msg.sender, proposalCount);\n\n        bool[3] memory flags;\n        proposals[proposalCount] = Proposal(\n            msg.sender,\n            details,\n            proposalType,\n            Transaction(\n                destination,\n                value,\n                data,\n                false,\n                false\n            ),\n            duration,\n            time().add(duration.mul(86400)),\n            flags\n        );\n        \n        proposalCount += 1;\n    }\n\n    /**\n     * @dev Cancelling of the proposal\n     *\n     * Requirements:\n     *  - proposal should exists\n     *  - sender address should be a proposer address\n     *  - proposal should not be in a passed state\n     *  - proposal should not be in a processed state\n     *  - proposal should not be cancelled\n     *  - proposal has no votes\n     *\n     * @param proposalId Proposal Id\n     */\n    function cancelProposal(uint256 proposalId) \n        external \n        proposalExists(proposalId)\n        onlyProposer(proposalId)\n        notPassed(proposalId) \n        notProcessed(proposalId) \n        notCancelled(proposalId)\n    {\n        (uint256 yes, uint256 no) = votingResult(proposalId);\n        require(yes == 0 && no == 0, \"PROPOSAL_HAS_VOTES\");\n        proposals[proposalId].flags[2] = true;\n        emit ProposalCancelled(proposalId);\n    }\n\n    /**\n     * @dev Vote for the proposal\n     *\n     * Requirements:\n     *  - proposal should exists\n     *  - contract not paused\n     *  - not a reentrant call\n     *  - proposal should not be in a passed state\n     *  - proposal should not be cancelled\n     *  - sender tokens balance should be sufficient\n     *  - tokens allowance for the DAO address should be sufficient\n     *  - voting not expired (does not exceed voting time frame)\n     *\n     * @param proposalId Proposal Id\n     * @param voteType Type of the vote (Yes/No)\n     * @param votes Amount of service token to use in the vote\n     */\n    function vote(\n        uint256 proposalId,\n        VoteType voteType, \n        uint256 votes\n    ) \n        external \n        whenNotPaused\n        nonReentrant \n        proposalExists(proposalId)\n        notPassed(proposalId) \n        notCancelled(proposalId)\n        notFinished(proposalId)\n    {\n        require(serviceToken.balanceOf(msg.sender) >= votes, \"INSUFFICIENT_TOKENS_BALANCE\");\n        require(serviceToken.allowance(msg.sender, address(this)) >= votes, \"INSUFFICIENT_TOKENS_ALLOWANCE\");\n        \n        uint256 votesSent = votes;\n        uint256 votesAccepted;\n        uint256 voteId;\n        \n        if (!votings[proposalId].voted[msg.sender]) {\n            \n            // Create new Vote\n            voteId = votings[proposalId].votesCount;\n            votings[proposalId].ids[msg.sender] = voteId;\n            votesAccepted = convertVotes(votesSent);\n            votings[proposalId].votes[voteId] = Vote(\n                voteType,\n                votesSent,\n                votesAccepted,\n                false\n            );\n            votings[proposalId].voted[msg.sender] = true;\n\n            // Update votes counter\n            // @todo Add condition to avoid uint256 value restrictions\n            votings[proposalId].votesCount += 1;\n        } else {\n            \n            // Re-use existed Vote\n            voteId = votings[proposalId].ids[msg.sender];\n            Vote storage existedVote = votings[proposalId].votes[voteId];\n            \n            if (existedVote.revoked) {\n\n                // Enable revoked vote status\n                existedVote.revoked = false;\n                votesAccepted = convertVotes(votesSent);\n            } else {\n\n                // For now allowed adding new value only\n                // @todo Implement conditional update: if votesSent less then previous value then do partial withdraw\n                votesSent = existedVote.valueOriginal.add(votes);\n                votesAccepted = convertVotes(votesSent);\n\n                // Emitting this event for consistency\n                emit VoteRevoked(\n                    proposalId,\n                    existedVote.voteType,\n                    msg.sender,\n                    existedVote.valueOriginal\n                );\n            }\n\n            // Update existed Vote\n            existedVote.voteType = voteType;\n            existedVote.valueOriginal = votesSent;            \n            existedVote.valueAccepted = votesAccepted;\n        }\n\n        emit VoteAdded(\n            proposalId,\n            voteType,\n            msg.sender,\n            votesSent,\n            votesAccepted\n        );\n\n        // Transfer tokens to the DAO\n        lockTokens(msg.sender, votes);\n    }\n\n    /**\n     * @dev Revoke of the placed vote\n     *\n     * Requirements:\n     *  - proposal should exists\n     *  - proposal should not be in a passed state\n     *  - proposal should not be cancelled\n     *  - vote should not been already revoked\n     *\n     * @param proposalId Proposal Id\n     */\n    function revokeVote(uint256 proposalId) \n        external \n        proposalExists(proposalId)\n        notPassed(proposalId) \n        notCancelled(proposalId)\n    {\n        Vote storage existedVote = votings[proposalId]\n            .votes[votings[proposalId].ids[msg.sender]];\n\n        require(!existedVote.revoked, \"VOTE_REVOKED\");\n\n        // Exclude vote from the voting results\n        existedVote.revoked = true;\n\n        // Push tokens to the voter\n        releaseTokens(msg.sender, existedVote.valueOriginal);\n        \n        emit VoteRevoked(\n            proposalId,\n            existedVote.voteType,\n            msg.sender,\n            existedVote.valueOriginal\n        );\n    }\n\n    /**\n     * @dev Process proposal\n     *\n     * Requirements:\n     *  - proposal should exists\n     *  - contract not paused\n     *  - sender address should be a proposer address\n     *  - proposal should not be processed\n     *  - proposal should not be cancelled\n     *  - proposal is finished\n     *\n     * @param proposalId Proposal Id\n     */\n    function processProposal(uint256 proposalId) \n        external \n        whenNotPaused \n        proposalExists(proposalId)\n        onlyProposer(proposalId) \n        notProcessed(proposalId) \n        notCancelled(proposalId) \n        onlyFinished(proposalId)\n    {\n        Proposal storage proposal = proposals[proposalId];\n        proposal.flags[1] = true; // 'processed' state\n\n        bool isPassed = isVotingPassed(proposalId);\n        emit ProposalProcessed(proposalId, isPassed);\n\n        if (isPassed) {\n\n            proposal.flags[0] = true; // 'passed' state\n            \n            bool success = executeTransaction(\n                proposal.transaction.destination,\n                proposal.transaction.value,\n                proposal.transaction.data\n            );\n\n            proposal.transaction.executed = true;\n\n            if (success) {\n\n                proposal.transaction.success = true;\n                emit TransactionSuccessed(proposalId);\n            } else {\n\n                emit TransactionFailed(proposalId);\n            }\n        }\n    }\n\n    /**\n     * @dev Withdraw released tokens\n     * @return uint256 Balance of tokens that available to withdraw\n     */\n    function tokensBalance() external view returns (uint256) {}\n\n    /**\n     * @dev Withdraw released tokens\n     *\n     * Requirements:\n     *  - sender has positive released tokens balance\n     *  - call not reentrant\n     *\n     * @param proposalId Proposal Id\n     */\n    function withdrawTokens(uint256 proposalId) \n        external \n        nonReentrant \n        onlyFinished(proposalId)\n    {}\n\n    /**\n     * @dev Get proposal by Id (index)\n     *\n     * Requirements:\n     *  - proposal should exists \n     * \n     * @param proposalId Proposal Id\n     * @return string Proposal details\n     * @return ProposalType Proposal type\n     * @return uint256 Proposal duration in days\n     * @return uint256 Proposal end date\n     * @return bool[3] Proposal status flags\n     * @return address Transaction target address\n     * @return uint256 Ether value to send with transaction\n     * @return bytes Transaction data\n     * @return bool Transaction execution status\n     * @return bool Transaction execution result status\n     */\n    function getProposal(uint256 proposalId) \n        external \n        view \n        proposalExists(proposalId)\n        returns (\n            string memory details,\n            ProposalType proposalType,\n            uint256 duration,\n            uint256 end,\n            bool[3] memory flags,\n            address txDestination,\n            uint256 txValue,\n            bytes memory txData,\n            bool txExecuted,\n            bool txSuccess\n        ) \n    {\n        Proposal storage existedProposal = proposals[proposalId];\n        details = existedProposal.details;\n        proposalType = existedProposal.proposalType;\n        duration = existedProposal.duration;\n        end = existedProposal.end;\n        flags = existedProposal.flags;\n        txDestination = existedProposal.transaction.destination;\n        txValue = existedProposal.transaction.value;\n        txData = existedProposal.transaction.data;\n        txExecuted = existedProposal.transaction.executed;\n        txSuccess = existedProposal.transaction.success;\n    }\n\n    /**\n     * @dev Get own vote from proposal voting\n     * \n     * Requirements:\n     *  - proposal should exists\n     *  - vote should be exist\n     * \n     * @param proposalId Proposal Id\n     * @return VoteType Type of the vote\n     * @return uint256 Original vote value sent\n     * @return uint256 Acceptes vote value\n     * @return bool Reveked state of the vote\n     */\n    function getVote(uint256 proposalId) \n        external \n        view \n        proposalExists(proposalId)\n        voteExists(proposalId)\n        returns(\n            VoteType voteType,\n            uint256 valueOriginal,\n            uint256 valueAccepted,\n            bool revoked\n        ) \n    {\n        Vote storage senderVote = votings[proposalId]\n            .votes[votings[proposalId].ids[msg.sender]];\n        voteType = senderVote.voteType;\n        valueOriginal = senderVote.valueOriginal;\n        valueAccepted = senderVote.valueAccepted;\n        revoked = senderVote.revoked;\n    }\n\n    /**\n     * @dev Get all active proposals Ids\n     * @return uint256[] List of proposals Ids\n     */\n    function getActiveProposalsIds() external view returns (uint256[] memory) {}\n\n    /**\n     * @dev Get all active proposals Ids filtered by proposal type\n     *\n     * Requirements:\n     *  - proposal type should be valid \n     * \n     * @return uint256[] List of proposals Ids\n     */\n    function getActiveProposalsIds(ProposalType proposalType) external view returns (uint256[] memory) {}\n\n    /**\n     * @dev Replace pauser to the new one\n     * \n     * Requirements:\n     *  - sender address should be a pauser address\n     * \n     * @param account New DAO pauser address\n     */\n    function replacePauser(address account) external onlyPauser {\n        _addPauser(account);\n        _removePauser(msg.sender);\n    }\n\n    /**\n     * @dev Replace whitelist admin with new one\n     * \n     * Requirements:\n     *  - sender address should be a whitelisted admin address\n     * \n     * @param account New DAO whitelist admin address\n     */\n    function replaceWhitelistAdmin(address account) external onlyWhitelistAdmin {\n        _addWhitelistAdmin(account);\n        _removeWhitelistAdmin(msg.sender);\n    }\n\n    /**\n     * @dev Get a result of the proposal voting\n     *\n     * Requirements:\n     *  - proposal should exists\n     *\n     * @param proposalId Proposal Id\n     * @return uint256 'Yes' variant voting balance\n     * @return uint256 'No' variant voting balance\n     */\n    function votingResult(uint256 proposalId) \n        public \n        view \n        proposalExists(proposalId)\n        returns(\n            uint256 yes, \n            uint256 no\n        ) \n    {\n        \n        for (uint256 i = 0; i < votings[proposalId].votesCount; i++) {\n            \n            if (!votings[proposalId].votes[i].revoked) {\n\n                if (votings[proposalId].votes[i].voteType == VoteType.Yes) {\n                    yes = yes.add(votings[proposalId].votes[i].valueAccepted);\n                }\n\n                if (votings[proposalId].votes[i].voteType == VoteType.No) {\n                    no = no.add(votings[proposalId].votes[i].valueAccepted);\n                }\n            }\n        }\n    }\n\n    /**\n     * @dev Check is voting is passed \n     *\n     * Requirements:\n     *  - proposal should exists\n     *\n     * @param proposalId Proposal Id\n     * @return uint256 Voting result\n     */\n    function isVotingPassed(uint256 proposalId) \n        public \n        view \n        proposalExists(proposalId)\n        returns(bool) \n    {\n        \n        if (proposals[proposalId].flags[0]) {\n            // We already know result\n            return true;\n        } else if (proposals[proposalId].flags[2]) {\n            // Cancelled proposals are not passing\n            return false;\n        } else if (time() < proposals[proposalId].end) {\n            // Voting not finished yet\n            return false;\n        } else {\n\n            (uint256 yes, uint256 no) = votingResult(proposalId);\n            return yes > no;\n        }\n    }\n\n    /**\n     * @dev Transfer service tokens from the voter to the DAO\n     * @param voter Proposal voter\n     * @param value Amount of service tokens to transfer\n     */\n    function lockTokens(\n        address voter, \n        uint256 value\n    ) internal {\n        serviceToken.safeTransferFrom(voter, address(this), value);\n        emit TokensLocked(\n            voter,\n            value\n        );\n    }\n\n    /**\n     * @dev Release locked tokens for the voter\n     * @param voter Proposal voter\n     * @param value Amount of service tokens to transfer\n     */\n    function releaseTokens(\n        address voter,\n        uint256 value\n    ) internal {\n        serviceToken.safeTransfer(voter, value);\n        emit TokensReleased(\n            voter,\n            value\n        );\n    }\n\n    /**\n     * @dev Send a transaction for the proposal\n     * @param destination Target address to send transaction\n     * @param value Ether value to send\n     * @param data Call data\n     * @return bool Transaction execution status\n     */\n    function executeTransaction(\n        address destination,\n        uint256 value,\n        bytes memory data\n    ) internal returns (bool success) {\n        \n        // solium-disable-next-line security/no-inline-assembly\n        assembly {\n            success := call(\n                sub(gas, 34710), \n                destination, \n                value, \n                add(data, 0x20), \n                mload(data), \n                0, \n                0\n            )\n        }\n    }\n\n    /**\n     * @dev Convert votes using defined formula\n     * @param votes Amount of service token to use in the vote\n     * @return uint256 Converted votes value\n     */\n    function convertVotes(uint256 votes) internal pure returns (uint256) {\n        return VotingLib.sqrt(votes);\n    }\n\n    /**\n     * @dev Get current time\n     *  \n     * This function can be overriden for testing purposes\n     * \n     * @return uint256 Current block time\n     */\n    function time() internal view returns (uint256) {\n        return now;// solhint-disable-line not-rely-on-time\n    }\n\n    /**\n     * @dev Validate given ProposalType value\n     * @param typeValue Value of ProposalType to validate\n     * @return uint256 Validation result (or throws Invalide opcode instead)\n     */\n    function assertProposalType(ProposalType typeValue) private pure returns (uint256) {\n        return uint256(typeValue);\n    }\n\n    // @todo Add function to withdraw ether funds from contract \n}",
  "sourcePath": "/home/kostysh/dev/dao/packages/contracts/contracts/Dao.sol",
  "compiler": {
    "name": "solc",
    "version": "0.5.14+commit.01f1aaa4.Emscripten.clang"
  },
  "schemaVersion": "3.0.19",
  "updatedAt": "2019-12-26T16:30:36.564Z",
  "devdoc": {
    "author": "Kostiantyn Smyrnov <kostysh@gmail.com>",
    "details": "This contract holds main DAO logic and storages",
    "methods": {
      "addProposal(string,uint8,uint256,address,uint256,bytes)": {
        "details": "Add new proposal     * Requirements: - sender address should be whitelisted - contract should not be in paused state - proposal type should allowed proposalType - destination address should not be a valid target address - sent ether value should be consistent with value parameter ",
        "params": {
          "data": "Signed transaction data",
          "destination": "Transaction target address",
          "details": "Proposal details",
          "duration": "Proposal voting duration in days",
          "proposalType": "Proposal type",
          "value": "Transaction value in ethers"
        }
      },
      "cancelProposal(uint256)": {
        "details": "Cancelling of the proposal     * Requirements: - proposal should exists - sender address should be a proposer address - proposal should not be in a passed state - proposal should not be in a processed state - proposal should not be cancelled - proposal has no votes",
        "params": {
          "proposalId": "Proposal Id"
        }
      },
      "getActiveProposalsIds()": {
        "details": "Get all active proposals Ids",
        "return": "uint256[] List of proposals Ids"
      },
      "getActiveProposalsIds(uint8)": {
        "details": "Get all active proposals Ids filtered by proposal type     * Requirements: - proposal type should be valid  ",
        "return": "uint256[] List of proposals Ids"
      },
      "getProposal(uint256)": {
        "details": "Get proposal by Id (index)     * Requirements: - proposal should exists  ",
        "params": {
          "proposalId": "Proposal Id"
        },
        "return": "string Proposal detailsProposalType Proposal typeuint256 Proposal duration in daysuint256 Proposal end datebool[3] Proposal status flagsaddress Transaction target addressuint256 Ether value to send with transactionbytes Transaction databool Transaction execution statusbool Transaction execution result status"
      },
      "getVote(uint256)": {
        "details": "Get own vote from proposal voting      * Requirements: - proposal should exists - vote should be exist ",
        "params": {
          "proposalId": "Proposal Id"
        },
        "return": "VoteType Type of the voteuint256 Original vote value sentuint256 Acceptes vote valuebool Reveked state of the vote"
      },
      "initialize(address)": {
        "details": "Contract initializer",
        "params": {
          "token": "Address of the service token"
        }
      },
      "isVotingPassed(uint256)": {
        "details": "Check is voting is passed      * Requirements: - proposal should exists",
        "params": {
          "proposalId": "Proposal Id"
        },
        "return": "uint256 Voting result"
      },
      "pause()": {
        "details": "Called by a pauser to pause, triggers stopped state."
      },
      "paused()": {
        "details": "Returns true if the contract is paused, and false otherwise."
      },
      "processProposal(uint256)": {
        "details": "Process proposal     * Requirements: - proposal should exists - contract not paused - sender address should be a proposer address - proposal should not be processed - proposal should not be cancelled - proposal is finished",
        "params": {
          "proposalId": "Proposal Id"
        }
      },
      "replacePauser(address)": {
        "details": "Replace pauser to the new one      * Requirements: - sender address should be a pauser address ",
        "params": {
          "account": "New DAO pauser address"
        }
      },
      "replaceWhitelistAdmin(address)": {
        "details": "Replace whitelist admin with new one      * Requirements: - sender address should be a whitelisted admin address ",
        "params": {
          "account": "New DAO whitelist admin address"
        }
      },
      "revokeVote(uint256)": {
        "details": "Revoke of the placed vote     * Requirements: - proposal should exists - proposal should not be in a passed state - proposal should not be cancelled - vote should not been already revoked",
        "params": {
          "proposalId": "Proposal Id"
        }
      },
      "tokensBalance()": {
        "details": "Withdraw released tokens",
        "return": "uint256 Balance of tokens that available to withdraw"
      },
      "unpause()": {
        "details": "Called by a pauser to unpause, returns to normal state."
      },
      "vote(uint256,uint8,uint256)": {
        "details": "Vote for the proposal     * Requirements: - proposal should exists - contract not paused - not a reentrant call - proposal should not be in a passed state - proposal should not be cancelled - sender tokens balance should be sufficient - tokens allowance for the DAO address should be sufficient - voting not expired (does not exceed voting time frame)",
        "params": {
          "proposalId": "Proposal Id",
          "voteType": "Type of the vote (Yes/No)",
          "votes": "Amount of service token to use in the vote"
        }
      },
      "votingResult(uint256)": {
        "details": "Get a result of the proposal voting     * Requirements: - proposal should exists",
        "params": {
          "proposalId": "Proposal Id"
        },
        "return": "uint256 'Yes' variant voting balanceuint256 'No' variant voting balance"
      },
      "withdrawTokens(uint256)": {
        "details": "Withdraw released tokens     * Requirements: - sender has positive released tokens balance - call not reentrant",
        "params": {
          "proposalId": "Proposal Id"
        }
      }
    },
    "title": "Universal DAO for projects based on Openzeppelin SDK"
  },
  "userdoc": {
    "methods": {}
  }
}