{
  "contractName": "Dao",
  "abi": [
    {
      "anonymous": false,
      "inputs": [
        {
          "indexed": false,
          "internalType": "address",
          "name": "account",
          "type": "address"
        }
      ],
      "name": "Paused",
      "type": "event"
    },
    {
      "anonymous": false,
      "inputs": [
        {
          "indexed": true,
          "internalType": "address",
          "name": "account",
          "type": "address"
        }
      ],
      "name": "PauserAdded",
      "type": "event"
    },
    {
      "anonymous": false,
      "inputs": [
        {
          "indexed": true,
          "internalType": "address",
          "name": "account",
          "type": "address"
        }
      ],
      "name": "PauserRemoved",
      "type": "event"
    },
    {
      "anonymous": false,
      "inputs": [
        {
          "indexed": false,
          "internalType": "address",
          "name": "proposer",
          "type": "address"
        },
        {
          "indexed": false,
          "internalType": "uint256",
          "name": "proposalId",
          "type": "uint256"
        }
      ],
      "name": "ProposalAdded",
      "type": "event"
    },
    {
      "anonymous": false,
      "inputs": [
        {
          "indexed": false,
          "internalType": "uint256",
          "name": "proposalId",
          "type": "uint256"
        }
      ],
      "name": "ProposalCancelled",
      "type": "event"
    },
    {
      "anonymous": false,
      "inputs": [
        {
          "indexed": false,
          "internalType": "uint256",
          "name": "proposalId",
          "type": "uint256"
        },
        {
          "indexed": false,
          "internalType": "address",
          "name": "executor",
          "type": "address"
        },
        {
          "indexed": false,
          "internalType": "bool",
          "name": "passed",
          "type": "bool"
        }
      ],
      "name": "ProposalProcessed",
      "type": "event"
    },
    {
      "anonymous": false,
      "inputs": [
        {
          "indexed": false,
          "internalType": "address",
          "name": "voter",
          "type": "address"
        },
        {
          "indexed": false,
          "internalType": "uint256",
          "name": "value",
          "type": "uint256"
        }
      ],
      "name": "TokensLocked",
      "type": "event"
    },
    {
      "anonymous": false,
      "inputs": [
        {
          "indexed": false,
          "internalType": "address",
          "name": "voter",
          "type": "address"
        },
        {
          "indexed": false,
          "internalType": "uint256",
          "name": "value",
          "type": "uint256"
        }
      ],
      "name": "TokensReleased",
      "type": "event"
    },
    {
      "anonymous": false,
      "inputs": [
        {
          "indexed": false,
          "internalType": "uint256",
          "name": "proposalId",
          "type": "uint256"
        }
      ],
      "name": "TransactionFailed",
      "type": "event"
    },
    {
      "anonymous": false,
      "inputs": [
        {
          "indexed": false,
          "internalType": "uint256",
          "name": "proposalId",
          "type": "uint256"
        }
      ],
      "name": "TransactionSuccessed",
      "type": "event"
    },
    {
      "anonymous": false,
      "inputs": [
        {
          "indexed": false,
          "internalType": "address",
          "name": "account",
          "type": "address"
        }
      ],
      "name": "Unpaused",
      "type": "event"
    },
    {
      "anonymous": false,
      "inputs": [
        {
          "indexed": false,
          "internalType": "uint256",
          "name": "proposalId",
          "type": "uint256"
        },
        {
          "indexed": false,
          "internalType": "enum Dao.VoteType",
          "name": "voteType",
          "type": "uint8"
        },
        {
          "indexed": false,
          "internalType": "address",
          "name": "voter",
          "type": "address"
        },
        {
          "indexed": false,
          "internalType": "uint256",
          "name": "votes",
          "type": "uint256"
        },
        {
          "indexed": false,
          "internalType": "uint256",
          "name": "votesAccepted",
          "type": "uint256"
        }
      ],
      "name": "VoteAdded",
      "type": "event"
    },
    {
      "anonymous": false,
      "inputs": [
        {
          "indexed": false,
          "internalType": "uint256",
          "name": "proposalId",
          "type": "uint256"
        },
        {
          "indexed": false,
          "internalType": "enum Dao.VoteType",
          "name": "voteType",
          "type": "uint8"
        },
        {
          "indexed": false,
          "internalType": "address",
          "name": "voter",
          "type": "address"
        },
        {
          "indexed": false,
          "internalType": "uint256",
          "name": "votes",
          "type": "uint256"
        }
      ],
      "name": "VoteRevoked",
      "type": "event"
    },
    {
      "anonymous": false,
      "inputs": [
        {
          "indexed": true,
          "internalType": "address",
          "name": "account",
          "type": "address"
        }
      ],
      "name": "WhitelistAdminAdded",
      "type": "event"
    },
    {
      "anonymous": false,
      "inputs": [
        {
          "indexed": true,
          "internalType": "address",
          "name": "account",
          "type": "address"
        }
      ],
      "name": "WhitelistAdminRemoved",
      "type": "event"
    },
    {
      "anonymous": false,
      "inputs": [
        {
          "indexed": true,
          "internalType": "address",
          "name": "account",
          "type": "address"
        }
      ],
      "name": "WhitelistedAdded",
      "type": "event"
    },
    {
      "anonymous": false,
      "inputs": [
        {
          "indexed": true,
          "internalType": "address",
          "name": "account",
          "type": "address"
        }
      ],
      "name": "WhitelistedRemoved",
      "type": "event"
    },
    {
      "constant": false,
      "inputs": [
        {
          "internalType": "address",
          "name": "account",
          "type": "address"
        }
      ],
      "name": "addPauser",
      "outputs": [],
      "payable": false,
      "stateMutability": "nonpayable",
      "type": "function"
    },
    {
      "constant": false,
      "inputs": [
        {
          "internalType": "address",
          "name": "account",
          "type": "address"
        }
      ],
      "name": "addWhitelistAdmin",
      "outputs": [],
      "payable": false,
      "stateMutability": "nonpayable",
      "type": "function"
    },
    {
      "constant": false,
      "inputs": [
        {
          "internalType": "address",
          "name": "account",
          "type": "address"
        }
      ],
      "name": "addWhitelisted",
      "outputs": [],
      "payable": false,
      "stateMutability": "nonpayable",
      "type": "function"
    },
    {
      "constant": true,
      "inputs": [
        {
          "internalType": "address",
          "name": "account",
          "type": "address"
        }
      ],
      "name": "isPauser",
      "outputs": [
        {
          "internalType": "bool",
          "name": "",
          "type": "bool"
        }
      ],
      "payable": false,
      "stateMutability": "view",
      "type": "function"
    },
    {
      "constant": true,
      "inputs": [
        {
          "internalType": "address",
          "name": "account",
          "type": "address"
        }
      ],
      "name": "isWhitelistAdmin",
      "outputs": [
        {
          "internalType": "bool",
          "name": "",
          "type": "bool"
        }
      ],
      "payable": false,
      "stateMutability": "view",
      "type": "function"
    },
    {
      "constant": true,
      "inputs": [
        {
          "internalType": "address",
          "name": "account",
          "type": "address"
        }
      ],
      "name": "isWhitelisted",
      "outputs": [
        {
          "internalType": "bool",
          "name": "",
          "type": "bool"
        }
      ],
      "payable": false,
      "stateMutability": "view",
      "type": "function"
    },
    {
      "constant": false,
      "inputs": [],
      "name": "pause",
      "outputs": [],
      "payable": false,
      "stateMutability": "nonpayable",
      "type": "function"
    },
    {
      "constant": true,
      "inputs": [],
      "name": "paused",
      "outputs": [
        {
          "internalType": "bool",
          "name": "",
          "type": "bool"
        }
      ],
      "payable": false,
      "stateMutability": "view",
      "type": "function"
    },
    {
      "constant": true,
      "inputs": [],
      "name": "proposalCount",
      "outputs": [
        {
          "internalType": "uint256",
          "name": "",
          "type": "uint256"
        }
      ],
      "payable": false,
      "stateMutability": "view",
      "type": "function"
    },
    {
      "constant": false,
      "inputs": [
        {
          "internalType": "address",
          "name": "account",
          "type": "address"
        }
      ],
      "name": "removeWhitelisted",
      "outputs": [],
      "payable": false,
      "stateMutability": "nonpayable",
      "type": "function"
    },
    {
      "constant": false,
      "inputs": [],
      "name": "renouncePauser",
      "outputs": [],
      "payable": false,
      "stateMutability": "nonpayable",
      "type": "function"
    },
    {
      "constant": false,
      "inputs": [],
      "name": "renounceWhitelistAdmin",
      "outputs": [],
      "payable": false,
      "stateMutability": "nonpayable",
      "type": "function"
    },
    {
      "constant": false,
      "inputs": [],
      "name": "renounceWhitelisted",
      "outputs": [],
      "payable": false,
      "stateMutability": "nonpayable",
      "type": "function"
    },
    {
      "constant": true,
      "inputs": [],
      "name": "serviceToken",
      "outputs": [
        {
          "internalType": "contract IERC20",
          "name": "",
          "type": "address"
        }
      ],
      "payable": false,
      "stateMutability": "view",
      "type": "function"
    },
    {
      "constant": false,
      "inputs": [],
      "name": "unpause",
      "outputs": [],
      "payable": false,
      "stateMutability": "nonpayable",
      "type": "function"
    },
    {
      "constant": true,
      "inputs": [],
      "name": "version",
      "outputs": [
        {
          "internalType": "string",
          "name": "",
          "type": "string"
        }
      ],
      "payable": false,
      "stateMutability": "view",
      "type": "function"
    },
    {
      "constant": false,
      "inputs": [
        {
          "internalType": "address",
          "name": "token",
          "type": "address"
        }
      ],
      "name": "initialize",
      "outputs": [],
      "payable": false,
      "stateMutability": "nonpayable",
      "type": "function"
    },
    {
      "constant": false,
      "inputs": [
        {
          "internalType": "string",
          "name": "details",
          "type": "string"
        },
        {
          "internalType": "enum Dao.ProposalType",
          "name": "proposalType",
          "type": "uint8"
        },
        {
          "internalType": "uint256",
          "name": "duration",
          "type": "uint256"
        },
        {
          "internalType": "address",
          "name": "destination",
          "type": "address"
        },
        {
          "internalType": "uint256",
          "name": "value",
          "type": "uint256"
        },
        {
          "internalType": "bytes",
          "name": "data",
          "type": "bytes"
        }
      ],
      "name": "addProposal",
      "outputs": [],
      "payable": true,
      "stateMutability": "payable",
      "type": "function"
    },
    {
      "constant": false,
      "inputs": [
        {
          "internalType": "uint256",
          "name": "proposalId",
          "type": "uint256"
        }
      ],
      "name": "cancelProposal",
      "outputs": [],
      "payable": false,
      "stateMutability": "nonpayable",
      "type": "function"
    },
    {
      "constant": false,
      "inputs": [
        {
          "internalType": "uint256",
          "name": "proposalId",
          "type": "uint256"
        },
        {
          "internalType": "enum Dao.VoteType",
          "name": "voteType",
          "type": "uint8"
        },
        {
          "internalType": "uint256",
          "name": "votes",
          "type": "uint256"
        }
      ],
      "name": "vote",
      "outputs": [],
      "payable": false,
      "stateMutability": "nonpayable",
      "type": "function"
    },
    {
      "constant": false,
      "inputs": [
        {
          "internalType": "uint256",
          "name": "proposalId",
          "type": "uint256"
        }
      ],
      "name": "revokeVote",
      "outputs": [],
      "payable": false,
      "stateMutability": "nonpayable",
      "type": "function"
    },
    {
      "constant": false,
      "inputs": [
        {
          "internalType": "uint256",
          "name": "proposalId",
          "type": "uint256"
        }
      ],
      "name": "processProposal",
      "outputs": [],
      "payable": false,
      "stateMutability": "nonpayable",
      "type": "function"
    },
    {
      "constant": false,
      "inputs": [
        {
          "internalType": "uint256",
          "name": "proposalId",
          "type": "uint256"
        }
      ],
      "name": "withdrawTokens",
      "outputs": [],
      "payable": false,
      "stateMutability": "nonpayable",
      "type": "function"
    },
    {
      "constant": true,
      "inputs": [
        {
          "internalType": "uint256",
          "name": "proposalId",
          "type": "uint256"
        }
      ],
      "name": "getProposal",
      "outputs": [
        {
          "internalType": "string",
          "name": "details",
          "type": "string"
        },
        {
          "internalType": "enum Dao.ProposalType",
          "name": "proposalType",
          "type": "uint8"
        },
        {
          "internalType": "uint256",
          "name": "duration",
          "type": "uint256"
        },
        {
          "internalType": "uint256",
          "name": "end",
          "type": "uint256"
        },
        {
          "internalType": "bool[3]",
          "name": "flags",
          "type": "bool[3]"
        },
        {
          "internalType": "address",
          "name": "txDestination",
          "type": "address"
        },
        {
          "internalType": "uint256",
          "name": "txValue",
          "type": "uint256"
        },
        {
          "internalType": "bytes",
          "name": "txData",
          "type": "bytes"
        },
        {
          "internalType": "bool",
          "name": "txExecuted",
          "type": "bool"
        },
        {
          "internalType": "bool",
          "name": "txSuccess",
          "type": "bool"
        }
      ],
      "payable": false,
      "stateMutability": "view",
      "type": "function"
    },
    {
      "constant": true,
      "inputs": [
        {
          "internalType": "uint256",
          "name": "proposalId",
          "type": "uint256"
        }
      ],
      "name": "getVote",
      "outputs": [
        {
          "internalType": "enum Dao.VoteType",
          "name": "voteType",
          "type": "uint8"
        },
        {
          "internalType": "uint256",
          "name": "valueOriginal",
          "type": "uint256"
        },
        {
          "internalType": "uint256",
          "name": "valueAccepted",
          "type": "uint256"
        },
        {
          "internalType": "bool",
          "name": "revoked",
          "type": "bool"
        }
      ],
      "payable": false,
      "stateMutability": "view",
      "type": "function"
    },
    {
      "constant": true,
      "inputs": [],
      "name": "getActiveProposalsIds",
      "outputs": [
        {
          "internalType": "uint256[]",
          "name": "",
          "type": "uint256[]"
        }
      ],
      "payable": false,
      "stateMutability": "view",
      "type": "function"
    },
    {
      "constant": true,
      "inputs": [
        {
          "internalType": "enum Dao.ProposalType",
          "name": "proposalType",
          "type": "uint8"
        }
      ],
      "name": "getActiveProposalsIds",
      "outputs": [
        {
          "internalType": "uint256[]",
          "name": "",
          "type": "uint256[]"
        }
      ],
      "payable": false,
      "stateMutability": "view",
      "type": "function"
    },
    {
      "constant": false,
      "inputs": [
        {
          "internalType": "address",
          "name": "account",
          "type": "address"
        }
      ],
      "name": "replacePauser",
      "outputs": [],
      "payable": false,
      "stateMutability": "nonpayable",
      "type": "function"
    },
    {
      "constant": false,
      "inputs": [
        {
          "internalType": "address",
          "name": "account",
          "type": "address"
        }
      ],
      "name": "replaceWhitelistAdmin",
      "outputs": [],
      "payable": false,
      "stateMutability": "nonpayable",
      "type": "function"
    },
    {
      "constant": true,
      "inputs": [
        {
          "internalType": "uint256",
          "name": "proposalId",
          "type": "uint256"
        }
      ],
      "name": "tokensBalance",
      "outputs": [
        {
          "internalType": "uint256",
          "name": "",
          "type": "uint256"
        }
      ],
      "payable": false,
      "stateMutability": "view",
      "type": "function"
    },
    {
      "constant": true,
      "inputs": [
        {
          "internalType": "uint256",
          "name": "proposalId",
          "type": "uint256"
        }
      ],
      "name": "votingResult",
      "outputs": [
        {
          "internalType": "uint256",
          "name": "yes",
          "type": "uint256"
        },
        {
          "internalType": "uint256",
          "name": "no",
          "type": "uint256"
        }
      ],
      "payable": false,
      "stateMutability": "view",
      "type": "function"
    },
    {
      "constant": true,
      "inputs": [
        {
          "internalType": "uint256",
          "name": "proposalId",
          "type": "uint256"
        }
      ],
      "name": "isVotingPassed",
      "outputs": [
        {
          "internalType": "bool",
          "name": "",
          "type": "bool"
        }
      ],
      "payable": false,
      "stateMutability": "view",
      "type": "function"
    }
  ],
  "bytecode": "0x60806040526200002a6200001b6001600160e01b036200006016565b6001600160e01b036200006416565b6034805460ff191690556200005a6200004b6001600160e01b036200006016565b6001600160e01b03620000b616565b620001fe565b3390565b6200007f8160336200010860201b620031ef1790919060201c565b6040516001600160a01b038216907f6719d08c1888103bea251a4ed56406bd0c3e69723c8a1686e017e7bbe159b6f890600090a250565b620000d18160356200010860201b620031ef1790919060201c565b6040516001600160a01b038216907f22380c05984257a1cb900161c713dd71d39e74820f1aea43bd3f1bdd2096129990600090a250565b6200011d82826001600160e01b036200019516565b1562000170576040805162461bcd60e51b815260206004820152601f60248201527f526f6c65733a206163636f756e7420616c72656164792068617320726f6c6500604482015290519081900360640190fd5b6001600160a01b0316600090815260209190915260409020805460ff19166001179055565b60006001600160a01b038216620001de5760405162461bcd60e51b815260040180806020018281038252602281526020018062003acd6022913960400191505060405180910390fd5b506001600160a01b03166000908152602091909152604090205460ff1690565b6138bf806200020e6000396000f3fe6080604052600436106101e35760003560e01c80637c2466ff11610102578063c4d66de811610095578063e0a8f6f511610064578063e0a8f6f514610984578063e520251a146109ae578063e63bc62d146109e7578063f73a8b4a14610a11576101e3565b8063c4d66de81461079a578063c7f758a8146107cd578063d6cd94731461095a578063da35c6641461096f576101e3565b80638456cb59116100d15780638456cb59146106ee5780638658374614610703578063b769296814610736578063bb5f747b14610767576101e3565b80637c2466ff146105865780637e9b8f801461066a578063827e8b471461067f57806382dc1ec4146106bb576101e3565b806354fd4d501161017a57806361d140511161014957806361d14051146104d15780636a96bab4146105145780636ef8d66d1461053e5780637362d9c814610553576101e3565b806354fd4d50146103515780635a55c1f0146103db5780635c975abb1461043f57806361301afa14610454576101e3565b80633af32abf116101b65780633af32abf146102ad5780633f4ba83a146102f457806346fbf68e146103095780634c5a628c1461033c576101e3565b806310154bad146101e857806319819ff51461021d578063291d954914610250578063315a095d14610283575b600080fd5b3480156101f457600080fd5b5061021b6004803603602081101561020b57600080fd5b50356001600160a01b0316610a3b565b005b34801561022957600080fd5b5061021b6004803603602081101561024057600080fd5b50356001600160a01b0316610a92565b34801561025c57600080fd5b5061021b6004803603602081101561027357600080fd5b50356001600160a01b0316610aea565b34801561028f57600080fd5b5061021b600480360360208110156102a657600080fd5b5035610b39565b3480156102b957600080fd5b506102e0600480360360208110156102d057600080fd5b50356001600160a01b0316610ca6565b604080519115158252519081900360200190f35b34801561030057600080fd5b5061021b610cbf565b34801561031557600080fd5b506102e06004803603602081101561032c57600080fd5b50356001600160a01b0316610da8565b34801561034857600080fd5b5061021b610dbb565b34801561035d57600080fd5b50610366610dcd565b6040805160208082528351818301528351919283929083019185019080838360005b838110156103a0578181015183820152602001610388565b50505050905090810190601f1680156103cd5780820380516001836020036101000a031916815260200191505b509250505060405180910390f35b3480156103e757600080fd5b50610405600480360360208110156103fe57600080fd5b5035610dee565b6040518085600181111561041557fe5b60ff1681526020810194909452506040808401929092521515606083015251908190036080019150f35b34801561044b57600080fd5b506102e0610ef6565b34801561046057600080fd5b506104816004803603602081101561047757600080fd5b503560ff16610f00565b60408051602080825283518183015283519192839290830191858101910280838360005b838110156104bd5781810151838201526020016104a5565b505050509050019250505060405180910390f35b3480156104dd57600080fd5b506104fb600480360360208110156104f457600080fd5b503561103c565b6040805192835260208301919091528051918290030190f35b34801561052057600080fd5b506102e06004803603602081101561053757600080fd5b50356111b1565b34801561054a57600080fd5b5061021b611296565b34801561055f57600080fd5b5061021b6004803603602081101561057657600080fd5b50356001600160a01b03166112a6565b61021b600480360360c081101561059c57600080fd5b8101906020810181356401000000008111156105b757600080fd5b8201836020820111156105c957600080fd5b803590602001918460018302840111640100000000831117156105eb57600080fd5b9193909260ff833516926020810135926001600160a01b036040830135169260608301359260a08101906080013564010000000081111561062b57600080fd5b82018360208201111561063d57600080fd5b8035906020019184600183028401116401000000008311171561065f57600080fd5b5090925090506112f5565b34801561067657600080fd5b506104816116d5565b34801561068b57600080fd5b506106a9600480360360208110156106a257600080fd5b50356117cf565b60408051918252519081900360200190f35b3480156106c757600080fd5b5061021b600480360360208110156106de57600080fd5b50356001600160a01b03166118d7565b3480156106fa57600080fd5b5061021b611926565b34801561070f57600080fd5b5061021b6004803603602081101561072657600080fd5b50356001600160a01b03166119ed565b34801561074257600080fd5b5061074b611a45565b604080516001600160a01b039092168252519081900360200190f35b34801561077357600080fd5b506102e06004803603602081101561078a57600080fd5b50356001600160a01b0316611a54565b3480156107a657600080fd5b5061021b600480360360208110156107bd57600080fd5b50356001600160a01b0316611a67565b3480156107d957600080fd5b506107f7600480360360208110156107f057600080fd5b5035611b3c565b60405180806020018b600181111561080b57fe5b60ff1681526020018a815260200189815260200188600360200280838360005b8381101561084357818101518382015260200161082b565b50505050905001876001600160a01b03166001600160a01b0316815260200186815260200180602001851515151581526020018415151515815260200183810383528d818151815260200191508051906020019080838360005b838110156108b557818101518382015260200161089d565b50505050905090810190601f1680156108e25780820380516001836020036101000a031916815260200191505b50838103825286518152865160209182019188019080838360005b838110156109155781810151838201526020016108fd565b50505050905090810190601f1680156109425780820380516001836020036101000a031916815260200191505b509c5050505050505050505050505060405180910390f35b34801561096657600080fd5b5061021b611d9a565b34801561097b57600080fd5b506106a9611daa565b34801561099057600080fd5b5061021b600480360360208110156109a757600080fd5b5035611db0565b3480156109ba57600080fd5b5061021b600480360360608110156109d157600080fd5b5080359060ff6020820135169060400135612046565b3480156109f357600080fd5b5061021b60048036036020811015610a0a57600080fd5b5035612692565b348015610a1d57600080fd5b5061021b60048036036020811015610a3457600080fd5b5035612a41565b610a4b610a46612c76565b611a54565b610a865760405162461bcd60e51b81526004018080602001828103825260408152602001806137e76040913960400191505060405180910390fd5b610a8f81612c7a565b50565b610a9d610a46612c76565b610ad85760405162461bcd60e51b81526004018080602001828103825260408152602001806137e76040913960400191505060405180910390fd5b610ae181612cc2565b610a8f33612d0a565b610af5610a46612c76565b610b305760405162461bcd60e51b81526004018080602001828103825260408152602001806137e76040913960400191505060405180910390fd5b610a8f81612d52565b6000818152603960205260409020600701548190610b8c576040805162461bcd60e51b81526020600482015260126024820152600080516020613705833981519152604482015290519081900360640190fd5b6000828152603960205260409020600801548290610ba8612d9a565b1015610bf3576040805162461bcd60e51b8152602060048201526015602482015274141493d413d4d05317d393d517d192539254d21151605a1b604482015290519081900360640190fd5b6000610bfe846117cf565b905060008111610c55576040805162461bcd60e51b815260206004820152601b60248201527f494e53554646494349454e545f544f4b454e535f42414c414e43450000000000604482015290519081900360640190fd5b6000848152603a6020908152604080832033808552818452828520548552600290910190925290912060038101805461ff00191661010017905560018101549091610c9f91612d9e565b5050505050565b6000610cb960368363ffffffff612e0316565b92915050565b610ccf610cca612c76565b610da8565b610d0a5760405162461bcd60e51b81526004018080602001828103825260308152602001806137256030913960400191505060405180910390fd5b60345460ff16610d58576040805162461bcd60e51b815260206004820152601460248201527314185d5cd8589b194e881b9bdd081c185d5cd95960621b604482015290519081900360640190fd5b6034805460ff191690557f5db9ee0a495bf2e6ff9c91a7834c1ba4fdd244a5e8aa4e537bd38aeae4b073aa610d8b612c76565b604080516001600160a01b039092168252519081900360200190a1565b6000610cb960338363ffffffff612e0316565b610dcb610dc6612c76565b612d0a565b565b60405180604001604052806005815260200164302e312e3160d81b81525081565b6000818152603960205260408120600701548190819081908590610e47576040805162461bcd60e51b81526020600482015260126024820152600080516020613705833981519152604482015290519081900360640190fd5b6000868152603a60209081526040808320338452600101909152902054869060ff16610eab576040805162461bcd60e51b815260206004820152600e60248201526d1593d51157d393d517d193d5539160921b604482015290519081900360640190fd5b50505060009384525050603a602090815260408084203385528083528185205485526002908101909252909220805460018201549382015460039092015460ff918216959293501690565b60345460ff165b90565b6060610f0b82612e6a565b506060610f1783612e78565b604051908082528060200260200182016040528015610f40578160200160208202803883390190505b5090506000805b6038548110156110335760008181526039602052604090206009015460ff16158015610f8a5750600081815260396020526040902060090154610100900460ff16155b8015610fae575060008181526039602052604090206009015462010000900460ff16155b8015610fd15750600081815260396020526040902060080154610fcf612d9a565b105b80156110065750846001811115610fe457fe5b60008281526039602052604090206002015460ff16600181111561100457fe5b145b1561102b578083838151811061101857fe5b6020026020010181815250506001820191505b600101610f47565b50909392505050565b60008181526039602052604081206007015481908390611091576040805162461bcd60e51b81526020600482015260126024820152600080516020613705833981519152604482015290519081900360640190fd5b60005b6000858152603a60205260409020600301548110156111aa576000858152603a6020908152604080832084845260020190915290206003015460ff166111a2576000858152603a6020908152604080832084845260020190915281205460ff1660018111156110ff57fe5b141561113a576000858152603a602090815260408083208484526002908101909252909120015461113790859063ffffffff612f6416565b93505b60016000868152603a6020908152604080832085845260020190915290205460ff16600181111561116757fe5b14156111a2576000858152603a602090815260408083208484526002908101909252909120015461119f90849063ffffffff612f6416565b92505b600101611094565b5050915091565b6000818152603960205260408120600701548290611204576040805162461bcd60e51b81526020600482015260126024820152600080516020613705833981519152604482015290519081900360640190fd5b60008381526039602052604090206009015460ff16156112275760019150611290565b60008381526039602052604090206009015462010000900460ff16156112505760009150611290565b60008381526039602052604090206008015461126a612d9a565b10156112795760009150611290565b6000806112858561103c565b109350611290915050565b50919050565b610dcb6112a1612c76565b612fbe565b6112b1610a46612c76565b6112ec5760405162461bcd60e51b81526004018080602001828103825260408152602001806137e76040913960400191505060405180910390fd5b610a8f81612cc2565b611305611300612c76565b610ca6565b6113405760405162461bcd60e51b815260040180806020018281038252603a815260200180613827603a913960400191505060405180910390fd5b60345460ff161561138b576040805162461bcd60e51b815260206004820152601060248201526f14185d5cd8589b194e881c185d5cd95960821b604482015290519081900360640190fd5b61139486612e6a565b506001600160a01b0384166113e6576040805162461bcd60e51b815260206004820152601360248201527224a72b20a624a22fa222a9aa24a720aa24a7a760691b604482015290519081900360640190fd5b8215806113fe57506000831180156113fe5750823410155b61144f576040805162461bcd60e51b815260206004820152601860248201527f494e53554646494349454e545f45544845525f56414c55450000000000000000604482015290519081900360640190fd5b60385460408051338152602081019290925280517f294a8b64183582a911805b3a31b11b3c4d20c7431578897c6abcc35aae886d5e9281900390910190a16114956135a2565b6040518060e00160405280336001600160a01b031681526020018a8a8080601f0160208091040260200160405190810160405280939291908181526020018383808284376000920191909152505050908252506020018860018111156114f757fe5b81526020016040518060a00160405280886001600160a01b0316815260200187815260200186868080601f0160208091040260200160405190810160405280939291908181526020018383808284376000920182905250938552505050602080830182905260409283019190915291835290820189905201611599611585896201518063ffffffff61300616565b61158d612d9a565b9063ffffffff612f6416565b8152602090810183905260385460009081526039825260409020825181546001600160a01b0319166001600160a01b0390911617815582820151805191926115e9926001850192909101906135c0565b50604082015160028201805460ff19166001838181111561160657fe5b0217905550606082015180516003830180546001600160a01b0319166001600160a01b0390921691909117815560208083015160048501556040830151805161165592600587019201906135c0565b5060608201516003918201805460809485015115156101000261ff001993151560ff19909216919091179290921691909117905590830151600783015560a0830151600883015560c08301516116b09160098401919061363e565b50506038546116c79150600163ffffffff612f6416565b603855505050505050505050565b6060806116e061305f565b604051908082528060200260200182016040528015611709578160200160208202803883390190505b5090506000805b6038548110156117c75760008181526039602052604090206009015460ff161580156117535750600081815260396020526040902060090154610100900460ff16155b8015611777575060008181526039602052604090206009015462010000900460ff16155b801561179a5750600081815260396020526040902060080154611798612d9a565b105b156117bf57808383815181106117ac57fe5b6020026020010181815250506001820191505b600101611710565b509091505090565b6000818152603960205260408120600701548290611822576040805162461bcd60e51b81526020600482015260126024820152600080516020613705833981519152604482015290519081900360640190fd5b60008381526039602052604081206009015462010000900460ff1615801561186657506000848152603a6020908152604080832033845260010190915290205460ff165b80156118a057506000848152603a60209081526040808320338452808352818420548452600201909152902060030154610100900460ff16155b156118d057506000838152603a602090815260408083203384528083528184205484526002019091529020600101545b9392505050565b6118e2610cca612c76565b61191d5760405162461bcd60e51b81526004018080602001828103825260308152602001806137256030913960400191505060405180910390fd5b610a8f81613115565b611931610cca612c76565b61196c5760405162461bcd60e51b81526004018080602001828103825260308152602001806137256030913960400191505060405180910390fd5b60345460ff16156119b7576040805162461bcd60e51b815260206004820152601060248201526f14185d5cd8589b194e881c185d5cd95960821b604482015290519081900360640190fd5b6034805460ff191660011790557f62e78cea01bee320cd4e420270b5ea74000d11b0c9f74754ebdbfc544b05a258610d8b612c76565b6119f8610cca612c76565b611a335760405162461bcd60e51b81526004018080602001828103825260308152602001806137256030913960400191505060405180910390fd5b611a3c81613115565b610a8f33612fbe565b6037546001600160a01b031681565b6000610cb960358363ffffffff612e0316565b600054610100900460ff1680611a805750611a8061315d565b80611a8e575060005460ff16155b611ac95760405162461bcd60e51b815260040180806020018281038252602e8152602001806137b9602e913960400191505060405180910390fd5b600054610100900460ff16158015611af4576000805460ff1961ff0019909116610100171660011790555b603780546001600160a01b0319166001600160a01b0384161790556000603855611b1d33613115565b611b2633612cc2565b8015611b38576000805461ff00191690555b5050565b60606000806000611b4b6135a2565b6000868152603960205260408120600701548190606090829081908b90611ba7576040805162461bcd60e51b81526020600482015260126024820152600080516020613705833981519152604482015290519081900360640190fd5b60008c815260396020908152604091829020600180820180548551600293821615610100026000190190911692909204601f810185900485028301850190955284825291939092830182828015611c3f5780601f10611c1457610100808354040283529160200191611c3f565b820191906000526020600020905b815481529060010190602001808311611c2257829003601f168201915b50505050509b508060020160009054906101000a900460ff169a50806007015499508060080154985080600901600380602002604051908101604052809291908260038015611cc3576020028201916000905b825461010083900a900460ff161515815260206001928301818104948501949093039092029101808411611c925790505b505050506003830154600484015460058501805460408051602060026101006001861615026000190190941693909304601f8101849004840282018401909252818152969e506001600160a01b039094169c50919a509250830182828015611d6c5780601f10611d4157610100808354040283529160200191611d6c565b820191906000526020600020905b815481529060010190602001808311611d4f57829003601f168201915b5050506006909301549d9f9c9e509a9c999b989a509698959760ff8088169761010090041695509350505050565b610dcb611da5612c76565b612d52565b60385481565b6000818152603960205260409020600701548190611e03576040805162461bcd60e51b81526020600482015260126024820152600080516020613705833981519152604482015290519081900360640190fd5b60008281526039602052604090205482906001600160a01b03163314611e61576040805162461bcd60e51b815260206004820152600e60248201526d2727aa2fa0afa82927a827a9a2a960911b604482015290519081900360640190fd5b600083815260396020526040902060090154839060ff1615611ebc576040805162461bcd60e51b815260206004820152600f60248201526e141493d413d4d05317d41054d4d151608a1b604482015290519081900360640190fd5b6000848152603960205260409020600901548490610100900460ff1615611f1f576040805162461bcd60e51b8152602060048201526012602482015271141493d413d4d05317d41493d0d154d4d15160721b604482015290519081900360640190fd5b600085815260396020526040902060090154859062010000900460ff1615611f83576040805162461bcd60e51b8152602060048201526012602482015271141493d413d4d05317d0d05390d15313115160721b604482015290519081900360640190fd5b600080611f8f8861103c565b91509150816000148015611fa1575080155b611fe7576040805162461bcd60e51b815260206004820152601260248201527150524f504f53414c5f4841535f564f54455360701b604482015290519081900360640190fd5b600088815260396020908152604091829020600901805462ff000019166201000017905581518a815291517f416e669c63d9a3a5e36ee7cc7e2104b8db28ccd286aa18966e98fa230c73b08c9281900390910190a15050505050505050565b60345460ff1615612091576040805162461bcd60e51b815260206004820152601060248201526f14185d5cd8589b194e881c185d5cd95960821b604482015290519081900360640190fd5b60008381526039602052604090206007015483906120e4576040805162461bcd60e51b81526020600482015260126024820152600080516020613705833981519152604482015290519081900360640190fd5b600084815260396020526040902060090154849060ff161561213f576040805162461bcd60e51b815260206004820152600f60248201526e141493d413d4d05317d41054d4d151608a1b604482015290519081900360640190fd5b600085815260396020526040902060090154859062010000900460ff16156121a3576040805162461bcd60e51b8152602060048201526012602482015271141493d413d4d05317d0d05390d15313115160721b604482015290519081900360640190fd5b60008681526039602052604090206008015486906121bf612d9a565b10612205576040805162461bcd60e51b8152602060048201526011602482015270141493d413d4d05317d192539254d21151607a1b604482015290519081900360640190fd5b603754604080516370a0823160e01b8152336004820152905187926001600160a01b0316916370a08231916024808301926020929190829003018186803b15801561224f57600080fd5b505afa158015612263573d6000803e3d6000fd5b505050506040513d602081101561227957600080fd5b505110156122ce576040805162461bcd60e51b815260206004820152601b60248201527f494e53554646494349454e545f544f4b454e535f42414c414e43450000000000604482015290519081900360640190fd5b60375460408051636eb1769f60e11b8152336004820152306024820152905187926001600160a01b03169163dd62ed3e916044808301926020929190829003018186803b15801561231e57600080fd5b505afa158015612332573d6000803e3d6000fd5b505050506040513d602081101561234857600080fd5b5051101561239d576040805162461bcd60e51b815260206004820152601d60248201527f494e53554646494349454e545f544f4b454e535f414c4c4f57414e4345000000604482015290519081900360640190fd5b6123a73386613163565b6000878152603a6020908152604080832033845260010190915281205460ff166124fb576000888152603a6020908152604080832033845260018082018452828520805460ff191690911790556003810154925290912081905561240a876131c9565b91506040518060a0016040528089600181111561242357fe5b815260208082018a9052604080830186905260006060840181905260809093018390528c8352603a8252808320858452600201909152902081518154829060ff19166001838181111561247257fe5b0217905550602082810151600180840191909155604080850151600285015560608501516003948501805460809097015115156101000261ff001992151560ff1990981697909717919091169590951790945560008d8152603a90925292902001546124e39163ffffffff612f6416565b60008a8152603a60205260409020600301555061261b565b6000888152603a602090815260408083203384528083528184205484526002019091529020600381015460ff161561254a5760038101805461ffff19169055612543876131c9565b91506125f1565b600181015461255f908863ffffffff612f6416565b965061256a876131c9565b91507f940ff8122c3cdbdc4a4aa871d42fdf13e863866d63ab2ea9fc0af542894daff4898260000160009054906101000a900460ff16338460010154604051808581526020018460018111156125bc57fe5b60ff168152602001836001600160a01b03166001600160a01b0316815260200182815260200194505050505060405180910390a15b80548890829060ff19166001838181111561260857fe5b0217905550600181018790556002018190555b7f615fd00d334fb9ec9d221e8191b07961008426504d05e916a5e961a64d3a21b188883389856040518086815260200185600181111561265757fe5b60ff1681526001600160a01b039094166020850152506040808401929092526060830152519081900360800192509050a15050505050505050565b60345460ff16156126dd576040805162461bcd60e51b815260206004820152601060248201526f14185d5cd8589b194e881c185d5cd95960821b604482015290519081900360640190fd5b6000818152603960205260409020600701548190612730576040805162461bcd60e51b81526020600482015260126024820152600080516020613705833981519152604482015290519081900360640190fd5b6000828152603960205260409020600901548290610100900460ff1615612793576040805162461bcd60e51b8152602060048201526012602482015271141493d413d4d05317d41493d0d154d4d15160721b604482015290519081900360640190fd5b600083815260396020526040902060090154839062010000900460ff16156127f7576040805162461bcd60e51b8152602060048201526012602482015271141493d413d4d05317d0d05390d15313115160721b604482015290519081900360640190fd5b6000848152603960205260409020600801548490612813612d9a565b101561285e576040805162461bcd60e51b8152602060048201526015602482015274141493d413d4d05317d393d517d192539254d21151605a1b604482015290519081900360640190fd5b600085815260396020526040812060098101805461ff00191661010017905590612887876111b1565b905080801561289b5750600682015460ff16155b156129f85760098201805460ff1990811660019081179092556006840180549091168217905560038301546004840154600585018054604080516020600297841615610100026000190190931696909604601f8101839004830287018301909152808652600095612971956001600160a01b0316949390929091908301828280156129675780601f1061293c57610100808354040283529160200191612967565b820191906000526020600020905b81548152906001019060200180831161294a57829003601f168201915b50505050506131d4565b905080156129c25760068301805461ff0019166101001790556040805189815290517ff25d1eb843be2601e5db773f59cb25699ae9d3df1b9254508313091fce8933659181900360200190a16129f6565b6040805189815290517fe23a6a9556cd21c6bb855e17fd21d654c8e203ac086373ee44eddea75167a19d9181900360200190a15b505b604080518881523360208201528215158183015290517f3353f106f05924858609a02b121cc13682b78d4b27deb999bad073a12db291bb9181900360600190a150505050505050565b6000818152603960205260409020600701548190612a94576040805162461bcd60e51b81526020600482015260126024820152600080516020613705833981519152604482015290519081900360640190fd5b600082815260396020526040902060090154829060ff1615612aef576040805162461bcd60e51b815260206004820152600f60248201526e141493d413d4d05317d41054d4d151608a1b604482015290519081900360640190fd5b600083815260396020526040902060090154839062010000900460ff1615612b53576040805162461bcd60e51b8152602060048201526012602482015271141493d413d4d05317d0d05390d15313115160721b604482015290519081900360640190fd5b6000848152603a602090815260408083203384528083528184205484526002019091529020600381015460ff1615612bc1576040805162461bcd60e51b815260206004820152600c60248201526b1593d51157d4915593d2d15160a21b604482015290519081900360640190fd5b600381018054610100600160ff19909216821761ff00191617909155810154612beb903390612d9e565b7f940ff8122c3cdbdc4a4aa871d42fdf13e863866d63ab2ea9fc0af542894daff4858260000160009054906101000a900460ff1633846001015460405180858152602001846001811115612c3b57fe5b60ff168152602001836001600160a01b03166001600160a01b0316815260200182815260200194505050505060405180910390a15050505050565b3390565b612c8b60368263ffffffff6131ef16565b6040516001600160a01b038216907fee1504a83b6d4a361f4c1dc78ab59bfa30d6a3b6612c403e86bb01ef2984295f90600090a250565b612cd360358263ffffffff6131ef16565b6040516001600160a01b038216907f22380c05984257a1cb900161c713dd71d39e74820f1aea43bd3f1bdd2096129990600090a250565b612d1b60358263ffffffff61327016565b6040516001600160a01b038216907f0a8eb35e5ca14b3d6f28e4abf2f128dbab231a58b56e89beb5d636115001e16590600090a250565b612d6360368263ffffffff61327016565b6040516001600160a01b038216907f270d9b30cf5b0793bbfd54c9d5b94aeb49462b8148399000265144a8722da6b690600090a250565b4290565b603754612dbb906001600160a01b0316838363ffffffff6132d716565b604080516001600160a01b03841681526020810183905281517fc7798891864187665ac6dd119286e44ec13f014527aeeb2b8eb3fd413df93179929181900390910190a15050565b60006001600160a01b038216612e4a5760405162461bcd60e51b81526004018080602001828103825260228152602001806137976022913960400191505060405180910390fd5b506001600160a01b03166000908152602091909152604090205460ff1690565b6000816001811115610cb957fe5b600080805b603854811015612f5d5760008181526039602052604090206009015460ff16158015612ec05750600081815260396020526040902060090154610100900460ff16155b8015612ee4575060008181526039602052604090206009015462010000900460ff16155b8015612f075750600081815260396020526040902060080154612f05612d9a565b105b8015612f3c5750836001811115612f1a57fe5b60008281526039602052604090206002015460ff166001811115612f3a57fe5b145b15612f5557612f5282600163ffffffff612f6416565b91505b600101612e7d565b5092915050565b6000828201838110156118d0576040805162461bcd60e51b815260206004820152601b60248201527f536166654d6174683a206164646974696f6e206f766572666c6f770000000000604482015290519081900360640190fd5b612fcf60338263ffffffff61327016565b6040516001600160a01b038216907fcd265ebaf09df2871cc7bd4133404a235ba12eff2041bb89d9c714a2621c7c7e90600090a250565b60008261301557506000610cb9565b8282028284828161302257fe5b04146118d05760405162461bcd60e51b81526004018080602001828103825260218152602001806137766021913960400191505060405180910390fd5b600080805b60385481101561310f5760008181526039602052604090206009015460ff161580156130a75750600081815260396020526040902060090154610100900460ff16155b80156130cb575060008181526039602052604090206009015462010000900460ff16155b80156130ee57506000818152603960205260409020600801546130ec612d9a565b105b156131075761310482600163ffffffff612f6416565b91505b600101613064565b50905090565b61312660338263ffffffff6131ef16565b6040516001600160a01b038216907f6719d08c1888103bea251a4ed56406bd0c3e69723c8a1686e017e7bbe159b6f890600090a250565b303b1590565b603754613181906001600160a01b031683308463ffffffff61332e16565b604080516001600160a01b03841681526020810183905281517fac87f20a77d28ee8bbb58ec87ea8fa968b3393efae1a368fd50b767c2847391c929181900390910190a15050565b6000610cb98261338e565b600080600083516020850186886187965a03f1949350505050565b6131f98282612e03565b1561324b576040805162461bcd60e51b815260206004820152601f60248201527f526f6c65733a206163636f756e7420616c72656164792068617320726f6c6500604482015290519081900360640190fd5b6001600160a01b0316600090815260209190915260409020805460ff19166001179055565b61327a8282612e03565b6132b55760405162461bcd60e51b81526004018080602001828103825260218152602001806137556021913960400191505060405180910390fd5b6001600160a01b0316600090815260209190915260409020805460ff19169055565b604080516001600160a01b038416602482015260448082018490528251808303909101815260649091019091526020810180516001600160e01b031663a9059cbb60e01b1790526133299084906133ae565b505050565b604080516001600160a01b0385811660248301528416604482015260648082018490528251808303909101815260849091019091526020810180516001600160e01b03166323b872dd60e01b1790526133889085906133ae565b50505050565b80600260018201045b818110156112905790506002818304820104613397565b6133c0826001600160a01b0316613566565b613411576040805162461bcd60e51b815260206004820152601f60248201527f5361666545524332303a2063616c6c20746f206e6f6e2d636f6e747261637400604482015290519081900360640190fd5b60006060836001600160a01b0316836040518082805190602001908083835b6020831061344f5780518252601f199092019160209182019101613430565b6001836020036101000a0380198251168184511680821785525050505050509050019150506000604051808303816000865af19150503d80600081146134b1576040519150601f19603f3d011682016040523d82523d6000602084013e6134b6565b606091505b50915091508161350d576040805162461bcd60e51b815260206004820181905260248201527f5361666545524332303a206c6f772d6c6576656c2063616c6c206661696c6564604482015290519081900360640190fd5b8051156133885780806020019051602081101561352957600080fd5b50516133885760405162461bcd60e51b815260040180806020018281038252602a815260200180613861602a913960400191505060405180910390fd5b6000813f7fc5d2460186f7233c927e7db2dcc703c0e500b653ca82273b7bfad8045d85a470811580159061359a5750808214155b949350505050565b60405180606001604052806003906020820280388339509192915050565b828054600181600116156101000203166002900490600052602060002090601f016020900481019282601f1061360157805160ff191683800117855561362e565b8280016001018555821561362e579182015b8281111561362e578251825591602001919060010190613613565b5061363a9291506136cc565b5090565b6001830191839082156136c05791602002820160005b8382111561369157835183826101000a81548160ff0219169083151502179055509260200192600101602081600001049283019260010302613654565b80156136be5782816101000a81549060ff0219169055600101602081600001049283019260010302613691565b505b5061363a9291506136e6565b610efd91905b8082111561363a57600081556001016136d2565b610efd91905b8082111561363a57805460ff191681556001016136ec56fe50524f504f53414c5f4e4f545f464f554e440000000000000000000000000000506175736572526f6c653a2063616c6c657220646f6573206e6f742068617665207468652050617573657220726f6c65526f6c65733a206163636f756e7420646f6573206e6f74206861766520726f6c65536166654d6174683a206d756c7469706c69636174696f6e206f766572666c6f77526f6c65733a206163636f756e7420697320746865207a65726f2061646472657373436f6e747261637420696e7374616e63652068617320616c7265616479206265656e20696e697469616c697a656457686974656c69737441646d696e526f6c653a2063616c6c657220646f6573206e6f742068617665207468652057686974656c69737441646d696e20726f6c6557686974656c6973746564526f6c653a2063616c6c657220646f6573206e6f742068617665207468652057686974656c697374656420726f6c655361666545524332303a204552433230206f7065726174696f6e20646964206e6f742073756363656564a265627a7a723158201c2539ca9909b95c411ebffb53ee777a13c5cd7a29efca0499569fe7d56af0ce64736f6c634300050e0032526f6c65733a206163636f756e7420697320746865207a65726f2061646472657373",
  "source": "pragma solidity 0.5.14;\n\nimport \"@openzeppelin/upgrades/contracts/Initializable.sol\";\nimport \"openzeppelin-solidity/contracts/lifecycle/Pausable.sol\";\nimport \"openzeppelin-solidity/contracts/access/roles/WhitelistedRole.sol\";\nimport \"openzeppelin-solidity/contracts/token/ERC20/IERC20.sol\";\nimport \"openzeppelin-solidity/contracts/token/ERC20/SafeERC20.sol\";\nimport \"openzeppelin-solidity/contracts/math/SafeMath.sol\";\nimport \"./libraries/VotingLib.sol\";\n\n\n/**\n * @title Universal DAO for projects based on Openzeppelin SDK\n * @dev This contract holds main DAO logic and storages\n * @author Kostiantyn Smyrnov <kostysh@gmail.com>\n */\ncontract Dao is Initializable, Pausable, WhitelistedRole {\n\n    using SafeMath for uint256;\n    using SafeERC20 for IERC20;\n\n    /**\n     * @dev List of acceptable proposal types\n     * Usefull for filtering purposes\n     */\n    enum ProposalType {\n        ContractUpgrade,\n        MethodCall\n    }\n\n    /**\n     * @dev Acceptable vote types\n     */\n    enum VoteType {\n        Yes,\n        No\n    }\n\n    /**\n     * @dev Proposal transaction\n     * @param destination Transaction target address\n     * @param value Ethers value to send with transaction\n     * @param data Signed transaction data\n     * @param executed Transaction execution flag\n     * @param failed Transaction execution result\n     */\n    struct Transaction {\n        address destination;\n        uint256 value;\n        bytes data;\n        bool executed;\n        bool success;\n    }\n\n    /**\n     * @dev Proposal structure\n     * @param proposer Proposer address\n     * @param details Proposal description. Can be text|IPFS Hash|Url|Etc\n     * @param proposalType Proposal type\n     * @param transaction Transaction storage\n     * @param duration Proposal duration in days\n     * @param end Proposal voting end date\n     * @param flags Proposal state flags [passed, processed, cancelled]\n     */\n    struct Proposal {\n        address proposer;\n        string details;\n        ProposalType proposalType;\n        Transaction transaction;\n        uint256 duration;\n        uint256 end;\n        bool[3] flags;\n    }\n\n    /**\n     * @dev Vote structure\n     * @param voteType Type of the vote\n     * @param valueOriginal Original vote value (not converted)\n     * @param valueAccepted Accepted vote value (converted)\n     * @param revoked Revoked flag\n     */\n    struct Vote {\n        VoteType voteType;\n        uint256 valueOriginal;\n        uint256 valueAccepted;\n        bool revoked;        \n        bool withdrawn;\n    }\n\n    /**\n     * @dev Voting structure\n     * @param ids List of the voters votes Ids (indexes)\n     * @param voted List voted voters\n     * @param votes List of votes\n     * @param votesCount Votes counter\n     */\n    struct Voting {\n        mapping (address => uint256) ids;// voterAddress => voteId\n        mapping (address => bool) voted;// voterAddress => bool\n        mapping (uint256 => Vote) votes;// voteId => Vote\n        uint256 votesCount;\n    }\n\n    /**\n     * @dev This event will be emitted when proposal has been added\n     * @param proposer Proposer address\n     * @param proposalId Proposal Id\n     */\n    event ProposalAdded(\n        address proposer,\n        uint256 proposalId\n    );\n\n    /**\n     * @dev This event will be emitted when proposal has been cancelled\n     * @param proposalId Proposal Id\n     */\n    event ProposalCancelled(uint256 proposalId);\n\n    /**\n     * @dev This event will be emitted when Vote is accepted\n     * @param proposalId Proposal Id\n     * @param voteType Type of the vote\n     * @param voter Voter address\n     * @param votes Original votes sent\n     * @param votesAccepted Accepted votes amount\n     */\n    event VoteAdded(\n        uint256 proposalId,\n        VoteType voteType,\n        address voter,\n        uint256 votes,\n        uint256 votesAccepted\n    );\n\n    /**\n     * @dev This event will be emitted when existed Vote is revoked\n     * @param proposalId Proposal Id\n     * @param voteType Type of the vote\n     * @param voter Voter address\n     * @param votes Original votes revoked\n     */\n    event VoteRevoked(\n        uint256 proposalId,\n        VoteType voteType,\n        address voter,\n        uint256 votes\n    );\n\n    /**\n     * @dev This event will be emitted when service tokens are locked\n     * @param voter Voter address\n     * @param value Locked tokens amount\n     */\n    event TokensLocked(\n        address voter,\n        uint256 value\n    );\n\n    /**\n     * @dev This event will be emitted when service tokens are released\n     * @param voter Voter address\n     * @param value Released tokens amount\n     */\n    event TokensReleased(\n        address voter,\n        uint256 value\n    );\n\n    /**\n     * @dev This event will be emitted when proposal moved to processed state\n     * @param proposalId Proposal Id\n     * @param executor Address of proposal executor\n     * @param passed Voting result\n     */\n    event ProposalProcessed(\n        uint256 proposalId,\n        address executor,\n        bool passed\n    );\n\n    /**\n     * @dev This event will be emitted when sent proposal transaction has succeeded\n     * @param proposalId Proposal Id\n     */\n    event TransactionSuccessed(uint256 proposalId);\n\n    /**\n     * @dev This event will be emitted when sent proposal transaction has failed\n     * @param proposalId Proposal Id\n     */\n    event TransactionFailed(uint256 proposalId);\n\n    /// @dev Contract version number\n    string public constant version = \"0.1.1\";\n\n    /// @dev Token that using in voting process\n    IERC20 public serviceToken;\n\n    /// @dev Number of proposals\n    uint256 public proposalCount;\n    \n    /// @dev Proposals storage\n    mapping (uint256 => Proposal) internal proposals;// proposalId => Proposal\n\n    /// @dev Proposals votings \n    mapping (uint256 => Voting) internal votings;// proposalId => Voting\n\n\n    /**\n     * @dev This modifier allows function execution if proposal exist only\n     * @param proposalId Proposal Id\n     */\n    modifier proposalExists(uint256 proposalId) {\n        require(proposals[proposalId].duration != 0, \"PROPOSAL_NOT_FOUND\");\n        _;\n    }\n    \n    /**\n     * @dev This modifier allows function execution for the proposer only\n     * @param proposalId Proposal Id\n     */\n    modifier onlyProposer(uint256 proposalId) {\n        require(msg.sender == proposals[proposalId].proposer, \"NOT_A_PROPOSER\");\n        _;\n    }\n\n    /**\n     * @dev This modifier allows function execution if proposal has not passed flag\n     * @param proposalId Proposal Id\n     */\n    modifier notPassed(uint256 proposalId) {\n        require(!proposals[proposalId].flags[0], \"PROPOSAL_PASSED\");\n        _;\n    }\n\n    /**\n     * @dev This modifier allows function execution if proposal has not processed flag\n     * @param proposalId Proposal Id\n     */\n    modifier notProcessed(uint256 proposalId) {\n        require(!proposals[proposalId].flags[1], \"PROPOSAL_PROCESSED\");\n        _;\n    }\n\n    /**\n     * @dev This modifier allows function execution if proposal has not cancelled flag\n     * @param proposalId Proposal Id\n     */\n    modifier notCancelled(uint256 proposalId) {\n        require(!proposals[proposalId].flags[2], \"PROPOSAL_CANCELLED\");\n        _;\n    }\n\n    /**\n     * @dev This modifier allows function execution if proposal not finished\n     * @param proposalId Proposal Id\n     */\n    modifier notFinished(uint256 proposalId) {\n        require(time() < proposals[proposalId].end, \"PROPOSAL_FINISHED\");\n        _;\n    }\n\n    /**\n     * @dev This modifier allows function execution if proposal finished only\n     * @param proposalId Proposal Id\n     */\n    modifier onlyFinished(uint256 proposalId) {\n        require(time() >= proposals[proposalId].end, \"PROPOSAL_NOT_FINISHED\");\n        _;\n    }\n\n    /**\n     * @dev This modifier allows function execution if sender already voted for proposal\n     * @param proposalId Proposal Id\n     */\n    modifier voteExists(uint256 proposalId) {\n        require(votings[proposalId].voted[msg.sender], \"VOTE_NOT_FOUND\");\n        _;\n    }\n\n    /**\n     * @dev Contract initializer\n     * @param token Address of the service token\n     */\n    function initialize(address token) external initializer {\n        serviceToken = IERC20(token);\n        proposalCount = 0;\n\n        // Add proxy owner PuserRole\n        _addPauser(msg.sender);\n\n        // Add proxy owner WhitelistAdminRole\n        _addWhitelistAdmin(msg.sender);\n    }\n\n    /**\n     * @dev Add new proposal\n     *\n     * Requirements:\n     *  - sender address should be whitelisted\n     *  - contract should not be in paused state\n     *  - proposal type should allowed proposalType\n     *  - destination address should not be a valid target address\n     *  - sent ether value should be consistent with value parameter\n     * \n     * @param details Proposal details\n     * @param proposalType Proposal type\n     * @param duration Proposal voting duration in days\n     * @param destination Transaction target address\n     * @param value Transaction value in ethers\n     * @param data Signed transaction data\n     */\n    function addProposal(\n        string calldata details,\n        ProposalType proposalType,\n        uint256 duration,\n        address destination,\n        uint256 value,\n        bytes calldata data\n    ) external payable onlyWhitelisted whenNotPaused {\n        assertProposalType(proposalType);// Throws an Invalid opcode if proposalType not valid\n        // @todo Add conditions and test for proposal `duration` (s.l. min and max value)\n        require(destination != address(0), \"INVALID_DESTINATION\");\n        require(value == 0 || (value > 0 && msg.value >= value), \"INSUFFICIENT_ETHER_VALUE\");\n\n        emit ProposalAdded(msg.sender, proposalCount);\n\n        bool[3] memory flags;\n        proposals[proposalCount] = Proposal(\n            msg.sender,\n            details,\n            proposalType,\n            Transaction(\n                destination,\n                value,\n                data,\n                false,\n                false\n            ),\n            duration,\n            time().add(duration.mul(86400)),\n            flags\n        );\n        \n        proposalCount = proposalCount.add(1);\n    }\n\n    /**\n     * @dev Cancelling of the proposal\n     *\n     * Requirements:\n     *  - proposal should exists\n     *  - sender address should be a proposer address\n     *  - proposal should not be in a passed state\n     *  - proposal should not be in a processed state\n     *  - proposal should not be cancelled\n     *  - proposal has no votes\n     *\n     * @param proposalId Proposal Id\n     */\n    function cancelProposal(uint256 proposalId) \n        external \n        proposalExists(proposalId)\n        onlyProposer(proposalId)\n        notPassed(proposalId) \n        notProcessed(proposalId) \n        notCancelled(proposalId)\n    {\n        (uint256 yes, uint256 no) = votingResult(proposalId);\n        require(yes == 0 && no == 0, \"PROPOSAL_HAS_VOTES\");\n        proposals[proposalId].flags[2] = true;\n        emit ProposalCancelled(proposalId);\n    }\n\n    /**\n     * @dev Vote for the proposal\n     *\n     * Requirements:\n     *  - proposal should exists\n     *  - contract not paused\n     *  - proposal should not be in a passed state\n     *  - proposal should not be cancelled\n     *  - sender tokens balance should be sufficient\n     *  - tokens allowance for the DAO address should be sufficient\n     *  - voting not expired (does not exceed voting time frame)\n     *\n     * @param proposalId Proposal Id\n     * @param voteType Type of the vote (Yes/No)\n     * @param votes Amount of service token to use in the vote\n     */\n    function vote(\n        uint256 proposalId,\n        VoteType voteType, \n        uint256 votes\n    ) \n        external \n        whenNotPaused  \n        proposalExists(proposalId)\n        notPassed(proposalId) \n        notCancelled(proposalId)\n        notFinished(proposalId)\n    {\n        require(serviceToken.balanceOf(msg.sender) >= votes, \"INSUFFICIENT_TOKENS_BALANCE\");\n        require(serviceToken.allowance(msg.sender, address(this)) >= votes, \"INSUFFICIENT_TOKENS_ALLOWANCE\");\n\n        // Transfer tokens to the DAO\n        lockTokens(msg.sender, votes);\n        \n        uint256 votesAccepted;\n        \n        if (!votings[proposalId].voted[msg.sender]) {\n            \n            // Create new Vote\n            votings[proposalId].voted[msg.sender] = true;\n            uint256 voteId = votings[proposalId].votesCount;\n            votings[proposalId].ids[msg.sender] = voteId;\n            votesAccepted = convertVotes(votes);\n            votings[proposalId].votes[voteId] = Vote(\n                voteType,\n                votes,\n                votesAccepted,\n                false,\n                false\n            );\n            \n            // Update votes counter\n            votings[proposalId].votesCount = votings[proposalId].votesCount.add(1);\n        } else {\n            \n            // Re-use existed Vote\n            Vote storage existedVote = votings[proposalId].votes[votings[proposalId].ids[msg.sender]];\n            \n            if (existedVote.revoked) {\n\n                // Enable revoked vote status\n                existedVote.revoked = false;\n                existedVote.withdrawn = false;\n                votesAccepted = convertVotes(votes);\n            } else {\n\n                // For now allowed adding new value only\n                // @todo Implement conditional update: if votesSent less then previous value then do partial withdraw\n                votes = existedVote.valueOriginal.add(votes);\n                votesAccepted = convertVotes(votes);\n\n                // Emitting this event for consistency\n                emit VoteRevoked(\n                    proposalId,\n                    existedVote.voteType,\n                    msg.sender,\n                    existedVote.valueOriginal\n                );\n            }\n\n            // Update existed Vote\n            existedVote.voteType = voteType;\n            existedVote.valueOriginal = votes;            \n            existedVote.valueAccepted = votesAccepted;\n        }\n\n        emit VoteAdded(\n            proposalId,\n            voteType,\n            msg.sender,\n            votes,\n            votesAccepted\n        );\n    }\n\n    /**\n     * @dev Revoke of the placed vote\n     *\n     * Requirements:\n     *  - proposal should exists\n     *  - proposal should not be in a passed state\n     *  - proposal should not be cancelled\n     *  - vote should not been already revoked\n     *\n     * @param proposalId Proposal Id\n     */\n    function revokeVote(uint256 proposalId) \n        external \n        proposalExists(proposalId)\n        notPassed(proposalId) \n        notCancelled(proposalId)\n    {\n        Vote storage existedVote = votings[proposalId]\n            .votes[votings[proposalId].ids[msg.sender]];\n\n        require(!existedVote.revoked, \"VOTE_REVOKED\");\n\n        // Exclude vote from the voting results\n        existedVote.revoked = true;\n        existedVote.withdrawn = true;\n        \n        // Push tokens to the voter\n        releaseTokens(msg.sender, existedVote.valueOriginal);\n                \n        emit VoteRevoked(\n            proposalId,\n            existedVote.voteType,\n            msg.sender,\n            existedVote.valueOriginal\n        );\n    }\n\n    /**\n     * @dev Process proposal\n     *\n     * Requirements:\n     *  - proposal should exists\n     *  - contract not paused\n     *  - proposal should not be processed\n     *  - proposal should not be cancelled\n     *  - proposal is finished\n     *\n     * @param proposalId Proposal Id\n     */\n    function processProposal(uint256 proposalId) \n        external \n        whenNotPaused \n        proposalExists(proposalId) \n        notProcessed(proposalId) \n        notCancelled(proposalId) \n        onlyFinished(proposalId)\n    {\n        Proposal storage proposal = proposals[proposalId];\n        proposal.flags[1] = true; // 'processed' state\n\n        bool isPassed = isVotingPassed(proposalId);\n        \n        if (isPassed && !proposal.transaction.executed) {\n\n            proposal.flags[0] = true; // 'passed' state\n            proposal.transaction.executed = true;\n            \n            bool success = executeTransaction(\n                proposal.transaction.destination,\n                proposal.transaction.value,\n                proposal.transaction.data\n            );\n\n            if (success) {\n\n                proposal.transaction.success = true;\n                emit TransactionSuccessed(proposalId);\n            } else {\n\n                emit TransactionFailed(proposalId);\n            }\n        }\n\n        emit ProposalProcessed(proposalId, msg.sender, isPassed);\n    }\n\n    /**\n     * @dev Withdraw released tokens\n     *\n     * Requirements:\n     *  - proposal should exists\n     *  - proposal should be finished\n     *  - sender has positive locked tokens balance\n     *\n     * @param proposalId Proposal Id\n     */\n    function withdrawTokens(uint256 proposalId) \n        external \n        proposalExists(proposalId) \n        onlyFinished(proposalId)\n    {\n        uint256 tokensBalance = tokensBalance(proposalId);\n        require(tokensBalance > 0, \"INSUFFICIENT_TOKENS_BALANCE\");\n\n        Vote storage existedVote = votings[proposalId]\n            .votes[votings[proposalId].ids[msg.sender]];\n\n        // Push tokens to the voter\n        existedVote.withdrawn = true;\n        releaseTokens(msg.sender, existedVote.valueOriginal);\n    }\n\n    /**\n     * @dev Get proposal by Id (index)\n     *\n     * Requirements:\n     *  - proposal should exists \n     * \n     * @param proposalId Proposal Id\n     * @return string Proposal details\n     * @return ProposalType Proposal type\n     * @return uint256 Proposal duration in days\n     * @return uint256 Proposal end date\n     * @return bool[3] Proposal status flags\n     * @return address Transaction target address\n     * @return uint256 Ether value to send with transaction\n     * @return bytes Transaction data\n     * @return bool Transaction execution status\n     * @return bool Transaction execution result status\n     */\n    function getProposal(uint256 proposalId) \n        external \n        view \n        proposalExists(proposalId)\n        returns (\n            string memory details,\n            ProposalType proposalType,\n            uint256 duration,\n            uint256 end,\n            bool[3] memory flags,\n            address txDestination,\n            uint256 txValue,\n            bytes memory txData,\n            bool txExecuted,\n            bool txSuccess\n        ) \n    {\n        Proposal storage existedProposal = proposals[proposalId];\n        details = existedProposal.details;\n        proposalType = existedProposal.proposalType;\n        duration = existedProposal.duration;\n        end = existedProposal.end;\n        flags = existedProposal.flags;\n        txDestination = existedProposal.transaction.destination;\n        txValue = existedProposal.transaction.value;\n        txData = existedProposal.transaction.data;\n        txExecuted = existedProposal.transaction.executed;\n        txSuccess = existedProposal.transaction.success;\n    }\n\n    /**\n     * @dev Get own vote from proposal voting\n     * \n     * Requirements:\n     *  - proposal should exists\n     *  - vote should be exist\n     * \n     * @param proposalId Proposal Id\n     * @return VoteType Type of the vote\n     * @return uint256 Original vote value sent\n     * @return uint256 Acceptes vote value\n     * @return bool Reveked state of the vote\n     */\n    function getVote(uint256 proposalId) \n        external \n        view \n        proposalExists(proposalId)\n        voteExists(proposalId)\n        returns(\n            VoteType voteType,\n            uint256 valueOriginal,\n            uint256 valueAccepted,\n            bool revoked\n        ) \n    {\n        Vote storage senderVote = votings[proposalId]\n            .votes[votings[proposalId].ids[msg.sender]];\n        voteType = senderVote.voteType;\n        valueOriginal = senderVote.valueOriginal;\n        valueAccepted = senderVote.valueAccepted;\n        revoked = senderVote.revoked;\n    }\n\n    /**\n     * @dev Get all active proposals Ids\n     * @return uint256[] List of proposals Ids\n     */\n    function getActiveProposalsIds() \n        external \n        view \n        returns (uint256[] memory) \n    {\n        uint256[] memory ids = new uint256[](activeProposalsCount());\n        uint256 index;\n\n        for (uint256 i = 0; i < proposalCount; i++) {\n\n            if (!proposals[i].flags[0] && \n                !proposals[i].flags[1] &&\n                !proposals[i].flags[2] &&\n                time() < proposals[i].end) {\n                \n                ids[index] = i;\n                index += 1;\n            }\n        }\n\n        return ids;\n    }\n\n    /**\n     * @dev Get all active proposals Ids filtered by proposal type\n     *\n     * Requirements:\n     *  - proposal type should be valid \n     * \n     * @return uint256[] List of proposals Ids\n     */\n    function getActiveProposalsIds(ProposalType proposalType) \n        external \n        view \n        returns (uint256[] memory) \n    {\n        assertProposalType(proposalType);// Throws an Invalid opcode if proposalType not valid\n\n        uint256[] memory ids = new uint256[](activeProposalsCount(proposalType));\n        uint256 index;\n\n        for (uint256 i = 0; i < proposalCount; i++) {\n\n            if (!proposals[i].flags[0] && \n                !proposals[i].flags[1] &&\n                !proposals[i].flags[2] &&\n                time() < proposals[i].end &&\n                proposals[i].proposalType == proposalType) {\n                \n                ids[index] = i;\n                index += 1;\n            }\n        }\n\n        return ids;\n    }\n\n    /**\n     * @dev Replace pauser to the new one\n     * \n     * Requirements:\n     *  - sender address should be a pauser address\n     * \n     * @param account New DAO pauser address\n     */\n    function replacePauser(address account) external onlyPauser {\n        _addPauser(account);\n        _removePauser(msg.sender);\n    }\n\n    /**\n     * @dev Replace whitelist admin with new one\n     * \n     * Requirements:\n     *  - sender address should be a whitelisted admin address\n     * \n     * @param account New DAO whitelist admin address\n     */\n    function replaceWhitelistAdmin(address account) external onlyWhitelistAdmin {\n        _addWhitelistAdmin(account);\n        _removeWhitelistAdmin(msg.sender);\n    }\n\n    /**\n     * @dev Balance of locked tokens\n     * @param proposalId Proposal Id\n     * @return uint256 Balance of tokens that available to withdraw\n     */\n    function tokensBalance(uint256 proposalId) \n        public \n        view \n        proposalExists(proposalId) \n        returns (uint256) \n    {\n        uint256 lockedTokens;\n\n        // Proposal not cancelled\n        // Voter has voted\n        // Voter nas not withdrawn locked tokens\n        if (!proposals[proposalId].flags[2] &&\n            votings[proposalId].voted[msg.sender] &&\n            !votings[proposalId]\n                .votes[votings[proposalId].ids[msg.sender]]\n                .withdrawn) {\n            \n            lockedTokens = votings[proposalId]\n                .votes[votings[proposalId].ids[msg.sender]]\n                .valueOriginal;\n        }\n\n        return lockedTokens;\n    }\n\n    /**\n     * @dev Get a result of the proposal voting\n     *\n     * Requirements:\n     *  - proposal should exists\n     *\n     * @param proposalId Proposal Id\n     * @return uint256 'Yes' variant voting balance\n     * @return uint256 'No' variant voting balance\n     */\n    function votingResult(uint256 proposalId) \n        public \n        view \n        proposalExists(proposalId)\n        returns(\n            uint256 yes, \n            uint256 no\n        ) \n    {\n        \n        for (uint256 i = 0; i < votings[proposalId].votesCount; i++) {\n            \n            if (!votings[proposalId].votes[i].revoked) {\n\n                if (votings[proposalId].votes[i].voteType == VoteType.Yes) {\n                    yes = yes.add(votings[proposalId].votes[i].valueAccepted);\n                }\n\n                if (votings[proposalId].votes[i].voteType == VoteType.No) {\n                    no = no.add(votings[proposalId].votes[i].valueAccepted);\n                }\n            }\n        }\n    }\n\n    /**\n     * @dev Check is voting is passed \n     *\n     * Requirements:\n     *  - proposal should exists\n     *\n     * @param proposalId Proposal Id\n     * @return uint256 Voting result\n     */\n    function isVotingPassed(uint256 proposalId) \n        public \n        view \n        proposalExists(proposalId)\n        returns(bool) \n    {\n        \n        if (proposals[proposalId].flags[0]) {\n            // We already know result\n            return true;\n        } else if (proposals[proposalId].flags[2]) {\n            // Cancelled proposals are not passing\n            return false;\n        } else if (time() < proposals[proposalId].end) {\n            // Voting not finished yet\n            return false;\n        } else {\n\n            (uint256 yes, uint256 no) = votingResult(proposalId);\n            return yes > no;\n        }\n    }\n\n    /**\n     * @dev Return active proposals count\n     * @return uint256\n     */\n    function activeProposalsCount() internal view returns (uint256) {\n        uint256 count;\n\n        for (uint256 i = 0; i < proposalCount; i++) {\n\n            if (!proposals[i].flags[0] && \n                !proposals[i].flags[1] &&\n                !proposals[i].flags[2] &&\n                time() < proposals[i].end) {\n                \n                count = count.add(1);\n            }\n        }\n\n        return count;\n    }\n\n    /**\n     * @dev Return active proposals count\n     * @param proposalType Type of proposal\n     * @return uint256\n     */\n    function activeProposalsCount(ProposalType proposalType) \n        internal \n        view \n        returns (uint256) \n    {\n        uint256 count;\n\n        for (uint256 i = 0; i < proposalCount; i++) {\n\n            if (!proposals[i].flags[0] && \n                !proposals[i].flags[1] &&\n                !proposals[i].flags[2] &&\n                time() < proposals[i].end &&\n                proposals[i].proposalType == proposalType) {\n                \n                count = count.add(1);\n            }\n        }\n\n        return count;\n    }\n\n    /**\n     * @dev Transfer service tokens from the voter to the DAO\n     * @param voter Proposal voter\n     * @param value Amount of service tokens to transfer\n     */\n    function lockTokens(\n        address voter, \n        uint256 value\n    ) internal {\n        serviceToken.safeTransferFrom(voter, address(this), value);\n        emit TokensLocked(\n            voter,\n            value\n        );\n    }\n\n    /**\n     * @dev Release locked tokens for the voter\n     * @param voter Proposal voter\n     * @param value Amount of service tokens to transfer\n     */\n    function releaseTokens(\n        address voter,\n        uint256 value\n    ) internal {\n        serviceToken.safeTransfer(voter, value);\n        emit TokensReleased(\n            voter,\n            value\n        );\n    }\n\n    /**\n     * @dev Send a transaction for the proposal\n     * @param destination Target address to send transaction\n     * @param value Ether value to send\n     * @param data Call data\n     * @return bool Transaction execution status\n     */\n    function executeTransaction(\n        address destination,\n        uint256 value,\n        bytes memory data\n    ) internal returns (bool success) {\n        \n        // solium-disable-next-line security/no-inline-assembly\n        assembly {\n            success := call(\n                sub(gas, 34710), \n                destination, \n                value, \n                add(data, 0x20), \n                mload(data), \n                0, \n                0\n            )\n        }\n    }\n\n    /**\n     * @dev Convert votes using defined formula\n     * @param votes Amount of service token to use in the vote\n     * @return uint256 Converted votes value\n     */\n    function convertVotes(uint256 votes) internal pure returns (uint256) {\n        return VotingLib.sqrt(votes);\n    }\n\n    /**\n     * @dev Get current time\n     *  \n     * This function can be overriden for testing purposes\n     * \n     * @return uint256 Current block time\n     */\n    function time() internal view returns (uint256) {\n        return now;// solhint-disable-line not-rely-on-time\n    }\n\n    /**\n     * @dev Validate given ProposalType value\n     * @param typeValue Value of ProposalType to validate\n     * @return uint256 Validation result (or throws Invalide opcode instead)\n     */\n    function assertProposalType(ProposalType typeValue) private pure returns (uint256) {\n        return uint256(typeValue);\n    }\n\n    // @todo Add function to withdraw ether funds from contract \n}",
  "sourcePath": "/home/kostysh/dev/wtdao/packages/contracts/contracts/Dao.sol",
  "compiler": {
    "name": "solc",
    "version": "0.5.14+commit.01f1aaa4.Emscripten.clang"
  },
  "schemaVersion": "3.0.20",
  "updatedAt": "2020-01-04T23:34:13.428Z",
  "devdoc": {
    "author": "Kostiantyn Smyrnov <kostysh@gmail.com>",
    "details": "This contract holds main DAO logic and storages",
    "methods": {
      "addProposal(string,uint8,uint256,address,uint256,bytes)": {
        "details": "Add new proposal     * Requirements: - sender address should be whitelisted - contract should not be in paused state - proposal type should allowed proposalType - destination address should not be a valid target address - sent ether value should be consistent with value parameter ",
        "params": {
          "data": "Signed transaction data",
          "destination": "Transaction target address",
          "details": "Proposal details",
          "duration": "Proposal voting duration in days",
          "proposalType": "Proposal type",
          "value": "Transaction value in ethers"
        }
      },
      "cancelProposal(uint256)": {
        "details": "Cancelling of the proposal     * Requirements: - proposal should exists - sender address should be a proposer address - proposal should not be in a passed state - proposal should not be in a processed state - proposal should not be cancelled - proposal has no votes",
        "params": {
          "proposalId": "Proposal Id"
        }
      },
      "getActiveProposalsIds()": {
        "details": "Get all active proposals Ids",
        "return": "uint256[] List of proposals Ids"
      },
      "getActiveProposalsIds(uint8)": {
        "details": "Get all active proposals Ids filtered by proposal type     * Requirements: - proposal type should be valid  ",
        "return": "uint256[] List of proposals Ids"
      },
      "getProposal(uint256)": {
        "details": "Get proposal by Id (index)     * Requirements: - proposal should exists  ",
        "params": {
          "proposalId": "Proposal Id"
        },
        "return": "string Proposal detailsProposalType Proposal typeuint256 Proposal duration in daysuint256 Proposal end datebool[3] Proposal status flagsaddress Transaction target addressuint256 Ether value to send with transactionbytes Transaction databool Transaction execution statusbool Transaction execution result status"
      },
      "getVote(uint256)": {
        "details": "Get own vote from proposal voting      * Requirements: - proposal should exists - vote should be exist ",
        "params": {
          "proposalId": "Proposal Id"
        },
        "return": "VoteType Type of the voteuint256 Original vote value sentuint256 Acceptes vote valuebool Reveked state of the vote"
      },
      "initialize(address)": {
        "details": "Contract initializer",
        "params": {
          "token": "Address of the service token"
        }
      },
      "isVotingPassed(uint256)": {
        "details": "Check is voting is passed      * Requirements: - proposal should exists",
        "params": {
          "proposalId": "Proposal Id"
        },
        "return": "uint256 Voting result"
      },
      "pause()": {
        "details": "Called by a pauser to pause, triggers stopped state."
      },
      "paused()": {
        "details": "Returns true if the contract is paused, and false otherwise."
      },
      "processProposal(uint256)": {
        "details": "Process proposal     * Requirements: - proposal should exists - contract not paused - proposal should not be processed - proposal should not be cancelled - proposal is finished",
        "params": {
          "proposalId": "Proposal Id"
        }
      },
      "replacePauser(address)": {
        "details": "Replace pauser to the new one      * Requirements: - sender address should be a pauser address ",
        "params": {
          "account": "New DAO pauser address"
        }
      },
      "replaceWhitelistAdmin(address)": {
        "details": "Replace whitelist admin with new one      * Requirements: - sender address should be a whitelisted admin address ",
        "params": {
          "account": "New DAO whitelist admin address"
        }
      },
      "revokeVote(uint256)": {
        "details": "Revoke of the placed vote     * Requirements: - proposal should exists - proposal should not be in a passed state - proposal should not be cancelled - vote should not been already revoked",
        "params": {
          "proposalId": "Proposal Id"
        }
      },
      "tokensBalance(uint256)": {
        "details": "Balance of locked tokens",
        "params": {
          "proposalId": "Proposal Id"
        },
        "return": "uint256 Balance of tokens that available to withdraw"
      },
      "unpause()": {
        "details": "Called by a pauser to unpause, returns to normal state."
      },
      "vote(uint256,uint8,uint256)": {
        "details": "Vote for the proposal     * Requirements: - proposal should exists - contract not paused - proposal should not be in a passed state - proposal should not be cancelled - sender tokens balance should be sufficient - tokens allowance for the DAO address should be sufficient - voting not expired (does not exceed voting time frame)",
        "params": {
          "proposalId": "Proposal Id",
          "voteType": "Type of the vote (Yes/No)",
          "votes": "Amount of service token to use in the vote"
        }
      },
      "votingResult(uint256)": {
        "details": "Get a result of the proposal voting     * Requirements: - proposal should exists",
        "params": {
          "proposalId": "Proposal Id"
        },
        "return": "uint256 'Yes' variant voting balanceuint256 'No' variant voting balance"
      },
      "withdrawTokens(uint256)": {
        "details": "Withdraw released tokens     * Requirements: - proposal should exists - proposal should be finished - sender has positive locked tokens balance",
        "params": {
          "proposalId": "Proposal Id"
        }
      }
    },
    "title": "Universal DAO for projects based on Openzeppelin SDK"
  },
  "userdoc": {
    "methods": {}
  }
}