{
  "contractName": "DaoWithTimeMachine",
  "abi": [
    {
      "anonymous": false,
      "inputs": [
        {
          "indexed": false,
          "internalType": "address",
          "name": "account",
          "type": "address"
        }
      ],
      "name": "Paused",
      "type": "event"
    },
    {
      "anonymous": false,
      "inputs": [
        {
          "indexed": true,
          "internalType": "address",
          "name": "account",
          "type": "address"
        }
      ],
      "name": "PauserAdded",
      "type": "event"
    },
    {
      "anonymous": false,
      "inputs": [
        {
          "indexed": true,
          "internalType": "address",
          "name": "account",
          "type": "address"
        }
      ],
      "name": "PauserRemoved",
      "type": "event"
    },
    {
      "anonymous": false,
      "inputs": [
        {
          "indexed": false,
          "internalType": "address",
          "name": "proposer",
          "type": "address"
        },
        {
          "indexed": false,
          "internalType": "uint256",
          "name": "proposalId",
          "type": "uint256"
        }
      ],
      "name": "ProposalAdded",
      "type": "event"
    },
    {
      "anonymous": false,
      "inputs": [
        {
          "indexed": false,
          "internalType": "uint256",
          "name": "proposalId",
          "type": "uint256"
        }
      ],
      "name": "ProposalCancelled",
      "type": "event"
    },
    {
      "anonymous": false,
      "inputs": [
        {
          "indexed": false,
          "internalType": "uint256",
          "name": "proposalId",
          "type": "uint256"
        },
        {
          "indexed": false,
          "internalType": "address",
          "name": "executor",
          "type": "address"
        },
        {
          "indexed": false,
          "internalType": "bool",
          "name": "passed",
          "type": "bool"
        }
      ],
      "name": "ProposalProcessed",
      "type": "event"
    },
    {
      "anonymous": false,
      "inputs": [
        {
          "indexed": false,
          "internalType": "uint256",
          "name": "oldTime",
          "type": "uint256"
        },
        {
          "indexed": false,
          "internalType": "uint256",
          "name": "newTime",
          "type": "uint256"
        }
      ],
      "name": "TimeMachine",
      "type": "event"
    },
    {
      "anonymous": false,
      "inputs": [
        {
          "indexed": false,
          "internalType": "address",
          "name": "voter",
          "type": "address"
        },
        {
          "indexed": false,
          "internalType": "uint256",
          "name": "value",
          "type": "uint256"
        }
      ],
      "name": "TokensLocked",
      "type": "event"
    },
    {
      "anonymous": false,
      "inputs": [
        {
          "indexed": false,
          "internalType": "address",
          "name": "voter",
          "type": "address"
        },
        {
          "indexed": false,
          "internalType": "uint256",
          "name": "value",
          "type": "uint256"
        }
      ],
      "name": "TokensReleased",
      "type": "event"
    },
    {
      "anonymous": false,
      "inputs": [
        {
          "indexed": false,
          "internalType": "uint256",
          "name": "proposalId",
          "type": "uint256"
        }
      ],
      "name": "TransactionFailed",
      "type": "event"
    },
    {
      "anonymous": false,
      "inputs": [
        {
          "indexed": false,
          "internalType": "uint256",
          "name": "proposalId",
          "type": "uint256"
        }
      ],
      "name": "TransactionSuccessed",
      "type": "event"
    },
    {
      "anonymous": false,
      "inputs": [
        {
          "indexed": false,
          "internalType": "address",
          "name": "account",
          "type": "address"
        }
      ],
      "name": "Unpaused",
      "type": "event"
    },
    {
      "anonymous": false,
      "inputs": [
        {
          "indexed": false,
          "internalType": "uint256",
          "name": "proposalId",
          "type": "uint256"
        },
        {
          "indexed": false,
          "internalType": "enum Dao.VoteType",
          "name": "voteType",
          "type": "uint8"
        },
        {
          "indexed": false,
          "internalType": "address",
          "name": "voter",
          "type": "address"
        },
        {
          "indexed": false,
          "internalType": "uint256",
          "name": "votes",
          "type": "uint256"
        },
        {
          "indexed": false,
          "internalType": "uint256",
          "name": "votesAccepted",
          "type": "uint256"
        }
      ],
      "name": "VoteAdded",
      "type": "event"
    },
    {
      "anonymous": false,
      "inputs": [
        {
          "indexed": false,
          "internalType": "uint256",
          "name": "proposalId",
          "type": "uint256"
        },
        {
          "indexed": false,
          "internalType": "enum Dao.VoteType",
          "name": "voteType",
          "type": "uint8"
        },
        {
          "indexed": false,
          "internalType": "address",
          "name": "voter",
          "type": "address"
        },
        {
          "indexed": false,
          "internalType": "uint256",
          "name": "votes",
          "type": "uint256"
        }
      ],
      "name": "VoteRevoked",
      "type": "event"
    },
    {
      "anonymous": false,
      "inputs": [
        {
          "indexed": true,
          "internalType": "address",
          "name": "account",
          "type": "address"
        }
      ],
      "name": "WhitelistAdminAdded",
      "type": "event"
    },
    {
      "anonymous": false,
      "inputs": [
        {
          "indexed": true,
          "internalType": "address",
          "name": "account",
          "type": "address"
        }
      ],
      "name": "WhitelistAdminRemoved",
      "type": "event"
    },
    {
      "anonymous": false,
      "inputs": [
        {
          "indexed": true,
          "internalType": "address",
          "name": "account",
          "type": "address"
        }
      ],
      "name": "WhitelistedAdded",
      "type": "event"
    },
    {
      "anonymous": false,
      "inputs": [
        {
          "indexed": true,
          "internalType": "address",
          "name": "account",
          "type": "address"
        }
      ],
      "name": "WhitelistedRemoved",
      "type": "event"
    },
    {
      "constant": false,
      "inputs": [
        {
          "internalType": "address",
          "name": "account",
          "type": "address"
        }
      ],
      "name": "addPauser",
      "outputs": [],
      "payable": false,
      "stateMutability": "nonpayable",
      "type": "function"
    },
    {
      "constant": false,
      "inputs": [
        {
          "internalType": "string",
          "name": "details",
          "type": "string"
        },
        {
          "internalType": "enum Dao.ProposalType",
          "name": "proposalType",
          "type": "uint8"
        },
        {
          "internalType": "uint256",
          "name": "duration",
          "type": "uint256"
        },
        {
          "internalType": "address",
          "name": "destination",
          "type": "address"
        },
        {
          "internalType": "uint256",
          "name": "value",
          "type": "uint256"
        },
        {
          "internalType": "bytes",
          "name": "data",
          "type": "bytes"
        }
      ],
      "name": "addProposal",
      "outputs": [],
      "payable": true,
      "stateMutability": "payable",
      "type": "function"
    },
    {
      "constant": false,
      "inputs": [
        {
          "internalType": "address",
          "name": "account",
          "type": "address"
        }
      ],
      "name": "addWhitelistAdmin",
      "outputs": [],
      "payable": false,
      "stateMutability": "nonpayable",
      "type": "function"
    },
    {
      "constant": false,
      "inputs": [
        {
          "internalType": "address",
          "name": "account",
          "type": "address"
        }
      ],
      "name": "addWhitelisted",
      "outputs": [],
      "payable": false,
      "stateMutability": "nonpayable",
      "type": "function"
    },
    {
      "constant": false,
      "inputs": [
        {
          "internalType": "uint256",
          "name": "proposalId",
          "type": "uint256"
        }
      ],
      "name": "cancelProposal",
      "outputs": [],
      "payable": false,
      "stateMutability": "nonpayable",
      "type": "function"
    },
    {
      "constant": true,
      "inputs": [
        {
          "internalType": "enum Dao.ProposalType",
          "name": "proposalType",
          "type": "uint8"
        }
      ],
      "name": "getActiveProposalsIds",
      "outputs": [
        {
          "internalType": "uint256[]",
          "name": "",
          "type": "uint256[]"
        }
      ],
      "payable": false,
      "stateMutability": "view",
      "type": "function"
    },
    {
      "constant": true,
      "inputs": [],
      "name": "getActiveProposalsIds",
      "outputs": [
        {
          "internalType": "uint256[]",
          "name": "",
          "type": "uint256[]"
        }
      ],
      "payable": false,
      "stateMutability": "view",
      "type": "function"
    },
    {
      "constant": true,
      "inputs": [
        {
          "internalType": "uint256",
          "name": "proposalId",
          "type": "uint256"
        }
      ],
      "name": "getProposal",
      "outputs": [
        {
          "internalType": "string",
          "name": "details",
          "type": "string"
        },
        {
          "internalType": "enum Dao.ProposalType",
          "name": "proposalType",
          "type": "uint8"
        },
        {
          "internalType": "uint256",
          "name": "duration",
          "type": "uint256"
        },
        {
          "internalType": "uint256",
          "name": "end",
          "type": "uint256"
        },
        {
          "internalType": "bool[3]",
          "name": "flags",
          "type": "bool[3]"
        },
        {
          "internalType": "address",
          "name": "txDestination",
          "type": "address"
        },
        {
          "internalType": "uint256",
          "name": "txValue",
          "type": "uint256"
        },
        {
          "internalType": "bytes",
          "name": "txData",
          "type": "bytes"
        },
        {
          "internalType": "bool",
          "name": "txExecuted",
          "type": "bool"
        },
        {
          "internalType": "bool",
          "name": "txSuccess",
          "type": "bool"
        }
      ],
      "payable": false,
      "stateMutability": "view",
      "type": "function"
    },
    {
      "constant": true,
      "inputs": [
        {
          "internalType": "uint256",
          "name": "proposalId",
          "type": "uint256"
        }
      ],
      "name": "getVote",
      "outputs": [
        {
          "internalType": "enum Dao.VoteType",
          "name": "voteType",
          "type": "uint8"
        },
        {
          "internalType": "uint256",
          "name": "valueOriginal",
          "type": "uint256"
        },
        {
          "internalType": "uint256",
          "name": "valueAccepted",
          "type": "uint256"
        },
        {
          "internalType": "bool",
          "name": "revoked",
          "type": "bool"
        }
      ],
      "payable": false,
      "stateMutability": "view",
      "type": "function"
    },
    {
      "constant": false,
      "inputs": [
        {
          "internalType": "address",
          "name": "token",
          "type": "address"
        }
      ],
      "name": "initialize",
      "outputs": [],
      "payable": false,
      "stateMutability": "nonpayable",
      "type": "function"
    },
    {
      "constant": true,
      "inputs": [
        {
          "internalType": "address",
          "name": "account",
          "type": "address"
        }
      ],
      "name": "isPauser",
      "outputs": [
        {
          "internalType": "bool",
          "name": "",
          "type": "bool"
        }
      ],
      "payable": false,
      "stateMutability": "view",
      "type": "function"
    },
    {
      "constant": true,
      "inputs": [
        {
          "internalType": "uint256",
          "name": "proposalId",
          "type": "uint256"
        }
      ],
      "name": "isVotingPassed",
      "outputs": [
        {
          "internalType": "bool",
          "name": "",
          "type": "bool"
        }
      ],
      "payable": false,
      "stateMutability": "view",
      "type": "function"
    },
    {
      "constant": true,
      "inputs": [
        {
          "internalType": "address",
          "name": "account",
          "type": "address"
        }
      ],
      "name": "isWhitelistAdmin",
      "outputs": [
        {
          "internalType": "bool",
          "name": "",
          "type": "bool"
        }
      ],
      "payable": false,
      "stateMutability": "view",
      "type": "function"
    },
    {
      "constant": true,
      "inputs": [
        {
          "internalType": "address",
          "name": "account",
          "type": "address"
        }
      ],
      "name": "isWhitelisted",
      "outputs": [
        {
          "internalType": "bool",
          "name": "",
          "type": "bool"
        }
      ],
      "payable": false,
      "stateMutability": "view",
      "type": "function"
    },
    {
      "constant": false,
      "inputs": [],
      "name": "pause",
      "outputs": [],
      "payable": false,
      "stateMutability": "nonpayable",
      "type": "function"
    },
    {
      "constant": true,
      "inputs": [],
      "name": "paused",
      "outputs": [
        {
          "internalType": "bool",
          "name": "",
          "type": "bool"
        }
      ],
      "payable": false,
      "stateMutability": "view",
      "type": "function"
    },
    {
      "constant": false,
      "inputs": [
        {
          "internalType": "uint256",
          "name": "proposalId",
          "type": "uint256"
        }
      ],
      "name": "processProposal",
      "outputs": [],
      "payable": false,
      "stateMutability": "nonpayable",
      "type": "function"
    },
    {
      "constant": true,
      "inputs": [],
      "name": "proposalCount",
      "outputs": [
        {
          "internalType": "uint256",
          "name": "",
          "type": "uint256"
        }
      ],
      "payable": false,
      "stateMutability": "view",
      "type": "function"
    },
    {
      "constant": false,
      "inputs": [
        {
          "internalType": "address",
          "name": "account",
          "type": "address"
        }
      ],
      "name": "removeWhitelisted",
      "outputs": [],
      "payable": false,
      "stateMutability": "nonpayable",
      "type": "function"
    },
    {
      "constant": false,
      "inputs": [],
      "name": "renouncePauser",
      "outputs": [],
      "payable": false,
      "stateMutability": "nonpayable",
      "type": "function"
    },
    {
      "constant": false,
      "inputs": [],
      "name": "renounceWhitelistAdmin",
      "outputs": [],
      "payable": false,
      "stateMutability": "nonpayable",
      "type": "function"
    },
    {
      "constant": false,
      "inputs": [],
      "name": "renounceWhitelisted",
      "outputs": [],
      "payable": false,
      "stateMutability": "nonpayable",
      "type": "function"
    },
    {
      "constant": false,
      "inputs": [
        {
          "internalType": "address",
          "name": "account",
          "type": "address"
        }
      ],
      "name": "replacePauser",
      "outputs": [],
      "payable": false,
      "stateMutability": "nonpayable",
      "type": "function"
    },
    {
      "constant": false,
      "inputs": [
        {
          "internalType": "address",
          "name": "account",
          "type": "address"
        }
      ],
      "name": "replaceWhitelistAdmin",
      "outputs": [],
      "payable": false,
      "stateMutability": "nonpayable",
      "type": "function"
    },
    {
      "constant": false,
      "inputs": [
        {
          "internalType": "uint256",
          "name": "proposalId",
          "type": "uint256"
        }
      ],
      "name": "revokeVote",
      "outputs": [],
      "payable": false,
      "stateMutability": "nonpayable",
      "type": "function"
    },
    {
      "constant": true,
      "inputs": [],
      "name": "serviceToken",
      "outputs": [
        {
          "internalType": "contract IERC20",
          "name": "",
          "type": "address"
        }
      ],
      "payable": false,
      "stateMutability": "view",
      "type": "function"
    },
    {
      "constant": true,
      "inputs": [
        {
          "internalType": "uint256",
          "name": "proposalId",
          "type": "uint256"
        }
      ],
      "name": "tokensBalance",
      "outputs": [
        {
          "internalType": "uint256",
          "name": "",
          "type": "uint256"
        }
      ],
      "payable": false,
      "stateMutability": "view",
      "type": "function"
    },
    {
      "constant": false,
      "inputs": [],
      "name": "unpause",
      "outputs": [],
      "payable": false,
      "stateMutability": "nonpayable",
      "type": "function"
    },
    {
      "constant": true,
      "inputs": [],
      "name": "version",
      "outputs": [
        {
          "internalType": "string",
          "name": "",
          "type": "string"
        }
      ],
      "payable": false,
      "stateMutability": "view",
      "type": "function"
    },
    {
      "constant": false,
      "inputs": [
        {
          "internalType": "uint256",
          "name": "proposalId",
          "type": "uint256"
        },
        {
          "internalType": "enum Dao.VoteType",
          "name": "voteType",
          "type": "uint8"
        },
        {
          "internalType": "uint256",
          "name": "votes",
          "type": "uint256"
        }
      ],
      "name": "vote",
      "outputs": [],
      "payable": false,
      "stateMutability": "nonpayable",
      "type": "function"
    },
    {
      "constant": true,
      "inputs": [
        {
          "internalType": "uint256",
          "name": "proposalId",
          "type": "uint256"
        }
      ],
      "name": "votingResult",
      "outputs": [
        {
          "internalType": "uint256",
          "name": "yes",
          "type": "uint256"
        },
        {
          "internalType": "uint256",
          "name": "no",
          "type": "uint256"
        }
      ],
      "payable": false,
      "stateMutability": "view",
      "type": "function"
    },
    {
      "constant": false,
      "inputs": [
        {
          "internalType": "uint256",
          "name": "proposalId",
          "type": "uint256"
        }
      ],
      "name": "withdrawTokens",
      "outputs": [],
      "payable": false,
      "stateMutability": "nonpayable",
      "type": "function"
    },
    {
      "constant": true,
      "inputs": [],
      "name": "currentTime",
      "outputs": [
        {
          "internalType": "uint256",
          "name": "",
          "type": "uint256"
        }
      ],
      "payable": false,
      "stateMutability": "view",
      "type": "function"
    },
    {
      "constant": false,
      "inputs": [
        {
          "internalType": "uint256",
          "name": "time",
          "type": "uint256"
        }
      ],
      "name": "setCurrentTime",
      "outputs": [],
      "payable": false,
      "stateMutability": "nonpayable",
      "type": "function"
    }
  ],
  "bytecode": "0x60806040526200002a6200001b6001600160e01b036200006016565b6001600160e01b036200006416565b6034805460ff191690556200005a6200004b6001600160e01b036200006016565b6001600160e01b03620000b616565b620001fe565b3390565b6200007f8160336200010860201b620032ad1790919060201c565b6040516001600160a01b038216907f6719d08c1888103bea251a4ed56406bd0c3e69723c8a1686e017e7bbe159b6f890600090a250565b620000d18160356200010860201b620032ad1790919060201c565b6040516001600160a01b038216907f22380c05984257a1cb900161c713dd71d39e74820f1aea43bd3f1bdd2096129990600090a250565b6200011d82826001600160e01b036200019516565b1562000170576040805162461bcd60e51b815260206004820152601f60248201527f526f6c65733a206163636f756e7420616c72656164792068617320726f6c6500604482015290519081900360640190fd5b6001600160a01b0316600090815260209190915260409020805460ff19166001179055565b60006001600160a01b038216620001de5760405162461bcd60e51b815260040180806020018281038252602281526020018062003b8b6022913960400191505060405180910390fd5b506001600160a01b03166000908152602091909152604090205460ff1690565b61397d806200020e6000396000f3fe6080604052600436106101f95760003560e01c80637c2466ff1161010d578063c4d66de8116100a0578063da35c6641161006f578063da35c664146109c4578063e0a8f6f5146109d9578063e520251a14610a03578063e63bc62d14610a3c578063f73a8b4a14610a66576101f9565b8063c4d66de8146107da578063c7f758a81461080d578063d18e81b31461099a578063d6cd9473146109af576101f9565b80638456cb59116100dc5780638456cb591461072e5780638658374614610743578063b769296814610776578063bb5f747b146107a7576101f9565b80637c2466ff146105c65780637e9b8f80146106aa578063827e8b47146106bf57806382dc1ec4146106fb576101f9565b80634c5a628c1161019057806361301afa1161015f57806361301afa1461049457806361d14051146105115780636a96bab4146105545780636ef8d66d1461057e5780637362d9c814610593576101f9565b80634c5a628c1461037c57806354fd4d50146103915780635a55c1f01461041b5780635c975abb1461047f576101f9565b8063315a095d116101cc578063315a095d146102c35780633af32abf146102ed5780633f4ba83a1461033457806346fbf68e14610349576101f9565b806310154bad146101fe57806319819ff51461023357806322f8e56614610266578063291d954914610290575b600080fd5b34801561020a57600080fd5b506102316004803603602081101561022157600080fd5b50356001600160a01b0316610a90565b005b34801561023f57600080fd5b506102316004803603602081101561025657600080fd5b50356001600160a01b0316610ae7565b34801561027257600080fd5b506102316004803603602081101561028957600080fd5b5035610b3f565b34801561029c57600080fd5b50610231600480360360208110156102b357600080fd5b50356001600160a01b0316610b84565b3480156102cf57600080fd5b50610231600480360360208110156102e657600080fd5b5035610bd3565b3480156102f957600080fd5b506103206004803603602081101561031057600080fd5b50356001600160a01b0316610d40565b604080519115158252519081900360200190f35b34801561034057600080fd5b50610231610d59565b34801561035557600080fd5b506103206004803603602081101561036c57600080fd5b50356001600160a01b0316610e42565b34801561038857600080fd5b50610231610e55565b34801561039d57600080fd5b506103a6610e67565b6040805160208082528351818301528351919283929083019185019080838360005b838110156103e05781810151838201526020016103c8565b50505050905090810190601f16801561040d5780820380516001836020036101000a031916815260200191505b509250505060405180910390f35b34801561042757600080fd5b506104456004803603602081101561043e57600080fd5b5035610e88565b6040518085600181111561045557fe5b60ff1681526020810194909452506040808401929092521515606083015251908190036080019150f35b34801561048b57600080fd5b50610320610f90565b3480156104a057600080fd5b506104c1600480360360208110156104b757600080fd5b503560ff16610f9a565b60408051602080825283518183015283519192839290830191858101910280838360005b838110156104fd5781810151838201526020016104e5565b505050509050019250505060405180910390f35b34801561051d57600080fd5b5061053b6004803603602081101561053457600080fd5b50356110d6565b6040805192835260208301919091528051918290030190f35b34801561056057600080fd5b506103206004803603602081101561057757600080fd5b503561124b565b34801561058a57600080fd5b50610231611330565b34801561059f57600080fd5b50610231600480360360208110156105b657600080fd5b50356001600160a01b0316611340565b610231600480360360c08110156105dc57600080fd5b8101906020810181356401000000008111156105f757600080fd5b82018360208201111561060957600080fd5b8035906020019184600183028401116401000000008311171561062b57600080fd5b9193909260ff833516926020810135926001600160a01b036040830135169260608301359260a08101906080013564010000000081111561066b57600080fd5b82018360208201111561067d57600080fd5b8035906020019184600183028401116401000000008311171561069f57600080fd5b50909250905061138f565b3480156106b657600080fd5b506104c161176f565b3480156106cb57600080fd5b506106e9600480360360208110156106e257600080fd5b5035611869565b60408051918252519081900360200190f35b34801561070757600080fd5b506102316004803603602081101561071e57600080fd5b50356001600160a01b0316611971565b34801561073a57600080fd5b506102316119c0565b34801561074f57600080fd5b506102316004803603602081101561076657600080fd5b50356001600160a01b0316611a87565b34801561078257600080fd5b5061078b611adf565b604080516001600160a01b039092168252519081900360200190f35b3480156107b357600080fd5b50610320600480360360208110156107ca57600080fd5b50356001600160a01b0316611aee565b3480156107e657600080fd5b50610231600480360360208110156107fd57600080fd5b50356001600160a01b0316611b01565b34801561081957600080fd5b506108376004803603602081101561083057600080fd5b5035611bd6565b60405180806020018b600181111561084b57fe5b60ff1681526020018a815260200189815260200188600360200280838360005b8381101561088357818101518382015260200161086b565b50505050905001876001600160a01b03166001600160a01b0316815260200186815260200180602001851515151581526020018415151515815260200183810383528d818151815260200191508051906020019080838360005b838110156108f55781810151838201526020016108dd565b50505050905090810190601f1680156109225780820380516001836020036101000a031916815260200191505b50838103825286518152865160209182019188019080838360005b8381101561095557818101518382015260200161093d565b50505050905090810190601f1680156109825780820380516001836020036101000a031916815260200191505b509c5050505050505050505050505060405180910390f35b3480156109a657600080fd5b506106e9611e34565b3480156109bb57600080fd5b50610231611e43565b3480156109d057600080fd5b506106e9611e53565b3480156109e557600080fd5b50610231600480360360208110156109fc57600080fd5b5035611e59565b348015610a0f57600080fd5b5061023160048036036060811015610a2657600080fd5b5080359060ff60208201351690604001356120ef565b348015610a4857600080fd5b5061023160048036036020811015610a5f57600080fd5b503561273b565b348015610a7257600080fd5b5061023160048036036020811015610a8957600080fd5b5035612aea565b610aa0610a9b612d1f565b611aee565b610adb5760405162461bcd60e51b81526004018080602001828103825260408152602001806138a56040913960400191505060405180910390fd5b610ae481612d23565b50565b610af2610a9b612d1f565b610b2d5760405162461bcd60e51b81526004018080602001828103825260408152602001806138a56040913960400191505060405180910390fd5b610b3681612d6b565b610ae433612db3565b7f78028a947179f914444d55668a3a9d9966e05446e9e1e1a73624064a365153ee610b68611e34565b60408051918252602082018490528051918290030190a1603b55565b610b8f610a9b612d1f565b610bca5760405162461bcd60e51b81526004018080602001828103825260408152602001806138a56040913960400191505060405180910390fd5b610ae481612dfb565b6000818152603960205260409020600701548190610c26576040805162461bcd60e51b815260206004820152601260248201526000805160206137c3833981519152604482015290519081900360640190fd5b6000828152603960205260409020600801548290610c42612e43565b1015610c8d576040805162461bcd60e51b8152602060048201526015602482015274141493d413d4d05317d393d517d192539254d21151605a1b604482015290519081900360640190fd5b6000610c9884611869565b905060008111610cef576040805162461bcd60e51b815260206004820152601b60248201527f494e53554646494349454e545f544f4b454e535f42414c414e43450000000000604482015290519081900360640190fd5b6000848152603a6020908152604080832033808552818452828520548552600290910190925290912060038101805461ff00191661010017905560018101549091610d3991612e5c565b5050505050565b6000610d5360368363ffffffff612ec116565b92915050565b610d69610d64612d1f565b610e42565b610da45760405162461bcd60e51b81526004018080602001828103825260308152602001806137e36030913960400191505060405180910390fd5b60345460ff16610df2576040805162461bcd60e51b815260206004820152601460248201527314185d5cd8589b194e881b9bdd081c185d5cd95960621b604482015290519081900360640190fd5b6034805460ff191690557f5db9ee0a495bf2e6ff9c91a7834c1ba4fdd244a5e8aa4e537bd38aeae4b073aa610e25612d1f565b604080516001600160a01b039092168252519081900360200190a1565b6000610d5360338363ffffffff612ec116565b610e65610e60612d1f565b612db3565b565b60405180604001604052806005815260200164302e312e3160d81b81525081565b6000818152603960205260408120600701548190819081908590610ee1576040805162461bcd60e51b815260206004820152601260248201526000805160206137c3833981519152604482015290519081900360640190fd5b6000868152603a60209081526040808320338452600101909152902054869060ff16610f45576040805162461bcd60e51b815260206004820152600e60248201526d1593d51157d393d517d193d5539160921b604482015290519081900360640190fd5b50505060009384525050603a602090815260408084203385528083528185205485526002908101909252909220805460018201549382015460039092015460ff918216959293501690565b60345460ff165b90565b6060610fa582612f28565b506060610fb183612f36565b604051908082528060200260200182016040528015610fda578160200160208202803883390190505b5090506000805b6038548110156110cd5760008181526039602052604090206009015460ff161580156110245750600081815260396020526040902060090154610100900460ff16155b8015611048575060008181526039602052604090206009015462010000900460ff16155b801561106b5750600081815260396020526040902060080154611069612e43565b105b80156110a0575084600181111561107e57fe5b60008281526039602052604090206002015460ff16600181111561109e57fe5b145b156110c557808383815181106110b257fe5b6020026020010181815250506001820191505b600101610fe1565b50909392505050565b6000818152603960205260408120600701548190839061112b576040805162461bcd60e51b815260206004820152601260248201526000805160206137c3833981519152604482015290519081900360640190fd5b60005b6000858152603a6020526040902060030154811015611244576000858152603a6020908152604080832084845260020190915290206003015460ff1661123c576000858152603a6020908152604080832084845260020190915281205460ff16600181111561119957fe5b14156111d4576000858152603a60209081526040808320848452600290810190925290912001546111d190859063ffffffff61302216565b93505b60016000868152603a6020908152604080832085845260020190915290205460ff16600181111561120157fe5b141561123c576000858152603a602090815260408083208484526002908101909252909120015461123990849063ffffffff61302216565b92505b60010161112e565b5050915091565b600081815260396020526040812060070154829061129e576040805162461bcd60e51b815260206004820152601260248201526000805160206137c3833981519152604482015290519081900360640190fd5b60008381526039602052604090206009015460ff16156112c1576001915061132a565b60008381526039602052604090206009015462010000900460ff16156112ea576000915061132a565b600083815260396020526040902060080154611304612e43565b1015611313576000915061132a565b60008061131f856110d6565b10935061132a915050565b50919050565b610e6561133b612d1f565b61307c565b61134b610a9b612d1f565b6113865760405162461bcd60e51b81526004018080602001828103825260408152602001806138a56040913960400191505060405180910390fd5b610ae481612d6b565b61139f61139a612d1f565b610d40565b6113da5760405162461bcd60e51b815260040180806020018281038252603a8152602001806138e5603a913960400191505060405180910390fd5b60345460ff1615611425576040805162461bcd60e51b815260206004820152601060248201526f14185d5cd8589b194e881c185d5cd95960821b604482015290519081900360640190fd5b61142e86612f28565b506001600160a01b038416611480576040805162461bcd60e51b815260206004820152601360248201527224a72b20a624a22fa222a9aa24a720aa24a7a760691b604482015290519081900360640190fd5b82158061149857506000831180156114985750823410155b6114e9576040805162461bcd60e51b815260206004820152601860248201527f494e53554646494349454e545f45544845525f56414c55450000000000000000604482015290519081900360640190fd5b60385460408051338152602081019290925280517f294a8b64183582a911805b3a31b11b3c4d20c7431578897c6abcc35aae886d5e9281900390910190a161152f613660565b6040518060e00160405280336001600160a01b031681526020018a8a8080601f01602080910402602001604051908101604052809392919081815260200183838082843760009201919091525050509082525060200188600181111561159157fe5b81526020016040518060a00160405280886001600160a01b0316815260200187815260200186868080601f016020809104026020016040519081016040528093929190818152602001838380828437600092018290525093855250505060208083018290526040928301919091529183529082018990520161163361161f896201518063ffffffff6130c416565b611627612e43565b9063ffffffff61302216565b8152602090810183905260385460009081526039825260409020825181546001600160a01b0319166001600160a01b0390911617815582820151805191926116839260018501929091019061367e565b50604082015160028201805460ff1916600183818111156116a057fe5b0217905550606082015180516003830180546001600160a01b0319166001600160a01b039092169190911781556020808301516004850155604083015180516116ef926005870192019061367e565b5060608201516003918201805460809485015115156101000261ff001993151560ff19909216919091179290921691909117905590830151600783015560a0830151600883015560c083015161174a916009840191906136fc565b50506038546117619150600163ffffffff61302216565b603855505050505050505050565b60608061177a61311d565b6040519080825280602002602001820160405280156117a3578160200160208202803883390190505b5090506000805b6038548110156118615760008181526039602052604090206009015460ff161580156117ed5750600081815260396020526040902060090154610100900460ff16155b8015611811575060008181526039602052604090206009015462010000900460ff16155b80156118345750600081815260396020526040902060080154611832612e43565b105b15611859578083838151811061184657fe5b6020026020010181815250506001820191505b6001016117aa565b509091505090565b60008181526039602052604081206007015482906118bc576040805162461bcd60e51b815260206004820152601260248201526000805160206137c3833981519152604482015290519081900360640190fd5b60008381526039602052604081206009015462010000900460ff1615801561190057506000848152603a6020908152604080832033845260010190915290205460ff165b801561193a57506000848152603a60209081526040808320338452808352818420548452600201909152902060030154610100900460ff16155b1561196a57506000838152603a602090815260408083203384528083528184205484526002019091529020600101545b9392505050565b61197c610d64612d1f565b6119b75760405162461bcd60e51b81526004018080602001828103825260308152602001806137e36030913960400191505060405180910390fd5b610ae4816131d3565b6119cb610d64612d1f565b611a065760405162461bcd60e51b81526004018080602001828103825260308152602001806137e36030913960400191505060405180910390fd5b60345460ff1615611a51576040805162461bcd60e51b815260206004820152601060248201526f14185d5cd8589b194e881c185d5cd95960821b604482015290519081900360640190fd5b6034805460ff191660011790557f62e78cea01bee320cd4e420270b5ea74000d11b0c9f74754ebdbfc544b05a258610e25612d1f565b611a92610d64612d1f565b611acd5760405162461bcd60e51b81526004018080602001828103825260308152602001806137e36030913960400191505060405180910390fd5b611ad6816131d3565b610ae43361307c565b6037546001600160a01b031681565b6000610d5360358363ffffffff612ec116565b600054610100900460ff1680611b1a5750611b1a61321b565b80611b28575060005460ff16155b611b635760405162461bcd60e51b815260040180806020018281038252602e815260200180613877602e913960400191505060405180910390fd5b600054610100900460ff16158015611b8e576000805460ff1961ff0019909116610100171660011790555b603780546001600160a01b0319166001600160a01b0384161790556000603855611bb7336131d3565b611bc033612d6b565b8015611bd2576000805461ff00191690555b5050565b60606000806000611be5613660565b6000868152603960205260408120600701548190606090829081908b90611c41576040805162461bcd60e51b815260206004820152601260248201526000805160206137c3833981519152604482015290519081900360640190fd5b60008c815260396020908152604091829020600180820180548551600293821615610100026000190190911692909204601f810185900485028301850190955284825291939092830182828015611cd95780601f10611cae57610100808354040283529160200191611cd9565b820191906000526020600020905b815481529060010190602001808311611cbc57829003601f168201915b50505050509b508060020160009054906101000a900460ff169a50806007015499508060080154985080600901600380602002604051908101604052809291908260038015611d5d576020028201916000905b825461010083900a900460ff161515815260206001928301818104948501949093039092029101808411611d2c5790505b505050506003830154600484015460058501805460408051602060026101006001861615026000190190941693909304601f8101849004840282018401909252818152969e506001600160a01b039094169c50919a509250830182828015611e065780601f10611ddb57610100808354040283529160200191611e06565b820191906000526020600020905b815481529060010190602001808311611de957829003601f168201915b5050506006909301549d9f9c9e509a9c999b989a509698959760ff8088169761010090041695509350505050565b6000611e3e612e43565b905090565b610e65611e4e612d1f565b612dfb565b60385481565b6000818152603960205260409020600701548190611eac576040805162461bcd60e51b815260206004820152601260248201526000805160206137c3833981519152604482015290519081900360640190fd5b60008281526039602052604090205482906001600160a01b03163314611f0a576040805162461bcd60e51b815260206004820152600e60248201526d2727aa2fa0afa82927a827a9a2a960911b604482015290519081900360640190fd5b600083815260396020526040902060090154839060ff1615611f65576040805162461bcd60e51b815260206004820152600f60248201526e141493d413d4d05317d41054d4d151608a1b604482015290519081900360640190fd5b6000848152603960205260409020600901548490610100900460ff1615611fc8576040805162461bcd60e51b8152602060048201526012602482015271141493d413d4d05317d41493d0d154d4d15160721b604482015290519081900360640190fd5b600085815260396020526040902060090154859062010000900460ff161561202c576040805162461bcd60e51b8152602060048201526012602482015271141493d413d4d05317d0d05390d15313115160721b604482015290519081900360640190fd5b600080612038886110d6565b9150915081600014801561204a575080155b612090576040805162461bcd60e51b815260206004820152601260248201527150524f504f53414c5f4841535f564f54455360701b604482015290519081900360640190fd5b600088815260396020908152604091829020600901805462ff000019166201000017905581518a815291517f416e669c63d9a3a5e36ee7cc7e2104b8db28ccd286aa18966e98fa230c73b08c9281900390910190a15050505050505050565b60345460ff161561213a576040805162461bcd60e51b815260206004820152601060248201526f14185d5cd8589b194e881c185d5cd95960821b604482015290519081900360640190fd5b600083815260396020526040902060070154839061218d576040805162461bcd60e51b815260206004820152601260248201526000805160206137c3833981519152604482015290519081900360640190fd5b600084815260396020526040902060090154849060ff16156121e8576040805162461bcd60e51b815260206004820152600f60248201526e141493d413d4d05317d41054d4d151608a1b604482015290519081900360640190fd5b600085815260396020526040902060090154859062010000900460ff161561224c576040805162461bcd60e51b8152602060048201526012602482015271141493d413d4d05317d0d05390d15313115160721b604482015290519081900360640190fd5b6000868152603960205260409020600801548690612268612e43565b106122ae576040805162461bcd60e51b8152602060048201526011602482015270141493d413d4d05317d192539254d21151607a1b604482015290519081900360640190fd5b603754604080516370a0823160e01b8152336004820152905187926001600160a01b0316916370a08231916024808301926020929190829003018186803b1580156122f857600080fd5b505afa15801561230c573d6000803e3d6000fd5b505050506040513d602081101561232257600080fd5b50511015612377576040805162461bcd60e51b815260206004820152601b60248201527f494e53554646494349454e545f544f4b454e535f42414c414e43450000000000604482015290519081900360640190fd5b60375460408051636eb1769f60e11b8152336004820152306024820152905187926001600160a01b03169163dd62ed3e916044808301926020929190829003018186803b1580156123c757600080fd5b505afa1580156123db573d6000803e3d6000fd5b505050506040513d60208110156123f157600080fd5b50511015612446576040805162461bcd60e51b815260206004820152601d60248201527f494e53554646494349454e545f544f4b454e535f414c4c4f57414e4345000000604482015290519081900360640190fd5b6124503386613221565b6000878152603a6020908152604080832033845260010190915281205460ff166125a4576000888152603a6020908152604080832033845260018082018452828520805460ff19169091179055600381015492529091208190556124b387613287565b91506040518060a001604052808960018111156124cc57fe5b815260208082018a9052604080830186905260006060840181905260809093018390528c8352603a8252808320858452600201909152902081518154829060ff19166001838181111561251b57fe5b0217905550602082810151600180840191909155604080850151600285015560608501516003948501805460809097015115156101000261ff001992151560ff1990981697909717919091169590951790945560008d8152603a909252929020015461258c9163ffffffff61302216565b60008a8152603a6020526040902060030155506126c4565b6000888152603a602090815260408083203384528083528184205484526002019091529020600381015460ff16156125f35760038101805461ffff191690556125ec87613287565b915061269a565b6001810154612608908863ffffffff61302216565b965061261387613287565b91507f940ff8122c3cdbdc4a4aa871d42fdf13e863866d63ab2ea9fc0af542894daff4898260000160009054906101000a900460ff163384600101546040518085815260200184600181111561266557fe5b60ff168152602001836001600160a01b03166001600160a01b0316815260200182815260200194505050505060405180910390a15b80548890829060ff1916600183818111156126b157fe5b0217905550600181018790556002018190555b7f615fd00d334fb9ec9d221e8191b07961008426504d05e916a5e961a64d3a21b188883389856040518086815260200185600181111561270057fe5b60ff1681526001600160a01b039094166020850152506040808401929092526060830152519081900360800192509050a15050505050505050565b60345460ff1615612786576040805162461bcd60e51b815260206004820152601060248201526f14185d5cd8589b194e881c185d5cd95960821b604482015290519081900360640190fd5b60008181526039602052604090206007015481906127d9576040805162461bcd60e51b815260206004820152601260248201526000805160206137c3833981519152604482015290519081900360640190fd5b6000828152603960205260409020600901548290610100900460ff161561283c576040805162461bcd60e51b8152602060048201526012602482015271141493d413d4d05317d41493d0d154d4d15160721b604482015290519081900360640190fd5b600083815260396020526040902060090154839062010000900460ff16156128a0576040805162461bcd60e51b8152602060048201526012602482015271141493d413d4d05317d0d05390d15313115160721b604482015290519081900360640190fd5b60008481526039602052604090206008015484906128bc612e43565b1015612907576040805162461bcd60e51b8152602060048201526015602482015274141493d413d4d05317d393d517d192539254d21151605a1b604482015290519081900360640190fd5b600085815260396020526040812060098101805461ff001916610100179055906129308761124b565b90508080156129445750600682015460ff16155b15612aa15760098201805460ff1990811660019081179092556006840180549091168217905560038301546004840154600585018054604080516020600297841615610100026000190190931696909604601f8101839004830287018301909152808652600095612a1a956001600160a01b031694939092909190830182828015612a105780601f106129e557610100808354040283529160200191612a10565b820191906000526020600020905b8154815290600101906020018083116129f357829003601f168201915b5050505050613292565b90508015612a6b5760068301805461ff0019166101001790556040805189815290517ff25d1eb843be2601e5db773f59cb25699ae9d3df1b9254508313091fce8933659181900360200190a1612a9f565b6040805189815290517fe23a6a9556cd21c6bb855e17fd21d654c8e203ac086373ee44eddea75167a19d9181900360200190a15b505b604080518881523360208201528215158183015290517f3353f106f05924858609a02b121cc13682b78d4b27deb999bad073a12db291bb9181900360600190a150505050505050565b6000818152603960205260409020600701548190612b3d576040805162461bcd60e51b815260206004820152601260248201526000805160206137c3833981519152604482015290519081900360640190fd5b600082815260396020526040902060090154829060ff1615612b98576040805162461bcd60e51b815260206004820152600f60248201526e141493d413d4d05317d41054d4d151608a1b604482015290519081900360640190fd5b600083815260396020526040902060090154839062010000900460ff1615612bfc576040805162461bcd60e51b8152602060048201526012602482015271141493d413d4d05317d0d05390d15313115160721b604482015290519081900360640190fd5b6000848152603a602090815260408083203384528083528184205484526002019091529020600381015460ff1615612c6a576040805162461bcd60e51b815260206004820152600c60248201526b1593d51157d4915593d2d15160a21b604482015290519081900360640190fd5b600381018054610100600160ff19909216821761ff00191617909155810154612c94903390612e5c565b7f940ff8122c3cdbdc4a4aa871d42fdf13e863866d63ab2ea9fc0af542894daff4858260000160009054906101000a900460ff1633846001015460405180858152602001846001811115612ce457fe5b60ff168152602001836001600160a01b03166001600160a01b0316815260200182815260200194505050505060405180910390a15050505050565b3390565b612d3460368263ffffffff6132ad16565b6040516001600160a01b038216907fee1504a83b6d4a361f4c1dc78ab59bfa30d6a3b6612c403e86bb01ef2984295f90600090a250565b612d7c60358263ffffffff6132ad16565b6040516001600160a01b038216907f22380c05984257a1cb900161c713dd71d39e74820f1aea43bd3f1bdd2096129990600090a250565b612dc460358263ffffffff61332e16565b6040516001600160a01b038216907f0a8eb35e5ca14b3d6f28e4abf2f128dbab231a58b56e89beb5d636115001e16590600090a250565b612e0c60368263ffffffff61332e16565b6040516001600160a01b038216907f270d9b30cf5b0793bbfd54c9d5b94aeb49462b8148399000265144a8722da6b690600090a250565b6000603b54600014612e5757603b54611e3e565b504290565b603754612e79906001600160a01b0316838363ffffffff61339516565b604080516001600160a01b03841681526020810183905281517fc7798891864187665ac6dd119286e44ec13f014527aeeb2b8eb3fd413df93179929181900390910190a15050565b60006001600160a01b038216612f085760405162461bcd60e51b81526004018080602001828103825260228152602001806138556022913960400191505060405180910390fd5b506001600160a01b03166000908152602091909152604090205460ff1690565b6000816001811115610d5357fe5b600080805b60385481101561301b5760008181526039602052604090206009015460ff16158015612f7e5750600081815260396020526040902060090154610100900460ff16155b8015612fa2575060008181526039602052604090206009015462010000900460ff16155b8015612fc55750600081815260396020526040902060080154612fc3612e43565b105b8015612ffa5750836001811115612fd857fe5b60008281526039602052604090206002015460ff166001811115612ff857fe5b145b156130135761301082600163ffffffff61302216565b91505b600101612f3b565b5092915050565b60008282018381101561196a576040805162461bcd60e51b815260206004820152601b60248201527f536166654d6174683a206164646974696f6e206f766572666c6f770000000000604482015290519081900360640190fd5b61308d60338263ffffffff61332e16565b6040516001600160a01b038216907fcd265ebaf09df2871cc7bd4133404a235ba12eff2041bb89d9c714a2621c7c7e90600090a250565b6000826130d357506000610d53565b828202828482816130e057fe5b041461196a5760405162461bcd60e51b81526004018080602001828103825260218152602001806138346021913960400191505060405180910390fd5b600080805b6038548110156131cd5760008181526039602052604090206009015460ff161580156131655750600081815260396020526040902060090154610100900460ff16155b8015613189575060008181526039602052604090206009015462010000900460ff16155b80156131ac57506000818152603960205260409020600801546131aa612e43565b105b156131c5576131c282600163ffffffff61302216565b91505b600101613122565b50905090565b6131e460338263ffffffff6132ad16565b6040516001600160a01b038216907f6719d08c1888103bea251a4ed56406bd0c3e69723c8a1686e017e7bbe159b6f890600090a250565b303b1590565b60375461323f906001600160a01b031683308463ffffffff6133ec16565b604080516001600160a01b03841681526020810183905281517fac87f20a77d28ee8bbb58ec87ea8fa968b3393efae1a368fd50b767c2847391c929181900390910190a15050565b6000610d538261344c565b600080600083516020850186886187965a03f1949350505050565b6132b78282612ec1565b15613309576040805162461bcd60e51b815260206004820152601f60248201527f526f6c65733a206163636f756e7420616c72656164792068617320726f6c6500604482015290519081900360640190fd5b6001600160a01b0316600090815260209190915260409020805460ff19166001179055565b6133388282612ec1565b6133735760405162461bcd60e51b81526004018080602001828103825260218152602001806138136021913960400191505060405180910390fd5b6001600160a01b0316600090815260209190915260409020805460ff19169055565b604080516001600160a01b038416602482015260448082018490528251808303909101815260649091019091526020810180516001600160e01b031663a9059cbb60e01b1790526133e790849061346c565b505050565b604080516001600160a01b0385811660248301528416604482015260648082018490528251808303909101815260849091019091526020810180516001600160e01b03166323b872dd60e01b17905261344690859061346c565b50505050565b80600260018201045b8181101561132a5790506002818304820104613455565b61347e826001600160a01b0316613624565b6134cf576040805162461bcd60e51b815260206004820152601f60248201527f5361666545524332303a2063616c6c20746f206e6f6e2d636f6e747261637400604482015290519081900360640190fd5b60006060836001600160a01b0316836040518082805190602001908083835b6020831061350d5780518252601f1990920191602091820191016134ee565b6001836020036101000a0380198251168184511680821785525050505050509050019150506000604051808303816000865af19150503d806000811461356f576040519150601f19603f3d011682016040523d82523d6000602084013e613574565b606091505b5091509150816135cb576040805162461bcd60e51b815260206004820181905260248201527f5361666545524332303a206c6f772d6c6576656c2063616c6c206661696c6564604482015290519081900360640190fd5b805115613446578080602001905160208110156135e757600080fd5b50516134465760405162461bcd60e51b815260040180806020018281038252602a81526020018061391f602a913960400191505060405180910390fd5b6000813f7fc5d2460186f7233c927e7db2dcc703c0e500b653ca82273b7bfad8045d85a47081158015906136585750808214155b949350505050565b60405180606001604052806003906020820280388339509192915050565b828054600181600116156101000203166002900490600052602060002090601f016020900481019282601f106136bf57805160ff19168380011785556136ec565b828001600101855582156136ec579182015b828111156136ec5782518255916020019190600101906136d1565b506136f892915061378a565b5090565b60018301918390821561377e5791602002820160005b8382111561374f57835183826101000a81548160ff0219169083151502179055509260200192600101602081600001049283019260010302613712565b801561377c5782816101000a81549060ff021916905560010160208160000104928301926001030261374f565b505b506136f89291506137a4565b610f9791905b808211156136f85760008155600101613790565b610f9791905b808211156136f857805460ff191681556001016137aa56fe50524f504f53414c5f4e4f545f464f554e440000000000000000000000000000506175736572526f6c653a2063616c6c657220646f6573206e6f742068617665207468652050617573657220726f6c65526f6c65733a206163636f756e7420646f6573206e6f74206861766520726f6c65536166654d6174683a206d756c7469706c69636174696f6e206f766572666c6f77526f6c65733a206163636f756e7420697320746865207a65726f2061646472657373436f6e747261637420696e7374616e63652068617320616c7265616479206265656e20696e697469616c697a656457686974656c69737441646d696e526f6c653a2063616c6c657220646f6573206e6f742068617665207468652057686974656c69737441646d696e20726f6c6557686974656c6973746564526f6c653a2063616c6c657220646f6573206e6f742068617665207468652057686974656c697374656420726f6c655361666545524332303a204552433230206f7065726174696f6e20646964206e6f742073756363656564a265627a7a7231582078c0245f7c5a9b19ff2fc83dd75ef4a76127a6b79b2f43dfd804f6a8413cebc664736f6c634300050e0032526f6c65733a206163636f756e7420697320746865207a65726f2061646472657373",
  "source": "pragma solidity 0.5.14;\n\nimport \"../Dao.sol\";\n\n\n/**\n * @dev Time machine features for the Dao\n * @author Kostiantyn Smyrnov <kostysh@gmail.com>\n */\ncontract DaoWithTimeMachine is Dao {\n    uint256 internal _currentTime;\n\n    /**\n     * @dev This event will be emitted when contraact time changing\n     * @param oldTime Time before the rewind\n     * @param newTime New contract time\n     */\n    event TimeMachine(\n        uint256 oldTime,\n        uint256 newTime\n    );\n\n    /**\n     * @dev Get current contract time\n     * @return uint256\n     */\n    function currentTime() public view returns (uint256) {\n        return time();\n    }\n\n    /**\n     * @dev Set new contract time\n     * @param time New time value\n     */\n    function setCurrentTime(uint256 time) external {\n        emit TimeMachine(currentTime(), time);\n        _currentTime = time;\n    }\n\n    /**\n     * @dev Return current time\n     * @dev uint256\n     */\n    function time() internal view returns (uint256) {\n        return _currentTime == 0 ? now : _currentTime;// solhint-disable-line not-rely-on-time\n    }\n}",
  "sourcePath": "/home/kostysh/dev/wtdao/packages/contracts/contracts/test/DaoWithTimeMachine.sol",
  "compiler": {
    "name": "solc",
    "version": "0.5.14+commit.01f1aaa4.Emscripten.clang"
  },
  "schemaVersion": "3.0.20",
  "updatedAt": "2020-01-04T23:34:13.455Z",
  "devdoc": {
    "author": "Kostiantyn Smyrnov <kostysh@gmail.com>",
    "details": "Time machine features for the Dao",
    "methods": {
      "addProposal(string,uint8,uint256,address,uint256,bytes)": {
        "details": "Add new proposal     * Requirements: - sender address should be whitelisted - contract should not be in paused state - proposal type should allowed proposalType - destination address should not be a valid target address - sent ether value should be consistent with value parameter ",
        "params": {
          "data": "Signed transaction data",
          "destination": "Transaction target address",
          "details": "Proposal details",
          "duration": "Proposal voting duration in days",
          "proposalType": "Proposal type",
          "value": "Transaction value in ethers"
        }
      },
      "cancelProposal(uint256)": {
        "details": "Cancelling of the proposal     * Requirements: - proposal should exists - sender address should be a proposer address - proposal should not be in a passed state - proposal should not be in a processed state - proposal should not be cancelled - proposal has no votes",
        "params": {
          "proposalId": "Proposal Id"
        }
      },
      "currentTime()": {
        "details": "Get current contract time",
        "return": "uint256"
      },
      "getActiveProposalsIds()": {
        "details": "Get all active proposals Ids",
        "return": "uint256[] List of proposals Ids"
      },
      "getActiveProposalsIds(uint8)": {
        "details": "Get all active proposals Ids filtered by proposal type     * Requirements: - proposal type should be valid  ",
        "return": "uint256[] List of proposals Ids"
      },
      "getProposal(uint256)": {
        "details": "Get proposal by Id (index)     * Requirements: - proposal should exists  ",
        "params": {
          "proposalId": "Proposal Id"
        },
        "return": "string Proposal detailsProposalType Proposal typeuint256 Proposal duration in daysuint256 Proposal end datebool[3] Proposal status flagsaddress Transaction target addressuint256 Ether value to send with transactionbytes Transaction databool Transaction execution statusbool Transaction execution result status"
      },
      "getVote(uint256)": {
        "details": "Get own vote from proposal voting      * Requirements: - proposal should exists - vote should be exist ",
        "params": {
          "proposalId": "Proposal Id"
        },
        "return": "VoteType Type of the voteuint256 Original vote value sentuint256 Acceptes vote valuebool Reveked state of the vote"
      },
      "initialize(address)": {
        "details": "Contract initializer",
        "params": {
          "token": "Address of the service token"
        }
      },
      "isVotingPassed(uint256)": {
        "details": "Check is voting is passed      * Requirements: - proposal should exists",
        "params": {
          "proposalId": "Proposal Id"
        },
        "return": "uint256 Voting result"
      },
      "pause()": {
        "details": "Called by a pauser to pause, triggers stopped state."
      },
      "paused()": {
        "details": "Returns true if the contract is paused, and false otherwise."
      },
      "processProposal(uint256)": {
        "details": "Process proposal     * Requirements: - proposal should exists - contract not paused - proposal should not be processed - proposal should not be cancelled - proposal is finished",
        "params": {
          "proposalId": "Proposal Id"
        }
      },
      "replacePauser(address)": {
        "details": "Replace pauser to the new one      * Requirements: - sender address should be a pauser address ",
        "params": {
          "account": "New DAO pauser address"
        }
      },
      "replaceWhitelistAdmin(address)": {
        "details": "Replace whitelist admin with new one      * Requirements: - sender address should be a whitelisted admin address ",
        "params": {
          "account": "New DAO whitelist admin address"
        }
      },
      "revokeVote(uint256)": {
        "details": "Revoke of the placed vote     * Requirements: - proposal should exists - proposal should not be in a passed state - proposal should not be cancelled - vote should not been already revoked",
        "params": {
          "proposalId": "Proposal Id"
        }
      },
      "setCurrentTime(uint256)": {
        "details": "Set new contract time",
        "params": {
          "time": "New time value"
        }
      },
      "tokensBalance(uint256)": {
        "details": "Balance of locked tokens",
        "params": {
          "proposalId": "Proposal Id"
        },
        "return": "uint256 Balance of tokens that available to withdraw"
      },
      "unpause()": {
        "details": "Called by a pauser to unpause, returns to normal state."
      },
      "vote(uint256,uint8,uint256)": {
        "details": "Vote for the proposal     * Requirements: - proposal should exists - contract not paused - proposal should not be in a passed state - proposal should not be cancelled - sender tokens balance should be sufficient - tokens allowance for the DAO address should be sufficient - voting not expired (does not exceed voting time frame)",
        "params": {
          "proposalId": "Proposal Id",
          "voteType": "Type of the vote (Yes/No)",
          "votes": "Amount of service token to use in the vote"
        }
      },
      "votingResult(uint256)": {
        "details": "Get a result of the proposal voting     * Requirements: - proposal should exists",
        "params": {
          "proposalId": "Proposal Id"
        },
        "return": "uint256 'Yes' variant voting balanceuint256 'No' variant voting balance"
      },
      "withdrawTokens(uint256)": {
        "details": "Withdraw released tokens     * Requirements: - proposal should exists - proposal should be finished - sender has positive locked tokens balance",
        "params": {
          "proposalId": "Proposal Id"
        }
      }
    }
  },
  "userdoc": {
    "methods": {}
  }
}