{
  "contractName": "DaoWithTimeMachine",
  "abi": [
    {
      "anonymous": false,
      "inputs": [
        {
          "indexed": false,
          "internalType": "address",
          "name": "account",
          "type": "address"
        }
      ],
      "name": "Paused",
      "type": "event"
    },
    {
      "anonymous": false,
      "inputs": [
        {
          "indexed": true,
          "internalType": "address",
          "name": "account",
          "type": "address"
        }
      ],
      "name": "PauserAdded",
      "type": "event"
    },
    {
      "anonymous": false,
      "inputs": [
        {
          "indexed": true,
          "internalType": "address",
          "name": "account",
          "type": "address"
        }
      ],
      "name": "PauserRemoved",
      "type": "event"
    },
    {
      "anonymous": false,
      "inputs": [
        {
          "indexed": false,
          "internalType": "address",
          "name": "proposer",
          "type": "address"
        },
        {
          "indexed": false,
          "internalType": "uint256",
          "name": "proposalId",
          "type": "uint256"
        }
      ],
      "name": "ProposalAdded",
      "type": "event"
    },
    {
      "anonymous": false,
      "inputs": [
        {
          "indexed": false,
          "internalType": "uint256",
          "name": "proposalId",
          "type": "uint256"
        }
      ],
      "name": "ProposalCancelled",
      "type": "event"
    },
    {
      "anonymous": false,
      "inputs": [
        {
          "indexed": false,
          "internalType": "uint256",
          "name": "proposalId",
          "type": "uint256"
        },
        {
          "indexed": false,
          "internalType": "bool",
          "name": "passed",
          "type": "bool"
        }
      ],
      "name": "ProposalProcessed",
      "type": "event"
    },
    {
      "anonymous": false,
      "inputs": [
        {
          "indexed": false,
          "internalType": "address",
          "name": "voter",
          "type": "address"
        },
        {
          "indexed": false,
          "internalType": "uint256",
          "name": "value",
          "type": "uint256"
        }
      ],
      "name": "TokensLocked",
      "type": "event"
    },
    {
      "anonymous": false,
      "inputs": [
        {
          "indexed": false,
          "internalType": "address",
          "name": "voter",
          "type": "address"
        },
        {
          "indexed": false,
          "internalType": "uint256",
          "name": "value",
          "type": "uint256"
        }
      ],
      "name": "TokensReleased",
      "type": "event"
    },
    {
      "anonymous": false,
      "inputs": [
        {
          "indexed": false,
          "internalType": "uint256",
          "name": "proposalId",
          "type": "uint256"
        }
      ],
      "name": "TransactionFailed",
      "type": "event"
    },
    {
      "anonymous": false,
      "inputs": [
        {
          "indexed": false,
          "internalType": "uint256",
          "name": "proposalId",
          "type": "uint256"
        }
      ],
      "name": "TransactionSuccessed",
      "type": "event"
    },
    {
      "anonymous": false,
      "inputs": [
        {
          "indexed": false,
          "internalType": "address",
          "name": "account",
          "type": "address"
        }
      ],
      "name": "Unpaused",
      "type": "event"
    },
    {
      "anonymous": false,
      "inputs": [
        {
          "indexed": false,
          "internalType": "uint256",
          "name": "proposalId",
          "type": "uint256"
        },
        {
          "indexed": false,
          "internalType": "enum Dao.VoteType",
          "name": "voteType",
          "type": "uint8"
        },
        {
          "indexed": false,
          "internalType": "address",
          "name": "voter",
          "type": "address"
        },
        {
          "indexed": false,
          "internalType": "uint256",
          "name": "votes",
          "type": "uint256"
        },
        {
          "indexed": false,
          "internalType": "uint256",
          "name": "votesAccepted",
          "type": "uint256"
        }
      ],
      "name": "VoteAdded",
      "type": "event"
    },
    {
      "anonymous": false,
      "inputs": [
        {
          "indexed": false,
          "internalType": "uint256",
          "name": "proposalId",
          "type": "uint256"
        },
        {
          "indexed": false,
          "internalType": "enum Dao.VoteType",
          "name": "voteType",
          "type": "uint8"
        },
        {
          "indexed": false,
          "internalType": "address",
          "name": "voter",
          "type": "address"
        },
        {
          "indexed": false,
          "internalType": "uint256",
          "name": "votes",
          "type": "uint256"
        }
      ],
      "name": "VoteRevoked",
      "type": "event"
    },
    {
      "anonymous": false,
      "inputs": [
        {
          "indexed": true,
          "internalType": "address",
          "name": "account",
          "type": "address"
        }
      ],
      "name": "WhitelistAdminAdded",
      "type": "event"
    },
    {
      "anonymous": false,
      "inputs": [
        {
          "indexed": true,
          "internalType": "address",
          "name": "account",
          "type": "address"
        }
      ],
      "name": "WhitelistAdminRemoved",
      "type": "event"
    },
    {
      "anonymous": false,
      "inputs": [
        {
          "indexed": true,
          "internalType": "address",
          "name": "account",
          "type": "address"
        }
      ],
      "name": "WhitelistedAdded",
      "type": "event"
    },
    {
      "anonymous": false,
      "inputs": [
        {
          "indexed": true,
          "internalType": "address",
          "name": "account",
          "type": "address"
        }
      ],
      "name": "WhitelistedRemoved",
      "type": "event"
    },
    {
      "constant": false,
      "inputs": [
        {
          "internalType": "address",
          "name": "account",
          "type": "address"
        }
      ],
      "name": "addPauser",
      "outputs": [],
      "payable": false,
      "stateMutability": "nonpayable",
      "type": "function"
    },
    {
      "constant": false,
      "inputs": [
        {
          "internalType": "string",
          "name": "details",
          "type": "string"
        },
        {
          "internalType": "enum Dao.ProposalType",
          "name": "proposalType",
          "type": "uint8"
        },
        {
          "internalType": "uint256",
          "name": "duration",
          "type": "uint256"
        },
        {
          "internalType": "address",
          "name": "destination",
          "type": "address"
        },
        {
          "internalType": "uint256",
          "name": "value",
          "type": "uint256"
        },
        {
          "internalType": "bytes",
          "name": "data",
          "type": "bytes"
        }
      ],
      "name": "addProposal",
      "outputs": [],
      "payable": true,
      "stateMutability": "payable",
      "type": "function"
    },
    {
      "constant": false,
      "inputs": [
        {
          "internalType": "address",
          "name": "account",
          "type": "address"
        }
      ],
      "name": "addWhitelistAdmin",
      "outputs": [],
      "payable": false,
      "stateMutability": "nonpayable",
      "type": "function"
    },
    {
      "constant": false,
      "inputs": [
        {
          "internalType": "address",
          "name": "account",
          "type": "address"
        }
      ],
      "name": "addWhitelisted",
      "outputs": [],
      "payable": false,
      "stateMutability": "nonpayable",
      "type": "function"
    },
    {
      "constant": false,
      "inputs": [
        {
          "internalType": "uint256",
          "name": "proposalId",
          "type": "uint256"
        }
      ],
      "name": "cancelProposal",
      "outputs": [],
      "payable": false,
      "stateMutability": "nonpayable",
      "type": "function"
    },
    {
      "constant": true,
      "inputs": [],
      "name": "currentTime",
      "outputs": [
        {
          "internalType": "uint256",
          "name": "",
          "type": "uint256"
        }
      ],
      "payable": false,
      "stateMutability": "view",
      "type": "function"
    },
    {
      "constant": true,
      "inputs": [
        {
          "internalType": "enum Dao.ProposalType",
          "name": "proposalType",
          "type": "uint8"
        }
      ],
      "name": "getActiveProposalsIds",
      "outputs": [
        {
          "internalType": "uint256[]",
          "name": "",
          "type": "uint256[]"
        }
      ],
      "payable": false,
      "stateMutability": "view",
      "type": "function"
    },
    {
      "constant": true,
      "inputs": [],
      "name": "getActiveProposalsIds",
      "outputs": [
        {
          "internalType": "uint256[]",
          "name": "",
          "type": "uint256[]"
        }
      ],
      "payable": false,
      "stateMutability": "view",
      "type": "function"
    },
    {
      "constant": true,
      "inputs": [
        {
          "internalType": "uint256",
          "name": "proposalId",
          "type": "uint256"
        }
      ],
      "name": "getProposal",
      "outputs": [
        {
          "internalType": "string",
          "name": "details",
          "type": "string"
        },
        {
          "internalType": "enum Dao.ProposalType",
          "name": "proposalType",
          "type": "uint8"
        },
        {
          "internalType": "uint256",
          "name": "duration",
          "type": "uint256"
        },
        {
          "internalType": "uint256",
          "name": "end",
          "type": "uint256"
        },
        {
          "internalType": "bool[3]",
          "name": "flags",
          "type": "bool[3]"
        },
        {
          "internalType": "address",
          "name": "txDestination",
          "type": "address"
        },
        {
          "internalType": "uint256",
          "name": "txValue",
          "type": "uint256"
        },
        {
          "internalType": "bytes",
          "name": "txData",
          "type": "bytes"
        },
        {
          "internalType": "bool",
          "name": "txExecuted",
          "type": "bool"
        },
        {
          "internalType": "bool",
          "name": "txSuccess",
          "type": "bool"
        }
      ],
      "payable": false,
      "stateMutability": "view",
      "type": "function"
    },
    {
      "constant": true,
      "inputs": [
        {
          "internalType": "uint256",
          "name": "proposalId",
          "type": "uint256"
        }
      ],
      "name": "getVote",
      "outputs": [
        {
          "internalType": "enum Dao.VoteType",
          "name": "voteType",
          "type": "uint8"
        },
        {
          "internalType": "uint256",
          "name": "valueOriginal",
          "type": "uint256"
        },
        {
          "internalType": "uint256",
          "name": "valueAccepted",
          "type": "uint256"
        },
        {
          "internalType": "bool",
          "name": "revoked",
          "type": "bool"
        }
      ],
      "payable": false,
      "stateMutability": "view",
      "type": "function"
    },
    {
      "constant": false,
      "inputs": [
        {
          "internalType": "address",
          "name": "token",
          "type": "address"
        }
      ],
      "name": "initialize",
      "outputs": [],
      "payable": false,
      "stateMutability": "nonpayable",
      "type": "function"
    },
    {
      "constant": true,
      "inputs": [
        {
          "internalType": "address",
          "name": "account",
          "type": "address"
        }
      ],
      "name": "isPauser",
      "outputs": [
        {
          "internalType": "bool",
          "name": "",
          "type": "bool"
        }
      ],
      "payable": false,
      "stateMutability": "view",
      "type": "function"
    },
    {
      "constant": true,
      "inputs": [
        {
          "internalType": "uint256",
          "name": "proposalId",
          "type": "uint256"
        }
      ],
      "name": "isVotingPassed",
      "outputs": [
        {
          "internalType": "bool",
          "name": "",
          "type": "bool"
        }
      ],
      "payable": false,
      "stateMutability": "view",
      "type": "function"
    },
    {
      "constant": true,
      "inputs": [
        {
          "internalType": "address",
          "name": "account",
          "type": "address"
        }
      ],
      "name": "isWhitelistAdmin",
      "outputs": [
        {
          "internalType": "bool",
          "name": "",
          "type": "bool"
        }
      ],
      "payable": false,
      "stateMutability": "view",
      "type": "function"
    },
    {
      "constant": true,
      "inputs": [
        {
          "internalType": "address",
          "name": "account",
          "type": "address"
        }
      ],
      "name": "isWhitelisted",
      "outputs": [
        {
          "internalType": "bool",
          "name": "",
          "type": "bool"
        }
      ],
      "payable": false,
      "stateMutability": "view",
      "type": "function"
    },
    {
      "constant": false,
      "inputs": [],
      "name": "pause",
      "outputs": [],
      "payable": false,
      "stateMutability": "nonpayable",
      "type": "function"
    },
    {
      "constant": true,
      "inputs": [],
      "name": "paused",
      "outputs": [
        {
          "internalType": "bool",
          "name": "",
          "type": "bool"
        }
      ],
      "payable": false,
      "stateMutability": "view",
      "type": "function"
    },
    {
      "constant": false,
      "inputs": [
        {
          "internalType": "uint256",
          "name": "proposalId",
          "type": "uint256"
        }
      ],
      "name": "processProposal",
      "outputs": [],
      "payable": false,
      "stateMutability": "nonpayable",
      "type": "function"
    },
    {
      "constant": true,
      "inputs": [],
      "name": "proposalCount",
      "outputs": [
        {
          "internalType": "uint256",
          "name": "",
          "type": "uint256"
        }
      ],
      "payable": false,
      "stateMutability": "view",
      "type": "function"
    },
    {
      "constant": false,
      "inputs": [
        {
          "internalType": "address",
          "name": "account",
          "type": "address"
        }
      ],
      "name": "removeWhitelisted",
      "outputs": [],
      "payable": false,
      "stateMutability": "nonpayable",
      "type": "function"
    },
    {
      "constant": false,
      "inputs": [],
      "name": "renouncePauser",
      "outputs": [],
      "payable": false,
      "stateMutability": "nonpayable",
      "type": "function"
    },
    {
      "constant": false,
      "inputs": [],
      "name": "renounceWhitelistAdmin",
      "outputs": [],
      "payable": false,
      "stateMutability": "nonpayable",
      "type": "function"
    },
    {
      "constant": false,
      "inputs": [],
      "name": "renounceWhitelisted",
      "outputs": [],
      "payable": false,
      "stateMutability": "nonpayable",
      "type": "function"
    },
    {
      "constant": false,
      "inputs": [
        {
          "internalType": "address",
          "name": "account",
          "type": "address"
        }
      ],
      "name": "replacePauser",
      "outputs": [],
      "payable": false,
      "stateMutability": "nonpayable",
      "type": "function"
    },
    {
      "constant": false,
      "inputs": [
        {
          "internalType": "address",
          "name": "account",
          "type": "address"
        }
      ],
      "name": "replaceWhitelistAdmin",
      "outputs": [],
      "payable": false,
      "stateMutability": "nonpayable",
      "type": "function"
    },
    {
      "constant": false,
      "inputs": [
        {
          "internalType": "uint256",
          "name": "proposalId",
          "type": "uint256"
        }
      ],
      "name": "revokeVote",
      "outputs": [],
      "payable": false,
      "stateMutability": "nonpayable",
      "type": "function"
    },
    {
      "constant": true,
      "inputs": [],
      "name": "serviceToken",
      "outputs": [
        {
          "internalType": "contract IERC20",
          "name": "",
          "type": "address"
        }
      ],
      "payable": false,
      "stateMutability": "view",
      "type": "function"
    },
    {
      "constant": true,
      "inputs": [],
      "name": "tokensBalance",
      "outputs": [
        {
          "internalType": "uint256",
          "name": "",
          "type": "uint256"
        }
      ],
      "payable": false,
      "stateMutability": "view",
      "type": "function"
    },
    {
      "constant": false,
      "inputs": [],
      "name": "unpause",
      "outputs": [],
      "payable": false,
      "stateMutability": "nonpayable",
      "type": "function"
    },
    {
      "constant": false,
      "inputs": [
        {
          "internalType": "uint256",
          "name": "proposalId",
          "type": "uint256"
        },
        {
          "internalType": "enum Dao.VoteType",
          "name": "voteType",
          "type": "uint8"
        },
        {
          "internalType": "uint256",
          "name": "votes",
          "type": "uint256"
        }
      ],
      "name": "vote",
      "outputs": [],
      "payable": false,
      "stateMutability": "nonpayable",
      "type": "function"
    },
    {
      "constant": true,
      "inputs": [
        {
          "internalType": "uint256",
          "name": "proposalId",
          "type": "uint256"
        }
      ],
      "name": "votingResult",
      "outputs": [
        {
          "internalType": "uint256",
          "name": "yes",
          "type": "uint256"
        },
        {
          "internalType": "uint256",
          "name": "no",
          "type": "uint256"
        }
      ],
      "payable": false,
      "stateMutability": "view",
      "type": "function"
    },
    {
      "constant": false,
      "inputs": [
        {
          "internalType": "uint256",
          "name": "proposalId",
          "type": "uint256"
        }
      ],
      "name": "withdrawTokens",
      "outputs": [],
      "payable": false,
      "stateMutability": "nonpayable",
      "type": "function"
    },
    {
      "constant": false,
      "inputs": [
        {
          "internalType": "uint256",
          "name": "time",
          "type": "uint256"
        }
      ],
      "name": "setCurrentTime",
      "outputs": [],
      "payable": false,
      "stateMutability": "nonpayable",
      "type": "function"
    }
  ],
  "bytecode": "0x60806040526200002a6200001b6001600160e01b036200006516565b6001600160e01b036200006916565b6034805460ff191690556200005a6200004b6001600160e01b036200006516565b6001600160e01b03620000bb16565b600160375562000203565b3390565b620000848160336200010d60201b620030ed1790919060201c565b6040516001600160a01b038216907f6719d08c1888103bea251a4ed56406bd0c3e69723c8a1686e017e7bbe159b6f890600090a250565b620000d68160356200010d60201b620030ed1790919060201c565b6040516001600160a01b038216907f22380c05984257a1cb900161c713dd71d39e74820f1aea43bd3f1bdd2096129990600090a250565b6200012282826001600160e01b036200019a16565b1562000175576040805162461bcd60e51b815260206004820152601f60248201527f526f6c65733a206163636f756e7420616c72656164792068617320726f6c6500604482015290519081900360640190fd5b6001600160a01b0316600090815260209190915260409020805460ff19166001179055565b60006001600160a01b038216620001e35760405162461bcd60e51b8152600401808060200182810382526022815260200180620039aa6022913960400191505060405180910390fd5b506001600160a01b03166000908152602091909152604090205460ff1690565b61379780620002136000396000f3fe6080604052600436106101ee5760003560e01c80637c2466ff1161010d578063c7f758a8116100a0578063da35c6641161006f578063da35c6641461091a578063e0a8f6f51461092f578063e520251a14610959578063e63bc62d14610992578063f73a8b4a146109bc576101ee565b8063c7f758a81461073c578063c8032a84146108c9578063d18e81b3146108f0578063d6cd947314610905576101ee565b806386583746116100dc5780638658374614610672578063b7692968146106a5578063bb5f747b146106d6578063c4d66de814610709576101ee565b80637c2466ff146105315780637e9b8f801461061557806382dc1ec41461062a5780638456cb591461065d576101ee565b80634c5a628c1161018557806361d140511161015457806361d140511461047c5780636a96bab4146104bf5780636ef8d66d146104e95780637362d9c8146104fe576101ee565b80634c5a628c146103715780635a55c1f0146103865780635c975abb146103ea57806361301afa146103ff576101ee565b8063315a095d116101c1578063315a095d146102b85780633af32abf146102e25780633f4ba83a1461032957806346fbf68e1461033e576101ee565b806310154bad146101f357806319819ff51461022857806322f8e5661461025b578063291d954914610285575b600080fd5b3480156101ff57600080fd5b506102266004803603602081101561021657600080fd5b50356001600160a01b03166109e6565b005b34801561023457600080fd5b506102266004803603602081101561024b57600080fd5b50356001600160a01b0316610a3d565b34801561026757600080fd5b506102266004803603602081101561027e57600080fd5b5035610a95565b34801561029157600080fd5b50610226600480360360208110156102a857600080fd5b50356001600160a01b0316610a9a565b3480156102c457600080fd5b50610226600480360360208110156102db57600080fd5b5035610ae9565b3480156102ee57600080fd5b506103156004803603602081101561030557600080fd5b50356001600160a01b0316610bb6565b604080519115158252519081900360200190f35b34801561033557600080fd5b50610226610bcf565b34801561034a57600080fd5b506103156004803603602081101561036157600080fd5b50356001600160a01b0316610cb8565b34801561037d57600080fd5b50610226610ccb565b34801561039257600080fd5b506103b0600480360360208110156103a957600080fd5b5035610cdd565b604051808560018111156103c057fe5b60ff1681526020810194909452506040808401929092521515606083015251908190036080019150f35b3480156103f657600080fd5b50610315610dec565b34801561040b57600080fd5b5061042c6004803603602081101561042257600080fd5b503560ff16610df6565b60408051602080825283518183015283519192839290830191858101910280838360005b83811015610468578181015183820152602001610450565b505050509050019250505060405180910390f35b34801561048857600080fd5b506104a66004803603602081101561049f57600080fd5b5035610f32565b6040805192835260208301919091528051918290030190f35b3480156104cb57600080fd5b50610315600480360360208110156104e257600080fd5b50356110ae565b3480156104f557600080fd5b5061022661119a565b34801561050a57600080fd5b506102266004803603602081101561052157600080fd5b50356001600160a01b03166111aa565b610226600480360360c081101561054757600080fd5b81019060208101813564010000000081111561056257600080fd5b82018360208201111561057457600080fd5b8035906020019184600183028401116401000000008311171561059657600080fd5b9193909260ff833516926020810135926001600160a01b036040830135169260608301359260a0810190608001356401000000008111156105d657600080fd5b8201836020820111156105e857600080fd5b8035906020019184600183028401116401000000008311171561060a57600080fd5b5090925090506111f9565b34801561062157600080fd5b5061042c6115cb565b34801561063657600080fd5b506102266004803603602081101561064d57600080fd5b50356001600160a01b03166116c5565b34801561066957600080fd5b50610226611714565b34801561067e57600080fd5b506102266004803603602081101561069557600080fd5b50356001600160a01b03166117db565b3480156106b157600080fd5b506106ba611833565b604080516001600160a01b039092168252519081900360200190f35b3480156106e257600080fd5b50610315600480360360208110156106f957600080fd5b50356001600160a01b0316611842565b34801561071557600080fd5b506102266004803603602081101561072c57600080fd5b50356001600160a01b0316611855565b34801561074857600080fd5b506107666004803603602081101561075f57600080fd5b5035611929565b60405180806020018b600181111561077a57fe5b60ff1681526020018a815260200189815260200188600360200280838360005b838110156107b257818101518382015260200161079a565b50505050905001876001600160a01b03166001600160a01b0316815260200186815260200180602001851515151581526020018415151515815260200183810383528d818151815260200191508051906020019080838360005b8381101561082457818101518382015260200161080c565b50505050905090810190601f1680156108515780820380516001836020036101000a031916815260200191505b50838103825286518152865160209182019188019080838360005b8381101561088457818101518382015260200161086c565b50505050905090810190601f1680156108b15780820380516001836020036101000a031916815260200191505b509c5050505050505050505050505060405180910390f35b3480156108d557600080fd5b506108de611b8e565b60408051918252519081900360200190f35b3480156108fc57600080fd5b506108de611b93565b34801561091157600080fd5b50610226611b99565b34801561092657600080fd5b506108de611ba9565b34801561093b57600080fd5b506102266004803603602081101561095257600080fd5b5035611baf565b34801561096557600080fd5b506102266004803603606081101561097c57600080fd5b5080359060ff6020820135169060400135611e4c565b34801561099e57600080fd5b50610226600480360360208110156109b557600080fd5b5035612520565b3480156109c857600080fd5b50610226600480360360208110156109df57600080fd5b5035612924565b6109f66109f1612b56565b611842565b610a315760405162461bcd60e51b81526004018080602001828103825260408152602001806136bf6040913960400191505060405180910390fd5b610a3a81612b5a565b50565b610a486109f1612b56565b610a835760405162461bcd60e51b81526004018080602001828103825260408152602001806136bf6040913960400191505060405180910390fd5b610a8c81612ba2565b610a3a33612bea565b603c55565b610aa56109f1612b56565b610ae05760405162461bcd60e51b81526004018080602001828103825260408152602001806136bf6040913960400191505060405180910390fd5b610a3a81612c32565b60378054600101908190556000828152603a60205260409020600801548290610b10612c7a565b1015610b5b576040805162461bcd60e51b8152602060048201526015602482015274141493d413d4d05317d393d517d192539254d21151605a1b604482015290519081900360640190fd5b506037548114610bb2576040805162461bcd60e51b815260206004820152601f60248201527f5265656e7472616e637947756172643a207265656e7472616e742063616c6c00604482015290519081900360640190fd5b5050565b6000610bc960368363ffffffff612c9516565b92915050565b610bdf610bda612b56565b610cb8565b610c1a5760405162461bcd60e51b81526004018080602001828103825260308152602001806135fd6030913960400191505060405180910390fd5b60345460ff16610c68576040805162461bcd60e51b815260206004820152601460248201527314185d5cd8589b194e881b9bdd081c185d5cd95960621b604482015290519081900360640190fd5b6034805460ff191690557f5db9ee0a495bf2e6ff9c91a7834c1ba4fdd244a5e8aa4e537bd38aeae4b073aa610c9b612b56565b604080516001600160a01b039092168252519081900360200190a1565b6000610bc960338363ffffffff612c9516565b610cdb610cd6612b56565b612bea565b565b6000818152603a60205260408120600701548190819081908590610d3d576040805162461bcd60e51b8152602060048201526012602482015271141493d413d4d05317d393d517d193d5539160721b604482015290519081900360640190fd5b6000868152603b60209081526040808320338452600101909152902054869060ff16610da1576040805162461bcd60e51b815260206004820152600e60248201526d1593d51157d393d517d193d5539160921b604482015290519081900360640190fd5b50505060009384525050603b602090815260408084203385528083528185205485526002908101909252909220805460018201549382015460039092015460ff918216959293501690565b60345460ff165b90565b6060610e0182612cfc565b506060610e0d83612d0a565b604051908082528060200260200182016040528015610e36578160200160208202803883390190505b5090506000805b603954811015610f29576000818152603a602052604090206009015460ff16158015610e8057506000818152603a6020526040902060090154610100900460ff16155b8015610ea457506000818152603a602052604090206009015462010000900460ff16155b8015610ec757506000818152603a6020526040902060080154610ec5612c7a565b105b8015610efc5750846001811115610eda57fe5b6000828152603a602052604090206002015460ff166001811115610efa57fe5b145b15610f215780838381518110610f0e57fe5b6020026020010181815250506001820191505b600101610e3d565b50909392505050565b6000818152603a602052604081206007015481908390610f8e576040805162461bcd60e51b8152602060048201526012602482015271141493d413d4d05317d393d517d193d5539160721b604482015290519081900360640190fd5b60005b6000858152603b60205260409020600301548110156110a7576000858152603b6020908152604080832084845260020190915290206003015460ff1661109f576000858152603b6020908152604080832084845260020190915281205460ff166001811115610ffc57fe5b1415611037576000858152603b602090815260408083208484526002908101909252909120015461103490859063ffffffff612df616565b93505b60016000868152603b6020908152604080832085845260020190915290205460ff16600181111561106457fe5b141561109f576000858152603b602090815260408083208484526002908101909252909120015461109c90849063ffffffff612df616565b92505b600101610f91565b5050915091565b6000818152603a60205260408120600701548290611108576040805162461bcd60e51b8152602060048201526012602482015271141493d413d4d05317d393d517d193d5539160721b604482015290519081900360640190fd5b6000838152603a602052604090206009015460ff161561112b5760019150611194565b6000838152603a602052604090206009015462010000900460ff16156111545760009150611194565b6000838152603a602052604090206008015461116e612c7a565b101561117d5760009150611194565b60008061118985610f32565b109350611194915050565b50919050565b610cdb6111a5612b56565b612e57565b6111b56109f1612b56565b6111f05760405162461bcd60e51b81526004018080602001828103825260408152602001806136bf6040913960400191505060405180910390fd5b610a3a81612ba2565b611209611204612b56565b610bb6565b6112445760405162461bcd60e51b815260040180806020018281038252603a8152602001806136ff603a913960400191505060405180910390fd5b60345460ff161561128f576040805162461bcd60e51b815260206004820152601060248201526f14185d5cd8589b194e881c185d5cd95960821b604482015290519081900360640190fd5b61129886612cfc565b506001600160a01b0384166112ea576040805162461bcd60e51b815260206004820152601360248201527224a72b20a624a22fa222a9aa24a720aa24a7a760691b604482015290519081900360640190fd5b82158061130257506000831180156113025750823410155b611353576040805162461bcd60e51b815260206004820152601860248201527f494e53554646494349454e545f45544845525f56414c55450000000000000000604482015290519081900360640190fd5b60395460408051338152602081019290925280517f294a8b64183582a911805b3a31b11b3c4d20c7431578897c6abcc35aae886d5e9281900390910190a161139961349a565b6040518060e00160405280336001600160a01b031681526020018a8a8080601f0160208091040260200160405190810160405280939291908181526020018383808284376000920191909152505050908252506020018860018111156113fb57fe5b81526020016040518060a00160405280886001600160a01b0316815260200187815260200186868080601f016020809104026020016040519081016040528093929190818152602001838380828437600092018290525093855250505060208083018290526040928301919091529183529082018990520161149d611489896201518063ffffffff612e9f16565b611491612c7a565b9063ffffffff612df616565b815260209081018390526039546000908152603a825260409020825181546001600160a01b0319166001600160a01b0390911617815582820151805191926114ed926001850192909101906134b8565b50604082015160028201805460ff19166001838181111561150a57fe5b0217905550606082015180516003830180546001600160a01b0319166001600160a01b0390921691909117815560208083015160048501556040830151805161155992600587019201906134b8565b5060608201516003918201805460809485015115156101000261ff001993151560ff19909216919091179290921691909117905590830151600783015560a0830151600883015560c08301516115b491600984019190613536565b505060398054600101905550505050505050505050565b6060806115d6612ef8565b6040519080825280602002602001820160405280156115ff578160200160208202803883390190505b5090506000805b6039548110156116bd576000818152603a602052604090206009015460ff1615801561164957506000818152603a6020526040902060090154610100900460ff16155b801561166d57506000818152603a602052604090206009015462010000900460ff16155b801561169057506000818152603a602052604090206008015461168e612c7a565b105b156116b557808383815181106116a257fe5b6020026020010181815250506001820191505b600101611606565b509091505090565b6116d0610bda612b56565b61170b5760405162461bcd60e51b81526004018080602001828103825260308152602001806135fd6030913960400191505060405180910390fd5b610a3a81612fae565b61171f610bda612b56565b61175a5760405162461bcd60e51b81526004018080602001828103825260308152602001806135fd6030913960400191505060405180910390fd5b60345460ff16156117a5576040805162461bcd60e51b815260206004820152601060248201526f14185d5cd8589b194e881c185d5cd95960821b604482015290519081900360640190fd5b6034805460ff191660011790557f62e78cea01bee320cd4e420270b5ea74000d11b0c9f74754ebdbfc544b05a258610c9b612b56565b6117e6610bda612b56565b6118215760405162461bcd60e51b81526004018080602001828103825260308152602001806135fd6030913960400191505060405180910390fd5b61182a81612fae565b610a3a33612e57565b6038546001600160a01b031681565b6000610bc960358363ffffffff612c9516565b600054610100900460ff168061186e575061186e612ff6565b8061187c575060005460ff16155b6118b75760405162461bcd60e51b815260040180806020018281038252602e815260200180613691602e913960400191505060405180910390fd5b600054610100900460ff161580156118e2576000805460ff1961ff0019909116610100171660011790555b603880546001600160a01b0319166001600160a01b038416179055600060395561190b33612fae565b61191433612ba2565b8015610bb2576000805461ff00191690555050565b6060600080600061193861349a565b6000868152603a60205260408120600701548190606090829081908b9061199b576040805162461bcd60e51b8152602060048201526012602482015271141493d413d4d05317d393d517d193d5539160721b604482015290519081900360640190fd5b60008c8152603a6020908152604091829020600180820180548551600293821615610100026000190190911692909204601f810185900485028301850190955284825291939092830182828015611a335780601f10611a0857610100808354040283529160200191611a33565b820191906000526020600020905b815481529060010190602001808311611a1657829003601f168201915b50505050509b508060020160009054906101000a900460ff169a50806007015499508060080154985080600901600380602002604051908101604052809291908260038015611ab7576020028201916000905b825461010083900a900460ff161515815260206001928301818104948501949093039092029101808411611a865790505b505050506003830154600484015460058501805460408051602060026101006001861615026000190190941693909304601f8101849004840282018401909252818152969e506001600160a01b039094169c50919a509250830182828015611b605780601f10611b3557610100808354040283529160200191611b60565b820191906000526020600020905b815481529060010190602001808311611b4357829003601f168201915b5050506006909301549d9f9c9e509a9c999b989a509698959760ff8088169761010090041695509350505050565b600090565b603c5481565b610cdb611ba4612b56565b612c32565b60395481565b6000818152603a60205260409020600701548190611c09576040805162461bcd60e51b8152602060048201526012602482015271141493d413d4d05317d393d517d193d5539160721b604482015290519081900360640190fd5b6000828152603a602052604090205482906001600160a01b03163314611c67576040805162461bcd60e51b815260206004820152600e60248201526d2727aa2fa0afa82927a827a9a2a960911b604482015290519081900360640190fd5b6000838152603a6020526040902060090154839060ff1615611cc2576040805162461bcd60e51b815260206004820152600f60248201526e141493d413d4d05317d41054d4d151608a1b604482015290519081900360640190fd5b6000848152603a60205260409020600901548490610100900460ff1615611d25576040805162461bcd60e51b8152602060048201526012602482015271141493d413d4d05317d41493d0d154d4d15160721b604482015290519081900360640190fd5b6000858152603a6020526040902060090154859062010000900460ff1615611d89576040805162461bcd60e51b8152602060048201526012602482015271141493d413d4d05317d0d05390d15313115160721b604482015290519081900360640190fd5b600080611d9588610f32565b91509150816000148015611da7575080155b611ded576040805162461bcd60e51b815260206004820152601260248201527150524f504f53414c5f4841535f564f54455360701b604482015290519081900360640190fd5b6000888152603a6020908152604091829020600901805462ff000019166201000017905581518a815291517f416e669c63d9a3a5e36ee7cc7e2104b8db28ccd286aa18966e98fa230c73b08c9281900390910190a15050505050505050565b60345460ff1615611e97576040805162461bcd60e51b815260206004820152601060248201526f14185d5cd8589b194e881c185d5cd95960821b604482015290519081900360640190fd5b60378054600101908190556000848152603a60205260409020600701548490611efc576040805162461bcd60e51b8152602060048201526012602482015271141493d413d4d05317d393d517d193d5539160721b604482015290519081900360640190fd5b6000858152603a6020526040902060090154859060ff1615611f57576040805162461bcd60e51b815260206004820152600f60248201526e141493d413d4d05317d41054d4d151608a1b604482015290519081900360640190fd5b6000868152603a6020526040902060090154869062010000900460ff1615611fbb576040805162461bcd60e51b8152602060048201526012602482015271141493d413d4d05317d0d05390d15313115160721b604482015290519081900360640190fd5b6000878152603a60205260409020600801548790611fd7612c7a565b1061201d576040805162461bcd60e51b8152602060048201526011602482015270141493d413d4d05317d192539254d21151607a1b604482015290519081900360640190fd5b603854604080516370a0823160e01b8152336004820152905188926001600160a01b0316916370a08231916024808301926020929190829003018186803b15801561206757600080fd5b505afa15801561207b573d6000803e3d6000fd5b505050506040513d602081101561209157600080fd5b505110156120e6576040805162461bcd60e51b815260206004820152601b60248201527f494e53554646494349454e545f544f4b454e535f42414c414e43450000000000604482015290519081900360640190fd5b60385460408051636eb1769f60e11b8152336004820152306024820152905188926001600160a01b03169163dd62ed3e916044808301926020929190829003018186803b15801561213657600080fd5b505afa15801561214a573d6000803e3d6000fd5b505050506040513d602081101561216057600080fd5b505110156121b5576040805162461bcd60e51b815260206004820152601d60248201527f494e53554646494349454e545f544f4b454e535f414c4c4f57414e4345000000604482015290519081900360640190fd5b6000888152603b60209081526040808320338452600101909152812054879190819060ff16612322575060008a8152603b602090815260408083206003810154338552925290912081905561220983612ffc565b915060405180608001604052808b600181111561222257fe5b815260208082018690526040808301869052600060609093018390528e8352603b8252808320858452600201909152902081518154829060ff19166001838181111561226a57fe5b0217905550602082015181600101556040820151816002015560608201518160030160006101000a81548160ff0219169083151502179055509050506001603b60008d81526020019081526020016000206001016000336001600160a01b03166001600160a01b0316815260200190815260200160002060006101000a81548160ff0219169083151502179055506001603b60008d815260200190815260200160002060030160008282540192505081905550612446565b5060008a8152603b60209081526040808320338452808352818420548085526002909101909252909120600381015460ff16156123755760038101805460ff1916905561236e84612ffc565b925061241c565b600181015461238a908b63ffffffff612df616565b935061239584612ffc565b92507f940ff8122c3cdbdc4a4aa871d42fdf13e863866d63ab2ea9fc0af542894daff48c8260000160009054906101000a900460ff16338460010154604051808581526020018460018111156123e757fe5b60ff168152602001836001600160a01b03166001600160a01b0316815260200182815260200194505050505060405180910390a15b80548b90829060ff19166001838181111561243357fe5b0217905550600181018490556002018290555b7f615fd00d334fb9ec9d221e8191b07961008426504d05e916a5e961a64d3a21b18b8b3386866040518086815260200185600181111561248257fe5b60ff1681526001600160a01b039094166020850152506040808401929092526060830152519081900360800192509050a16124bd338a613007565b50505050505050603754811461251a576040805162461bcd60e51b815260206004820152601f60248201527f5265656e7472616e637947756172643a207265656e7472616e742063616c6c00604482015290519081900360640190fd5b50505050565b60345460ff161561256b576040805162461bcd60e51b815260206004820152601060248201526f14185d5cd8589b194e881c185d5cd95960821b604482015290519081900360640190fd5b6000818152603a602052604090206007015481906125c5576040805162461bcd60e51b8152602060048201526012602482015271141493d413d4d05317d393d517d193d5539160721b604482015290519081900360640190fd5b6000828152603a602052604090205482906001600160a01b03163314612623576040805162461bcd60e51b815260206004820152600e60248201526d2727aa2fa0afa82927a827a9a2a960911b604482015290519081900360640190fd5b6000838152603a60205260409020600901548390610100900460ff1615612686576040805162461bcd60e51b8152602060048201526012602482015271141493d413d4d05317d41493d0d154d4d15160721b604482015290519081900360640190fd5b6000848152603a6020526040902060090154849062010000900460ff16156126ea576040805162461bcd60e51b8152602060048201526012602482015271141493d413d4d05317d0d05390d15313115160721b604482015290519081900360640190fd5b6000858152603a60205260409020600801548590612706612c7a565b1015612751576040805162461bcd60e51b8152602060048201526015602482015274141493d413d4d05317d393d517d192539254d21151605a1b604482015290519081900360640190fd5b6000868152603a6020526040812060098101805461ff0019166101001790559061277a886110ae565b604080518a8152821515602082015281519293507fcc8b74c10cae169918eab7cf3272b0a540854b8a4d12281590885d07fed34f6e929081900390910190a1801561291a5760098201805460ff1916600190811790915560038301546004840154600585018054604080516020600260001998851615610100029890980190931696909604601f8101839004830287018301909152808652600095612884956001600160a01b03169493909290919083018282801561287a5780601f1061284f5761010080835404028352916020019161287a565b820191906000526020600020905b81548152906001019060200180831161285d57829003601f168201915b505050505061306d565b60068401805460ff19166001179055905080156128e45760068301805461ff001916610100179055604080518a815290517ff25d1eb843be2601e5db773f59cb25699ae9d3df1b9254508313091fce8933659181900360200190a1612918565b604080518a815290517fe23a6a9556cd21c6bb855e17fd21d654c8e203ac086373ee44eddea75167a19d9181900360200190a15b505b5050505050505050565b6000818152603a6020526040902060070154819061297e576040805162461bcd60e51b8152602060048201526012602482015271141493d413d4d05317d393d517d193d5539160721b604482015290519081900360640190fd5b6000828152603a6020526040902060090154829060ff16156129d9576040805162461bcd60e51b815260206004820152600f60248201526e141493d413d4d05317d41054d4d151608a1b604482015290519081900360640190fd5b6000838152603a6020526040902060090154839062010000900460ff1615612a3d576040805162461bcd60e51b8152602060048201526012602482015271141493d413d4d05317d0d05390d15313115160721b604482015290519081900360640190fd5b6000848152603b602090815260408083203384528083528184205484526002019091529020600381015460ff1615612aab576040805162461bcd60e51b815260206004820152600c60248201526b1593d51157d4915593d2d15160a21b604482015290519081900360640190fd5b60038101805460ff19166001908117909155810154612acb903390613088565b7f940ff8122c3cdbdc4a4aa871d42fdf13e863866d63ab2ea9fc0af542894daff4858260000160009054906101000a900460ff1633846001015460405180858152602001846001811115612b1b57fe5b60ff168152602001836001600160a01b03166001600160a01b0316815260200182815260200194505050505060405180910390a15050505050565b3390565b612b6b60368263ffffffff6130ed16565b6040516001600160a01b038216907fee1504a83b6d4a361f4c1dc78ab59bfa30d6a3b6612c403e86bb01ef2984295f90600090a250565b612bb360358263ffffffff6130ed16565b6040516001600160a01b038216907f22380c05984257a1cb900161c713dd71d39e74820f1aea43bd3f1bdd2096129990600090a250565b612bfb60358263ffffffff61316e16565b6040516001600160a01b038216907f0a8eb35e5ca14b3d6f28e4abf2f128dbab231a58b56e89beb5d636115001e16590600090a250565b612c4360368263ffffffff61316e16565b6040516001600160a01b038216907f270d9b30cf5b0793bbfd54c9d5b94aeb49462b8148399000265144a8722da6b690600090a250565b6000603c54600014612c8e57603c54612c90565b425b905090565b60006001600160a01b038216612cdc5760405162461bcd60e51b815260040180806020018281038252602281526020018061366f6022913960400191505060405180910390fd5b506001600160a01b03166000908152602091909152604090205460ff1690565b6000816001811115610bc957fe5b600080805b603954811015612def576000818152603a602052604090206009015460ff16158015612d5257506000818152603a6020526040902060090154610100900460ff16155b8015612d7657506000818152603a602052604090206009015462010000900460ff16155b8015612d9957506000818152603a6020526040902060080154612d97612c7a565b105b8015612dce5750836001811115612dac57fe5b6000828152603a602052604090206002015460ff166001811115612dcc57fe5b145b15612de757612de482600163ffffffff612df616565b91505b600101612d0f565b5092915050565b600082820183811015612e50576040805162461bcd60e51b815260206004820152601b60248201527f536166654d6174683a206164646974696f6e206f766572666c6f770000000000604482015290519081900360640190fd5b9392505050565b612e6860338263ffffffff61316e16565b6040516001600160a01b038216907fcd265ebaf09df2871cc7bd4133404a235ba12eff2041bb89d9c714a2621c7c7e90600090a250565b600082612eae57506000610bc9565b82820282848281612ebb57fe5b0414612e505760405162461bcd60e51b815260040180806020018281038252602181526020018061364e6021913960400191505060405180910390fd5b600080805b603954811015612fa8576000818152603a602052604090206009015460ff16158015612f4057506000818152603a6020526040902060090154610100900460ff16155b8015612f6457506000818152603a602052604090206009015462010000900460ff16155b8015612f8757506000818152603a6020526040902060080154612f85612c7a565b105b15612fa057612f9d82600163ffffffff612df616565b91505b600101612efd565b50905090565b612fbf60338263ffffffff6130ed16565b6040516001600160a01b038216907f6719d08c1888103bea251a4ed56406bd0c3e69723c8a1686e017e7bbe159b6f890600090a250565b303b1590565b6000610bc9826131d5565b603854613025906001600160a01b031683308463ffffffff6131f516565b604080516001600160a01b03841681526020810183905281517fac87f20a77d28ee8bbb58ec87ea8fa968b3393efae1a368fd50b767c2847391c929181900390910190a15050565b600080600083516020850186886187965a03f1949350505050565b6038546130a5906001600160a01b0316838363ffffffff61324f16565b604080516001600160a01b03841681526020810183905281517fc7798891864187665ac6dd119286e44ec13f014527aeeb2b8eb3fd413df93179929181900390910190a15050565b6130f78282612c95565b15613149576040805162461bcd60e51b815260206004820152601f60248201527f526f6c65733a206163636f756e7420616c72656164792068617320726f6c6500604482015290519081900360640190fd5b6001600160a01b0316600090815260209190915260409020805460ff19166001179055565b6131788282612c95565b6131b35760405162461bcd60e51b815260040180806020018281038252602181526020018061362d6021913960400191505060405180910390fd5b6001600160a01b0316600090815260209190915260409020805460ff19169055565b80600260018201045b8181101561119457905060028183048201046131de565b604080516001600160a01b0385811660248301528416604482015260648082018490528251808303909101815260849091019091526020810180516001600160e01b03166323b872dd60e01b17905261251a9085906132a6565b604080516001600160a01b038416602482015260448082018490528251808303909101815260649091019091526020810180516001600160e01b031663a9059cbb60e01b1790526132a19084906132a6565b505050565b6132b8826001600160a01b031661345e565b613309576040805162461bcd60e51b815260206004820152601f60248201527f5361666545524332303a2063616c6c20746f206e6f6e2d636f6e747261637400604482015290519081900360640190fd5b60006060836001600160a01b0316836040518082805190602001908083835b602083106133475780518252601f199092019160209182019101613328565b6001836020036101000a0380198251168184511680821785525050505050509050019150506000604051808303816000865af19150503d80600081146133a9576040519150601f19603f3d011682016040523d82523d6000602084013e6133ae565b606091505b509150915081613405576040805162461bcd60e51b815260206004820181905260248201527f5361666545524332303a206c6f772d6c6576656c2063616c6c206661696c6564604482015290519081900360640190fd5b80511561251a5780806020019051602081101561342157600080fd5b505161251a5760405162461bcd60e51b815260040180806020018281038252602a815260200180613739602a913960400191505060405180910390fd5b6000813f7fc5d2460186f7233c927e7db2dcc703c0e500b653ca82273b7bfad8045d85a47081158015906134925750808214155b949350505050565b60405180606001604052806003906020820280388339509192915050565b828054600181600116156101000203166002900490600052602060002090601f016020900481019282601f106134f957805160ff1916838001178555613526565b82800160010185558215613526579182015b8281111561352657825182559160200191906001019061350b565b506135329291506135c4565b5090565b6001830191839082156135b85791602002820160005b8382111561358957835183826101000a81548160ff021916908315150217905550926020019260010160208160000104928301926001030261354c565b80156135b65782816101000a81549060ff0219169055600101602081600001049283019260010302613589565b505b506135329291506135de565b610df391905b8082111561353257600081556001016135ca565b610df391905b8082111561353257805460ff191681556001016135e456fe506175736572526f6c653a2063616c6c657220646f6573206e6f742068617665207468652050617573657220726f6c65526f6c65733a206163636f756e7420646f6573206e6f74206861766520726f6c65536166654d6174683a206d756c7469706c69636174696f6e206f766572666c6f77526f6c65733a206163636f756e7420697320746865207a65726f2061646472657373436f6e747261637420696e7374616e63652068617320616c7265616479206265656e20696e697469616c697a656457686974656c69737441646d696e526f6c653a2063616c6c657220646f6573206e6f742068617665207468652057686974656c69737441646d696e20726f6c6557686974656c6973746564526f6c653a2063616c6c657220646f6573206e6f742068617665207468652057686974656c697374656420726f6c655361666545524332303a204552433230206f7065726174696f6e20646964206e6f742073756363656564a265627a7a723158208c448d2fa0d3afbc57464d5986ecdbef05c0cb1b6c9a4d17be50488b7a26062864736f6c634300050e0032526f6c65733a206163636f756e7420697320746865207a65726f2061646472657373",
  "source": "pragma solidity 0.5.14;\n\nimport \"../Dao.sol\";\n\n\ncontract DaoWithTimeMachine is Dao {\n    uint256 public currentTime;\n\n    function setCurrentTime(uint256 time) external {\n        currentTime = time;\n    }\n\n    function time() internal view returns (uint256) {\n        return currentTime == 0 ? now : currentTime;// solhint-disable-line not-rely-on-time\n    }\n}",
  "sourcePath": "/home/kostysh/dev/dao/packages/contracts/contracts/test/DaoWithTimeMachine.sol",
  "compiler": {
    "name": "solc",
    "version": "0.5.14+commit.01f1aaa4.Emscripten.clang"
  },
  "schemaVersion": "3.0.19",
  "updatedAt": "2019-12-27T02:08:57.285Z",
  "devdoc": {
    "methods": {
      "addProposal(string,uint8,uint256,address,uint256,bytes)": {
        "details": "Add new proposal     * Requirements: - sender address should be whitelisted - contract should not be in paused state - proposal type should allowed proposalType - destination address should not be a valid target address - sent ether value should be consistent with value parameter ",
        "params": {
          "data": "Signed transaction data",
          "destination": "Transaction target address",
          "details": "Proposal details",
          "duration": "Proposal voting duration in days",
          "proposalType": "Proposal type",
          "value": "Transaction value in ethers"
        }
      },
      "cancelProposal(uint256)": {
        "details": "Cancelling of the proposal     * Requirements: - proposal should exists - sender address should be a proposer address - proposal should not be in a passed state - proposal should not be in a processed state - proposal should not be cancelled - proposal has no votes",
        "params": {
          "proposalId": "Proposal Id"
        }
      },
      "getActiveProposalsIds()": {
        "details": "Get all active proposals Ids",
        "return": "uint256[] List of proposals Ids"
      },
      "getActiveProposalsIds(uint8)": {
        "details": "Get all active proposals Ids filtered by proposal type     * Requirements: - proposal type should be valid  ",
        "return": "uint256[] List of proposals Ids"
      },
      "getProposal(uint256)": {
        "details": "Get proposal by Id (index)     * Requirements: - proposal should exists  ",
        "params": {
          "proposalId": "Proposal Id"
        },
        "return": "string Proposal detailsProposalType Proposal typeuint256 Proposal duration in daysuint256 Proposal end datebool[3] Proposal status flagsaddress Transaction target addressuint256 Ether value to send with transactionbytes Transaction databool Transaction execution statusbool Transaction execution result status"
      },
      "getVote(uint256)": {
        "details": "Get own vote from proposal voting      * Requirements: - proposal should exists - vote should be exist ",
        "params": {
          "proposalId": "Proposal Id"
        },
        "return": "VoteType Type of the voteuint256 Original vote value sentuint256 Acceptes vote valuebool Reveked state of the vote"
      },
      "initialize(address)": {
        "details": "Contract initializer",
        "params": {
          "token": "Address of the service token"
        }
      },
      "isVotingPassed(uint256)": {
        "details": "Check is voting is passed      * Requirements: - proposal should exists",
        "params": {
          "proposalId": "Proposal Id"
        },
        "return": "uint256 Voting result"
      },
      "pause()": {
        "details": "Called by a pauser to pause, triggers stopped state."
      },
      "paused()": {
        "details": "Returns true if the contract is paused, and false otherwise."
      },
      "processProposal(uint256)": {
        "details": "Process proposal     * Requirements: - proposal should exists - contract not paused - sender address should be a proposer address - proposal should not be processed - proposal should not be cancelled - proposal is finished",
        "params": {
          "proposalId": "Proposal Id"
        }
      },
      "replacePauser(address)": {
        "details": "Replace pauser to the new one      * Requirements: - sender address should be a pauser address ",
        "params": {
          "account": "New DAO pauser address"
        }
      },
      "replaceWhitelistAdmin(address)": {
        "details": "Replace whitelist admin with new one      * Requirements: - sender address should be a whitelisted admin address ",
        "params": {
          "account": "New DAO whitelist admin address"
        }
      },
      "revokeVote(uint256)": {
        "details": "Revoke of the placed vote     * Requirements: - proposal should exists - proposal should not be in a passed state - proposal should not be cancelled - vote should not been already revoked",
        "params": {
          "proposalId": "Proposal Id"
        }
      },
      "tokensBalance()": {
        "details": "Withdraw released tokens",
        "return": "uint256 Balance of tokens that available to withdraw"
      },
      "unpause()": {
        "details": "Called by a pauser to unpause, returns to normal state."
      },
      "vote(uint256,uint8,uint256)": {
        "details": "Vote for the proposal     * Requirements: - proposal should exists - contract not paused - not a reentrant call - proposal should not be in a passed state - proposal should not be cancelled - sender tokens balance should be sufficient - tokens allowance for the DAO address should be sufficient - voting not expired (does not exceed voting time frame)",
        "params": {
          "proposalId": "Proposal Id",
          "voteType": "Type of the vote (Yes/No)",
          "votes": "Amount of service token to use in the vote"
        }
      },
      "votingResult(uint256)": {
        "details": "Get a result of the proposal voting     * Requirements: - proposal should exists",
        "params": {
          "proposalId": "Proposal Id"
        },
        "return": "uint256 'Yes' variant voting balanceuint256 'No' variant voting balance"
      },
      "withdrawTokens(uint256)": {
        "details": "Withdraw released tokens     * Requirements: - sender has positive released tokens balance - call not reentrant",
        "params": {
          "proposalId": "Proposal Id"
        }
      }
    }
  },
  "userdoc": {
    "methods": {}
  }
}