{
  "contractName": "DaoWithTimeMachine",
  "abi": [
    {
      "anonymous": false,
      "inputs": [
        {
          "indexed": false,
          "internalType": "address",
          "name": "account",
          "type": "address"
        }
      ],
      "name": "Paused",
      "type": "event"
    },
    {
      "anonymous": false,
      "inputs": [
        {
          "indexed": true,
          "internalType": "address",
          "name": "account",
          "type": "address"
        }
      ],
      "name": "PauserAdded",
      "type": "event"
    },
    {
      "anonymous": false,
      "inputs": [
        {
          "indexed": true,
          "internalType": "address",
          "name": "account",
          "type": "address"
        }
      ],
      "name": "PauserRemoved",
      "type": "event"
    },
    {
      "anonymous": false,
      "inputs": [
        {
          "indexed": false,
          "internalType": "address",
          "name": "proposer",
          "type": "address"
        },
        {
          "indexed": false,
          "internalType": "uint256",
          "name": "proposalId",
          "type": "uint256"
        }
      ],
      "name": "ProposalAdded",
      "type": "event"
    },
    {
      "anonymous": false,
      "inputs": [
        {
          "indexed": false,
          "internalType": "uint256",
          "name": "proposalId",
          "type": "uint256"
        }
      ],
      "name": "ProposalCancelled",
      "type": "event"
    },
    {
      "anonymous": false,
      "inputs": [
        {
          "indexed": false,
          "internalType": "uint256",
          "name": "proposalId",
          "type": "uint256"
        },
        {
          "indexed": false,
          "internalType": "bool",
          "name": "passed",
          "type": "bool"
        }
      ],
      "name": "ProposalProcessed",
      "type": "event"
    },
    {
      "anonymous": false,
      "inputs": [
        {
          "indexed": false,
          "internalType": "uint256",
          "name": "oldTime",
          "type": "uint256"
        },
        {
          "indexed": false,
          "internalType": "uint256",
          "name": "newTime",
          "type": "uint256"
        }
      ],
      "name": "TimeMachine",
      "type": "event"
    },
    {
      "anonymous": false,
      "inputs": [
        {
          "indexed": false,
          "internalType": "address",
          "name": "voter",
          "type": "address"
        },
        {
          "indexed": false,
          "internalType": "uint256",
          "name": "value",
          "type": "uint256"
        }
      ],
      "name": "TokensLocked",
      "type": "event"
    },
    {
      "anonymous": false,
      "inputs": [
        {
          "indexed": false,
          "internalType": "address",
          "name": "voter",
          "type": "address"
        },
        {
          "indexed": false,
          "internalType": "uint256",
          "name": "value",
          "type": "uint256"
        }
      ],
      "name": "TokensReleased",
      "type": "event"
    },
    {
      "anonymous": false,
      "inputs": [
        {
          "indexed": false,
          "internalType": "uint256",
          "name": "proposalId",
          "type": "uint256"
        }
      ],
      "name": "TransactionFailed",
      "type": "event"
    },
    {
      "anonymous": false,
      "inputs": [
        {
          "indexed": false,
          "internalType": "uint256",
          "name": "proposalId",
          "type": "uint256"
        }
      ],
      "name": "TransactionSuccessed",
      "type": "event"
    },
    {
      "anonymous": false,
      "inputs": [
        {
          "indexed": false,
          "internalType": "address",
          "name": "account",
          "type": "address"
        }
      ],
      "name": "Unpaused",
      "type": "event"
    },
    {
      "anonymous": false,
      "inputs": [
        {
          "indexed": false,
          "internalType": "uint256",
          "name": "proposalId",
          "type": "uint256"
        },
        {
          "indexed": false,
          "internalType": "enum Dao.VoteType",
          "name": "voteType",
          "type": "uint8"
        },
        {
          "indexed": false,
          "internalType": "address",
          "name": "voter",
          "type": "address"
        },
        {
          "indexed": false,
          "internalType": "uint256",
          "name": "votes",
          "type": "uint256"
        },
        {
          "indexed": false,
          "internalType": "uint256",
          "name": "votesAccepted",
          "type": "uint256"
        }
      ],
      "name": "VoteAdded",
      "type": "event"
    },
    {
      "anonymous": false,
      "inputs": [
        {
          "indexed": false,
          "internalType": "uint256",
          "name": "proposalId",
          "type": "uint256"
        },
        {
          "indexed": false,
          "internalType": "enum Dao.VoteType",
          "name": "voteType",
          "type": "uint8"
        },
        {
          "indexed": false,
          "internalType": "address",
          "name": "voter",
          "type": "address"
        },
        {
          "indexed": false,
          "internalType": "uint256",
          "name": "votes",
          "type": "uint256"
        }
      ],
      "name": "VoteRevoked",
      "type": "event"
    },
    {
      "anonymous": false,
      "inputs": [
        {
          "indexed": true,
          "internalType": "address",
          "name": "account",
          "type": "address"
        }
      ],
      "name": "WhitelistAdminAdded",
      "type": "event"
    },
    {
      "anonymous": false,
      "inputs": [
        {
          "indexed": true,
          "internalType": "address",
          "name": "account",
          "type": "address"
        }
      ],
      "name": "WhitelistAdminRemoved",
      "type": "event"
    },
    {
      "anonymous": false,
      "inputs": [
        {
          "indexed": true,
          "internalType": "address",
          "name": "account",
          "type": "address"
        }
      ],
      "name": "WhitelistedAdded",
      "type": "event"
    },
    {
      "anonymous": false,
      "inputs": [
        {
          "indexed": true,
          "internalType": "address",
          "name": "account",
          "type": "address"
        }
      ],
      "name": "WhitelistedRemoved",
      "type": "event"
    },
    {
      "constant": false,
      "inputs": [
        {
          "internalType": "address",
          "name": "account",
          "type": "address"
        }
      ],
      "name": "addPauser",
      "outputs": [],
      "payable": false,
      "stateMutability": "nonpayable",
      "type": "function"
    },
    {
      "constant": false,
      "inputs": [
        {
          "internalType": "string",
          "name": "details",
          "type": "string"
        },
        {
          "internalType": "enum Dao.ProposalType",
          "name": "proposalType",
          "type": "uint8"
        },
        {
          "internalType": "uint256",
          "name": "duration",
          "type": "uint256"
        },
        {
          "internalType": "address",
          "name": "destination",
          "type": "address"
        },
        {
          "internalType": "uint256",
          "name": "value",
          "type": "uint256"
        },
        {
          "internalType": "bytes",
          "name": "data",
          "type": "bytes"
        }
      ],
      "name": "addProposal",
      "outputs": [],
      "payable": true,
      "stateMutability": "payable",
      "type": "function"
    },
    {
      "constant": false,
      "inputs": [
        {
          "internalType": "address",
          "name": "account",
          "type": "address"
        }
      ],
      "name": "addWhitelistAdmin",
      "outputs": [],
      "payable": false,
      "stateMutability": "nonpayable",
      "type": "function"
    },
    {
      "constant": false,
      "inputs": [
        {
          "internalType": "address",
          "name": "account",
          "type": "address"
        }
      ],
      "name": "addWhitelisted",
      "outputs": [],
      "payable": false,
      "stateMutability": "nonpayable",
      "type": "function"
    },
    {
      "constant": false,
      "inputs": [
        {
          "internalType": "uint256",
          "name": "proposalId",
          "type": "uint256"
        }
      ],
      "name": "cancelProposal",
      "outputs": [],
      "payable": false,
      "stateMutability": "nonpayable",
      "type": "function"
    },
    {
      "constant": true,
      "inputs": [
        {
          "internalType": "enum Dao.ProposalType",
          "name": "proposalType",
          "type": "uint8"
        }
      ],
      "name": "getActiveProposalsIds",
      "outputs": [
        {
          "internalType": "uint256[]",
          "name": "",
          "type": "uint256[]"
        }
      ],
      "payable": false,
      "stateMutability": "view",
      "type": "function"
    },
    {
      "constant": true,
      "inputs": [],
      "name": "getActiveProposalsIds",
      "outputs": [
        {
          "internalType": "uint256[]",
          "name": "",
          "type": "uint256[]"
        }
      ],
      "payable": false,
      "stateMutability": "view",
      "type": "function"
    },
    {
      "constant": true,
      "inputs": [
        {
          "internalType": "uint256",
          "name": "proposalId",
          "type": "uint256"
        }
      ],
      "name": "getProposal",
      "outputs": [
        {
          "internalType": "string",
          "name": "details",
          "type": "string"
        },
        {
          "internalType": "enum Dao.ProposalType",
          "name": "proposalType",
          "type": "uint8"
        },
        {
          "internalType": "uint256",
          "name": "duration",
          "type": "uint256"
        },
        {
          "internalType": "uint256",
          "name": "end",
          "type": "uint256"
        },
        {
          "internalType": "bool[3]",
          "name": "flags",
          "type": "bool[3]"
        },
        {
          "internalType": "address",
          "name": "txDestination",
          "type": "address"
        },
        {
          "internalType": "uint256",
          "name": "txValue",
          "type": "uint256"
        },
        {
          "internalType": "bytes",
          "name": "txData",
          "type": "bytes"
        },
        {
          "internalType": "bool",
          "name": "txExecuted",
          "type": "bool"
        },
        {
          "internalType": "bool",
          "name": "txSuccess",
          "type": "bool"
        }
      ],
      "payable": false,
      "stateMutability": "view",
      "type": "function"
    },
    {
      "constant": true,
      "inputs": [
        {
          "internalType": "uint256",
          "name": "proposalId",
          "type": "uint256"
        }
      ],
      "name": "getVote",
      "outputs": [
        {
          "internalType": "enum Dao.VoteType",
          "name": "voteType",
          "type": "uint8"
        },
        {
          "internalType": "uint256",
          "name": "valueOriginal",
          "type": "uint256"
        },
        {
          "internalType": "uint256",
          "name": "valueAccepted",
          "type": "uint256"
        },
        {
          "internalType": "bool",
          "name": "revoked",
          "type": "bool"
        }
      ],
      "payable": false,
      "stateMutability": "view",
      "type": "function"
    },
    {
      "constant": false,
      "inputs": [
        {
          "internalType": "address",
          "name": "token",
          "type": "address"
        }
      ],
      "name": "initialize",
      "outputs": [],
      "payable": false,
      "stateMutability": "nonpayable",
      "type": "function"
    },
    {
      "constant": true,
      "inputs": [
        {
          "internalType": "address",
          "name": "account",
          "type": "address"
        }
      ],
      "name": "isPauser",
      "outputs": [
        {
          "internalType": "bool",
          "name": "",
          "type": "bool"
        }
      ],
      "payable": false,
      "stateMutability": "view",
      "type": "function"
    },
    {
      "constant": true,
      "inputs": [
        {
          "internalType": "uint256",
          "name": "proposalId",
          "type": "uint256"
        }
      ],
      "name": "isVotingPassed",
      "outputs": [
        {
          "internalType": "bool",
          "name": "",
          "type": "bool"
        }
      ],
      "payable": false,
      "stateMutability": "view",
      "type": "function"
    },
    {
      "constant": true,
      "inputs": [
        {
          "internalType": "address",
          "name": "account",
          "type": "address"
        }
      ],
      "name": "isWhitelistAdmin",
      "outputs": [
        {
          "internalType": "bool",
          "name": "",
          "type": "bool"
        }
      ],
      "payable": false,
      "stateMutability": "view",
      "type": "function"
    },
    {
      "constant": true,
      "inputs": [
        {
          "internalType": "address",
          "name": "account",
          "type": "address"
        }
      ],
      "name": "isWhitelisted",
      "outputs": [
        {
          "internalType": "bool",
          "name": "",
          "type": "bool"
        }
      ],
      "payable": false,
      "stateMutability": "view",
      "type": "function"
    },
    {
      "constant": false,
      "inputs": [],
      "name": "pause",
      "outputs": [],
      "payable": false,
      "stateMutability": "nonpayable",
      "type": "function"
    },
    {
      "constant": true,
      "inputs": [],
      "name": "paused",
      "outputs": [
        {
          "internalType": "bool",
          "name": "",
          "type": "bool"
        }
      ],
      "payable": false,
      "stateMutability": "view",
      "type": "function"
    },
    {
      "constant": false,
      "inputs": [
        {
          "internalType": "uint256",
          "name": "proposalId",
          "type": "uint256"
        }
      ],
      "name": "processProposal",
      "outputs": [],
      "payable": false,
      "stateMutability": "nonpayable",
      "type": "function"
    },
    {
      "constant": true,
      "inputs": [],
      "name": "proposalCount",
      "outputs": [
        {
          "internalType": "uint256",
          "name": "",
          "type": "uint256"
        }
      ],
      "payable": false,
      "stateMutability": "view",
      "type": "function"
    },
    {
      "constant": false,
      "inputs": [
        {
          "internalType": "address",
          "name": "account",
          "type": "address"
        }
      ],
      "name": "removeWhitelisted",
      "outputs": [],
      "payable": false,
      "stateMutability": "nonpayable",
      "type": "function"
    },
    {
      "constant": false,
      "inputs": [],
      "name": "renouncePauser",
      "outputs": [],
      "payable": false,
      "stateMutability": "nonpayable",
      "type": "function"
    },
    {
      "constant": false,
      "inputs": [],
      "name": "renounceWhitelistAdmin",
      "outputs": [],
      "payable": false,
      "stateMutability": "nonpayable",
      "type": "function"
    },
    {
      "constant": false,
      "inputs": [],
      "name": "renounceWhitelisted",
      "outputs": [],
      "payable": false,
      "stateMutability": "nonpayable",
      "type": "function"
    },
    {
      "constant": false,
      "inputs": [
        {
          "internalType": "address",
          "name": "account",
          "type": "address"
        }
      ],
      "name": "replacePauser",
      "outputs": [],
      "payable": false,
      "stateMutability": "nonpayable",
      "type": "function"
    },
    {
      "constant": false,
      "inputs": [
        {
          "internalType": "address",
          "name": "account",
          "type": "address"
        }
      ],
      "name": "replaceWhitelistAdmin",
      "outputs": [],
      "payable": false,
      "stateMutability": "nonpayable",
      "type": "function"
    },
    {
      "constant": false,
      "inputs": [
        {
          "internalType": "uint256",
          "name": "proposalId",
          "type": "uint256"
        }
      ],
      "name": "revokeVote",
      "outputs": [],
      "payable": false,
      "stateMutability": "nonpayable",
      "type": "function"
    },
    {
      "constant": true,
      "inputs": [],
      "name": "serviceToken",
      "outputs": [
        {
          "internalType": "contract IERC20",
          "name": "",
          "type": "address"
        }
      ],
      "payable": false,
      "stateMutability": "view",
      "type": "function"
    },
    {
      "constant": true,
      "inputs": [
        {
          "internalType": "uint256",
          "name": "proposalId",
          "type": "uint256"
        }
      ],
      "name": "tokensBalance",
      "outputs": [
        {
          "internalType": "uint256",
          "name": "",
          "type": "uint256"
        }
      ],
      "payable": false,
      "stateMutability": "view",
      "type": "function"
    },
    {
      "constant": false,
      "inputs": [],
      "name": "unpause",
      "outputs": [],
      "payable": false,
      "stateMutability": "nonpayable",
      "type": "function"
    },
    {
      "constant": false,
      "inputs": [
        {
          "internalType": "uint256",
          "name": "proposalId",
          "type": "uint256"
        },
        {
          "internalType": "enum Dao.VoteType",
          "name": "voteType",
          "type": "uint8"
        },
        {
          "internalType": "uint256",
          "name": "votes",
          "type": "uint256"
        }
      ],
      "name": "vote",
      "outputs": [],
      "payable": false,
      "stateMutability": "nonpayable",
      "type": "function"
    },
    {
      "constant": true,
      "inputs": [
        {
          "internalType": "uint256",
          "name": "proposalId",
          "type": "uint256"
        }
      ],
      "name": "votingResult",
      "outputs": [
        {
          "internalType": "uint256",
          "name": "yes",
          "type": "uint256"
        },
        {
          "internalType": "uint256",
          "name": "no",
          "type": "uint256"
        }
      ],
      "payable": false,
      "stateMutability": "view",
      "type": "function"
    },
    {
      "constant": false,
      "inputs": [
        {
          "internalType": "uint256",
          "name": "proposalId",
          "type": "uint256"
        }
      ],
      "name": "withdrawTokens",
      "outputs": [],
      "payable": false,
      "stateMutability": "nonpayable",
      "type": "function"
    },
    {
      "constant": true,
      "inputs": [],
      "name": "currentTime",
      "outputs": [
        {
          "internalType": "uint256",
          "name": "",
          "type": "uint256"
        }
      ],
      "payable": false,
      "stateMutability": "view",
      "type": "function"
    },
    {
      "constant": false,
      "inputs": [
        {
          "internalType": "uint256",
          "name": "time",
          "type": "uint256"
        }
      ],
      "name": "setCurrentTime",
      "outputs": [],
      "payable": false,
      "stateMutability": "nonpayable",
      "type": "function"
    }
  ],
  "bytecode": "0x60806040526200002a6200001b6001600160e01b036200006516565b6001600160e01b036200006916565b6034805460ff191690556200005a6200004b6001600160e01b036200006516565b6001600160e01b03620000bb16565b600160375562000203565b3390565b620000848160336200010d60201b620033711790919060201c565b6040516001600160a01b038216907f6719d08c1888103bea251a4ed56406bd0c3e69723c8a1686e017e7bbe159b6f890600090a250565b620000d68160356200010d60201b620033711790919060201c565b6040516001600160a01b038216907f22380c05984257a1cb900161c713dd71d39e74820f1aea43bd3f1bdd2096129990600090a250565b6200012282826001600160e01b036200019a16565b1562000175576040805162461bcd60e51b815260206004820152601f60248201527f526f6c65733a206163636f756e7420616c72656164792068617320726f6c6500604482015290519081900360640190fd5b6001600160a01b0316600090815260209190915260409020805460ff19166001179055565b60006001600160a01b038216620001e35760405162461bcd60e51b815260040180806020018281038252602281526020018062003c6e6022913960400191505060405180910390fd5b506001600160a01b03166000908152602091909152604090205460ff1690565b613a5b80620002136000396000f3fe6080604052600436106101ee5760003560e01c80637c2466ff1161010d578063c4d66de8116100a0578063da35c6641161006f578063da35c6641461092f578063e0a8f6f514610944578063e520251a1461096e578063e63bc62d146109a7578063f73a8b4a146109d1576101ee565b8063c4d66de814610745578063c7f758a814610778578063d18e81b314610905578063d6cd94731461091a576101ee565b80638456cb59116100dc5780638456cb591461069957806386583746146106ae578063b7692968146106e1578063bb5f747b14610712576101ee565b80637c2466ff146105315780637e9b8f8014610615578063827e8b471461062a57806382dc1ec414610666576101ee565b80634c5a628c1161018557806361d140511161015457806361d140511461047c5780636a96bab4146104bf5780636ef8d66d146104e95780637362d9c8146104fe576101ee565b80634c5a628c146103715780635a55c1f0146103865780635c975abb146103ea57806361301afa146103ff576101ee565b8063315a095d116101c1578063315a095d146102b85780633af32abf146102e25780633f4ba83a1461032957806346fbf68e1461033e576101ee565b806310154bad146101f357806319819ff51461022857806322f8e5661461025b578063291d954914610285575b600080fd5b3480156101ff57600080fd5b506102266004803603602081101561021657600080fd5b50356001600160a01b03166109fb565b005b34801561023457600080fd5b506102266004803603602081101561024b57600080fd5b50356001600160a01b0316610a52565b34801561026757600080fd5b506102266004803603602081101561027e57600080fd5b5035610aaa565b34801561029157600080fd5b50610226600480360360208110156102a857600080fd5b50356001600160a01b0316610aef565b3480156102c457600080fd5b50610226600480360360208110156102db57600080fd5b5035610b3e565b3480156102ee57600080fd5b506103156004803603602081101561030557600080fd5b50356001600160a01b0316610cfa565b604080519115158252519081900360200190f35b34801561033557600080fd5b50610226610d13565b34801561034a57600080fd5b506103156004803603602081101561036157600080fd5b50356001600160a01b0316610dfc565b34801561037d57600080fd5b50610226610e0f565b34801561039257600080fd5b506103b0600480360360208110156103a957600080fd5b5035610e21565b604051808560018111156103c057fe5b60ff1681526020810194909452506040808401929092521515606083015251908190036080019150f35b3480156103f657600080fd5b50610315610f29565b34801561040b57600080fd5b5061042c6004803603602081101561042257600080fd5b503560ff16610f33565b60408051602080825283518183015283519192839290830191858101910280838360005b83811015610468578181015183820152602001610450565b505050509050019250505060405180910390f35b34801561048857600080fd5b506104a66004803603602081101561049f57600080fd5b503561106f565b6040805192835260208301919091528051918290030190f35b3480156104cb57600080fd5b50610315600480360360208110156104e257600080fd5b50356111e4565b3480156104f557600080fd5b506102266112c9565b34801561050a57600080fd5b506102266004803603602081101561052157600080fd5b50356001600160a01b03166112d9565b610226600480360360c081101561054757600080fd5b81019060208101813564010000000081111561056257600080fd5b82018360208201111561057457600080fd5b8035906020019184600183028401116401000000008311171561059657600080fd5b9193909260ff833516926020810135926001600160a01b036040830135169260608301359260a0810190608001356401000000008111156105d657600080fd5b8201836020820111156105e857600080fd5b8035906020019184600183028401116401000000008311171561060a57600080fd5b509092509050611328565b34801561062157600080fd5b5061042c6116fa565b34801561063657600080fd5b506106546004803603602081101561064d57600080fd5b50356117f4565b60408051918252519081900360200190f35b34801561067257600080fd5b506102266004803603602081101561068957600080fd5b50356001600160a01b03166118fc565b3480156106a557600080fd5b5061022661194b565b3480156106ba57600080fd5b50610226600480360360208110156106d157600080fd5b50356001600160a01b0316611a12565b3480156106ed57600080fd5b506106f6611a6a565b604080516001600160a01b039092168252519081900360200190f35b34801561071e57600080fd5b506103156004803603602081101561073557600080fd5b50356001600160a01b0316611a79565b34801561075157600080fd5b506102266004803603602081101561076857600080fd5b50356001600160a01b0316611a8c565b34801561078457600080fd5b506107a26004803603602081101561079b57600080fd5b5035611b60565b60405180806020018b60018111156107b657fe5b60ff1681526020018a815260200189815260200188600360200280838360005b838110156107ee5781810151838201526020016107d6565b50505050905001876001600160a01b03166001600160a01b0316815260200186815260200180602001851515151581526020018415151515815260200183810383528d818151815260200191508051906020019080838360005b83811015610860578181015183820152602001610848565b50505050905090810190601f16801561088d5780820380516001836020036101000a031916815260200191505b50838103825286518152865160209182019188019080838360005b838110156108c05781810151838201526020016108a8565b50505050905090810190601f1680156108ed5780820380516001836020036101000a031916815260200191505b509c5050505050505050505050505060405180910390f35b34801561091157600080fd5b50610654611dbe565b34801561092657600080fd5b50610226611dcd565b34801561093b57600080fd5b50610654611ddd565b34801561095057600080fd5b506102266004803603602081101561096757600080fd5b5035611de3565b34801561097a57600080fd5b506102266004803603606081101561099157600080fd5b5080359060ff6020820135169060400135612079565b3480156109b357600080fd5b50610226600480360360208110156109ca57600080fd5b5035612715565b3480156109dd57600080fd5b50610226600480360360208110156109f457600080fd5b5035612b5e565b610a0b610a06612de3565b611a79565b610a465760405162461bcd60e51b81526004018080602001828103825260408152602001806139836040913960400191505060405180910390fd5b610a4f81612de7565b50565b610a5d610a06612de3565b610a985760405162461bcd60e51b81526004018080602001828103825260408152602001806139836040913960400191505060405180910390fd5b610aa181612e2f565b610a4f33612e77565b7f78028a947179f914444d55668a3a9d9966e05446e9e1e1a73624064a365153ee610ad3611dbe565b60408051918252602082018490528051918290030190a1603c55565b610afa610a06612de3565b610b355760405162461bcd60e51b81526004018080602001828103825260408152602001806139836040913960400191505060405180910390fd5b610a4f81612ebf565b60378054600101908190556000828152603a60205260409020600701548290610b9c576040805162461bcd60e51b81526020600482015260126024820152600080516020613881833981519152604482015290519081900360640190fd5b6000838152603a60205260409020600801548390610bb8612f07565b1015610c03576040805162461bcd60e51b8152602060048201526015602482015274141493d413d4d05317d393d517d192539254d21151605a1b604482015290519081900360640190fd5b6000610c0e856117f4565b905060008111610c65576040805162461bcd60e51b815260206004820152601b60248201527f494e53554646494349454e545f544f4b454e535f42414c414e43450000000000604482015290519081900360640190fd5b6000858152603b6020908152604080832033808552818452828520548552600290910190925290912060018101549091610c9e91612f20565b600301805461ff001916610100179055505060375482149050610cf6576040805162461bcd60e51b815260206004820152601f60248201526000805160206138a1833981519152604482015290519081900360640190fd5b5050565b6000610d0d60368363ffffffff612f8516565b92915050565b610d23610d1e612de3565b610dfc565b610d5e5760405162461bcd60e51b81526004018080602001828103825260308152602001806138c16030913960400191505060405180910390fd5b60345460ff16610dac576040805162461bcd60e51b815260206004820152601460248201527314185d5cd8589b194e881b9bdd081c185d5cd95960621b604482015290519081900360640190fd5b6034805460ff191690557f5db9ee0a495bf2e6ff9c91a7834c1ba4fdd244a5e8aa4e537bd38aeae4b073aa610ddf612de3565b604080516001600160a01b039092168252519081900360200190a1565b6000610d0d60338363ffffffff612f8516565b610e1f610e1a612de3565b612e77565b565b6000818152603a60205260408120600701548190819081908590610e7a576040805162461bcd60e51b81526020600482015260126024820152600080516020613881833981519152604482015290519081900360640190fd5b6000868152603b60209081526040808320338452600101909152902054869060ff16610ede576040805162461bcd60e51b815260206004820152600e60248201526d1593d51157d393d517d193d5539160921b604482015290519081900360640190fd5b50505060009384525050603b602090815260408084203385528083528185205485526002908101909252909220805460018201549382015460039092015460ff918216959293501690565b60345460ff165b90565b6060610f3e82612fec565b506060610f4a83612ffa565b604051908082528060200260200182016040528015610f73578160200160208202803883390190505b5090506000805b603954811015611066576000818152603a602052604090206009015460ff16158015610fbd57506000818152603a6020526040902060090154610100900460ff16155b8015610fe157506000818152603a602052604090206009015462010000900460ff16155b801561100457506000818152603a6020526040902060080154611002612f07565b105b8015611039575084600181111561101757fe5b6000828152603a602052604090206002015460ff16600181111561103757fe5b145b1561105e578083838151811061104b57fe5b6020026020010181815250506001820191505b600101610f7a565b50909392505050565b6000818152603a6020526040812060070154819083906110c4576040805162461bcd60e51b81526020600482015260126024820152600080516020613881833981519152604482015290519081900360640190fd5b60005b6000858152603b60205260409020600301548110156111dd576000858152603b6020908152604080832084845260020190915290206003015460ff166111d5576000858152603b6020908152604080832084845260020190915281205460ff16600181111561113257fe5b141561116d576000858152603b602090815260408083208484526002908101909252909120015461116a90859063ffffffff6130e616565b93505b60016000868152603b6020908152604080832085845260020190915290205460ff16600181111561119a57fe5b14156111d5576000858152603b60209081526040808320848452600290810190925290912001546111d290849063ffffffff6130e616565b92505b6001016110c7565b5050915091565b6000818152603a60205260408120600701548290611237576040805162461bcd60e51b81526020600482015260126024820152600080516020613881833981519152604482015290519081900360640190fd5b6000838152603a602052604090206009015460ff161561125a57600191506112c3565b6000838152603a602052604090206009015462010000900460ff161561128357600091506112c3565b6000838152603a602052604090206008015461129d612f07565b10156112ac57600091506112c3565b6000806112b88561106f565b1093506112c3915050565b50919050565b610e1f6112d4612de3565b613140565b6112e4610a06612de3565b61131f5760405162461bcd60e51b81526004018080602001828103825260408152602001806139836040913960400191505060405180910390fd5b610a4f81612e2f565b611338611333612de3565b610cfa565b6113735760405162461bcd60e51b815260040180806020018281038252603a8152602001806139c3603a913960400191505060405180910390fd5b60345460ff16156113be576040805162461bcd60e51b815260206004820152601060248201526f14185d5cd8589b194e881c185d5cd95960821b604482015290519081900360640190fd5b6113c786612fec565b506001600160a01b038416611419576040805162461bcd60e51b815260206004820152601360248201527224a72b20a624a22fa222a9aa24a720aa24a7a760691b604482015290519081900360640190fd5b82158061143157506000831180156114315750823410155b611482576040805162461bcd60e51b815260206004820152601860248201527f494e53554646494349454e545f45544845525f56414c55450000000000000000604482015290519081900360640190fd5b60395460408051338152602081019290925280517f294a8b64183582a911805b3a31b11b3c4d20c7431578897c6abcc35aae886d5e9281900390910190a16114c861371e565b6040518060e00160405280336001600160a01b031681526020018a8a8080601f01602080910402602001604051908101604052809392919081815260200183838082843760009201919091525050509082525060200188600181111561152a57fe5b81526020016040518060a00160405280886001600160a01b0316815260200187815260200186868080601f01602080910402602001604051908101604052809392919081815260200183838082843760009201829052509385525050506020808301829052604092830191909152918352908201899052016115cc6115b8896201518063ffffffff61318816565b6115c0612f07565b9063ffffffff6130e616565b815260209081018390526039546000908152603a825260409020825181546001600160a01b0319166001600160a01b03909116178155828201518051919261161c9260018501929091019061373c565b50604082015160028201805460ff19166001838181111561163957fe5b0217905550606082015180516003830180546001600160a01b0319166001600160a01b03909216919091178155602080830151600485015560408301518051611688926005870192019061373c565b5060608201516003918201805460809485015115156101000261ff001993151560ff19909216919091179290921691909117905590830151600783015560a0830151600883015560c08301516116e3916009840191906137ba565b505060398054600101905550505050505050505050565b6060806117056131e1565b60405190808252806020026020018201604052801561172e578160200160208202803883390190505b5090506000805b6039548110156117ec576000818152603a602052604090206009015460ff1615801561177857506000818152603a6020526040902060090154610100900460ff16155b801561179c57506000818152603a602052604090206009015462010000900460ff16155b80156117bf57506000818152603a60205260409020600801546117bd612f07565b105b156117e457808383815181106117d157fe5b6020026020010181815250506001820191505b600101611735565b509091505090565b6000818152603a60205260408120600701548290611847576040805162461bcd60e51b81526020600482015260126024820152600080516020613881833981519152604482015290519081900360640190fd5b6000838152603a602052604081206009015462010000900460ff1615801561188b57506000848152603b6020908152604080832033845260010190915290205460ff165b80156118c557506000848152603b60209081526040808320338452808352818420548452600201909152902060030154610100900460ff16155b156118f557506000838152603b602090815260408083203384528083528184205484526002019091529020600101545b9392505050565b611907610d1e612de3565b6119425760405162461bcd60e51b81526004018080602001828103825260308152602001806138c16030913960400191505060405180910390fd5b610a4f81613297565b611956610d1e612de3565b6119915760405162461bcd60e51b81526004018080602001828103825260308152602001806138c16030913960400191505060405180910390fd5b60345460ff16156119dc576040805162461bcd60e51b815260206004820152601060248201526f14185d5cd8589b194e881c185d5cd95960821b604482015290519081900360640190fd5b6034805460ff191660011790557f62e78cea01bee320cd4e420270b5ea74000d11b0c9f74754ebdbfc544b05a258610ddf612de3565b611a1d610d1e612de3565b611a585760405162461bcd60e51b81526004018080602001828103825260308152602001806138c16030913960400191505060405180910390fd5b611a6181613297565b610a4f33613140565b6038546001600160a01b031681565b6000610d0d60358363ffffffff612f8516565b600054610100900460ff1680611aa55750611aa56132df565b80611ab3575060005460ff16155b611aee5760405162461bcd60e51b815260040180806020018281038252602e815260200180613955602e913960400191505060405180910390fd5b600054610100900460ff16158015611b19576000805460ff1961ff0019909116610100171660011790555b603880546001600160a01b0319166001600160a01b0384161790556000603955611b4233613297565b611b4b33612e2f565b8015610cf6576000805461ff00191690555050565b60606000806000611b6f61371e565b6000868152603a60205260408120600701548190606090829081908b90611bcb576040805162461bcd60e51b81526020600482015260126024820152600080516020613881833981519152604482015290519081900360640190fd5b60008c8152603a6020908152604091829020600180820180548551600293821615610100026000190190911692909204601f810185900485028301850190955284825291939092830182828015611c635780601f10611c3857610100808354040283529160200191611c63565b820191906000526020600020905b815481529060010190602001808311611c4657829003601f168201915b50505050509b508060020160009054906101000a900460ff169a50806007015499508060080154985080600901600380602002604051908101604052809291908260038015611ce7576020028201916000905b825461010083900a900460ff161515815260206001928301818104948501949093039092029101808411611cb65790505b505050506003830154600484015460058501805460408051602060026101006001861615026000190190941693909304601f8101849004840282018401909252818152969e506001600160a01b039094169c50919a509250830182828015611d905780601f10611d6557610100808354040283529160200191611d90565b820191906000526020600020905b815481529060010190602001808311611d7357829003601f168201915b5050506006909301549d9f9c9e509a9c999b989a509698959760ff8088169761010090041695509350505050565b6000611dc8612f07565b905090565b610e1f611dd8612de3565b612ebf565b60395481565b6000818152603a60205260409020600701548190611e36576040805162461bcd60e51b81526020600482015260126024820152600080516020613881833981519152604482015290519081900360640190fd5b6000828152603a602052604090205482906001600160a01b03163314611e94576040805162461bcd60e51b815260206004820152600e60248201526d2727aa2fa0afa82927a827a9a2a960911b604482015290519081900360640190fd5b6000838152603a6020526040902060090154839060ff1615611eef576040805162461bcd60e51b815260206004820152600f60248201526e141493d413d4d05317d41054d4d151608a1b604482015290519081900360640190fd5b6000848152603a60205260409020600901548490610100900460ff1615611f52576040805162461bcd60e51b8152602060048201526012602482015271141493d413d4d05317d41493d0d154d4d15160721b604482015290519081900360640190fd5b6000858152603a6020526040902060090154859062010000900460ff1615611fb6576040805162461bcd60e51b8152602060048201526012602482015271141493d413d4d05317d0d05390d15313115160721b604482015290519081900360640190fd5b600080611fc28861106f565b91509150816000148015611fd4575080155b61201a576040805162461bcd60e51b815260206004820152601260248201527150524f504f53414c5f4841535f564f54455360701b604482015290519081900360640190fd5b6000888152603a6020908152604091829020600901805462ff000019166201000017905581518a815291517f416e669c63d9a3a5e36ee7cc7e2104b8db28ccd286aa18966e98fa230c73b08c9281900390910190a15050505050505050565b60345460ff16156120c4576040805162461bcd60e51b815260206004820152601060248201526f14185d5cd8589b194e881c185d5cd95960821b604482015290519081900360640190fd5b60378054600101908190556000848152603a60205260409020600701548490612122576040805162461bcd60e51b81526020600482015260126024820152600080516020613881833981519152604482015290519081900360640190fd5b6000858152603a6020526040902060090154859060ff161561217d576040805162461bcd60e51b815260206004820152600f60248201526e141493d413d4d05317d41054d4d151608a1b604482015290519081900360640190fd5b6000868152603a6020526040902060090154869062010000900460ff16156121e1576040805162461bcd60e51b8152602060048201526012602482015271141493d413d4d05317d0d05390d15313115160721b604482015290519081900360640190fd5b6000878152603a602052604090206008015487906121fd612f07565b10612243576040805162461bcd60e51b8152602060048201526011602482015270141493d413d4d05317d192539254d21151607a1b604482015290519081900360640190fd5b603854604080516370a0823160e01b8152336004820152905188926001600160a01b0316916370a08231916024808301926020929190829003018186803b15801561228d57600080fd5b505afa1580156122a1573d6000803e3d6000fd5b505050506040513d60208110156122b757600080fd5b5051101561230c576040805162461bcd60e51b815260206004820152601b60248201527f494e53554646494349454e545f544f4b454e535f42414c414e43450000000000604482015290519081900360640190fd5b60385460408051636eb1769f60e11b8152336004820152306024820152905188926001600160a01b03169163dd62ed3e916044808301926020929190829003018186803b15801561235c57600080fd5b505afa158015612370573d6000803e3d6000fd5b505050506040513d602081101561238657600080fd5b505110156123db576040805162461bcd60e51b815260206004820152601d60248201527f494e53554646494349454e545f544f4b454e535f414c4c4f57414e4345000000604482015290519081900360640190fd5b6123e533876132e5565b6000888152603b6020908152604080832033845260010190915281205460ff16612539576000898152603b6020908152604080832033845260018082018452828520805460ff19169091179055600381015492529091208190556124488861334b565b91506040518060a001604052808a600181111561246157fe5b815260208082018b9052604080830186905260006060840181905260809093018390528d8352603b8252808320858452600201909152902081518154829060ff1916600183818111156124b057fe5b0217905550602082810151600180840191909155604080850151600285015560608501516003948501805460809097015115156101000261ff001992151560ff1990981697909717919091169590951790945560008e8152603b90925292902001546125219163ffffffff6130e616565b60008b8152603b602052604090206003015550612659565b6000898152603b602090815260408083203384528083528184205484526002019091529020600381015460ff16156125885760038101805461ffff191690556125818861334b565b915061262f565b600181015461259d908963ffffffff6130e616565b97506125a88861334b565b91507f940ff8122c3cdbdc4a4aa871d42fdf13e863866d63ab2ea9fc0af542894daff48a8260000160009054906101000a900460ff16338460010154604051808581526020018460018111156125fa57fe5b60ff168152602001836001600160a01b03166001600160a01b0316815260200182815260200194505050505060405180910390a15b80548990829060ff19166001838181111561264657fe5b0217905550600181018890556002018190555b7f615fd00d334fb9ec9d221e8191b07961008426504d05e916a5e961a64d3a21b18989338a856040518086815260200185600181111561269557fe5b60ff1681526001600160a01b039094166020850152506040808401929092526060830152519081900360800192509050a15050505050603754811461270f576040805162461bcd60e51b815260206004820152601f60248201526000805160206138a1833981519152604482015290519081900360640190fd5b50505050565b60345460ff1615612760576040805162461bcd60e51b815260206004820152601060248201526f14185d5cd8589b194e881c185d5cd95960821b604482015290519081900360640190fd5b60378054600101908190556000828152603a602052604090206007015482906127be576040805162461bcd60e51b81526020600482015260126024820152600080516020613881833981519152604482015290519081900360640190fd5b6000838152603a602052604090205483906001600160a01b0316331461281c576040805162461bcd60e51b815260206004820152600e60248201526d2727aa2fa0afa82927a827a9a2a960911b604482015290519081900360640190fd5b6000848152603a60205260409020600901548490610100900460ff161561287f576040805162461bcd60e51b8152602060048201526012602482015271141493d413d4d05317d41493d0d154d4d15160721b604482015290519081900360640190fd5b6000858152603a6020526040902060090154859062010000900460ff16156128e3576040805162461bcd60e51b8152602060048201526012602482015271141493d413d4d05317d0d05390d15313115160721b604482015290519081900360640190fd5b6000868152603a602052604090206008015486906128ff612f07565b101561294a576040805162461bcd60e51b8152602060048201526015602482015274141493d413d4d05317d393d517d192539254d21151605a1b604482015290519081900360640190fd5b6000878152603a6020526040812060098101805461ff00191661010017905590612973896111e4565b604080518b8152821515602082015281519293507fcc8b74c10cae169918eab7cf3272b0a540854b8a4d12281590885d07fed34f6e929081900390910190a18015612b135760098201805460ff1916600190811790915560038301546004840154600585018054604080516020600260001998851615610100029890980190931696909604601f8101839004830287018301909152808652600095612a7d956001600160a01b031694939092909190830182828015612a735780601f10612a4857610100808354040283529160200191612a73565b820191906000526020600020905b815481529060010190602001808311612a5657829003601f168201915b5050505050613356565b60068401805460ff1916600117905590508015612add5760068301805461ff001916610100179055604080518b815290517ff25d1eb843be2601e5db773f59cb25699ae9d3df1b9254508313091fce8933659181900360200190a1612b11565b604080518b815290517fe23a6a9556cd21c6bb855e17fd21d654c8e203ac086373ee44eddea75167a19d9181900360200190a15b505b505050505050506037548114610cf6576040805162461bcd60e51b815260206004820152601f60248201526000805160206138a1833981519152604482015290519081900360640190fd5b60378054600101908190556000828152603a60205260409020600701548290612bbc576040805162461bcd60e51b81526020600482015260126024820152600080516020613881833981519152604482015290519081900360640190fd5b6000838152603a6020526040902060090154839060ff1615612c17576040805162461bcd60e51b815260206004820152600f60248201526e141493d413d4d05317d41054d4d151608a1b604482015290519081900360640190fd5b6000848152603a6020526040902060090154849062010000900460ff1615612c7b576040805162461bcd60e51b8152602060048201526012602482015271141493d413d4d05317d0d05390d15313115160721b604482015290519081900360640190fd5b6000858152603b602090815260408083203384528083528184205484526002019091529020600381015460ff1615612ce9576040805162461bcd60e51b815260206004820152600c60248201526b1593d51157d4915593d2d15160a21b604482015290519081900360640190fd5b60038101805460ff19166001908117909155810154612d09903390612f20565b60038101805461ff00191661010017905580546001828101546040518981527f940ff8122c3cdbdc4a4aa871d42fdf13e863866d63ab2ea9fc0af542894daff4938a9360ff91909116923392909160208201908590811115612d6757fe5b60ff168152602001836001600160a01b03166001600160a01b0316815260200182815260200194505050505060405180910390a1505050506037548114610cf6576040805162461bcd60e51b815260206004820152601f60248201526000805160206138a1833981519152604482015290519081900360640190fd5b3390565b612df860368263ffffffff61337116565b6040516001600160a01b038216907fee1504a83b6d4a361f4c1dc78ab59bfa30d6a3b6612c403e86bb01ef2984295f90600090a250565b612e4060358263ffffffff61337116565b6040516001600160a01b038216907f22380c05984257a1cb900161c713dd71d39e74820f1aea43bd3f1bdd2096129990600090a250565b612e8860358263ffffffff6133f216565b6040516001600160a01b038216907f0a8eb35e5ca14b3d6f28e4abf2f128dbab231a58b56e89beb5d636115001e16590600090a250565b612ed060368263ffffffff6133f216565b6040516001600160a01b038216907f270d9b30cf5b0793bbfd54c9d5b94aeb49462b8148399000265144a8722da6b690600090a250565b6000603c54600014612f1b57603c54611dc8565b504290565b603854612f3d906001600160a01b0316838363ffffffff61345916565b604080516001600160a01b03841681526020810183905281517fc7798891864187665ac6dd119286e44ec13f014527aeeb2b8eb3fd413df93179929181900390910190a15050565b60006001600160a01b038216612fcc5760405162461bcd60e51b81526004018080602001828103825260228152602001806139336022913960400191505060405180910390fd5b506001600160a01b03166000908152602091909152604090205460ff1690565b6000816001811115610d0d57fe5b600080805b6039548110156130df576000818152603a602052604090206009015460ff1615801561304257506000818152603a6020526040902060090154610100900460ff16155b801561306657506000818152603a602052604090206009015462010000900460ff16155b801561308957506000818152603a6020526040902060080154613087612f07565b105b80156130be575083600181111561309c57fe5b6000828152603a602052604090206002015460ff1660018111156130bc57fe5b145b156130d7576130d482600163ffffffff6130e616565b91505b600101612fff565b5092915050565b6000828201838110156118f5576040805162461bcd60e51b815260206004820152601b60248201527f536166654d6174683a206164646974696f6e206f766572666c6f770000000000604482015290519081900360640190fd5b61315160338263ffffffff6133f216565b6040516001600160a01b038216907fcd265ebaf09df2871cc7bd4133404a235ba12eff2041bb89d9c714a2621c7c7e90600090a250565b60008261319757506000610d0d565b828202828482816131a457fe5b04146118f55760405162461bcd60e51b81526004018080602001828103825260218152602001806139126021913960400191505060405180910390fd5b600080805b603954811015613291576000818152603a602052604090206009015460ff1615801561322957506000818152603a6020526040902060090154610100900460ff16155b801561324d57506000818152603a602052604090206009015462010000900460ff16155b801561327057506000818152603a602052604090206008015461326e612f07565b105b156132895761328682600163ffffffff6130e616565b91505b6001016131e6565b50905090565b6132a860338263ffffffff61337116565b6040516001600160a01b038216907f6719d08c1888103bea251a4ed56406bd0c3e69723c8a1686e017e7bbe159b6f890600090a250565b303b1590565b603854613303906001600160a01b031683308463ffffffff6134b016565b604080516001600160a01b03841681526020810183905281517fac87f20a77d28ee8bbb58ec87ea8fa968b3393efae1a368fd50b767c2847391c929181900390910190a15050565b6000610d0d8261350a565b600080600083516020850186886187965a03f1949350505050565b61337b8282612f85565b156133cd576040805162461bcd60e51b815260206004820152601f60248201527f526f6c65733a206163636f756e7420616c72656164792068617320726f6c6500604482015290519081900360640190fd5b6001600160a01b0316600090815260209190915260409020805460ff19166001179055565b6133fc8282612f85565b6134375760405162461bcd60e51b81526004018080602001828103825260218152602001806138f16021913960400191505060405180910390fd5b6001600160a01b0316600090815260209190915260409020805460ff19169055565b604080516001600160a01b038416602482015260448082018490528251808303909101815260649091019091526020810180516001600160e01b031663a9059cbb60e01b1790526134ab90849061352a565b505050565b604080516001600160a01b0385811660248301528416604482015260648082018490528251808303909101815260849091019091526020810180516001600160e01b03166323b872dd60e01b17905261270f90859061352a565b80600260018201045b818110156112c35790506002818304820104613513565b61353c826001600160a01b03166136e2565b61358d576040805162461bcd60e51b815260206004820152601f60248201527f5361666545524332303a2063616c6c20746f206e6f6e2d636f6e747261637400604482015290519081900360640190fd5b60006060836001600160a01b0316836040518082805190602001908083835b602083106135cb5780518252601f1990920191602091820191016135ac565b6001836020036101000a0380198251168184511680821785525050505050509050019150506000604051808303816000865af19150503d806000811461362d576040519150601f19603f3d011682016040523d82523d6000602084013e613632565b606091505b509150915081613689576040805162461bcd60e51b815260206004820181905260248201527f5361666545524332303a206c6f772d6c6576656c2063616c6c206661696c6564604482015290519081900360640190fd5b80511561270f578080602001905160208110156136a557600080fd5b505161270f5760405162461bcd60e51b815260040180806020018281038252602a8152602001806139fd602a913960400191505060405180910390fd5b6000813f7fc5d2460186f7233c927e7db2dcc703c0e500b653ca82273b7bfad8045d85a47081158015906137165750808214155b949350505050565b60405180606001604052806003906020820280388339509192915050565b828054600181600116156101000203166002900490600052602060002090601f016020900481019282601f1061377d57805160ff19168380011785556137aa565b828001600101855582156137aa579182015b828111156137aa57825182559160200191906001019061378f565b506137b6929150613848565b5090565b60018301918390821561383c5791602002820160005b8382111561380d57835183826101000a81548160ff02191690831515021790555092602001926001016020816000010492830192600103026137d0565b801561383a5782816101000a81549060ff021916905560010160208160000104928301926001030261380d565b505b506137b6929150613862565b610f3091905b808211156137b6576000815560010161384e565b610f3091905b808211156137b657805460ff1916815560010161386856fe50524f504f53414c5f4e4f545f464f554e4400000000000000000000000000005265656e7472616e637947756172643a207265656e7472616e742063616c6c00506175736572526f6c653a2063616c6c657220646f6573206e6f742068617665207468652050617573657220726f6c65526f6c65733a206163636f756e7420646f6573206e6f74206861766520726f6c65536166654d6174683a206d756c7469706c69636174696f6e206f766572666c6f77526f6c65733a206163636f756e7420697320746865207a65726f2061646472657373436f6e747261637420696e7374616e63652068617320616c7265616479206265656e20696e697469616c697a656457686974656c69737441646d696e526f6c653a2063616c6c657220646f6573206e6f742068617665207468652057686974656c69737441646d696e20726f6c6557686974656c6973746564526f6c653a2063616c6c657220646f6573206e6f742068617665207468652057686974656c697374656420726f6c655361666545524332303a204552433230206f7065726174696f6e20646964206e6f742073756363656564a265627a7a72315820fa1252f6161683a1b77a361a83a13fc214671bfae7db7e521599db53830406fe64736f6c634300050e0032526f6c65733a206163636f756e7420697320746865207a65726f2061646472657373",
  "source": "pragma solidity 0.5.14;\n\nimport \"../Dao.sol\";\n\n\n/**\n * @dev Time machine features for the Dao\n * @author Kostiantyn Smyrnov <kostysh@gmail.com>\n */\ncontract DaoWithTimeMachine is Dao {\n    uint256 internal _currentTime;\n\n    /**\n     * @dev This event will be emitted when contraact time changing\n     * @param oldTime Time before the rewind\n     * @param newTime New contract time\n     */\n    event TimeMachine(\n        uint256 oldTime,\n        uint256 newTime\n    );\n\n    /**\n     * @dev Get current contract time\n     * @return uint256\n     */\n    function currentTime() public view returns (uint256) {\n        return time();\n    }\n\n    /**\n     * @dev Set new contract time\n     * @param time New time value\n     */\n    function setCurrentTime(uint256 time) external {\n        emit TimeMachine(currentTime(), time);\n        _currentTime = time;\n    }\n\n    /**\n     * @dev Return current time\n     * @dev uint256\n     */\n    function time() internal view returns (uint256) {\n        return _currentTime == 0 ? now : _currentTime;// solhint-disable-line not-rely-on-time\n    }\n}",
  "sourcePath": "/home/kostysh/dev/dao/packages/contracts/contracts/test/DaoWithTimeMachine.sol",
  "compiler": {
    "name": "solc",
    "version": "0.5.14+commit.01f1aaa4.Emscripten.clang"
  },
  "schemaVersion": "3.0.19",
  "updatedAt": "2019-12-27T17:52:49.678Z",
  "devdoc": {
    "author": "Kostiantyn Smyrnov <kostysh@gmail.com>",
    "details": "Time machine features for the Dao",
    "methods": {
      "addProposal(string,uint8,uint256,address,uint256,bytes)": {
        "details": "Add new proposal     * Requirements: - sender address should be whitelisted - contract should not be in paused state - proposal type should allowed proposalType - destination address should not be a valid target address - sent ether value should be consistent with value parameter ",
        "params": {
          "data": "Signed transaction data",
          "destination": "Transaction target address",
          "details": "Proposal details",
          "duration": "Proposal voting duration in days",
          "proposalType": "Proposal type",
          "value": "Transaction value in ethers"
        }
      },
      "cancelProposal(uint256)": {
        "details": "Cancelling of the proposal     * Requirements: - proposal should exists - sender address should be a proposer address - proposal should not be in a passed state - proposal should not be in a processed state - proposal should not be cancelled - proposal has no votes",
        "params": {
          "proposalId": "Proposal Id"
        }
      },
      "currentTime()": {
        "details": "Get current contract time",
        "return": "uint256"
      },
      "getActiveProposalsIds()": {
        "details": "Get all active proposals Ids",
        "return": "uint256[] List of proposals Ids"
      },
      "getActiveProposalsIds(uint8)": {
        "details": "Get all active proposals Ids filtered by proposal type     * Requirements: - proposal type should be valid  ",
        "return": "uint256[] List of proposals Ids"
      },
      "getProposal(uint256)": {
        "details": "Get proposal by Id (index)     * Requirements: - proposal should exists  ",
        "params": {
          "proposalId": "Proposal Id"
        },
        "return": "string Proposal detailsProposalType Proposal typeuint256 Proposal duration in daysuint256 Proposal end datebool[3] Proposal status flagsaddress Transaction target addressuint256 Ether value to send with transactionbytes Transaction databool Transaction execution statusbool Transaction execution result status"
      },
      "getVote(uint256)": {
        "details": "Get own vote from proposal voting      * Requirements: - proposal should exists - vote should be exist ",
        "params": {
          "proposalId": "Proposal Id"
        },
        "return": "VoteType Type of the voteuint256 Original vote value sentuint256 Acceptes vote valuebool Reveked state of the vote"
      },
      "initialize(address)": {
        "details": "Contract initializer",
        "params": {
          "token": "Address of the service token"
        }
      },
      "isVotingPassed(uint256)": {
        "details": "Check is voting is passed      * Requirements: - proposal should exists",
        "params": {
          "proposalId": "Proposal Id"
        },
        "return": "uint256 Voting result"
      },
      "pause()": {
        "details": "Called by a pauser to pause, triggers stopped state."
      },
      "paused()": {
        "details": "Returns true if the contract is paused, and false otherwise."
      },
      "processProposal(uint256)": {
        "details": "Process proposal     * Requirements: - proposal should exists - contract not paused - sender address should be a proposer address - proposal should not be processed - proposal should not be cancelled - proposal is finished",
        "params": {
          "proposalId": "Proposal Id"
        }
      },
      "replacePauser(address)": {
        "details": "Replace pauser to the new one      * Requirements: - sender address should be a pauser address ",
        "params": {
          "account": "New DAO pauser address"
        }
      },
      "replaceWhitelistAdmin(address)": {
        "details": "Replace whitelist admin with new one      * Requirements: - sender address should be a whitelisted admin address ",
        "params": {
          "account": "New DAO whitelist admin address"
        }
      },
      "revokeVote(uint256)": {
        "details": "Revoke of the placed vote     * Requirements: - should not be a reentrant call - proposal should exists - proposal should not be in a passed state - proposal should not be cancelled - vote should not been already revoked",
        "params": {
          "proposalId": "Proposal Id"
        }
      },
      "setCurrentTime(uint256)": {
        "details": "Set new contract time",
        "params": {
          "time": "New time value"
        }
      },
      "tokensBalance(uint256)": {
        "details": "Balance of locked tokens",
        "params": {
          "proposalId": "Proposal Id"
        },
        "return": "uint256 Balance of tokens that available to withdraw"
      },
      "unpause()": {
        "details": "Called by a pauser to unpause, returns to normal state."
      },
      "vote(uint256,uint8,uint256)": {
        "details": "Vote for the proposal     * Requirements: - proposal should exists - contract not paused - not a reentrant call - proposal should not be in a passed state - proposal should not be cancelled - sender tokens balance should be sufficient - tokens allowance for the DAO address should be sufficient - voting not expired (does not exceed voting time frame)",
        "params": {
          "proposalId": "Proposal Id",
          "voteType": "Type of the vote (Yes/No)",
          "votes": "Amount of service token to use in the vote"
        }
      },
      "votingResult(uint256)": {
        "details": "Get a result of the proposal voting     * Requirements: - proposal should exists",
        "params": {
          "proposalId": "Proposal Id"
        },
        "return": "uint256 'Yes' variant voting balanceuint256 'No' variant voting balance"
      },
      "withdrawTokens(uint256)": {
        "details": "Withdraw released tokens     * Requirements: - proposal should exists - proposal should be finished - sender has positive locked tokens balance - call not reentrant",
        "params": {
          "proposalId": "Proposal Id"
        }
      }
    }
  },
  "userdoc": {
    "methods": {}
  }
}