{
  "contractName": "DaoWithTimeMachine",
  "abi": [
    {
      "anonymous": false,
      "inputs": [
        {
          "indexed": false,
          "internalType": "address",
          "name": "account",
          "type": "address"
        }
      ],
      "name": "Paused",
      "type": "event"
    },
    {
      "anonymous": false,
      "inputs": [
        {
          "indexed": true,
          "internalType": "address",
          "name": "account",
          "type": "address"
        }
      ],
      "name": "PauserAdded",
      "type": "event"
    },
    {
      "anonymous": false,
      "inputs": [
        {
          "indexed": true,
          "internalType": "address",
          "name": "account",
          "type": "address"
        }
      ],
      "name": "PauserRemoved",
      "type": "event"
    },
    {
      "anonymous": false,
      "inputs": [
        {
          "indexed": false,
          "internalType": "address",
          "name": "proposer",
          "type": "address"
        },
        {
          "indexed": false,
          "internalType": "uint256",
          "name": "proposalId",
          "type": "uint256"
        }
      ],
      "name": "ProposalAdded",
      "type": "event"
    },
    {
      "anonymous": false,
      "inputs": [
        {
          "indexed": false,
          "internalType": "uint256",
          "name": "proposalId",
          "type": "uint256"
        }
      ],
      "name": "ProposalCancelled",
      "type": "event"
    },
    {
      "anonymous": false,
      "inputs": [
        {
          "indexed": false,
          "internalType": "uint256",
          "name": "proposalId",
          "type": "uint256"
        },
        {
          "indexed": false,
          "internalType": "bool",
          "name": "passed",
          "type": "bool"
        }
      ],
      "name": "ProposalProcessed",
      "type": "event"
    },
    {
      "anonymous": false,
      "inputs": [
        {
          "indexed": false,
          "internalType": "uint256",
          "name": "oldTime",
          "type": "uint256"
        },
        {
          "indexed": false,
          "internalType": "uint256",
          "name": "newTime",
          "type": "uint256"
        }
      ],
      "name": "TimeMachine",
      "type": "event"
    },
    {
      "anonymous": false,
      "inputs": [
        {
          "indexed": false,
          "internalType": "address",
          "name": "voter",
          "type": "address"
        },
        {
          "indexed": false,
          "internalType": "uint256",
          "name": "value",
          "type": "uint256"
        }
      ],
      "name": "TokensLocked",
      "type": "event"
    },
    {
      "anonymous": false,
      "inputs": [
        {
          "indexed": false,
          "internalType": "address",
          "name": "voter",
          "type": "address"
        },
        {
          "indexed": false,
          "internalType": "uint256",
          "name": "value",
          "type": "uint256"
        }
      ],
      "name": "TokensReleased",
      "type": "event"
    },
    {
      "anonymous": false,
      "inputs": [
        {
          "indexed": false,
          "internalType": "uint256",
          "name": "proposalId",
          "type": "uint256"
        }
      ],
      "name": "TransactionFailed",
      "type": "event"
    },
    {
      "anonymous": false,
      "inputs": [
        {
          "indexed": false,
          "internalType": "uint256",
          "name": "proposalId",
          "type": "uint256"
        }
      ],
      "name": "TransactionSuccessed",
      "type": "event"
    },
    {
      "anonymous": false,
      "inputs": [
        {
          "indexed": false,
          "internalType": "address",
          "name": "account",
          "type": "address"
        }
      ],
      "name": "Unpaused",
      "type": "event"
    },
    {
      "anonymous": false,
      "inputs": [
        {
          "indexed": false,
          "internalType": "uint256",
          "name": "proposalId",
          "type": "uint256"
        },
        {
          "indexed": false,
          "internalType": "enum Dao.VoteType",
          "name": "voteType",
          "type": "uint8"
        },
        {
          "indexed": false,
          "internalType": "address",
          "name": "voter",
          "type": "address"
        },
        {
          "indexed": false,
          "internalType": "uint256",
          "name": "votes",
          "type": "uint256"
        },
        {
          "indexed": false,
          "internalType": "uint256",
          "name": "votesAccepted",
          "type": "uint256"
        }
      ],
      "name": "VoteAdded",
      "type": "event"
    },
    {
      "anonymous": false,
      "inputs": [
        {
          "indexed": false,
          "internalType": "uint256",
          "name": "proposalId",
          "type": "uint256"
        },
        {
          "indexed": false,
          "internalType": "enum Dao.VoteType",
          "name": "voteType",
          "type": "uint8"
        },
        {
          "indexed": false,
          "internalType": "address",
          "name": "voter",
          "type": "address"
        },
        {
          "indexed": false,
          "internalType": "uint256",
          "name": "votes",
          "type": "uint256"
        }
      ],
      "name": "VoteRevoked",
      "type": "event"
    },
    {
      "anonymous": false,
      "inputs": [
        {
          "indexed": true,
          "internalType": "address",
          "name": "account",
          "type": "address"
        }
      ],
      "name": "WhitelistAdminAdded",
      "type": "event"
    },
    {
      "anonymous": false,
      "inputs": [
        {
          "indexed": true,
          "internalType": "address",
          "name": "account",
          "type": "address"
        }
      ],
      "name": "WhitelistAdminRemoved",
      "type": "event"
    },
    {
      "anonymous": false,
      "inputs": [
        {
          "indexed": true,
          "internalType": "address",
          "name": "account",
          "type": "address"
        }
      ],
      "name": "WhitelistedAdded",
      "type": "event"
    },
    {
      "anonymous": false,
      "inputs": [
        {
          "indexed": true,
          "internalType": "address",
          "name": "account",
          "type": "address"
        }
      ],
      "name": "WhitelistedRemoved",
      "type": "event"
    },
    {
      "constant": false,
      "inputs": [
        {
          "internalType": "address",
          "name": "account",
          "type": "address"
        }
      ],
      "name": "addPauser",
      "outputs": [],
      "payable": false,
      "stateMutability": "nonpayable",
      "type": "function"
    },
    {
      "constant": false,
      "inputs": [
        {
          "internalType": "string",
          "name": "details",
          "type": "string"
        },
        {
          "internalType": "enum Dao.ProposalType",
          "name": "proposalType",
          "type": "uint8"
        },
        {
          "internalType": "uint256",
          "name": "duration",
          "type": "uint256"
        },
        {
          "internalType": "address",
          "name": "destination",
          "type": "address"
        },
        {
          "internalType": "uint256",
          "name": "value",
          "type": "uint256"
        },
        {
          "internalType": "bytes",
          "name": "data",
          "type": "bytes"
        }
      ],
      "name": "addProposal",
      "outputs": [],
      "payable": true,
      "stateMutability": "payable",
      "type": "function"
    },
    {
      "constant": false,
      "inputs": [
        {
          "internalType": "address",
          "name": "account",
          "type": "address"
        }
      ],
      "name": "addWhitelistAdmin",
      "outputs": [],
      "payable": false,
      "stateMutability": "nonpayable",
      "type": "function"
    },
    {
      "constant": false,
      "inputs": [
        {
          "internalType": "address",
          "name": "account",
          "type": "address"
        }
      ],
      "name": "addWhitelisted",
      "outputs": [],
      "payable": false,
      "stateMutability": "nonpayable",
      "type": "function"
    },
    {
      "constant": false,
      "inputs": [
        {
          "internalType": "uint256",
          "name": "proposalId",
          "type": "uint256"
        }
      ],
      "name": "cancelProposal",
      "outputs": [],
      "payable": false,
      "stateMutability": "nonpayable",
      "type": "function"
    },
    {
      "constant": true,
      "inputs": [
        {
          "internalType": "enum Dao.ProposalType",
          "name": "proposalType",
          "type": "uint8"
        }
      ],
      "name": "getActiveProposalsIds",
      "outputs": [
        {
          "internalType": "uint256[]",
          "name": "",
          "type": "uint256[]"
        }
      ],
      "payable": false,
      "stateMutability": "view",
      "type": "function"
    },
    {
      "constant": true,
      "inputs": [],
      "name": "getActiveProposalsIds",
      "outputs": [
        {
          "internalType": "uint256[]",
          "name": "",
          "type": "uint256[]"
        }
      ],
      "payable": false,
      "stateMutability": "view",
      "type": "function"
    },
    {
      "constant": true,
      "inputs": [
        {
          "internalType": "uint256",
          "name": "proposalId",
          "type": "uint256"
        }
      ],
      "name": "getProposal",
      "outputs": [
        {
          "internalType": "string",
          "name": "details",
          "type": "string"
        },
        {
          "internalType": "enum Dao.ProposalType",
          "name": "proposalType",
          "type": "uint8"
        },
        {
          "internalType": "uint256",
          "name": "duration",
          "type": "uint256"
        },
        {
          "internalType": "uint256",
          "name": "end",
          "type": "uint256"
        },
        {
          "internalType": "bool[3]",
          "name": "flags",
          "type": "bool[3]"
        },
        {
          "internalType": "address",
          "name": "txDestination",
          "type": "address"
        },
        {
          "internalType": "uint256",
          "name": "txValue",
          "type": "uint256"
        },
        {
          "internalType": "bytes",
          "name": "txData",
          "type": "bytes"
        },
        {
          "internalType": "bool",
          "name": "txExecuted",
          "type": "bool"
        },
        {
          "internalType": "bool",
          "name": "txSuccess",
          "type": "bool"
        }
      ],
      "payable": false,
      "stateMutability": "view",
      "type": "function"
    },
    {
      "constant": true,
      "inputs": [
        {
          "internalType": "uint256",
          "name": "proposalId",
          "type": "uint256"
        }
      ],
      "name": "getVote",
      "outputs": [
        {
          "internalType": "enum Dao.VoteType",
          "name": "voteType",
          "type": "uint8"
        },
        {
          "internalType": "uint256",
          "name": "valueOriginal",
          "type": "uint256"
        },
        {
          "internalType": "uint256",
          "name": "valueAccepted",
          "type": "uint256"
        },
        {
          "internalType": "bool",
          "name": "revoked",
          "type": "bool"
        }
      ],
      "payable": false,
      "stateMutability": "view",
      "type": "function"
    },
    {
      "constant": false,
      "inputs": [
        {
          "internalType": "address",
          "name": "token",
          "type": "address"
        }
      ],
      "name": "initialize",
      "outputs": [],
      "payable": false,
      "stateMutability": "nonpayable",
      "type": "function"
    },
    {
      "constant": true,
      "inputs": [
        {
          "internalType": "address",
          "name": "account",
          "type": "address"
        }
      ],
      "name": "isPauser",
      "outputs": [
        {
          "internalType": "bool",
          "name": "",
          "type": "bool"
        }
      ],
      "payable": false,
      "stateMutability": "view",
      "type": "function"
    },
    {
      "constant": true,
      "inputs": [
        {
          "internalType": "uint256",
          "name": "proposalId",
          "type": "uint256"
        }
      ],
      "name": "isVotingPassed",
      "outputs": [
        {
          "internalType": "bool",
          "name": "",
          "type": "bool"
        }
      ],
      "payable": false,
      "stateMutability": "view",
      "type": "function"
    },
    {
      "constant": true,
      "inputs": [
        {
          "internalType": "address",
          "name": "account",
          "type": "address"
        }
      ],
      "name": "isWhitelistAdmin",
      "outputs": [
        {
          "internalType": "bool",
          "name": "",
          "type": "bool"
        }
      ],
      "payable": false,
      "stateMutability": "view",
      "type": "function"
    },
    {
      "constant": true,
      "inputs": [
        {
          "internalType": "address",
          "name": "account",
          "type": "address"
        }
      ],
      "name": "isWhitelisted",
      "outputs": [
        {
          "internalType": "bool",
          "name": "",
          "type": "bool"
        }
      ],
      "payable": false,
      "stateMutability": "view",
      "type": "function"
    },
    {
      "constant": false,
      "inputs": [],
      "name": "pause",
      "outputs": [],
      "payable": false,
      "stateMutability": "nonpayable",
      "type": "function"
    },
    {
      "constant": true,
      "inputs": [],
      "name": "paused",
      "outputs": [
        {
          "internalType": "bool",
          "name": "",
          "type": "bool"
        }
      ],
      "payable": false,
      "stateMutability": "view",
      "type": "function"
    },
    {
      "constant": false,
      "inputs": [
        {
          "internalType": "uint256",
          "name": "proposalId",
          "type": "uint256"
        }
      ],
      "name": "processProposal",
      "outputs": [],
      "payable": false,
      "stateMutability": "nonpayable",
      "type": "function"
    },
    {
      "constant": true,
      "inputs": [],
      "name": "proposalCount",
      "outputs": [
        {
          "internalType": "uint256",
          "name": "",
          "type": "uint256"
        }
      ],
      "payable": false,
      "stateMutability": "view",
      "type": "function"
    },
    {
      "constant": false,
      "inputs": [
        {
          "internalType": "address",
          "name": "account",
          "type": "address"
        }
      ],
      "name": "removeWhitelisted",
      "outputs": [],
      "payable": false,
      "stateMutability": "nonpayable",
      "type": "function"
    },
    {
      "constant": false,
      "inputs": [],
      "name": "renouncePauser",
      "outputs": [],
      "payable": false,
      "stateMutability": "nonpayable",
      "type": "function"
    },
    {
      "constant": false,
      "inputs": [],
      "name": "renounceWhitelistAdmin",
      "outputs": [],
      "payable": false,
      "stateMutability": "nonpayable",
      "type": "function"
    },
    {
      "constant": false,
      "inputs": [],
      "name": "renounceWhitelisted",
      "outputs": [],
      "payable": false,
      "stateMutability": "nonpayable",
      "type": "function"
    },
    {
      "constant": false,
      "inputs": [
        {
          "internalType": "address",
          "name": "account",
          "type": "address"
        }
      ],
      "name": "replacePauser",
      "outputs": [],
      "payable": false,
      "stateMutability": "nonpayable",
      "type": "function"
    },
    {
      "constant": false,
      "inputs": [
        {
          "internalType": "address",
          "name": "account",
          "type": "address"
        }
      ],
      "name": "replaceWhitelistAdmin",
      "outputs": [],
      "payable": false,
      "stateMutability": "nonpayable",
      "type": "function"
    },
    {
      "constant": false,
      "inputs": [
        {
          "internalType": "uint256",
          "name": "proposalId",
          "type": "uint256"
        }
      ],
      "name": "revokeVote",
      "outputs": [],
      "payable": false,
      "stateMutability": "nonpayable",
      "type": "function"
    },
    {
      "constant": true,
      "inputs": [],
      "name": "serviceToken",
      "outputs": [
        {
          "internalType": "contract IERC20",
          "name": "",
          "type": "address"
        }
      ],
      "payable": false,
      "stateMutability": "view",
      "type": "function"
    },
    {
      "constant": true,
      "inputs": [
        {
          "internalType": "uint256",
          "name": "proposalId",
          "type": "uint256"
        }
      ],
      "name": "tokensBalance",
      "outputs": [
        {
          "internalType": "uint256",
          "name": "",
          "type": "uint256"
        }
      ],
      "payable": false,
      "stateMutability": "view",
      "type": "function"
    },
    {
      "constant": false,
      "inputs": [],
      "name": "unpause",
      "outputs": [],
      "payable": false,
      "stateMutability": "nonpayable",
      "type": "function"
    },
    {
      "constant": false,
      "inputs": [
        {
          "internalType": "uint256",
          "name": "proposalId",
          "type": "uint256"
        },
        {
          "internalType": "enum Dao.VoteType",
          "name": "voteType",
          "type": "uint8"
        },
        {
          "internalType": "uint256",
          "name": "votes",
          "type": "uint256"
        }
      ],
      "name": "vote",
      "outputs": [],
      "payable": false,
      "stateMutability": "nonpayable",
      "type": "function"
    },
    {
      "constant": true,
      "inputs": [
        {
          "internalType": "uint256",
          "name": "proposalId",
          "type": "uint256"
        }
      ],
      "name": "votingResult",
      "outputs": [
        {
          "internalType": "uint256",
          "name": "yes",
          "type": "uint256"
        },
        {
          "internalType": "uint256",
          "name": "no",
          "type": "uint256"
        }
      ],
      "payable": false,
      "stateMutability": "view",
      "type": "function"
    },
    {
      "constant": false,
      "inputs": [
        {
          "internalType": "uint256",
          "name": "proposalId",
          "type": "uint256"
        }
      ],
      "name": "withdrawTokens",
      "outputs": [],
      "payable": false,
      "stateMutability": "nonpayable",
      "type": "function"
    },
    {
      "constant": true,
      "inputs": [],
      "name": "currentTime",
      "outputs": [
        {
          "internalType": "uint256",
          "name": "",
          "type": "uint256"
        }
      ],
      "payable": false,
      "stateMutability": "view",
      "type": "function"
    },
    {
      "constant": false,
      "inputs": [
        {
          "internalType": "uint256",
          "name": "time",
          "type": "uint256"
        }
      ],
      "name": "setCurrentTime",
      "outputs": [],
      "payable": false,
      "stateMutability": "nonpayable",
      "type": "function"
    }
  ],
  "bytecode": "0x60806040526200002a6200001b6001600160e01b036200006016565b6001600160e01b036200006416565b6034805460ff191690556200005a6200004b6001600160e01b036200006016565b6001600160e01b03620000b616565b620001fe565b3390565b6200007f8160336200010860201b620032521790919060201c565b6040516001600160a01b038216907f6719d08c1888103bea251a4ed56406bd0c3e69723c8a1686e017e7bbe159b6f890600090a250565b620000d18160356200010860201b620032521790919060201c565b6040516001600160a01b038216907f22380c05984257a1cb900161c713dd71d39e74820f1aea43bd3f1bdd2096129990600090a250565b6200011d82826001600160e01b036200019516565b1562000170576040805162461bcd60e51b815260206004820152601f60248201527f526f6c65733a206163636f756e7420616c72656164792068617320726f6c6500604482015290519081900360640190fd5b6001600160a01b0316600090815260209190915260409020805460ff19166001179055565b60006001600160a01b038216620001de5760405162461bcd60e51b815260040180806020018281038252602281526020018062003b306022913960400191505060405180910390fd5b506001600160a01b03166000908152602091909152604090205460ff1690565b613922806200020e6000396000f3fe6080604052600436106101ee5760003560e01c80637c2466ff1161010d578063c4d66de8116100a0578063da35c6641161006f578063da35c6641461092f578063e0a8f6f514610944578063e520251a1461096e578063e63bc62d146109a7578063f73a8b4a146109d1576101ee565b8063c4d66de814610745578063c7f758a814610778578063d18e81b314610905578063d6cd94731461091a576101ee565b80638456cb59116100dc5780638456cb591461069957806386583746146106ae578063b7692968146106e1578063bb5f747b14610712576101ee565b80637c2466ff146105315780637e9b8f8014610615578063827e8b471461062a57806382dc1ec414610666576101ee565b80634c5a628c1161018557806361d140511161015457806361d140511461047c5780636a96bab4146104bf5780636ef8d66d146104e95780637362d9c8146104fe576101ee565b80634c5a628c146103715780635a55c1f0146103865780635c975abb146103ea57806361301afa146103ff576101ee565b8063315a095d116101c1578063315a095d146102b85780633af32abf146102e25780633f4ba83a1461032957806346fbf68e1461033e576101ee565b806310154bad146101f357806319819ff51461022857806322f8e5661461025b578063291d954914610285575b600080fd5b3480156101ff57600080fd5b506102266004803603602081101561021657600080fd5b50356001600160a01b03166109fb565b005b34801561023457600080fd5b506102266004803603602081101561024b57600080fd5b50356001600160a01b0316610a52565b34801561026757600080fd5b506102266004803603602081101561027e57600080fd5b5035610aaa565b34801561029157600080fd5b50610226600480360360208110156102a857600080fd5b50356001600160a01b0316610aef565b3480156102c457600080fd5b50610226600480360360208110156102db57600080fd5b5035610b3e565b3480156102ee57600080fd5b506103156004803603602081101561030557600080fd5b50356001600160a01b0316610cab565b604080519115158252519081900360200190f35b34801561033557600080fd5b50610226610cc4565b34801561034a57600080fd5b506103156004803603602081101561036157600080fd5b50356001600160a01b0316610dad565b34801561037d57600080fd5b50610226610dc0565b34801561039257600080fd5b506103b0600480360360208110156103a957600080fd5b5035610dd2565b604051808560018111156103c057fe5b60ff1681526020810194909452506040808401929092521515606083015251908190036080019150f35b3480156103f657600080fd5b50610315610eda565b34801561040b57600080fd5b5061042c6004803603602081101561042257600080fd5b503560ff16610ee4565b60408051602080825283518183015283519192839290830191858101910280838360005b83811015610468578181015183820152602001610450565b505050509050019250505060405180910390f35b34801561048857600080fd5b506104a66004803603602081101561049f57600080fd5b5035611020565b6040805192835260208301919091528051918290030190f35b3480156104cb57600080fd5b50610315600480360360208110156104e257600080fd5b5035611195565b3480156104f557600080fd5b5061022661127a565b34801561050a57600080fd5b506102266004803603602081101561052157600080fd5b50356001600160a01b031661128a565b610226600480360360c081101561054757600080fd5b81019060208101813564010000000081111561056257600080fd5b82018360208201111561057457600080fd5b8035906020019184600183028401116401000000008311171561059657600080fd5b9193909260ff833516926020810135926001600160a01b036040830135169260608301359260a0810190608001356401000000008111156105d657600080fd5b8201836020820111156105e857600080fd5b8035906020019184600183028401116401000000008311171561060a57600080fd5b5090925090506112d9565b34801561062157600080fd5b5061042c6116b9565b34801561063657600080fd5b506106546004803603602081101561064d57600080fd5b50356117b3565b60408051918252519081900360200190f35b34801561067257600080fd5b506102266004803603602081101561068957600080fd5b50356001600160a01b03166118bb565b3480156106a557600080fd5b5061022661190a565b3480156106ba57600080fd5b50610226600480360360208110156106d157600080fd5b50356001600160a01b03166119d1565b3480156106ed57600080fd5b506106f6611a29565b604080516001600160a01b039092168252519081900360200190f35b34801561071e57600080fd5b506103156004803603602081101561073557600080fd5b50356001600160a01b0316611a38565b34801561075157600080fd5b506102266004803603602081101561076857600080fd5b50356001600160a01b0316611a4b565b34801561078457600080fd5b506107a26004803603602081101561079b57600080fd5b5035611b20565b60405180806020018b60018111156107b657fe5b60ff1681526020018a815260200189815260200188600360200280838360005b838110156107ee5781810151838201526020016107d6565b50505050905001876001600160a01b03166001600160a01b0316815260200186815260200180602001851515151581526020018415151515815260200183810383528d818151815260200191508051906020019080838360005b83811015610860578181015183820152602001610848565b50505050905090810190601f16801561088d5780820380516001836020036101000a031916815260200191505b50838103825286518152865160209182019188019080838360005b838110156108c05781810151838201526020016108a8565b50505050905090810190601f1680156108ed5780820380516001836020036101000a031916815260200191505b509c5050505050505050505050505060405180910390f35b34801561091157600080fd5b50610654611d7e565b34801561092657600080fd5b50610226611d8d565b34801561093b57600080fd5b50610654611d9d565b34801561095057600080fd5b506102266004803603602081101561096757600080fd5b5035611da3565b34801561097a57600080fd5b506102266004803603606081101561099157600080fd5b5080359060ff6020820135169060400135612039565b3480156109b357600080fd5b50610226600480360360208110156109ca57600080fd5b5035612685565b3480156109dd57600080fd5b50610226600480360360208110156109f457600080fd5b5035612a8f565b610a0b610a06612cc4565b611a38565b610a465760405162461bcd60e51b815260040180806020018281038252604081526020018061384a6040913960400191505060405180910390fd5b610a4f81612cc8565b50565b610a5d610a06612cc4565b610a985760405162461bcd60e51b815260040180806020018281038252604081526020018061384a6040913960400191505060405180910390fd5b610aa181612d10565b610a4f33612d58565b7f78028a947179f914444d55668a3a9d9966e05446e9e1e1a73624064a365153ee610ad3611d7e565b60408051918252602082018490528051918290030190a1603b55565b610afa610a06612cc4565b610b355760405162461bcd60e51b815260040180806020018281038252604081526020018061384a6040913960400191505060405180910390fd5b610a4f81612da0565b6000818152603960205260409020600701548190610b91576040805162461bcd60e51b81526020600482015260126024820152600080516020613768833981519152604482015290519081900360640190fd5b6000828152603960205260409020600801548290610bad612de8565b1015610bf8576040805162461bcd60e51b8152602060048201526015602482015274141493d413d4d05317d393d517d192539254d21151605a1b604482015290519081900360640190fd5b6000610c03846117b3565b905060008111610c5a576040805162461bcd60e51b815260206004820152601b60248201527f494e53554646494349454e545f544f4b454e535f42414c414e43450000000000604482015290519081900360640190fd5b6000848152603a6020908152604080832033808552818452828520548552600290910190925290912060038101805461ff00191661010017905560018101549091610ca491612e01565b5050505050565b6000610cbe60368363ffffffff612e6616565b92915050565b610cd4610ccf612cc4565b610dad565b610d0f5760405162461bcd60e51b81526004018080602001828103825260308152602001806137886030913960400191505060405180910390fd5b60345460ff16610d5d576040805162461bcd60e51b815260206004820152601460248201527314185d5cd8589b194e881b9bdd081c185d5cd95960621b604482015290519081900360640190fd5b6034805460ff191690557f5db9ee0a495bf2e6ff9c91a7834c1ba4fdd244a5e8aa4e537bd38aeae4b073aa610d90612cc4565b604080516001600160a01b039092168252519081900360200190a1565b6000610cbe60338363ffffffff612e6616565b610dd0610dcb612cc4565b612d58565b565b6000818152603960205260408120600701548190819081908590610e2b576040805162461bcd60e51b81526020600482015260126024820152600080516020613768833981519152604482015290519081900360640190fd5b6000868152603a60209081526040808320338452600101909152902054869060ff16610e8f576040805162461bcd60e51b815260206004820152600e60248201526d1593d51157d393d517d193d5539160921b604482015290519081900360640190fd5b50505060009384525050603a602090815260408084203385528083528185205485526002908101909252909220805460018201549382015460039092015460ff918216959293501690565b60345460ff165b90565b6060610eef82612ecd565b506060610efb83612edb565b604051908082528060200260200182016040528015610f24578160200160208202803883390190505b5090506000805b6038548110156110175760008181526039602052604090206009015460ff16158015610f6e5750600081815260396020526040902060090154610100900460ff16155b8015610f92575060008181526039602052604090206009015462010000900460ff16155b8015610fb55750600081815260396020526040902060080154610fb3612de8565b105b8015610fea5750846001811115610fc857fe5b60008281526039602052604090206002015460ff166001811115610fe857fe5b145b1561100f5780838381518110610ffc57fe5b6020026020010181815250506001820191505b600101610f2b565b50909392505050565b60008181526039602052604081206007015481908390611075576040805162461bcd60e51b81526020600482015260126024820152600080516020613768833981519152604482015290519081900360640190fd5b60005b6000858152603a602052604090206003015481101561118e576000858152603a6020908152604080832084845260020190915290206003015460ff16611186576000858152603a6020908152604080832084845260020190915281205460ff1660018111156110e357fe5b141561111e576000858152603a602090815260408083208484526002908101909252909120015461111b90859063ffffffff612fc716565b93505b60016000868152603a6020908152604080832085845260020190915290205460ff16600181111561114b57fe5b1415611186576000858152603a602090815260408083208484526002908101909252909120015461118390849063ffffffff612fc716565b92505b600101611078565b5050915091565b60008181526039602052604081206007015482906111e8576040805162461bcd60e51b81526020600482015260126024820152600080516020613768833981519152604482015290519081900360640190fd5b60008381526039602052604090206009015460ff161561120b5760019150611274565b60008381526039602052604090206009015462010000900460ff16156112345760009150611274565b60008381526039602052604090206008015461124e612de8565b101561125d5760009150611274565b60008061126985611020565b109350611274915050565b50919050565b610dd0611285612cc4565b613021565b611295610a06612cc4565b6112d05760405162461bcd60e51b815260040180806020018281038252604081526020018061384a6040913960400191505060405180910390fd5b610a4f81612d10565b6112e96112e4612cc4565b610cab565b6113245760405162461bcd60e51b815260040180806020018281038252603a81526020018061388a603a913960400191505060405180910390fd5b60345460ff161561136f576040805162461bcd60e51b815260206004820152601060248201526f14185d5cd8589b194e881c185d5cd95960821b604482015290519081900360640190fd5b61137886612ecd565b506001600160a01b0384166113ca576040805162461bcd60e51b815260206004820152601360248201527224a72b20a624a22fa222a9aa24a720aa24a7a760691b604482015290519081900360640190fd5b8215806113e257506000831180156113e25750823410155b611433576040805162461bcd60e51b815260206004820152601860248201527f494e53554646494349454e545f45544845525f56414c55450000000000000000604482015290519081900360640190fd5b60385460408051338152602081019290925280517f294a8b64183582a911805b3a31b11b3c4d20c7431578897c6abcc35aae886d5e9281900390910190a1611479613605565b6040518060e00160405280336001600160a01b031681526020018a8a8080601f0160208091040260200160405190810160405280939291908181526020018383808284376000920191909152505050908252506020018860018111156114db57fe5b81526020016040518060a00160405280886001600160a01b0316815260200187815260200186868080601f016020809104026020016040519081016040528093929190818152602001838380828437600092018290525093855250505060208083018290526040928301919091529183529082018990520161157d611569896201518063ffffffff61306916565b611571612de8565b9063ffffffff612fc716565b8152602090810183905260385460009081526039825260409020825181546001600160a01b0319166001600160a01b0390911617815582820151805191926115cd92600185019290910190613623565b50604082015160028201805460ff1916600183818111156115ea57fe5b0217905550606082015180516003830180546001600160a01b0319166001600160a01b039092169190911781556020808301516004850155604083015180516116399260058701920190613623565b5060608201516003918201805460809485015115156101000261ff001993151560ff19909216919091179290921691909117905590830151600783015560a0830151600883015560c0830151611694916009840191906136a1565b50506038546116ab9150600163ffffffff612fc716565b603855505050505050505050565b6060806116c46130c2565b6040519080825280602002602001820160405280156116ed578160200160208202803883390190505b5090506000805b6038548110156117ab5760008181526039602052604090206009015460ff161580156117375750600081815260396020526040902060090154610100900460ff16155b801561175b575060008181526039602052604090206009015462010000900460ff16155b801561177e575060008181526039602052604090206008015461177c612de8565b105b156117a3578083838151811061179057fe5b6020026020010181815250506001820191505b6001016116f4565b509091505090565b6000818152603960205260408120600701548290611806576040805162461bcd60e51b81526020600482015260126024820152600080516020613768833981519152604482015290519081900360640190fd5b60008381526039602052604081206009015462010000900460ff1615801561184a57506000848152603a6020908152604080832033845260010190915290205460ff165b801561188457506000848152603a60209081526040808320338452808352818420548452600201909152902060030154610100900460ff16155b156118b457506000838152603a602090815260408083203384528083528184205484526002019091529020600101545b9392505050565b6118c6610ccf612cc4565b6119015760405162461bcd60e51b81526004018080602001828103825260308152602001806137886030913960400191505060405180910390fd5b610a4f81613178565b611915610ccf612cc4565b6119505760405162461bcd60e51b81526004018080602001828103825260308152602001806137886030913960400191505060405180910390fd5b60345460ff161561199b576040805162461bcd60e51b815260206004820152601060248201526f14185d5cd8589b194e881c185d5cd95960821b604482015290519081900360640190fd5b6034805460ff191660011790557f62e78cea01bee320cd4e420270b5ea74000d11b0c9f74754ebdbfc544b05a258610d90612cc4565b6119dc610ccf612cc4565b611a175760405162461bcd60e51b81526004018080602001828103825260308152602001806137886030913960400191505060405180910390fd5b611a2081613178565b610a4f33613021565b6037546001600160a01b031681565b6000610cbe60358363ffffffff612e6616565b600054610100900460ff1680611a645750611a646131c0565b80611a72575060005460ff16155b611aad5760405162461bcd60e51b815260040180806020018281038252602e81526020018061381c602e913960400191505060405180910390fd5b600054610100900460ff16158015611ad8576000805460ff1961ff0019909116610100171660011790555b603780546001600160a01b0319166001600160a01b0384161790556000603855611b0133613178565b611b0a33612d10565b8015611b1c576000805461ff00191690555b5050565b60606000806000611b2f613605565b6000868152603960205260408120600701548190606090829081908b90611b8b576040805162461bcd60e51b81526020600482015260126024820152600080516020613768833981519152604482015290519081900360640190fd5b60008c815260396020908152604091829020600180820180548551600293821615610100026000190190911692909204601f810185900485028301850190955284825291939092830182828015611c235780601f10611bf857610100808354040283529160200191611c23565b820191906000526020600020905b815481529060010190602001808311611c0657829003601f168201915b50505050509b508060020160009054906101000a900460ff169a50806007015499508060080154985080600901600380602002604051908101604052809291908260038015611ca7576020028201916000905b825461010083900a900460ff161515815260206001928301818104948501949093039092029101808411611c765790505b505050506003830154600484015460058501805460408051602060026101006001861615026000190190941693909304601f8101849004840282018401909252818152969e506001600160a01b039094169c50919a509250830182828015611d505780601f10611d2557610100808354040283529160200191611d50565b820191906000526020600020905b815481529060010190602001808311611d3357829003601f168201915b5050506006909301549d9f9c9e509a9c999b989a509698959760ff8088169761010090041695509350505050565b6000611d88612de8565b905090565b610dd0611d98612cc4565b612da0565b60385481565b6000818152603960205260409020600701548190611df6576040805162461bcd60e51b81526020600482015260126024820152600080516020613768833981519152604482015290519081900360640190fd5b60008281526039602052604090205482906001600160a01b03163314611e54576040805162461bcd60e51b815260206004820152600e60248201526d2727aa2fa0afa82927a827a9a2a960911b604482015290519081900360640190fd5b600083815260396020526040902060090154839060ff1615611eaf576040805162461bcd60e51b815260206004820152600f60248201526e141493d413d4d05317d41054d4d151608a1b604482015290519081900360640190fd5b6000848152603960205260409020600901548490610100900460ff1615611f12576040805162461bcd60e51b8152602060048201526012602482015271141493d413d4d05317d41493d0d154d4d15160721b604482015290519081900360640190fd5b600085815260396020526040902060090154859062010000900460ff1615611f76576040805162461bcd60e51b8152602060048201526012602482015271141493d413d4d05317d0d05390d15313115160721b604482015290519081900360640190fd5b600080611f8288611020565b91509150816000148015611f94575080155b611fda576040805162461bcd60e51b815260206004820152601260248201527150524f504f53414c5f4841535f564f54455360701b604482015290519081900360640190fd5b600088815260396020908152604091829020600901805462ff000019166201000017905581518a815291517f416e669c63d9a3a5e36ee7cc7e2104b8db28ccd286aa18966e98fa230c73b08c9281900390910190a15050505050505050565b60345460ff1615612084576040805162461bcd60e51b815260206004820152601060248201526f14185d5cd8589b194e881c185d5cd95960821b604482015290519081900360640190fd5b60008381526039602052604090206007015483906120d7576040805162461bcd60e51b81526020600482015260126024820152600080516020613768833981519152604482015290519081900360640190fd5b600084815260396020526040902060090154849060ff1615612132576040805162461bcd60e51b815260206004820152600f60248201526e141493d413d4d05317d41054d4d151608a1b604482015290519081900360640190fd5b600085815260396020526040902060090154859062010000900460ff1615612196576040805162461bcd60e51b8152602060048201526012602482015271141493d413d4d05317d0d05390d15313115160721b604482015290519081900360640190fd5b60008681526039602052604090206008015486906121b2612de8565b106121f8576040805162461bcd60e51b8152602060048201526011602482015270141493d413d4d05317d192539254d21151607a1b604482015290519081900360640190fd5b603754604080516370a0823160e01b8152336004820152905187926001600160a01b0316916370a08231916024808301926020929190829003018186803b15801561224257600080fd5b505afa158015612256573d6000803e3d6000fd5b505050506040513d602081101561226c57600080fd5b505110156122c1576040805162461bcd60e51b815260206004820152601b60248201527f494e53554646494349454e545f544f4b454e535f42414c414e43450000000000604482015290519081900360640190fd5b60375460408051636eb1769f60e11b8152336004820152306024820152905187926001600160a01b03169163dd62ed3e916044808301926020929190829003018186803b15801561231157600080fd5b505afa158015612325573d6000803e3d6000fd5b505050506040513d602081101561233b57600080fd5b50511015612390576040805162461bcd60e51b815260206004820152601d60248201527f494e53554646494349454e545f544f4b454e535f414c4c4f57414e4345000000604482015290519081900360640190fd5b61239a33866131c6565b6000878152603a6020908152604080832033845260010190915281205460ff166124ee576000888152603a6020908152604080832033845260018082018452828520805460ff19169091179055600381015492529091208190556123fd8761322c565b91506040518060a0016040528089600181111561241657fe5b815260208082018a9052604080830186905260006060840181905260809093018390528c8352603a8252808320858452600201909152902081518154829060ff19166001838181111561246557fe5b0217905550602082810151600180840191909155604080850151600285015560608501516003948501805460809097015115156101000261ff001992151560ff1990981697909717919091169590951790945560008d8152603a90925292902001546124d69163ffffffff612fc716565b60008a8152603a60205260409020600301555061260e565b6000888152603a602090815260408083203384528083528184205484526002019091529020600381015460ff161561253d5760038101805461ffff191690556125368761322c565b91506125e4565b6001810154612552908863ffffffff612fc716565b965061255d8761322c565b91507f940ff8122c3cdbdc4a4aa871d42fdf13e863866d63ab2ea9fc0af542894daff4898260000160009054906101000a900460ff16338460010154604051808581526020018460018111156125af57fe5b60ff168152602001836001600160a01b03166001600160a01b0316815260200182815260200194505050505060405180910390a15b80548890829060ff1916600183818111156125fb57fe5b0217905550600181018790556002018190555b7f615fd00d334fb9ec9d221e8191b07961008426504d05e916a5e961a64d3a21b188883389856040518086815260200185600181111561264a57fe5b60ff1681526001600160a01b039094166020850152506040808401929092526060830152519081900360800192509050a15050505050505050565b60345460ff16156126d0576040805162461bcd60e51b815260206004820152601060248201526f14185d5cd8589b194e881c185d5cd95960821b604482015290519081900360640190fd5b6000818152603960205260409020600701548190612723576040805162461bcd60e51b81526020600482015260126024820152600080516020613768833981519152604482015290519081900360640190fd5b60008281526039602052604090205482906001600160a01b03163314612781576040805162461bcd60e51b815260206004820152600e60248201526d2727aa2fa0afa82927a827a9a2a960911b604482015290519081900360640190fd5b6000838152603960205260409020600901548390610100900460ff16156127e4576040805162461bcd60e51b8152602060048201526012602482015271141493d413d4d05317d41493d0d154d4d15160721b604482015290519081900360640190fd5b600084815260396020526040902060090154849062010000900460ff1615612848576040805162461bcd60e51b8152602060048201526012602482015271141493d413d4d05317d0d05390d15313115160721b604482015290519081900360640190fd5b6000858152603960205260409020600801548590612864612de8565b10156128af576040805162461bcd60e51b8152602060048201526015602482015274141493d413d4d05317d393d517d192539254d21151605a1b604482015290519081900360640190fd5b600086815260396020526040812060098101805461ff001916610100179055906128d888611195565b90508080156128ec5750600682015460ff16155b15612a495760098201805460ff1990811660019081179092556006840180549091168217905560038301546004840154600585018054604080516020600297841615610100026000190190931696909604601f81018390048302870183019091528086526000956129c2956001600160a01b0316949390929091908301828280156129b85780601f1061298d576101008083540402835291602001916129b8565b820191906000526020600020905b81548152906001019060200180831161299b57829003601f168201915b5050505050613237565b90508015612a135760068301805461ff001916610100179055604080518a815290517ff25d1eb843be2601e5db773f59cb25699ae9d3df1b9254508313091fce8933659181900360200190a1612a47565b604080518a815290517fe23a6a9556cd21c6bb855e17fd21d654c8e203ac086373ee44eddea75167a19d9181900360200190a15b505b60408051898152821515602082015281517fcc8b74c10cae169918eab7cf3272b0a540854b8a4d12281590885d07fed34f6e929181900390910190a15050505050505050565b6000818152603960205260409020600701548190612ae2576040805162461bcd60e51b81526020600482015260126024820152600080516020613768833981519152604482015290519081900360640190fd5b600082815260396020526040902060090154829060ff1615612b3d576040805162461bcd60e51b815260206004820152600f60248201526e141493d413d4d05317d41054d4d151608a1b604482015290519081900360640190fd5b600083815260396020526040902060090154839062010000900460ff1615612ba1576040805162461bcd60e51b8152602060048201526012602482015271141493d413d4d05317d0d05390d15313115160721b604482015290519081900360640190fd5b6000848152603a602090815260408083203384528083528184205484526002019091529020600381015460ff1615612c0f576040805162461bcd60e51b815260206004820152600c60248201526b1593d51157d4915593d2d15160a21b604482015290519081900360640190fd5b600381018054610100600160ff19909216821761ff00191617909155810154612c39903390612e01565b7f940ff8122c3cdbdc4a4aa871d42fdf13e863866d63ab2ea9fc0af542894daff4858260000160009054906101000a900460ff1633846001015460405180858152602001846001811115612c8957fe5b60ff168152602001836001600160a01b03166001600160a01b0316815260200182815260200194505050505060405180910390a15050505050565b3390565b612cd960368263ffffffff61325216565b6040516001600160a01b038216907fee1504a83b6d4a361f4c1dc78ab59bfa30d6a3b6612c403e86bb01ef2984295f90600090a250565b612d2160358263ffffffff61325216565b6040516001600160a01b038216907f22380c05984257a1cb900161c713dd71d39e74820f1aea43bd3f1bdd2096129990600090a250565b612d6960358263ffffffff6132d316565b6040516001600160a01b038216907f0a8eb35e5ca14b3d6f28e4abf2f128dbab231a58b56e89beb5d636115001e16590600090a250565b612db160368263ffffffff6132d316565b6040516001600160a01b038216907f270d9b30cf5b0793bbfd54c9d5b94aeb49462b8148399000265144a8722da6b690600090a250565b6000603b54600014612dfc57603b54611d88565b504290565b603754612e1e906001600160a01b0316838363ffffffff61333a16565b604080516001600160a01b03841681526020810183905281517fc7798891864187665ac6dd119286e44ec13f014527aeeb2b8eb3fd413df93179929181900390910190a15050565b60006001600160a01b038216612ead5760405162461bcd60e51b81526004018080602001828103825260228152602001806137fa6022913960400191505060405180910390fd5b506001600160a01b03166000908152602091909152604090205460ff1690565b6000816001811115610cbe57fe5b600080805b603854811015612fc05760008181526039602052604090206009015460ff16158015612f235750600081815260396020526040902060090154610100900460ff16155b8015612f47575060008181526039602052604090206009015462010000900460ff16155b8015612f6a5750600081815260396020526040902060080154612f68612de8565b105b8015612f9f5750836001811115612f7d57fe5b60008281526039602052604090206002015460ff166001811115612f9d57fe5b145b15612fb857612fb582600163ffffffff612fc716565b91505b600101612ee0565b5092915050565b6000828201838110156118b4576040805162461bcd60e51b815260206004820152601b60248201527f536166654d6174683a206164646974696f6e206f766572666c6f770000000000604482015290519081900360640190fd5b61303260338263ffffffff6132d316565b6040516001600160a01b038216907fcd265ebaf09df2871cc7bd4133404a235ba12eff2041bb89d9c714a2621c7c7e90600090a250565b60008261307857506000610cbe565b8282028284828161308557fe5b04146118b45760405162461bcd60e51b81526004018080602001828103825260218152602001806137d96021913960400191505060405180910390fd5b600080805b6038548110156131725760008181526039602052604090206009015460ff1615801561310a5750600081815260396020526040902060090154610100900460ff16155b801561312e575060008181526039602052604090206009015462010000900460ff16155b8015613151575060008181526039602052604090206008015461314f612de8565b105b1561316a5761316782600163ffffffff612fc716565b91505b6001016130c7565b50905090565b61318960338263ffffffff61325216565b6040516001600160a01b038216907f6719d08c1888103bea251a4ed56406bd0c3e69723c8a1686e017e7bbe159b6f890600090a250565b303b1590565b6037546131e4906001600160a01b031683308463ffffffff61339116565b604080516001600160a01b03841681526020810183905281517fac87f20a77d28ee8bbb58ec87ea8fa968b3393efae1a368fd50b767c2847391c929181900390910190a15050565b6000610cbe826133f1565b600080600083516020850186886187965a03f1949350505050565b61325c8282612e66565b156132ae576040805162461bcd60e51b815260206004820152601f60248201527f526f6c65733a206163636f756e7420616c72656164792068617320726f6c6500604482015290519081900360640190fd5b6001600160a01b0316600090815260209190915260409020805460ff19166001179055565b6132dd8282612e66565b6133185760405162461bcd60e51b81526004018080602001828103825260218152602001806137b86021913960400191505060405180910390fd5b6001600160a01b0316600090815260209190915260409020805460ff19169055565b604080516001600160a01b038416602482015260448082018490528251808303909101815260649091019091526020810180516001600160e01b031663a9059cbb60e01b17905261338c908490613411565b505050565b604080516001600160a01b0385811660248301528416604482015260648082018490528251808303909101815260849091019091526020810180516001600160e01b03166323b872dd60e01b1790526133eb908590613411565b50505050565b80600260018201045b8181101561127457905060028183048201046133fa565b613423826001600160a01b03166135c9565b613474576040805162461bcd60e51b815260206004820152601f60248201527f5361666545524332303a2063616c6c20746f206e6f6e2d636f6e747261637400604482015290519081900360640190fd5b60006060836001600160a01b0316836040518082805190602001908083835b602083106134b25780518252601f199092019160209182019101613493565b6001836020036101000a0380198251168184511680821785525050505050509050019150506000604051808303816000865af19150503d8060008114613514576040519150601f19603f3d011682016040523d82523d6000602084013e613519565b606091505b509150915081613570576040805162461bcd60e51b815260206004820181905260248201527f5361666545524332303a206c6f772d6c6576656c2063616c6c206661696c6564604482015290519081900360640190fd5b8051156133eb5780806020019051602081101561358c57600080fd5b50516133eb5760405162461bcd60e51b815260040180806020018281038252602a8152602001806138c4602a913960400191505060405180910390fd5b6000813f7fc5d2460186f7233c927e7db2dcc703c0e500b653ca82273b7bfad8045d85a47081158015906135fd5750808214155b949350505050565b60405180606001604052806003906020820280388339509192915050565b828054600181600116156101000203166002900490600052602060002090601f016020900481019282601f1061366457805160ff1916838001178555613691565b82800160010185558215613691579182015b82811115613691578251825591602001919060010190613676565b5061369d92915061372f565b5090565b6001830191839082156137235791602002820160005b838211156136f457835183826101000a81548160ff02191690831515021790555092602001926001016020816000010492830192600103026136b7565b80156137215782816101000a81549060ff02191690556001016020816000010492830192600103026136f4565b505b5061369d929150613749565b610ee191905b8082111561369d5760008155600101613735565b610ee191905b8082111561369d57805460ff1916815560010161374f56fe50524f504f53414c5f4e4f545f464f554e440000000000000000000000000000506175736572526f6c653a2063616c6c657220646f6573206e6f742068617665207468652050617573657220726f6c65526f6c65733a206163636f756e7420646f6573206e6f74206861766520726f6c65536166654d6174683a206d756c7469706c69636174696f6e206f766572666c6f77526f6c65733a206163636f756e7420697320746865207a65726f2061646472657373436f6e747261637420696e7374616e63652068617320616c7265616479206265656e20696e697469616c697a656457686974656c69737441646d696e526f6c653a2063616c6c657220646f6573206e6f742068617665207468652057686974656c69737441646d696e20726f6c6557686974656c6973746564526f6c653a2063616c6c657220646f6573206e6f742068617665207468652057686974656c697374656420726f6c655361666545524332303a204552433230206f7065726174696f6e20646964206e6f742073756363656564a265627a7a7231582094b767a1db0393d8c01d109d3e8ea7c21edf5119b48432453c6d5fa2bcb5509564736f6c634300050e0032526f6c65733a206163636f756e7420697320746865207a65726f2061646472657373",
  "source": "pragma solidity 0.5.14;\n\nimport \"../Dao.sol\";\n\n\n/**\n * @dev Time machine features for the Dao\n * @author Kostiantyn Smyrnov <kostysh@gmail.com>\n */\ncontract DaoWithTimeMachine is Dao {\n    uint256 internal _currentTime;\n\n    /**\n     * @dev This event will be emitted when contraact time changing\n     * @param oldTime Time before the rewind\n     * @param newTime New contract time\n     */\n    event TimeMachine(\n        uint256 oldTime,\n        uint256 newTime\n    );\n\n    /**\n     * @dev Get current contract time\n     * @return uint256\n     */\n    function currentTime() public view returns (uint256) {\n        return time();\n    }\n\n    /**\n     * @dev Set new contract time\n     * @param time New time value\n     */\n    function setCurrentTime(uint256 time) external {\n        emit TimeMachine(currentTime(), time);\n        _currentTime = time;\n    }\n\n    /**\n     * @dev Return current time\n     * @dev uint256\n     */\n    function time() internal view returns (uint256) {\n        return _currentTime == 0 ? now : _currentTime;// solhint-disable-line not-rely-on-time\n    }\n}",
  "sourcePath": "/home/kostysh/dev/wtdao/packages/contracts/contracts/test/DaoWithTimeMachine.sol",
  "compiler": {
    "name": "solc",
    "version": "0.5.14+commit.01f1aaa4.Emscripten.clang"
  },
  "schemaVersion": "3.0.20",
  "updatedAt": "2019-12-28T14:05:45.495Z",
  "devdoc": {
    "author": "Kostiantyn Smyrnov <kostysh@gmail.com>",
    "details": "Time machine features for the Dao",
    "methods": {
      "addProposal(string,uint8,uint256,address,uint256,bytes)": {
        "details": "Add new proposal     * Requirements: - sender address should be whitelisted - contract should not be in paused state - proposal type should allowed proposalType - destination address should not be a valid target address - sent ether value should be consistent with value parameter ",
        "params": {
          "data": "Signed transaction data",
          "destination": "Transaction target address",
          "details": "Proposal details",
          "duration": "Proposal voting duration in days",
          "proposalType": "Proposal type",
          "value": "Transaction value in ethers"
        }
      },
      "cancelProposal(uint256)": {
        "details": "Cancelling of the proposal     * Requirements: - proposal should exists - sender address should be a proposer address - proposal should not be in a passed state - proposal should not be in a processed state - proposal should not be cancelled - proposal has no votes",
        "params": {
          "proposalId": "Proposal Id"
        }
      },
      "currentTime()": {
        "details": "Get current contract time",
        "return": "uint256"
      },
      "getActiveProposalsIds()": {
        "details": "Get all active proposals Ids",
        "return": "uint256[] List of proposals Ids"
      },
      "getActiveProposalsIds(uint8)": {
        "details": "Get all active proposals Ids filtered by proposal type     * Requirements: - proposal type should be valid  ",
        "return": "uint256[] List of proposals Ids"
      },
      "getProposal(uint256)": {
        "details": "Get proposal by Id (index)     * Requirements: - proposal should exists  ",
        "params": {
          "proposalId": "Proposal Id"
        },
        "return": "string Proposal detailsProposalType Proposal typeuint256 Proposal duration in daysuint256 Proposal end datebool[3] Proposal status flagsaddress Transaction target addressuint256 Ether value to send with transactionbytes Transaction databool Transaction execution statusbool Transaction execution result status"
      },
      "getVote(uint256)": {
        "details": "Get own vote from proposal voting      * Requirements: - proposal should exists - vote should be exist ",
        "params": {
          "proposalId": "Proposal Id"
        },
        "return": "VoteType Type of the voteuint256 Original vote value sentuint256 Acceptes vote valuebool Reveked state of the vote"
      },
      "initialize(address)": {
        "details": "Contract initializer",
        "params": {
          "token": "Address of the service token"
        }
      },
      "isVotingPassed(uint256)": {
        "details": "Check is voting is passed      * Requirements: - proposal should exists",
        "params": {
          "proposalId": "Proposal Id"
        },
        "return": "uint256 Voting result"
      },
      "pause()": {
        "details": "Called by a pauser to pause, triggers stopped state."
      },
      "paused()": {
        "details": "Returns true if the contract is paused, and false otherwise."
      },
      "processProposal(uint256)": {
        "details": "Process proposal     * Requirements: - proposal should exists - contract not paused - sender address should be a proposer address - proposal should not be processed - proposal should not be cancelled - proposal is finished",
        "params": {
          "proposalId": "Proposal Id"
        }
      },
      "replacePauser(address)": {
        "details": "Replace pauser to the new one      * Requirements: - sender address should be a pauser address ",
        "params": {
          "account": "New DAO pauser address"
        }
      },
      "replaceWhitelistAdmin(address)": {
        "details": "Replace whitelist admin with new one      * Requirements: - sender address should be a whitelisted admin address ",
        "params": {
          "account": "New DAO whitelist admin address"
        }
      },
      "revokeVote(uint256)": {
        "details": "Revoke of the placed vote     * Requirements: - proposal should exists - proposal should not be in a passed state - proposal should not be cancelled - vote should not been already revoked",
        "params": {
          "proposalId": "Proposal Id"
        }
      },
      "setCurrentTime(uint256)": {
        "details": "Set new contract time",
        "params": {
          "time": "New time value"
        }
      },
      "tokensBalance(uint256)": {
        "details": "Balance of locked tokens",
        "params": {
          "proposalId": "Proposal Id"
        },
        "return": "uint256 Balance of tokens that available to withdraw"
      },
      "unpause()": {
        "details": "Called by a pauser to unpause, returns to normal state."
      },
      "vote(uint256,uint8,uint256)": {
        "details": "Vote for the proposal     * Requirements: - proposal should exists - contract not paused - proposal should not be in a passed state - proposal should not be cancelled - sender tokens balance should be sufficient - tokens allowance for the DAO address should be sufficient - voting not expired (does not exceed voting time frame)",
        "params": {
          "proposalId": "Proposal Id",
          "voteType": "Type of the vote (Yes/No)",
          "votes": "Amount of service token to use in the vote"
        }
      },
      "votingResult(uint256)": {
        "details": "Get a result of the proposal voting     * Requirements: - proposal should exists",
        "params": {
          "proposalId": "Proposal Id"
        },
        "return": "uint256 'Yes' variant voting balanceuint256 'No' variant voting balance"
      },
      "withdrawTokens(uint256)": {
        "details": "Withdraw released tokens     * Requirements: - proposal should exists - proposal should be finished - sender has positive locked tokens balance",
        "params": {
          "proposalId": "Proposal Id"
        }
      }
    }
  },
  "userdoc": {
    "methods": {}
  }
}