{
  "contractName": "DaoWithTimeMachine",
  "abi": [
    {
      "anonymous": false,
      "inputs": [
        {
          "indexed": false,
          "internalType": "address",
          "name": "account",
          "type": "address"
        }
      ],
      "name": "Paused",
      "type": "event"
    },
    {
      "anonymous": false,
      "inputs": [
        {
          "indexed": true,
          "internalType": "address",
          "name": "account",
          "type": "address"
        }
      ],
      "name": "PauserAdded",
      "type": "event"
    },
    {
      "anonymous": false,
      "inputs": [
        {
          "indexed": true,
          "internalType": "address",
          "name": "account",
          "type": "address"
        }
      ],
      "name": "PauserRemoved",
      "type": "event"
    },
    {
      "anonymous": false,
      "inputs": [
        {
          "indexed": false,
          "internalType": "address",
          "name": "proposer",
          "type": "address"
        },
        {
          "indexed": false,
          "internalType": "uint256",
          "name": "proposalId",
          "type": "uint256"
        }
      ],
      "name": "ProposalAdded",
      "type": "event"
    },
    {
      "anonymous": false,
      "inputs": [
        {
          "indexed": false,
          "internalType": "uint256",
          "name": "proposalId",
          "type": "uint256"
        }
      ],
      "name": "ProposalCancelled",
      "type": "event"
    },
    {
      "anonymous": false,
      "inputs": [
        {
          "indexed": false,
          "internalType": "uint256",
          "name": "proposalId",
          "type": "uint256"
        },
        {
          "indexed": false,
          "internalType": "bool",
          "name": "passed",
          "type": "bool"
        },
        {
          "indexed": false,
          "internalType": "uint256",
          "name": "yes",
          "type": "uint256"
        },
        {
          "indexed": false,
          "internalType": "uint256",
          "name": "no",
          "type": "uint256"
        }
      ],
      "name": "ProposalProcessed",
      "type": "event"
    },
    {
      "anonymous": false,
      "inputs": [
        {
          "indexed": false,
          "internalType": "address",
          "name": "voter",
          "type": "address"
        },
        {
          "indexed": false,
          "internalType": "uint256",
          "name": "value",
          "type": "uint256"
        }
      ],
      "name": "TokensLocked",
      "type": "event"
    },
    {
      "anonymous": false,
      "inputs": [
        {
          "indexed": false,
          "internalType": "address",
          "name": "voter",
          "type": "address"
        },
        {
          "indexed": false,
          "internalType": "uint256",
          "name": "value",
          "type": "uint256"
        }
      ],
      "name": "TokensReleased",
      "type": "event"
    },
    {
      "anonymous": false,
      "inputs": [
        {
          "indexed": false,
          "internalType": "uint256",
          "name": "proposalId",
          "type": "uint256"
        }
      ],
      "name": "TransactionFailed",
      "type": "event"
    },
    {
      "anonymous": false,
      "inputs": [
        {
          "indexed": false,
          "internalType": "uint256",
          "name": "proposalId",
          "type": "uint256"
        },
        {
          "indexed": false,
          "internalType": "uint256",
          "name": "value",
          "type": "uint256"
        }
      ],
      "name": "TransactionSent",
      "type": "event"
    },
    {
      "anonymous": false,
      "inputs": [
        {
          "indexed": false,
          "internalType": "uint256",
          "name": "proposalId",
          "type": "uint256"
        }
      ],
      "name": "TransactionSuccessed",
      "type": "event"
    },
    {
      "anonymous": false,
      "inputs": [
        {
          "indexed": false,
          "internalType": "address",
          "name": "account",
          "type": "address"
        }
      ],
      "name": "Unpaused",
      "type": "event"
    },
    {
      "anonymous": false,
      "inputs": [
        {
          "indexed": false,
          "internalType": "uint256",
          "name": "proposalId",
          "type": "uint256"
        },
        {
          "indexed": false,
          "internalType": "enum Dao.VoteType",
          "name": "voteType",
          "type": "uint8"
        },
        {
          "indexed": false,
          "internalType": "address",
          "name": "voter",
          "type": "address"
        },
        {
          "indexed": false,
          "internalType": "uint256",
          "name": "votes",
          "type": "uint256"
        },
        {
          "indexed": false,
          "internalType": "uint256",
          "name": "votesAccepted",
          "type": "uint256"
        }
      ],
      "name": "VoteAdded",
      "type": "event"
    },
    {
      "anonymous": false,
      "inputs": [
        {
          "indexed": false,
          "internalType": "uint256",
          "name": "proposalId",
          "type": "uint256"
        },
        {
          "indexed": false,
          "internalType": "enum Dao.VoteType",
          "name": "voteType",
          "type": "uint8"
        },
        {
          "indexed": false,
          "internalType": "address",
          "name": "voter",
          "type": "address"
        },
        {
          "indexed": false,
          "internalType": "uint256",
          "name": "votes",
          "type": "uint256"
        }
      ],
      "name": "VoteRevoked",
      "type": "event"
    },
    {
      "anonymous": false,
      "inputs": [
        {
          "indexed": true,
          "internalType": "address",
          "name": "account",
          "type": "address"
        }
      ],
      "name": "WhitelistAdminAdded",
      "type": "event"
    },
    {
      "anonymous": false,
      "inputs": [
        {
          "indexed": true,
          "internalType": "address",
          "name": "account",
          "type": "address"
        }
      ],
      "name": "WhitelistAdminRemoved",
      "type": "event"
    },
    {
      "anonymous": false,
      "inputs": [
        {
          "indexed": true,
          "internalType": "address",
          "name": "account",
          "type": "address"
        }
      ],
      "name": "WhitelistedAdded",
      "type": "event"
    },
    {
      "anonymous": false,
      "inputs": [
        {
          "indexed": true,
          "internalType": "address",
          "name": "account",
          "type": "address"
        }
      ],
      "name": "WhitelistedRemoved",
      "type": "event"
    },
    {
      "constant": false,
      "inputs": [
        {
          "internalType": "address",
          "name": "account",
          "type": "address"
        }
      ],
      "name": "addPauser",
      "outputs": [],
      "payable": false,
      "stateMutability": "nonpayable",
      "type": "function"
    },
    {
      "constant": false,
      "inputs": [
        {
          "internalType": "string",
          "name": "details",
          "type": "string"
        },
        {
          "internalType": "enum Dao.ProposalType",
          "name": "proposalType",
          "type": "uint8"
        },
        {
          "internalType": "uint256",
          "name": "duration",
          "type": "uint256"
        },
        {
          "internalType": "address",
          "name": "destination",
          "type": "address"
        },
        {
          "internalType": "uint256",
          "name": "value",
          "type": "uint256"
        },
        {
          "internalType": "bytes",
          "name": "data",
          "type": "bytes"
        }
      ],
      "name": "addProposal",
      "outputs": [],
      "payable": true,
      "stateMutability": "payable",
      "type": "function"
    },
    {
      "constant": false,
      "inputs": [
        {
          "internalType": "address",
          "name": "account",
          "type": "address"
        }
      ],
      "name": "addWhitelistAdmin",
      "outputs": [],
      "payable": false,
      "stateMutability": "nonpayable",
      "type": "function"
    },
    {
      "constant": false,
      "inputs": [
        {
          "internalType": "address",
          "name": "account",
          "type": "address"
        }
      ],
      "name": "addWhitelisted",
      "outputs": [],
      "payable": false,
      "stateMutability": "nonpayable",
      "type": "function"
    },
    {
      "constant": false,
      "inputs": [
        {
          "internalType": "uint256",
          "name": "proposalId",
          "type": "uint256"
        }
      ],
      "name": "cancelProposal",
      "outputs": [],
      "payable": false,
      "stateMutability": "nonpayable",
      "type": "function"
    },
    {
      "constant": true,
      "inputs": [
        {
          "internalType": "enum Dao.ProposalType",
          "name": "proposalType",
          "type": "uint8"
        }
      ],
      "name": "getActiveProposalsIds",
      "outputs": [
        {
          "internalType": "uint256[]",
          "name": "",
          "type": "uint256[]"
        }
      ],
      "payable": false,
      "stateMutability": "view",
      "type": "function"
    },
    {
      "constant": true,
      "inputs": [],
      "name": "getActiveProposalsIds",
      "outputs": [
        {
          "internalType": "uint256[]",
          "name": "",
          "type": "uint256[]"
        }
      ],
      "payable": false,
      "stateMutability": "view",
      "type": "function"
    },
    {
      "constant": true,
      "inputs": [
        {
          "internalType": "uint256",
          "name": "proposalId",
          "type": "uint256"
        }
      ],
      "name": "getProposal",
      "outputs": [
        {
          "internalType": "string",
          "name": "details",
          "type": "string"
        },
        {
          "internalType": "enum Dao.ProposalType",
          "name": "proposalType",
          "type": "uint8"
        },
        {
          "internalType": "uint256",
          "name": "duration",
          "type": "uint256"
        },
        {
          "internalType": "uint256",
          "name": "end",
          "type": "uint256"
        },
        {
          "internalType": "bool[3]",
          "name": "flags",
          "type": "bool[3]"
        },
        {
          "internalType": "address",
          "name": "txDestination",
          "type": "address"
        },
        {
          "internalType": "uint256",
          "name": "txValue",
          "type": "uint256"
        },
        {
          "internalType": "bytes",
          "name": "txData",
          "type": "bytes"
        },
        {
          "internalType": "bool",
          "name": "txExecuted",
          "type": "bool"
        },
        {
          "internalType": "bool",
          "name": "txSuccess",
          "type": "bool"
        }
      ],
      "payable": false,
      "stateMutability": "view",
      "type": "function"
    },
    {
      "constant": true,
      "inputs": [
        {
          "internalType": "uint256",
          "name": "proposalId",
          "type": "uint256"
        }
      ],
      "name": "getVote",
      "outputs": [
        {
          "internalType": "enum Dao.VoteType",
          "name": "voteType",
          "type": "uint8"
        },
        {
          "internalType": "uint256",
          "name": "valueOriginal",
          "type": "uint256"
        },
        {
          "internalType": "uint256",
          "name": "valueAccepted",
          "type": "uint256"
        },
        {
          "internalType": "bool",
          "name": "revoked",
          "type": "bool"
        }
      ],
      "payable": false,
      "stateMutability": "view",
      "type": "function"
    },
    {
      "constant": false,
      "inputs": [
        {
          "internalType": "address",
          "name": "token",
          "type": "address"
        }
      ],
      "name": "initialize",
      "outputs": [],
      "payable": false,
      "stateMutability": "nonpayable",
      "type": "function"
    },
    {
      "constant": true,
      "inputs": [
        {
          "internalType": "address",
          "name": "account",
          "type": "address"
        }
      ],
      "name": "isPauser",
      "outputs": [
        {
          "internalType": "bool",
          "name": "",
          "type": "bool"
        }
      ],
      "payable": false,
      "stateMutability": "view",
      "type": "function"
    },
    {
      "constant": true,
      "inputs": [
        {
          "internalType": "uint256",
          "name": "proposalId",
          "type": "uint256"
        }
      ],
      "name": "isVotingPassed",
      "outputs": [
        {
          "internalType": "bool",
          "name": "",
          "type": "bool"
        }
      ],
      "payable": false,
      "stateMutability": "view",
      "type": "function"
    },
    {
      "constant": true,
      "inputs": [
        {
          "internalType": "address",
          "name": "account",
          "type": "address"
        }
      ],
      "name": "isWhitelistAdmin",
      "outputs": [
        {
          "internalType": "bool",
          "name": "",
          "type": "bool"
        }
      ],
      "payable": false,
      "stateMutability": "view",
      "type": "function"
    },
    {
      "constant": true,
      "inputs": [
        {
          "internalType": "address",
          "name": "account",
          "type": "address"
        }
      ],
      "name": "isWhitelisted",
      "outputs": [
        {
          "internalType": "bool",
          "name": "",
          "type": "bool"
        }
      ],
      "payable": false,
      "stateMutability": "view",
      "type": "function"
    },
    {
      "constant": false,
      "inputs": [],
      "name": "pause",
      "outputs": [],
      "payable": false,
      "stateMutability": "nonpayable",
      "type": "function"
    },
    {
      "constant": true,
      "inputs": [],
      "name": "paused",
      "outputs": [
        {
          "internalType": "bool",
          "name": "",
          "type": "bool"
        }
      ],
      "payable": false,
      "stateMutability": "view",
      "type": "function"
    },
    {
      "constant": false,
      "inputs": [
        {
          "internalType": "uint256",
          "name": "proposalId",
          "type": "uint256"
        }
      ],
      "name": "processProposal",
      "outputs": [],
      "payable": false,
      "stateMutability": "nonpayable",
      "type": "function"
    },
    {
      "constant": true,
      "inputs": [],
      "name": "proposalCount",
      "outputs": [
        {
          "internalType": "uint256",
          "name": "",
          "type": "uint256"
        }
      ],
      "payable": false,
      "stateMutability": "view",
      "type": "function"
    },
    {
      "constant": false,
      "inputs": [
        {
          "internalType": "address",
          "name": "account",
          "type": "address"
        }
      ],
      "name": "removeWhitelisted",
      "outputs": [],
      "payable": false,
      "stateMutability": "nonpayable",
      "type": "function"
    },
    {
      "constant": false,
      "inputs": [],
      "name": "renouncePauser",
      "outputs": [],
      "payable": false,
      "stateMutability": "nonpayable",
      "type": "function"
    },
    {
      "constant": false,
      "inputs": [],
      "name": "renounceWhitelistAdmin",
      "outputs": [],
      "payable": false,
      "stateMutability": "nonpayable",
      "type": "function"
    },
    {
      "constant": false,
      "inputs": [],
      "name": "renounceWhitelisted",
      "outputs": [],
      "payable": false,
      "stateMutability": "nonpayable",
      "type": "function"
    },
    {
      "constant": false,
      "inputs": [
        {
          "internalType": "address",
          "name": "account",
          "type": "address"
        }
      ],
      "name": "replacePauser",
      "outputs": [],
      "payable": false,
      "stateMutability": "nonpayable",
      "type": "function"
    },
    {
      "constant": false,
      "inputs": [
        {
          "internalType": "address",
          "name": "account",
          "type": "address"
        }
      ],
      "name": "replaceWhitelistAdmin",
      "outputs": [],
      "payable": false,
      "stateMutability": "nonpayable",
      "type": "function"
    },
    {
      "constant": false,
      "inputs": [
        {
          "internalType": "uint256",
          "name": "proposalId",
          "type": "uint256"
        }
      ],
      "name": "revokeVote",
      "outputs": [],
      "payable": false,
      "stateMutability": "nonpayable",
      "type": "function"
    },
    {
      "constant": true,
      "inputs": [],
      "name": "serviceToken",
      "outputs": [
        {
          "internalType": "contract IERC20",
          "name": "",
          "type": "address"
        }
      ],
      "payable": false,
      "stateMutability": "view",
      "type": "function"
    },
    {
      "constant": true,
      "inputs": [],
      "name": "tokensBalance",
      "outputs": [
        {
          "internalType": "uint256",
          "name": "",
          "type": "uint256"
        }
      ],
      "payable": false,
      "stateMutability": "view",
      "type": "function"
    },
    {
      "constant": false,
      "inputs": [],
      "name": "unpause",
      "outputs": [],
      "payable": false,
      "stateMutability": "nonpayable",
      "type": "function"
    },
    {
      "constant": false,
      "inputs": [
        {
          "internalType": "uint256",
          "name": "proposalId",
          "type": "uint256"
        },
        {
          "internalType": "enum Dao.VoteType",
          "name": "voteType",
          "type": "uint8"
        },
        {
          "internalType": "uint256",
          "name": "votes",
          "type": "uint256"
        }
      ],
      "name": "vote",
      "outputs": [],
      "payable": false,
      "stateMutability": "nonpayable",
      "type": "function"
    },
    {
      "constant": true,
      "inputs": [
        {
          "internalType": "uint256",
          "name": "proposalId",
          "type": "uint256"
        }
      ],
      "name": "votingResult",
      "outputs": [
        {
          "internalType": "uint256",
          "name": "yes",
          "type": "uint256"
        },
        {
          "internalType": "uint256",
          "name": "no",
          "type": "uint256"
        }
      ],
      "payable": false,
      "stateMutability": "view",
      "type": "function"
    },
    {
      "constant": false,
      "inputs": [],
      "name": "withdrawTokens",
      "outputs": [],
      "payable": false,
      "stateMutability": "nonpayable",
      "type": "function"
    },
    {
      "constant": false,
      "inputs": [
        {
          "internalType": "uint256",
          "name": "time",
          "type": "uint256"
        }
      ],
      "name": "setCurrentTime",
      "outputs": [],
      "payable": false,
      "stateMutability": "nonpayable",
      "type": "function"
    }
  ],
  "bytecode": "0x60806040526200002a6200001b6001600160e01b036200006516565b6001600160e01b036200006916565b6034805460ff191690556200005a6200004b6001600160e01b036200006516565b6001600160e01b03620000bb16565b600160375562000203565b3390565b620000848160336200010d60201b62002a431790919060201c565b6040516001600160a01b038216907f6719d08c1888103bea251a4ed56406bd0c3e69723c8a1686e017e7bbe159b6f890600090a250565b620000d68160356200010d60201b62002a431790919060201c565b6040516001600160a01b038216907f22380c05984257a1cb900161c713dd71d39e74820f1aea43bd3f1bdd2096129990600090a250565b6200012282826001600160e01b036200019a16565b1562000175576040805162461bcd60e51b815260206004820152601f60248201527f526f6c65733a206163636f756e7420616c72656164792068617320726f6c6500604482015290519081900360640190fd5b6001600160a01b0316600090815260209190915260409020805460ff19166001179055565b60006001600160a01b038216620001e35760405162461bcd60e51b8152600401808060200182810382526022815260200180620033006022913960400191505060405180910390fd5b506001600160a01b03166000908152602091909152604090205460ff1690565b6130ed80620002136000396000f3fe6080604052600436106101e35760003560e01c80637e9b8f8011610102578063c7f758a811610095578063e0a8f6f511610064578063e0a8f6f5146108fa578063e520251a14610924578063e63bc62d1461095d578063f73a8b4a14610987576101e3565b8063c7f758a81461071c578063c8032a84146108a9578063d6cd9473146108d0578063da35c664146108e5576101e3565b80638d8f2adb116100d15780638d8f2adb14610670578063b769296814610685578063bb5f747b146106b6578063c4d66de8146106e9576101e3565b80637e9b8f80146105e057806382dc1ec4146105f55780638456cb5914610628578063865837461461063d576101e3565b80635a55c1f01161017a5780636a96bab4116101495780636a96bab41461048a5780636ef8d66d146104b45780637362d9c8146104c95780637c2466ff146104fc576101e3565b80635a55c1f0146103515780635c975abb146103b557806361301afa146103ca57806361d1405114610447576101e3565b80633af32abf116101b65780633af32abf146102ad5780633f4ba83a146102f457806346fbf68e146103095780634c5a628c1461033c576101e3565b806310154bad146101e857806319819ff51461021d57806322f8e56614610250578063291d95491461027a575b600080fd5b3480156101f457600080fd5b5061021b6004803603602081101561020b57600080fd5b50356001600160a01b03166109b1565b005b34801561022957600080fd5b5061021b6004803603602081101561024057600080fd5b50356001600160a01b0316610a08565b34801561025c57600080fd5b5061021b6004803603602081101561027357600080fd5b5035610a60565b34801561028657600080fd5b5061021b6004803603602081101561029d57600080fd5b50356001600160a01b0316610a65565b3480156102b957600080fd5b506102e0600480360360208110156102d057600080fd5b50356001600160a01b0316610ab4565b604080519115158252519081900360200190f35b34801561030057600080fd5b5061021b610acd565b34801561031557600080fd5b506102e06004803603602081101561032c57600080fd5b50356001600160a01b0316610bb6565b34801561034857600080fd5b5061021b610bc9565b34801561035d57600080fd5b5061037b6004803603602081101561037457600080fd5b5035610bdb565b6040518085600181111561038b57fe5b60ff1681526020810194909452506040808401929092521515606083015251908190036080019150f35b3480156103c157600080fd5b506102e0610cea565b3480156103d657600080fd5b506103f7600480360360208110156103ed57600080fd5b503560ff16610cf4565b60408051602080825283518183015283519192839290830191858101910280838360005b8381101561043357818101518382015260200161041b565b505050509050019250505060405180910390f35b34801561045357600080fd5b506104716004803603602081101561046a57600080fd5b5035610cfa565b6040805192835260208301919091528051918290030190f35b34801561049657600080fd5b506102e0600480360360208110156104ad57600080fd5b5035610e76565b3480156104c057600080fd5b5061021b610f62565b3480156104d557600080fd5b5061021b600480360360208110156104ec57600080fd5b50356001600160a01b0316610f72565b61021b600480360360c081101561051257600080fd5b81019060208101813564010000000081111561052d57600080fd5b82018360208201111561053f57600080fd5b8035906020019184600183028401116401000000008311171561056157600080fd5b9193909260ff833516926020810135926001600160a01b036040830135169260608301359260a0810190608001356401000000008111156105a157600080fd5b8201836020820111156105b357600080fd5b803590602001918460018302840111640100000000831117156105d557600080fd5b509092509050610fc1565b3480156105ec57600080fd5b506103f7611393565b34801561060157600080fd5b5061021b6004803603602081101561061857600080fd5b50356001600160a01b0316611398565b34801561063457600080fd5b5061021b6113e7565b34801561064957600080fd5b5061021b6004803603602081101561066057600080fd5b50356001600160a01b03166114ae565b34801561067c57600080fd5b5061021b611506565b34801561069157600080fd5b5061069a611516565b604080516001600160a01b039092168252519081900360200190f35b3480156106c257600080fd5b506102e0600480360360208110156106d957600080fd5b50356001600160a01b0316611525565b3480156106f557600080fd5b5061021b6004803603602081101561070c57600080fd5b50356001600160a01b0316611538565b34801561072857600080fd5b506107466004803603602081101561073f57600080fd5b503561160d565b60405180806020018b600181111561075a57fe5b60ff1681526020018a815260200189815260200188600360200280838360005b8381101561079257818101518382015260200161077a565b50505050905001876001600160a01b03166001600160a01b0316815260200186815260200180602001851515151581526020018415151515815260200183810383528d818151815260200191508051906020019080838360005b838110156108045781810151838201526020016107ec565b50505050905090810190601f1680156108315780820380516001836020036101000a031916815260200191505b50838103825286518152865160209182019188019080838360005b8381101561086457818101518382015260200161084c565b50505050905090810190601f1680156108915780820380516001836020036101000a031916815260200191505b509c5050505050505050505050505060405180910390f35b3480156108b557600080fd5b506108be611872565b60408051918252519081900360200190f35b3480156108dc57600080fd5b5061021b611877565b3480156108f157600080fd5b506108be611887565b34801561090657600080fd5b5061021b6004803603602081101561091d57600080fd5b503561188d565b34801561093057600080fd5b5061021b6004803603606081101561094757600080fd5b5080359060ff6020820135169060400135611b2a565b34801561096957600080fd5b5061021b6004803603602081101561098057600080fd5b50356121fe565b34801561099357600080fd5b5061021b600480360360208110156109aa57600080fd5b5035612437565b6109c16109bc612669565b611525565b6109fc5760405162461bcd60e51b81526004018080602001828103825260408152602001806130156040913960400191505060405180910390fd5b610a058161266d565b50565b610a136109bc612669565b610a4e5760405162461bcd60e51b81526004018080602001828103825260408152602001806130156040913960400191505060405180910390fd5b610a57816126b5565b610a05336126fd565b603c55565b610a706109bc612669565b610aab5760405162461bcd60e51b81526004018080602001828103825260408152602001806130156040913960400191505060405180910390fd5b610a0581612745565b6000610ac760368363ffffffff61278d16565b92915050565b610add610ad8612669565b610bb6565b610b185760405162461bcd60e51b8152600401808060200182810382526030815260200180612f536030913960400191505060405180910390fd5b60345460ff16610b66576040805162461bcd60e51b815260206004820152601460248201527314185d5cd8589b194e881b9bdd081c185d5cd95960621b604482015290519081900360640190fd5b6034805460ff191690557f5db9ee0a495bf2e6ff9c91a7834c1ba4fdd244a5e8aa4e537bd38aeae4b073aa610b99612669565b604080516001600160a01b039092168252519081900360200190a1565b6000610ac760338363ffffffff61278d16565b610bd9610bd4612669565b6126fd565b565b6000818152603a60205260408120600701548190819081908590610c3b576040805162461bcd60e51b8152602060048201526012602482015271141493d413d4d05317d393d517d193d5539160721b604482015290519081900360640190fd5b6000868152603b60209081526040808320338452600101909152902054869060ff16610c9f576040805162461bcd60e51b815260206004820152600e60248201526d1593d51157d393d517d193d5539160921b604482015290519081900360640190fd5b50505060009384525050603b602090815260408084203385528083528185205485526002908101909252909220805460018201549382015460039092015460ff918216959293501690565b60345460ff165b90565b50606090565b6000818152603a602052604081206007015481908390610d56576040805162461bcd60e51b8152602060048201526012602482015271141493d413d4d05317d393d517d193d5539160721b604482015290519081900360640190fd5b60005b6000858152603b6020526040902060030154811015610e6f576000858152603b6020908152604080832084845260020190915290206003015460ff16610e67576000858152603b6020908152604080832084845260020190915281205460ff166001811115610dc457fe5b1415610dff576000858152603b6020908152604080832084845260029081019092529091200154610dfc90859063ffffffff6127f416565b93505b60016000868152603b6020908152604080832085845260020190915290205460ff166001811115610e2c57fe5b1415610e67576000858152603b6020908152604080832084845260029081019092529091200154610e6490849063ffffffff6127f416565b92505b600101610d59565b5050915091565b6000818152603a60205260408120600701548290610ed0576040805162461bcd60e51b8152602060048201526012602482015271141493d413d4d05317d393d517d193d5539160721b604482015290519081900360640190fd5b6000838152603a602052604090206009015460ff1615610ef35760019150610f5c565b6000838152603a602052604090206009015462010000900460ff1615610f1c5760009150610f5c565b6000838152603a6020526040902060080154610f36612855565b1015610f455760009150610f5c565b600080610f5185610cfa565b109350610f5c915050565b50919050565b610bd9610f6d612669565b612870565b610f7d6109bc612669565b610fb85760405162461bcd60e51b81526004018080602001828103825260408152602001806130156040913960400191505060405180910390fd5b610a05816126b5565b610fd1610fcc612669565b610ab4565b61100c5760405162461bcd60e51b815260040180806020018281038252603a815260200180613055603a913960400191505060405180910390fd5b60345460ff1615611057576040805162461bcd60e51b815260206004820152601060248201526f14185d5cd8589b194e881c185d5cd95960821b604482015290519081900360640190fd5b611060866128b8565b506001600160a01b0384166110b2576040805162461bcd60e51b815260206004820152601360248201527224a72b20a624a22fa222a9aa24a720aa24a7a760691b604482015290519081900360640190fd5b8215806110ca57506000831180156110ca5750823410155b61111b576040805162461bcd60e51b815260206004820152601860248201527f494e53554646494349454e545f45544845525f56414c55450000000000000000604482015290519081900360640190fd5b60395460408051338152602081019290925280517f294a8b64183582a911805b3a31b11b3c4d20c7431578897c6abcc35aae886d5e9281900390910190a1611161612df0565b6040518060e00160405280336001600160a01b031681526020018a8a8080601f0160208091040260200160405190810160405280939291908181526020018383808284376000920191909152505050908252506020018860018111156111c357fe5b81526020016040518060a00160405280886001600160a01b0316815260200187815260200186868080601f0160208091040260200160405190810160405280939291908181526020018383808284376000920182905250938552505050602080830182905260409283019190915291835290820189905201611265611251896201518063ffffffff6128c616565b611259612855565b9063ffffffff6127f416565b815260209081018390526039546000908152603a825260409020825181546001600160a01b0319166001600160a01b0390911617815582820151805191926112b592600185019290910190612e0e565b50604082015160028201805460ff1916600183818111156112d257fe5b0217905550606082015180516003830180546001600160a01b0319166001600160a01b039092169190911781556020808301516004850155604083015180516113219260058701920190612e0e565b5060608201516003918201805460809485015115156101000261ff001993151560ff19909216919091179290921691909117905590830151600783015560a0830151600883015560c083015161137c91600984019190612e8c565b505060398054600101905550505050505050505050565b606090565b6113a3610ad8612669565b6113de5760405162461bcd60e51b8152600401808060200182810382526030815260200180612f536030913960400191505060405180910390fd5b610a058161291f565b6113f2610ad8612669565b61142d5760405162461bcd60e51b8152600401808060200182810382526030815260200180612f536030913960400191505060405180910390fd5b60345460ff1615611478576040805162461bcd60e51b815260206004820152601060248201526f14185d5cd8589b194e881c185d5cd95960821b604482015290519081900360640190fd5b6034805460ff191660011790557f62e78cea01bee320cd4e420270b5ea74000d11b0c9f74754ebdbfc544b05a258610b99612669565b6114b9610ad8612669565b6114f45760405162461bcd60e51b8152600401808060200182810382526030815260200180612f536030913960400191505060405180910390fd5b6114fd8161291f565b610a0533612870565b6037805460010190819055610a05565b6038546001600160a01b031681565b6000610ac760358363ffffffff61278d16565b600054610100900460ff16806115515750611551612967565b8061155f575060005460ff16155b61159a5760405162461bcd60e51b815260040180806020018281038252602e815260200180612fe7602e913960400191505060405180910390fd5b600054610100900460ff161580156115c5576000805460ff1961ff0019909116610100171660011790555b603880546001600160a01b0319166001600160a01b03841617905560006039556115ee3361291f565b6115f7336126b5565b8015611609576000805461ff00191690555b5050565b6060600080600061161c612df0565b6000868152603a60205260408120600701548190606090829081908b9061167f576040805162461bcd60e51b8152602060048201526012602482015271141493d413d4d05317d393d517d193d5539160721b604482015290519081900360640190fd5b60008c8152603a6020908152604091829020600180820180548551600293821615610100026000190190911692909204601f8101859004850283018501909552848252919390928301828280156117175780601f106116ec57610100808354040283529160200191611717565b820191906000526020600020905b8154815290600101906020018083116116fa57829003601f168201915b50505050509b508060020160009054906101000a900460ff169a5080600701549950806008015498508060090160038060200260405190810160405280929190826003801561179b576020028201916000905b825461010083900a900460ff16151581526020600192830181810494850194909303909202910180841161176a5790505b505050506003830154600484015460058501805460408051602060026101006001861615026000190190941693909304601f8101849004840282018401909252818152969e506001600160a01b039094169c50919a5092508301828280156118445780601f1061181957610100808354040283529160200191611844565b820191906000526020600020905b81548152906001019060200180831161182757829003601f168201915b5050506006909301549d9f9c9e509a9c999b989a509698959760ff8088169761010090041695509350505050565b600090565b610bd9611882612669565b612745565b60395481565b6000818152603a602052604090206007015481906118e7576040805162461bcd60e51b8152602060048201526012602482015271141493d413d4d05317d393d517d193d5539160721b604482015290519081900360640190fd5b6000828152603a602052604090205482906001600160a01b03163314611945576040805162461bcd60e51b815260206004820152600e60248201526d2727aa2fa0afa82927a827a9a2a960911b604482015290519081900360640190fd5b6000838152603a6020526040902060090154839060ff16156119a0576040805162461bcd60e51b815260206004820152600f60248201526e141493d413d4d05317d41054d4d151608a1b604482015290519081900360640190fd5b6000848152603a60205260409020600901548490610100900460ff1615611a03576040805162461bcd60e51b8152602060048201526012602482015271141493d413d4d05317d41493d0d154d4d15160721b604482015290519081900360640190fd5b6000858152603a6020526040902060090154859062010000900460ff1615611a67576040805162461bcd60e51b8152602060048201526012602482015271141493d413d4d05317d0d05390d15313115160721b604482015290519081900360640190fd5b600080611a7388610cfa565b91509150816000148015611a85575080155b611acb576040805162461bcd60e51b815260206004820152601260248201527150524f504f53414c5f4841535f564f54455360701b604482015290519081900360640190fd5b6000888152603a6020908152604091829020600901805462ff000019166201000017905581518a815291517f416e669c63d9a3a5e36ee7cc7e2104b8db28ccd286aa18966e98fa230c73b08c9281900390910190a15050505050505050565b60345460ff1615611b75576040805162461bcd60e51b815260206004820152601060248201526f14185d5cd8589b194e881c185d5cd95960821b604482015290519081900360640190fd5b60378054600101908190556000848152603a60205260409020600701548490611bda576040805162461bcd60e51b8152602060048201526012602482015271141493d413d4d05317d393d517d193d5539160721b604482015290519081900360640190fd5b6000858152603a6020526040902060090154859060ff1615611c35576040805162461bcd60e51b815260206004820152600f60248201526e141493d413d4d05317d41054d4d151608a1b604482015290519081900360640190fd5b6000868152603a6020526040902060090154869062010000900460ff1615611c99576040805162461bcd60e51b8152602060048201526012602482015271141493d413d4d05317d0d05390d15313115160721b604482015290519081900360640190fd5b6000878152603a60205260409020600801548790611cb5612855565b10611cfb576040805162461bcd60e51b8152602060048201526011602482015270141493d413d4d05317d192539254d21151607a1b604482015290519081900360640190fd5b603854604080516370a0823160e01b8152336004820152905188926001600160a01b0316916370a08231916024808301926020929190829003018186803b158015611d4557600080fd5b505afa158015611d59573d6000803e3d6000fd5b505050506040513d6020811015611d6f57600080fd5b50511015611dc4576040805162461bcd60e51b815260206004820152601b60248201527f494e53554646494349454e545f544f4b454e535f42414c414e43450000000000604482015290519081900360640190fd5b60385460408051636eb1769f60e11b8152336004820152306024820152905188926001600160a01b03169163dd62ed3e916044808301926020929190829003018186803b158015611e1457600080fd5b505afa158015611e28573d6000803e3d6000fd5b505050506040513d6020811015611e3e57600080fd5b50511015611e93576040805162461bcd60e51b815260206004820152601d60248201527f494e53554646494349454e545f544f4b454e535f414c4c4f57414e4345000000604482015290519081900360640190fd5b6000888152603b60209081526040808320338452600101909152812054879190819060ff16612000575060008a8152603b6020908152604080832060038101543385529252909120819055611ee78361296d565b915060405180608001604052808b6001811115611f0057fe5b815260208082018690526040808301869052600060609093018390528e8352603b8252808320858452600201909152902081518154829060ff191660018381811115611f4857fe5b0217905550602082015181600101556040820151816002015560608201518160030160006101000a81548160ff0219169083151502179055509050506001603b60008d81526020019081526020016000206001016000336001600160a01b03166001600160a01b0316815260200190815260200160002060006101000a81548160ff0219169083151502179055506001603b60008d815260200190815260200160002060030160008282540192505081905550612124565b5060008a8152603b60209081526040808320338452808352818420548085526002909101909252909120600381015460ff16156120535760038101805460ff1916905561204c8461296d565b92506120fa565b6001810154612068908b63ffffffff6127f416565b93506120738461296d565b92507f940ff8122c3cdbdc4a4aa871d42fdf13e863866d63ab2ea9fc0af542894daff48c8260000160009054906101000a900460ff16338460010154604051808581526020018460018111156120c557fe5b60ff168152602001836001600160a01b03166001600160a01b0316815260200182815260200194505050505060405180910390a15b80548b90829060ff19166001838181111561211157fe5b0217905550600181018490556002018290555b7f615fd00d334fb9ec9d221e8191b07961008426504d05e916a5e961a64d3a21b18b8b3386866040518086815260200185600181111561216057fe5b60ff1681526001600160a01b039094166020850152506040808401929092526060830152519081900360800192509050a161219b338a612978565b5050505050505060375481146121f8576040805162461bcd60e51b815260206004820152601f60248201527f5265656e7472616e637947756172643a207265656e7472616e742063616c6c00604482015290519081900360640190fd5b50505050565b60345460ff1615612249576040805162461bcd60e51b815260206004820152601060248201526f14185d5cd8589b194e881c185d5cd95960821b604482015290519081900360640190fd5b6000818152603a602052604090206007015481906122a3576040805162461bcd60e51b8152602060048201526012602482015271141493d413d4d05317d393d517d193d5539160721b604482015290519081900360640190fd5b6000828152603a602052604090205482906001600160a01b03163314612301576040805162461bcd60e51b815260206004820152600e60248201526d2727aa2fa0afa82927a827a9a2a960911b604482015290519081900360640190fd5b6000838152603a60205260409020600901548390610100900460ff1615612364576040805162461bcd60e51b8152602060048201526012602482015271141493d413d4d05317d41493d0d154d4d15160721b604482015290519081900360640190fd5b6000848152603a6020526040902060090154849062010000900460ff16156123c8576040805162461bcd60e51b8152602060048201526012602482015271141493d413d4d05317d0d05390d15313115160721b604482015290519081900360640190fd5b6000858152603a602052604090206008015485906123e4612855565b101561242f576040805162461bcd60e51b8152602060048201526015602482015274141493d413d4d05317d393d517d192539254d21151605a1b604482015290519081900360640190fd5b505050505050565b6000818152603a60205260409020600701548190612491576040805162461bcd60e51b8152602060048201526012602482015271141493d413d4d05317d393d517d193d5539160721b604482015290519081900360640190fd5b6000828152603a6020526040902060090154829060ff16156124ec576040805162461bcd60e51b815260206004820152600f60248201526e141493d413d4d05317d41054d4d151608a1b604482015290519081900360640190fd5b6000838152603a6020526040902060090154839062010000900460ff1615612550576040805162461bcd60e51b8152602060048201526012602482015271141493d413d4d05317d0d05390d15313115160721b604482015290519081900360640190fd5b6000848152603b602090815260408083203384528083528184205484526002019091529020600381015460ff16156125be576040805162461bcd60e51b815260206004820152600c60248201526b1593d51157d4915593d2d15160a21b604482015290519081900360640190fd5b60038101805460ff191660019081179091558101546125de9033906129de565b7f940ff8122c3cdbdc4a4aa871d42fdf13e863866d63ab2ea9fc0af542894daff4858260000160009054906101000a900460ff163384600101546040518085815260200184600181111561262e57fe5b60ff168152602001836001600160a01b03166001600160a01b0316815260200182815260200194505050505060405180910390a15050505050565b3390565b61267e60368263ffffffff612a4316565b6040516001600160a01b038216907fee1504a83b6d4a361f4c1dc78ab59bfa30d6a3b6612c403e86bb01ef2984295f90600090a250565b6126c660358263ffffffff612a4316565b6040516001600160a01b038216907f22380c05984257a1cb900161c713dd71d39e74820f1aea43bd3f1bdd2096129990600090a250565b61270e60358263ffffffff612ac416565b6040516001600160a01b038216907f0a8eb35e5ca14b3d6f28e4abf2f128dbab231a58b56e89beb5d636115001e16590600090a250565b61275660368263ffffffff612ac416565b6040516001600160a01b038216907f270d9b30cf5b0793bbfd54c9d5b94aeb49462b8148399000265144a8722da6b690600090a250565b60006001600160a01b0382166127d45760405162461bcd60e51b8152600401808060200182810382526022815260200180612fc56022913960400191505060405180910390fd5b506001600160a01b03166000908152602091909152604090205460ff1690565b60008282018381101561284e576040805162461bcd60e51b815260206004820152601b60248201527f536166654d6174683a206164646974696f6e206f766572666c6f770000000000604482015290519081900360640190fd5b9392505050565b6000603c5460001461286957603c5461286b565b425b905090565b61288160338263ffffffff612ac416565b6040516001600160a01b038216907fcd265ebaf09df2871cc7bd4133404a235ba12eff2041bb89d9c714a2621c7c7e90600090a250565b6000816001811115610ac757fe5b6000826128d557506000610ac7565b828202828482816128e257fe5b041461284e5760405162461bcd60e51b8152600401808060200182810382526021815260200180612fa46021913960400191505060405180910390fd5b61293060338263ffffffff612a4316565b6040516001600160a01b038216907f6719d08c1888103bea251a4ed56406bd0c3e69723c8a1686e017e7bbe159b6f890600090a250565b303b1590565b6000610ac782612b2b565b603854612996906001600160a01b031683308463ffffffff612b4b16565b604080516001600160a01b03841681526020810183905281517fac87f20a77d28ee8bbb58ec87ea8fa968b3393efae1a368fd50b767c2847391c929181900390910190a15050565b6038546129fb906001600160a01b0316838363ffffffff612ba516565b604080516001600160a01b03841681526020810183905281517fc7798891864187665ac6dd119286e44ec13f014527aeeb2b8eb3fd413df93179929181900390910190a15050565b612a4d828261278d565b15612a9f576040805162461bcd60e51b815260206004820152601f60248201527f526f6c65733a206163636f756e7420616c72656164792068617320726f6c6500604482015290519081900360640190fd5b6001600160a01b0316600090815260209190915260409020805460ff19166001179055565b612ace828261278d565b612b095760405162461bcd60e51b8152600401808060200182810382526021815260200180612f836021913960400191505060405180910390fd5b6001600160a01b0316600090815260209190915260409020805460ff19169055565b80600260018201045b81811015610f5c5790506002818304820104612b34565b604080516001600160a01b0385811660248301528416604482015260648082018490528251808303909101815260849091019091526020810180516001600160e01b03166323b872dd60e01b1790526121f8908590612bfc565b604080516001600160a01b038416602482015260448082018490528251808303909101815260649091019091526020810180516001600160e01b031663a9059cbb60e01b179052612bf7908490612bfc565b505050565b612c0e826001600160a01b0316612db4565b612c5f576040805162461bcd60e51b815260206004820152601f60248201527f5361666545524332303a2063616c6c20746f206e6f6e2d636f6e747261637400604482015290519081900360640190fd5b60006060836001600160a01b0316836040518082805190602001908083835b60208310612c9d5780518252601f199092019160209182019101612c7e565b6001836020036101000a0380198251168184511680821785525050505050509050019150506000604051808303816000865af19150503d8060008114612cff576040519150601f19603f3d011682016040523d82523d6000602084013e612d04565b606091505b509150915081612d5b576040805162461bcd60e51b815260206004820181905260248201527f5361666545524332303a206c6f772d6c6576656c2063616c6c206661696c6564604482015290519081900360640190fd5b8051156121f857808060200190516020811015612d7757600080fd5b50516121f85760405162461bcd60e51b815260040180806020018281038252602a81526020018061308f602a913960400191505060405180910390fd5b6000813f7fc5d2460186f7233c927e7db2dcc703c0e500b653ca82273b7bfad8045d85a4708115801590612de85750808214155b949350505050565b60405180606001604052806003906020820280388339509192915050565b828054600181600116156101000203166002900490600052602060002090601f016020900481019282601f10612e4f57805160ff1916838001178555612e7c565b82800160010185558215612e7c579182015b82811115612e7c578251825591602001919060010190612e61565b50612e88929150612f1a565b5090565b600183019183908215612f0e5791602002820160005b83821115612edf57835183826101000a81548160ff0219169083151502179055509260200192600101602081600001049283019260010302612ea2565b8015612f0c5782816101000a81549060ff0219169055600101602081600001049283019260010302612edf565b505b50612e88929150612f34565b610cf191905b80821115612e885760008155600101612f20565b610cf191905b80821115612e8857805460ff19168155600101612f3a56fe506175736572526f6c653a2063616c6c657220646f6573206e6f742068617665207468652050617573657220726f6c65526f6c65733a206163636f756e7420646f6573206e6f74206861766520726f6c65536166654d6174683a206d756c7469706c69636174696f6e206f766572666c6f77526f6c65733a206163636f756e7420697320746865207a65726f2061646472657373436f6e747261637420696e7374616e63652068617320616c7265616479206265656e20696e697469616c697a656457686974656c69737441646d696e526f6c653a2063616c6c657220646f6573206e6f742068617665207468652057686974656c69737441646d696e20726f6c6557686974656c6973746564526f6c653a2063616c6c657220646f6573206e6f742068617665207468652057686974656c697374656420726f6c655361666545524332303a204552433230206f7065726174696f6e20646964206e6f742073756363656564a265627a7a723158200f9b0156046e29190c5ad3f03c74b85a5654e9b224376f0d883f621146574ae764736f6c634300050e0032526f6c65733a206163636f756e7420697320746865207a65726f2061646472657373",
  "source": "pragma solidity 0.5.14;\n\nimport \"../Dao.sol\";\n\n\ncontract DaoWithTimeMachine is Dao {\n    uint256 private currentTime;\n\n    function setCurrentTime(uint256 time) external {\n        currentTime = time;\n    }\n\n    function time() internal view returns (uint256) {\n        return currentTime == 0 ? now : currentTime;// solhint-disable-line not-rely-on-time\n    }\n}",
  "sourcePath": "/home/kostysh/dev/dao/packages/contracts/contracts/test/DaoWithTimeMachine.sol",
  "compiler": {
    "name": "solc",
    "version": "0.5.14+commit.01f1aaa4.Emscripten.clang"
  },
  "schemaVersion": "3.0.19",
  "updatedAt": "2019-12-26T04:22:06.029Z",
  "devdoc": {
    "methods": {
      "addProposal(string,uint8,uint256,address,uint256,bytes)": {
        "details": "Add new proposal     * Requirements: - sender address should be whitelisted - contract should not be in paused state - proposal type should allowed proposalType - destination address should not be a valid target address - sent ether value should be consistent with value parameter ",
        "params": {
          "data": "Signed transaction data",
          "destination": "Transaction target address",
          "details": "Proposal details",
          "duration": "Proposal voting duration in days",
          "proposalType": "Proposal type",
          "value": "Transaction value in ethers"
        }
      },
      "cancelProposal(uint256)": {
        "details": "Cancelling of the proposal     * Requirements: - proposal should exists - sender address should be a proposer address - proposal should not be in a passed state - proposal should not be in a processed state - proposal should not be cancelled - proposal has no votes",
        "params": {
          "proposalId": "Proposal Id"
        }
      },
      "getActiveProposalsIds()": {
        "details": "Get all active proposals Ids",
        "return": "uint256[] List of proposals Ids"
      },
      "getActiveProposalsIds(uint8)": {
        "details": "Get all active proposals Ids filtered by proposal type     * Requirements: - proposal type should be valid  ",
        "return": "uint256[] List of proposals Ids"
      },
      "getProposal(uint256)": {
        "details": "Get proposal by Id (index)     * Requirements: - proposal should exists  ",
        "params": {
          "proposalId": "Proposal Id"
        },
        "return": "string Proposal detailsProposalType Proposal typeuint256 Proposal duration in daysuint256 Proposal end datebool[3] Proposal status flagsaddress Transaction target addressuint256 Ether value to send with transactionbytes Transaction databool Transaction execution statusbool Transaction execution result status"
      },
      "getVote(uint256)": {
        "details": "Get own vote from proposal voting      * Requirements: - proposal should exists - vote should be exist ",
        "params": {
          "proposalId": "Proposal Id"
        },
        "return": "VoteType Type of the voteuint256 Original vote value sentuint256 Acceptes vote valuebool Reveked state of the vote"
      },
      "initialize(address)": {
        "details": "Contract initializer",
        "params": {
          "token": "Address of the service token"
        }
      },
      "isVotingPassed(uint256)": {
        "details": "Check is voting is passed      * Requirements: - proposal should exists",
        "params": {
          "proposalId": "Proposal Id"
        },
        "return": "uint256 Voting result"
      },
      "pause()": {
        "details": "Called by a pauser to pause, triggers stopped state."
      },
      "paused()": {
        "details": "Returns true if the contract is paused, and false otherwise."
      },
      "processProposal(uint256)": {
        "details": "Process proposal     * Requirements: - proposal should exists - contract not paused - sender address should be a proposer address - proposal should not be processed - proposal should not be cancelled - proposal finished",
        "params": {
          "proposalId": "Proposal Id"
        }
      },
      "replacePauser(address)": {
        "details": "Replace pauser to the new one      * Requirements: - sender address should be a pauser address ",
        "params": {
          "account": "New DAO pauser address"
        }
      },
      "replaceWhitelistAdmin(address)": {
        "details": "Replace whitelist admin with new one      * Requirements: - sender address should be a whitelisted admin address ",
        "params": {
          "account": "New DAO whitelist admin address"
        }
      },
      "revokeVote(uint256)": {
        "details": "Revoke of the placed vote     * Requirements: - proposal should exists - proposal should not be in a passed state - proposal should not be cancelled - vote should not been already revoked",
        "params": {
          "proposalId": "Proposal Id"
        }
      },
      "tokensBalance()": {
        "details": "Withdraw released tokens",
        "return": "uint256 Balance of tokens that available to withdraw"
      },
      "unpause()": {
        "details": "Called by a pauser to unpause, returns to normal state."
      },
      "vote(uint256,uint8,uint256)": {
        "details": "Vote for the proposal     * Requirements: - proposal should exists - contract not paused - not a reentrant call - proposal should not be in a passed state - proposal should not be cancelled - sender tokens balance should be sufficient - tokens allowance for the DAO address should be sufficient - voting not expired (does not exceed voting time frame)",
        "params": {
          "proposalId": "Proposal Id",
          "voteType": "Type of the vote (Yes/No)",
          "votes": "Amount of service token to use in the vote"
        }
      },
      "votingResult(uint256)": {
        "details": "Get a result of the proposal voting     * Requirements: - proposal should exists",
        "params": {
          "proposalId": "Proposal Id"
        },
        "return": "uint256 'Yes' variant voting balanceuint256 'No' variant voting balance"
      },
      "withdrawTokens()": {
        "details": "Withdraw released tokens     * Requirements: - sender has positive released tokens balance - call not reentrant     "
      }
    }
  },
  "userdoc": {
    "methods": {}
  }
}