{
  "contractName": "Test",
  "abi": [
    {
      "constant": true,
      "inputs": [],
      "name": "aaa",
      "outputs": [
        {
          "internalType": "bool",
          "name": "",
          "type": "bool"
        }
      ],
      "payable": false,
      "stateMutability": "view",
      "type": "function"
    },
    {
      "constant": false,
      "inputs": [
        {
          "internalType": "bool",
          "name": "a",
          "type": "bool"
        }
      ],
      "name": "setA",
      "outputs": [],
      "payable": false,
      "stateMutability": "nonpayable",
      "type": "function"
    }
  ],
  "bytecode": "0x608060405234801561001057600080fd5b5060c08061001f6000396000f3fe6080604052348015600f57600080fd5b506004361060325760003560e01c8063749524f4146037578063937c0d0a146055575b600080fd5b605360048036036020811015604b57600080fd5b50351515606f565b005b605b6082565b604080519115158252519081900360200190f35b6000805460ff1916911515919091179055565b60005460ff168156fea265627a7a723158204ed03d8e5f2fc560b88813be0cabdd8aba006c3ced908850fd6463f9c6abd52464736f6c634300050e0032",
  "source": "pragma solidity 0.5.14;\n\ncontract Test {\n\n    bool public aaa;\n\n    function setA(bool a) external {\n        aaa = a;\n    }\n}",
  "sourcePath": "/home/kostysh/dev/dao/packages/contracts/contracts/test/Test.sol",
  "compiler": {
    "name": "solc",
    "version": "0.5.14+commit.01f1aaa4.Emscripten.clang"
  },
  "schemaVersion": "3.0.19",
  "updatedAt": "2019-12-26T17:09:45.709Z",
  "devdoc": {
    "methods": {}
  },
  "userdoc": {
    "methods": {}
  }
}