{
  "contractName": "VoteReentracyTest",
  "abi": [
    {
      "payable": false,
      "stateMutability": "nonpayable",
      "type": "fallback"
    },
    {
      "constant": false,
      "inputs": [
        {
          "internalType": "address",
          "name": "dao",
          "type": "address"
        },
        {
          "internalType": "address",
          "name": "token",
          "type": "address"
        },
        {
          "internalType": "uint256",
          "name": "proposalId",
          "type": "uint256"
        },
        {
          "internalType": "uint8",
          "name": "voteType",
          "type": "uint8"
        },
        {
          "internalType": "uint256",
          "name": "votes",
          "type": "uint256"
        }
      ],
      "name": "vote",
      "outputs": [],
      "payable": false,
      "stateMutability": "nonpayable",
      "type": "function"
    }
  ],
  "bytecode": "0x608060405234801561001057600080fd5b50610386806100206000396000f3fe608060405234801561001057600080fd5b506004361061002b5760003560e01c8063b8e714e714610138575b60015460008054600480546040805163095ea7b360e01b81526001600160a01b0394851693810193909352602483019190915251919093169263095ea7b39260448083019360209390929083900390910190829087803b15801561008e57600080fd5b505af11580156100a2573d6000803e3d6000fd5b505050506040513d60208110156100b857600080fd5b5050600080546002546003546004805460408051637290128d60e11b81529283019490945260ff9092166024820152604481019190915290516001600160a01b039092169263e520251a9260648084019382900301818387803b15801561011e57600080fd5b505af1158015610132573d6000803e3d6000fd5b50505050005b61017d600480360360a081101561014e57600080fd5b506001600160a01b03813581169160208101359091169060408101359060ff606082013516906080013561017f565b005b600080546001600160a01b03199081166001600160a01b038881169190911780845560018054909316888316179283905560028790556003805460ff191660ff881617905560048581556040805163095ea7b360e01b8152928416918301919091526024820186905251929091169263095ea7b3926044808401936020939083900390910190829087803b15801561021657600080fd5b505af115801561022a573d6000803e3d6000fd5b505050506040513d602081101561024057600080fd5b5050600080546002546003546004805460408051637290128d60e11b81529283019490945260ff9092166024820152604481019190915290516001600160a01b039092169263e520251a9260648084019382900301818387803b1580156102a657600080fd5b505af11580156102ba573d6000803e3d6000fd5b5050604051600092503091508281818181865af19150503d80600081146102fd576040519150601f19603f3d011682016040523d82523d6000602084013e610302565b606091505b5050905080610349576040805162461bcd60e51b815260206004820152600e60248201526d14915153951490539517d0d0531360921b604482015290519081900360640190fd5b50505050505056fea265627a7a7231582017c89478c1249b19c014def0599432d47462917b56ab8edd6448719f5422ec6964736f6c634300050e0032",
  "source": "pragma solidity 0.5.14;\n\nimport \"openzeppelin-solidity/contracts/token/ERC20/IERC20.sol\";\n\n\ncontract IDao {\n\n    function vote(\n        uint256 proposalId,\n        uint8 voteType, \n        uint256 votes\n    ) external;\n}\n\ncontract VoteReentracyTest {\n    IDao private target;\n    IERC20 private _token;\n    uint256 private _proposalId;\n    uint8 private _voteType;\n    uint256 private _votes;\n\n    function() external {\n        _token.approve(address(target), _votes);\n        target.vote(_proposalId, _voteType, _votes);\n    }\n\n    function vote(\n        address dao,\n        address token,\n        uint256 proposalId,\n        uint8 voteType, \n        uint256 votes\n    ) \n        external\n    {\n        target = IDao(dao);\n        _token = IERC20(token);\n        _proposalId = proposalId;\n        _voteType = voteType;\n        _votes = votes;\n\n        _token.approve(address(target), _votes);\n        target.vote(_proposalId, _voteType, _votes);\n\n        (bool success, ) = address(this).call(\"\");\n\n        if (!success) {\n            revert(\"REENTRANT_CALL\");\n        }\n    }\n}",
  "sourcePath": "/home/kostysh/dev/dao/packages/contracts/contracts/test/ReentracyTests.sol",
  "compiler": {
    "name": "solc",
    "version": "0.5.14+commit.01f1aaa4.Emscripten.clang"
  },
  "schemaVersion": "3.0.19",
  "updatedAt": "2019-12-27T18:39:43.770Z",
  "devdoc": {
    "methods": {}
  },
  "userdoc": {
    "methods": {}
  }
}